:10C200000000042001C30000C1D100207BC3000056
:10C21000C1D10020C1D10020C1D100200000000008
:10C22000000000000000000000000000C1D100205C
:10C23000C1D1002000000000C1D10020C1D10020E8
:10C2400097AD0020C1D10020C1D100202BAE00202D
:10C25000BFAD0020C1D100203DCF0020C1D10020C2
:10C26000C1D10020C1D10020C1D10020C1D1002006
:10C27000C1D10020C1D10020C1D10020C1D10020F6
:10C28000C1D1002045C90020C1D10020C1D100206A
:10C29000C1D10020C1D10020C1D10020C1D10020D6
:10C2A000C1D10020C1D10020C1D10020C1D10020C6
:10C2B000C1D10020C1D1002000000000000000001A
:10C2C000C1D10020C1D10020C1D10020E3AD0020A8
:10C2D000C1D10020C1D10020C1D1002093AD0020E8
:10C2E000C1D10020C1D10020C1D100200000000038
:10C2F00000000000C1D10020000000009BAD002024
:10C30000124880F3088812481249016000F036F89C
:10C31000114812490022814201D004C0FBE71048B5
:10C320001049114A814202D008CA08C0FAE70F48F2
:10C330004FF47001026842EA01020260BFF34F8FBE
:10C34000BFF36F8F00F014F800DE0000000004203F
:10C3500008ED00E000C2000070200120741F0220E0
:10C36000002001207020012058B9010088ED00E074
:10C370004AF63B7CC2F2000C6047FEE780B56F4690
:10C3800008480949094A814202D008CA08C0FAE7A8
:10C3900062B607484FF00001016041600548016046
:10C3A000416080BD00200020E4F50020B8C30000FB
:08C3B00020ED00E010ED00E0BB
:10C3B800F0B503AF2DE9000782B0044690F82800D5
:10C3C800884644F21819C4F20009DFE800F003E0D7
:10C3D800F4201800D4E900602546D4E90213226944
:10C3E800C4E90B60C4E905600026C4E90D13E263E3
:10C3F800C4E90713626205F8406F2ABB2BE02646A2
:10C4080016F8400FA0B1032800F0A38005E02546E8
:10C4180015F8400F98B1032834D049F6202049F682
:10C428006432C0F20100C0F2010223210BF074FE55
:10C43800216BD4E90EA5A28E002D69D171E0206B85
:10C44800D4E90E32A18E32B1B3F1005F31D3D618E0
:10C45800360F022E2DD844F2345692B2C4F200069A
:10C4680033617261306088B270600020C9F80000E2
:10C478004020C9F8EC014FF6F860CFF6FF700121B3
:10C4880049F80010D8F8001040F6F440C2F2020053
:10C498000BF0CEF8D9F8000010B10121032001E01B
:10C4A80003210420297084F8281002B0BDE8000791
:10C4B800F0BD012084F8400009F0C1FC40F21200F0
:10C4C800C0F2000027F81A0CA7F11A000BF0E1FCE3
:10C4D80009F008FD04F1440A4FF4007150460DF0CC
:10C4E80051FA656AB5F5007F5CD8216A50462A463C
:10C4F8000DF04CFA0020264606F8400FA6F12C0253
:10C50800A6F1140346F8045C07CA83E8070445B19A
:10C518000220BAF1005F28D305EB0A031B0F022B98
:10C5280023D844F23450ABB2C4F20000C0F810A0D3
:10C538004361016091B241600020C9F800004020C9
:10C54800C9F8EC014FF6F860CFF6FF70012149F801
:10C558000010D8F8001040F6F440C2F202000BF0C8
:10C5680067F8D9F8000040B103200121317084F840
:10C57800281002B0BDE80007F0BD03200421307088
:10C58800042084F8281002B0BDE80007F0BD49F681
:10C59800202049F64432C0F20100C0F201022321F2
:10C5A8000BF0BAFD49F654322846C0F201024FF4A6
:10C5B80000710CF06BFCFEDEF0B503AF2DE900074F
:10C5C80082B0044690F8280088464FF21819C4F241
:10C5D8000209DFE800F003E0F4201800D4E9006065
:10C5E8002546D4E902132269C4E90B60C4E9056051
:10C5F8000026C4E90D13E263C4E90713626205F873
:10C60800406F2ABB2BE0264616F8400FA0B103283E
:10C6180000F0A38005E0254615F8400F98B10328DF
:10C6280034D049F6202049F66432C0F20100C0F245
:10C63800010223210BF070FD216BD4E90EA5A28E17
:10C64800002D69D171E0206BD4E90E32A18E32B190
:10C65800B3F1005F31D3D618360F022E2DD84FF222
:10C66800345692B2C4F2020633617261306088B205
:10C6780070600020C9F800004020C9F8EC014FF6AE
:10C68800F860CFF6FF70012149F80010D8F80010C3
:10C6980040F6FC40C2F202000AF0CAFFD9F80000D6
:10C6A80010B10121032001E003210420297084F83E
:10C6B800281002B0BDE80007F0BD012084F8400052
:10C6C80009F0BDFB40F21200C0F2000027F81A0C76
:10C6D800A7F11A000BF0DDFB09F004FC04F1440A91
:10C6E8004FF4007150460DF04DF9656AB5F5007FBD
:10C6F8005CD8216A50462A460DF048F900202646A3
:10C7080006F8400FA6F12C02A6F1140346F8045CC3
:10C7180007CA83E8070445B10220BAF1005F28D3AD
:10C7280005EB0A031B0F022B23D84FF23450ABB290
:10C73800C4F20200C0F810A04361016091B24160E8
:10C748000020C9F800004020C9F8EC014FF6F86055
:10C75800CFF6FF70012149F80010D8F8001040F614
:10C76800FC40C2F202000AF063FFD9F8000040B1B1
:10C7780003200121317084F8281002B0BDE80007B9
:10C78800F0BD032004213070042084F8281002B082
:10C79800BDE80007F0BD49F6202049F64432C0F252
:10C7A8000100C0F2010223210BF0B6FC49F6543215
:10C7B8002846C0F201024FF400710CF067FBFEDE60
:10C7C800F0B503AF2DE9000F81B08246407A894663
:10C7D800DFE810F005009001BC0189005D009AF8BF
:10C7E8000810DAF80400CAF80000DFE801F0039D39
:10C7F800B7D19800022180F87D100021DAF80000F6
:10C8080080F87F10DAF8000080F88010DAF800006D
:10C8180080F87C10DAF80000416C81B100EBC101AE
:10C8280000F11C0501F1240455F8080F696809692D
:10C83800884705F10800A042F6D1DAF80000016A3D
:10C848004FF0000B00294CD000F11809002609EB25
:10C85800410803E00136C14500F0498109F802BBEF
:10C86800DAF80000416C0029F4D000EBC10100F1B6
:10C878001C0501F1240455F8080F002269684B6A69
:10C888003146984705F10800A042F4D1E2E79AF84A
:10C898001000002840F0398147F200004FF0000BEB
:10C8A800C4F202000126C0F800B5DAF800008AF8E0
:10C8B800106080F87DB0DAF80000416C002900F0C3
:10C8C8000F8100EBC10100F11C0501F1240455F8AA
:10C8D800080F6968CA680021904705F10800A0425E
:10C8E800F5D10126FCE0D04618F8180FDFE810F063
:10C8F800050018012E0114000800DAF80C004EE0BB
:10C90800554615F8240F002800F08C80032840F0C5
:10C918001281DAF8206089E0DAF81C4056E000213C
:10C928007E30CAE90301B7E7012680F87F60DAF8AC
:10C938000000416C002900F0D18000EBC10100F13A
:10C948001C0501F1240455F8080F6968CA6901211A
:10C95800904705F10800A042F5D1BFE04FF0000B69
:10C9680080F87FB0DAF80000416C0029B9D000EBFC
:10C97800C10100F11C0501F1240455F8080F69688C
:10C98800CA690021904705F10800A042F5D1A8E73F
:10C998000021D04608F8181F7E3048F80C0C47F2E2
:10C9A8000001C4F20201CAE904010AF06BF8DAF8DE
:10C9B80014000121C0F800154FF48001DAF81400C2
:10C9C800C0F80413DAF81440CAF81C4040F668703E
:10C9D8004946C2F202000AF02BFED4F80004000512
:10C9E80001D4032037E0DAF814004FF40061C0F8EE
:10C9F80000140AF05BF84EF204108021CEF2000019
:10CA0800554601600121DAF81400C0F24011C0F85F
:10CA18000413002005F8240F55F8140C461C45F89B
:10CA2800086C01E0DAF81C60CAF8206040F6607013
:10CA38004946C2F202000AF0FBFD40F23840C4F257
:10CA48000000006880070CD430460AF05CFDC8B1CD
:10CA580003202870042088F800004FF0010B0326FB
:10CA68003EE0DAF8140001218AF82410C0F8041511
:10CA780009F0E5F940F21B00C0F20000ADF8000033
:10CA880068460BE00120287009F0D9F940F21C0033
:10CA9800C0F2000027F81E0CA7F11E000BF0F9F9F0
:10CAA80009F020FADAF80000012602218AF8186055
:10CAB80080F87D10DAF80000416C79B100EBC10113
:10CAC80000F11C0501F1240455F8080F6968CA68CB
:10CAD8000121904705F10800A042F5D14FF0000B65
:10CAE8008AF80960584601B0BDE8000FF0BD4FF064
:10CAF800000BF6E649F6202049F6F432C0F20100B0
:10CB0800C0F2010223210BF007FB49F620204AF26C
:10CB1800DC02C0F20100C0F2010223210BF0FCFA92
:10CB280049F620204AF2CC02C0F20100C0F201020C
:10CB380023210BF0F1FA49F6202049F6C022C0F271
:10CB48000100C0F2010223210BF0E6FAFEDEF0B587
:10CB580003AF4DF804BD82B0044690F8380098B190
:10CB6800032840F0AE8094F83400C0B1032840F0A8
:10CB7800B380254615F8300F00287AD0032840F0F6
:10CB8800B680E66A306822E094E80D00002604F1D9
:10CB98000C0C103084F834608CE80D0002E004F1CD
:10CBA8000C030DCBC4E90623827812F07F022262BF
:10CBB80078D00022254605F8302F45F80C0C8078EF
:10CBC800264610F07F0046F8280F5BD0E662013851
:10CBD800082850D240F6DC62C2F2020202EBC00022
:10CBE8000AF026FD40F65C700121C2F202000268DC
:10CBF800BFF35F8F336847F21056C4F2020603F0A2
:10CC08001F03366801FA03F31A40B2FA82F233427C
:10CC18004FEA52124FEA420208BF012222B1022A09
:10CC28001CD1032603201BE0A26ABFF35F8F02F02A
:10CC38001F029140C94350E8002F0A4040E80023F2
:10CC4800002BF8D1BFF35F8F0126D4E90612206AC2
:10CC580084F8306008F0DDFC022002E001260120A3
:10CC68002E7084F8386084F8346002B05DF804BB34
:10CC7800F0BD606AA3E74AF614720821C0F2010207
:10CC88000BF07DFA09F0DBF840F22400C0F2000056
:10CC980027F8120CA7F112000BF0FBF809F022F9A3
:10CCA8000BF01DF909F0CBF840F22700C0F20000A4
:10CCB800ADF8040001A80BF0ECF809F013F90BF03B
:10CCC8000EF949F6202049F65852C0F20100C0F288
:10CCD800010223210BF020FA49F6202049F604220C
:10CCE800C0F20100C0F2010223210BF015FA49F647
:10CCF800202049F6D022C0F20100C0F2010223210F
:10CD08000BF00AFAF0B503AF4DF8048DADF5147DBC
:10CD18000446C07A0D46DFE810F00600FE00370131
:10CD280040003A00270061688022207A40F20856C5
:10CD38006072204600F80A2F4FF441722160C5F254
:10CD48000006097801F01F0320294FF0010138BFC0
:10CD5800042201FA03F393510023226884F85C3219
:10CD6800C4E9032061612FE094F86002002800F014
:10CD78008F80032800F09B8049F6202049F6743202
:10CD8800C0F20100C0F2010223210BF0C5F994F8AA
:10CD9800600290B103284ED004E094F85C0280B1A0
:10CDA80003281DD049F6202049F68432C0F201003C
:10CDB800C0F2010223210BF0AFF9D4E90412A069F3
:10CDC8002DE0D4E90320616949F674360023C0F2E6
:10CDD800010684F84030C4E90626C4E90830A16297
:10CDE80004F118002946FFF7E7FBC1B204294FF008
:10CDF800010208BF032284F85C2201D1032065E008
:10CE0800032940F09380637A2246002002F80C3F01
:10CE180084F8600201202168C4E90412A06149F67F
:10CE280074360023C0F2010684F84430C4E90716BA
:10CE3800C4E90932E06204F11C0629463046FFF7CE
:10CE4800BBFBC1B204294FF0010208BF032284F8DA
:10CE5800602201D1042039E003296ED14FF0000887
:10CE6800204600F80C8F01222168C4E9041002A9A9
:10CE7800A26130464FF411720CF0ECFBBDF80500CE
:10CE88009DF8071084F86082A4F8610284F86312A0
:10CE980004F11002002349F6743604F11C0C07CA89
:10CEA800C0F2010684F844308CE84700E36204F1DC
:10CEB8001C002946FFF780FBC1B204294FF001028C
:10CEC80008BF032284F8602207D10520E072012000
:10CED8000DF5147D5DF8048BF0BD032940D1206861
:10CEE80040F20851C5F20001012201F540710078B5
:10CEF800202800F01F003CBF40F20851C5F2000195
:10CF080002FA00F008600020217BE2720DF5147D22
:10CF18005DF8048BF0BD49F6202049F6FC52C0F2BA
:10CF28000100C0F2010223210BF0F6F88DF8080089
:10CF380049F60C60C0F2010005E08DF8080049F6DA
:10CF48001C60C0F201004AF2500300904AF214003B
:10CF580002AAC0F20100C0F201032B210BF02EF946
:10CF680007F8110C49F62C60C0F201004AF2500390
:10CF780000904AF21400A7F11102C0F20100C0F2B9
:10CF880001032B210BF01AF9FEDED4D4F0B503AF60
:10CF98004DF8048DADF5147D0446C07A0D46DFE8E2
:10CFA80010F00600FE00370140003A0027006168D3
:10CFB8008022207A40F208566072204600F80A2F34
:10CFC8004FF441722160C5F20006097801F01F0391
:10CFD80020294FF0010138BF042201FA03F39351CD
:10CFE8000023226884F85C32C4E9032061612FE0E1
:10CFF80094F86002002800F08F80032800F09B80DE
:10D0080049F6202049F67432C0F20100C0F201024C
:10D0180023210BF081F894F8600290B103284ED0D8
:10D0280004E094F85C0280B103281DD049F6202062
:10D0380049F68432C0F20100C0F2010223210BF04C
:10D048006BF8D4E90412A0692DE0D4E903206169E2
:10D0580049F674360023C0F2010684F84030C4E96A
:10D068000626C4E90830A16204F118002946FFF732
:10D078009FF9C1B204294FF0010208BF032284F8C6
:10D088005C2201D1032065E0032940F09380637A94
:10D098002246002002F80C3F84F860020120216833
:10D0A800C4E90412A06149F674360023C0F20106EF
:10D0B80084F84430C4E90716C4E90932E06204F18F
:10D0C8001C0629463046FFF773F9C1B204294FF010
:10D0D800010208BF032284F8602201D1042039E04C
:10D0E80003296ED14FF00008204600F80C8F01226A
:10D0F8002168C4E9041002A9A26130464FF41172F4
:10D108000CF0A8FABDF805009DF8071084F86082B5
:10D11800A4F8610284F8631204F11002002349F6AE
:10D12800743604F11C0C07CAC0F2010684F84430B6
:10D138008CE84700E36204F11C002946FFF738F940
:10D14800C1B204294FF0010208BF032284F860220B
:10D1580007D10520E07201200DF5147D5DF8048BE0
:10D16800F0BD032940D1206840F20851C5F2000102
:10D17800012201F540710078202800F01F003CBF13
:10D1880040F20851C5F2000102FA00F008600020E0
:10D19800217BE2720DF5147D5DF8048BF0BD49F634
:10D1A800202049F6FC52C0F20100C0F201022321FE
:10D1B8000AF0B2FF8DF8080049F60C60C0F20100D1
:10D1C80005E08DF8080049F61C60C0F201004AF23B
:10D1D800500300904AF2140002AAC0F20100C0F203
:10D1E80001032B210AF0EAFF07F8110C49F62C601D
:10D1F800C0F201004AF2500300904AF21400A7F16D
:10D208001102C0F20100C0F201032B210AF0D6FF7F
:10D21800FEDED4D4F0B503AF4DF804BD84B00446A7
:10D22800407B0E46DFE810F00600FA0041013600A8
:10D238003000270061684FF0000C208940F2085543
:10D248006081204621604FF4417200F80CCFC5F28E
:10D258000005097801F01F0320294FF0010138BFAC
:10D26800042201FA03F35351226884F860C2C4E926
:10D278000420A16125E094F86402002800F08E8063
:10D28800032800F09A800AE094F8640290B1032819
:10D2980055D004E094F8600280B103281DD049F607
:10D2A800202049F68432C0F20100C0F20102232195
:10D2B8000AF032FFD4E90512E06934E0D4E9042029
:10D2C800A16949F674350023C0F2010584F8443099
:10D2D800C4E90725C4E90930E16204F11C003146BC
:10D2E800FFF766F8C2B2042A4FF00103014608BFEF
:10D2F80003230120042A84F8603205D103216173D5
:10D3080004B05DF804BBF0BD032A40F09280A37A14
:10D318002246002002F8103F84F8640201202168A8
:10D32800C4E90512E06149F674350023C0F201052D
:10D3380084F84830C4E90815C4E90A32206304F1C6
:10D3480020003146FFF734F8C2B2042A4FF0010337
:10D35800014608BF03230120042A84F8643205D15A
:10D368000421617304B05DF804BBF0BD032A74D1D5
:10D3780000222068E17A254684F864224FF0010CE7
:10D3880017F8142C37F8163C05F8101F04F114018F
:10D3980081E82110A4F8653284F8672204F11402A8
:10D3A80049F674350023C0F2010507CA84F84830ED
:10D3B800C4E90805C4E90A31226304F120003146B2
:10D3C800FEF7F6FFC1B204294FF0010208BF03229D
:10D3D80084F8642206D101200521617304B05DF848
:10D3E80004BBF0BD03294CD1206840F20851C5F2B6
:10D3F800000101F5407201210078202800F01F008B
:10D408003CBF40F20852C5F2000201FA00F0106079
:10D418000020617304B05DF804BBF0BD49F620201C
:10D4280049F63C62C0F20100C0F2010223210AF071
:10D4380073FE49F64C604AF25003C0F20100A7F1AE
:10D44800130200904AF2140007F8131CC0F20100FE
:10D45800C0F201032B210AF0B1FE49F65C604AF2E2
:10D468005003C0F20100A7F1120200904AF2140022
:10D4780007F8121CC0F20100C0F201032B210AF0C8
:10D488009DFE07F8110C49F66C60C0F201004AF2E3
:10D49800500300904AF21400A7F11102C0F20100F3
:10D4A800C0F201032B210AF089FEFEDEF0B503AFBE
:10D4B8004DF804BD84B00446407B0E46DFE810F00A
:10D4C8000600FA00410136003000270061684FF07D
:10D4D800000C208940F208556081204621604FF4F5
:10D4E800417200F80CCFC5F20005097801F01F035E
:10D4F80020294FF0010138BF042201FA03F35351E8
:10D50800226884F860C2C4E90420A16125E094F887
:10D518006402002800F08E80032800F09A800AE058
:10D5280094F8640290B1032855D004E094F860029E
:10D5380080B103281DD049F6202049F68432C0F274
:10D548000100C0F2010223210AF0E6FDD4E9051228
:10D55800E06934E0D4E90420A16949F67435002370
:10D56800C0F2010584F84430C4E90725C4E909304C
:10D57800E16204F11C003146FFF71EF8C2B2042A2A
:10D588004FF00103014608BF03230120042A84F851
:10D59800603205D10321617304B05DF804BBF0BDAE
:10D5A800032A40F09280A37A2246002002F8103F16
:10D5B80084F8640201202168C4E90512E06149F693
:10D5C80074350023C0F2010584F84830C4E9081511
:10D5D800C4E90A32206304F120003146FEF7ECFF6B
:10D5E800C2B2042A4FF00103014608BF03230120F9
:10D5F800042A84F8643205D10421617304B05DF80B
:10D6080004BBF0BD032A74D100222068E17A2546C4
:10D6180084F864224FF0010C17F8142C37F8163CE4
:10D6280005F8101F04F1140181E82110A4F86532EF
:10D6380084F8672204F1140249F674350023C0F215
:10D64800010507CA84F84830C4E90805C4E90A3165
:10D65800226304F120003146FEF7AEFFC1B204296F
:10D668004FF0010208BF032284F8642206D101208A
:10D678000521617304B05DF804BBF0BD03294CD1EA
:10D68800206840F20851C5F2000101F540720121FD
:10D698000078202800F01F003CBF40F20852C5F275
:10D6A800000201FA00F010600020617304B05DF818
:10D6B80004BBF0BD49F6202049F63C62C0F20100E7
:10D6C800C0F2010223210AF027FD49F64C604AF214
:10D6D8005003C0F20100A7F1130200904AF21400AF
:10D6E80007F8131CC0F20100C0F201032B210AF055
:10D6F80065FD49F65C604AF25003C0F20100A7F1EB
:10D70800120200904AF2140007F8121CC0F201003D
:10D71800C0F201032B210AF051FD07F8110C49F65C
:10D728006C60C0F201004AF2500300904AF2140003
:10D73800A7F11102C0F20100C0F201032B210AF087
:10D748003DFDFEDEF0B503AF2DE9000F85B00446C0
:10D7580002904BF2446003A9C0F20100019001A8B5
:10D76800039004F1200000F0D3FF002840F0A680C9
:10D7780094F84E0040F2003B4EF2801940F2130A32
:10D7880040F21408411FC5F2000BCEF20009162919
:10D79800C0F2000AC0F2000880F0948094F84C00AF
:10D7A800002840D008F04BFBA7F11E0027F81EAC5C
:10D7B8000AF06FFB08F096FB44F200560020C4F212
:10D7C80000063060B06809F049F9306909F046F997
:10D7D800F06809F043F91020C9F8000008F02FFBA1
:10D7E800A7F11E0027F81E8C0AF053FB08F07AFBFD
:10D7F80094F84A005946202800F01F0038BF4FF01F
:10D80800A04101EB80000221C0F8001794F84B00FA
:10D81800202800F01F005A4638BF4FF0A04202EB04
:10D828008000C0F8001794F84D00002684F84C607A
:10D8380000283FD008F003FBA7F11E0027F81EAC14
:10D848000AF027FB08F04EFB4FF20055C4F2020520
:10D858002E60A86809F002F9286909F0FFF8E8685D
:10D8680009F0FCF84FF40040C9F8040008F0E7FAA2
:10D87800A7F11E0027F81E8C0AF00BFB08F032FBFC
:10D8880094F848005946202800F01F0038BF4FF090
:10D89800A04101EB80000221C0F8001794F849006C
:10D8A800202800F01F0038BF4FF0A04B0BEB800082
:10D8B800C0F80017002084F84D0015E005B0BDE859
:10D8C800000FF0BD033819280ED8DFE800F0142E39
:10D8D8000D0D0D0D0D0D0D0D0D0D0D0D0D0D0D0D70
:10D8E8000D0D0D0D0D0D484D002020724FF0FF302D
:10D8F800C4E90000E2E794F86600C11E04294AD290
:10D9080004F1640005F087FF94F864005946202864
:10D9180000F01F0038BF4FF0A04101EB800002214A
:10D92800C0F8001794F86500BAE794F86600C11EBD
:10D93800042937D204F1640005F038FF94F8640034
:10D948005946202800F01F0038BF4FF0A04101EBD6
:10D9580080000221C0F8001794F8650058E704F128
:10D96800500000F058FD19E7204610F8F21F04296E
:10D9780007D8CA1E022A02D319B904F1F10005F02A
:10D9880066FE94F88203042818D8C11E022910D212
:10D9980004F2823010E0002804BF04F1670005F0AB
:10D9A8003AFF87E7002804BF04F1670005F0FEFE90
:10D9B80039E718B904F2813005F07BFED4F8AC00E1
:10D9C80000281EBFC168D4F8B0008847D4F8B40056
:10D9D80000281EBFC168D4F8B8008847D4F8800072
:10D9E80000281EBFC168D4F884008847D4F888008E
:10D9F80000281EBFC168D4F88C008847606D0028D5
:10DA08001EBFC168A06D8847E06D00283FF4C6AE10
:10DA1800C168206E8847C1E6F0B503AF2DE9000F55
:10DA28009BB0834603904BF2446040F2014AC0F237
:10DA3800010047F23018029002A80490C0F2800A50
:10DA48009BF8E001C4F20208C0B1032840F0DE8070
:10DA58009BF8280004281FD0032838D1594611F80C
:10DA6800340F009102A9DFE810F00600E700290151
:10DA7800450174023A00DBF82C5027E10BF1C00590
:10DA88000BF5A871902228460BF0E4FD0020CBF896
:10DA980020508BF828001CE05D4615F8340FDFE8AD
:10DAA80010F0DE03C0000D0105001B009BF84000CC
:10DAB80098B3032800F06D8449F620204AF2BC028E
:10DAC800C0F20100C0F2010223210AF025FBDBF8B5
:10DAD8002050CBF82450F2E002A900F07ABC5A4654
:10DAE80012F8560FDFE810F00500B300EA002E0028
:10DAF8001F0001929BF843C09BF842E09BF84190BD
:10DB08009BF840109BF83F509BF83E309BF83D60D7
:10DB18009BF83C20DBF8388023E1DBF83800CBF8B1
:10DB28003C0000F036BCD94619F8880FDFE800F051
:10DB38003AA5C6043E4752049BF89000002800F01E
:10DB4800138324E0D94619F86A0FDFE800F0038B45
:10DB5800B7071B000192DBF85880A8E15D460192E7
:10DB680015F8A10F002845D0032800F0DF8349F6F7
:10DB780020204AF23C12C0F20100C0F20102232127
:10DB88000AF0CAFA9BF87000002800F0D18149F623
:10DB980020204AF22C12C0F20100C0F20102232117
:10DBA8000AF0BAFADBF87080019228E15D4601922A
:10DBB80015F8BC0F18B303286AD102A96CE29BF8C8
:10DBC800990000B303286ED19BF89000002800F05C
:10DBD800EB8204E09BF89000002800F0098349F6E6
:10DBE80020204AF21C12C0F20100C0F201022321D7
:10DBF8000AF092FADBE925129BF8A30086E3DBE939
:10DC08002CE202A93EE2DBF89400CAE249F62020A1
:10DC18004AF24822C0F20100C0F2010223210AF0B0
:10DC28007BFA49F6202049F60442C0F20100C0F20E
:10DC3800010223210AF070FA49F6202049F69C4295
:10DC4800C0F20100C0F2010223210AF065FA49F688
:10DC5800202049F61442C0F20100C0F2010223213B
:10DC68000AF05AFA49F6202049F68C42C0F201001F
:10DC7800C0F2010223210AF04FFA49F6202049F6A2
:10DC8800BC42C0F20100C0F2010223210AF044FAAA
:10DC980049F620204AF24C12C0F20100C0F20102FB
:10DCA80023210AF039FA49F620204AF20C12C0F270
:10DCB8000100C0F2010223210AF02EFAFEDE002044
:10DCC800594601F8340F009141F8085CCBF8305000
:10DCD80095F88700002840F0B382002005F18C01F8
:10DCE8008BF84C008BF8400005F18600CBF8441007
:10DCF800CBF838000BF1380105A804AA07F006F89C
:10DD08009DF81400022800F046819DF8152000288F
:10DD180000F0148100205C4604F8560F9DF8166048
:10DD28009DF817309DF818509DF81CC09DF81BE011
:10DD38009DF81A909DF8191054F8268C04F8183C90
:10DD480004F8196C04F81A2C04F8175C44F81E8CB3
:10DD580004F8161C04F8159C04F814EC019404F853
:10DD680013CCDCB244EA052A5C4624F84CAF40F2F6
:10DD7800014AC0F2800A04F8063CD3B2DB0904F871
:10DD8800041CC9B26372C2F34113237202F01F0369
:10DD980041EA092104F8039C042B04F8055C04F803
:10DDA800076C04F8082C28BF042361805FFA8EF101
:10DDB80041EA0C21A18051B20029E371A67104F84F
:10DDC80002EC04F801CC5CD421890DF1140C226812
:10DDD800D9466368CDF81E2013AACDF82230ADF8D5
:10DDE800261013469CE8730073C30BF17400CBF83C
:10DDF800708092E87A007AC0002009F8880FDBF872
:10DE080082104346DBF87E000026BBF88620CBF85C
:10DE1800781089B2CBF86080CBF87400ABF87C201E
:10DE2800CBF8641033F88C2FCBF86820CBF86C60F3
:10DE380053F8880C884206D247F23018CBE92336CB
:10DE4800C4F202088FE1002A00F0B280D8F800304E
:10DE580047F23018CBE926310120CBF8A020002367
:10DE680000220021C4F202088BF8A4000026002931
:10DE7800CBF88C6000F0C780BEF1000F40F0D7806F
:10DE880054E105980026D9460DF14C0C09F86A6F43
:10DE9800D4E9001223898CE80700A9F10E0CADF82B
:10DEA800583049F8128C8CE8070029F8023CDBE965
:10DEB8001806BBF86810CBF85C80109008F10800D1
:10DEC800ADF8481010A91196D8E90023B8F88C507D
:10DED80098F8844005F072FE47F23018C4F2020840
:10DEE800F8B1B2B2002C134608BF2B46122D28BF3A
:10DEF8001346954228BF134699421E4638BF0E4620
:10DF08008B422FD9002D48D0B1B2B1FBF5F202FBFC
:10DF1800151249F67431C0F20101002A18BF002118
:10DF280022E0019A0021DBF85C008C30CBE91B0170
:10DF3800012048F8DC0C8BF8700076E10499002089
:10DF48008BF84100DBF830008BF840200830CBF824
:10DF58003C000BF13800FEF733FC002800F0698123
:10DF6800042012E20021CDB301230022CBE91B31AA
:10DF7800CBE91D2000208BF89030CBE91F650023EA
:10DF88000028CBF8843000F07981002900F04C811A
:10DF9800DBF8780083E10320F7E149F6404049F6D1
:10DFA8002442C0F20100C0F2010239210AF0B4F89B
:10DFB8000020012106914AF20C010990C0F20101EA
:10DFC800089049F67430C0F20100059149F6AC4159
:10DFD800079005A8C0F201010AF089F8012009910B
:10DFE80006904AF20C00C0F201000891059049F62B
:10DFF8007430C0F2010049F67C41079005A8C0F2D0
:10E0080001010AF074F8DBF89C10002900F08E80FA
:10E01800DBF8A020DBF898E0914238BF0A46891A5D
:10E028000EEB0206CBE92661BEF1000F7ED0DBF8CD
:10E038009C104FF0000C9BF8A43000248BF8A4C06F
:10E0480051B1DBF8A060DBF89840B14238BF0E460A
:10E05800891BA519CBE926515D46012005F8BCCFDF
:10E06800A5F1300C04998CE85100B4FA84F06B7077
:10E07800400955F85C3CA87003F18C0045E903E2BF
:10E0880045F8040C0020CBE92AE248F8080C0120E6
:10E0980048F8E40CC8F8D4A140F6D460C2F20200F3
:10E0A80009F0C6FA58F8080C002863D0DBE92A0101
:10E0B800D8F870638E4200F29480C8F8D00547F211
:10E0C8000470C4F20200066009F025FA002001215C
:10E0D800C8F800004FF6F860CFF6FF7048F8001057
:10E0E800D8F80000C0070CD1D8F80000C00704BF5A
:10E0F800D8F800005FEAC07003D1D8F80000C00764
:10E10800EED00024C8F8004009F006FAC8F87043B9
:10E118000122DBE91A018B198BF8BC20B042CBF83D
:10E128006C3003D8DBF86400834267D1DBF8600009
:10E1380041688B4271D850F8082BBBF87C10ADF8B9
:10E148001C1005A9DBE91D65CBE91623CDE905659A
:10E1580005F074FFDBF86010002801F18C0013D083
:10E168000021CBE92301019A012048F8DC0C8BF847
:10E1780090005AE058F8300C18B307F060FE40F2EF
:10E188002800C0F2000025E091F88A2062B391F8D7
:10E19800841000228BF899208BF89810CBF8940003
:10E1A800019A0021CBE92301012048F8E00CDBF8B3
:10E1B80060108BF899008BF89000002081F88A0095
:10E1C80033E0D8F82C0020B307F039FE40F22900DC
:10E1D800C0F20000ADF8140005A809F05AFE07F0D7
:10E1E80081FE012028701FE00021019ACBE923015C
:10E1F800012048F8E00C8BF8900016E0DBE9231EBC
:10E20800DBF8942000260029CBF88C607FF434AE2C
:10E21800F9E6032028700420B2E049F6CC421846FB
:10E22800C0F201020AF032FE019A012089F80000CA
:10E238001070DBF8305095F8870000283FF44DAD9A
:10E2480001205D4605F8340F00212B2255F8100CEB
:10E25800297005A945F8080C681C0BF097FBDBF83A
:10E268002C00CBF8300090F88710002940F0BD80D2
:10E278000120DBF824508BF8340020E5DBF8781017
:10E2880000296ED0DBF87C00002867D0DBF88020FE
:10E29800904238BF0246831A8818CBE91E039BF8C0
:10E2A800903000268BF8906078B1DBF87C504DB147
:10E2B800DBF88060B54238BF2E46AD1B8419CBE928
:10E2C8001E450CE00020CBF87800DBF86C600020DD
:10E2D800002E1EBFDBE91C56CBF870002846002430
:10E2E8005D4605F8A14F0124A5F10D0C45F8190C60
:10E2F800B0FA80F06B7055F8453C400945F81D4C64
:10E308008C3345F8156CA8708CE80E008BF8A000CB
:10E31800002048F8080C9BF8A0008000C0B2C8F89C
:10E32800D000002007F075F9C8F8D4A104A9284640
:10E3380007F035F9C0B20328014618BF012129703A
:10E348001DD002287FF470AF0BF1840207CA0023A6
:10E358000028CBF884307FF418AE8FE70020CBF884
:10E368007800DBF86C0000283FF45EAFDBE91C1294
:10E378000020CBF8700000297FF40AAE54E7032090
:10E38800019989F800000870052000990870032099
:10E3980037E00BF13C0004A907F01EF8C1B20122D6
:10E3A800052908BF032205298BF8402026D0002123
:10E3B8008BF840008BF841101E22DBF8301001F179
:10E3C8000800CBF83C000BF1420013A90BF0DEFA71
:10E3D80004990BF13800FEF7F3F968B9DBF830005F
:10E3E80090F8871000293FF443AF863000218BF85E
:10E3F8004010CBE90E00CCE7042000E00320287091
:10E40800042003218BF828008BF8E0111BB0BDE82D
:10E41800000FF0BD7047F0B503AF4DF804BD82B0F2
:10E428000446007840F2003500F01E01C5F20005F0
:10E43800142950D0C11E112980F0A78007F0FFFCD5
:10E4480040F21300C0F2000027F8120CA7F11200E6
:10E4580009F01FFD07F046FD4FF200560020C4F2F8
:10E4680002063060B06808F0F9FA306908F0F6FA88
:10E47800F06808F0F3FA4EF280104FF40041CEF243
:10E488000000416007F0DBFC40F21400C0F200001D
:10E4980027F8120CA7F1120009F0FBFC07F022FD87
:10E4A800E0782946202800F01F0038BF4FF0A0412F
:10E4B80001EB80000221C0F80017201D00782946D2
:10E4C800202800F01F0038BF4FF0A04101EB80006A
:10E4D8000221C0F8001794F8700200F01E011429F8
:10E4E8004FD0C11E112980F0938007F0A8FC40F29C
:10E4F8001300C0F2000027F8120CA7F1120009F06F
:10E50800C8FC07F0EFFC44F200560020C4F20006F5
:10E518003060B06808F0A2FA306908F09FFAF06835
:10E5280008F09CFA4EF280101021CEF20000016033
:10E5380007F085FC40F21400C0F2000027F8120C26
:10E54800A7F1120009F0A5FC07F0CCFC94F87302BF
:10E558002946202800F01F0038BF4FF0A04101EBEA
:10E5680080000221C0F8001704F51D7000782028EB
:10E5780000F01F0038BF4FF0A04505EB8000C0F841
:10E58800001702B05DF804BBF0BD0028A3D107F066
:10E5980056FC40F21300C0F2000027F8120CA7F155
:10E5A800120009F076FC07F09DFC4FF2005600209F
:10E5B800C4F202063060B06808F050FA306908F01A
:10E5C8004DFAF06808F04AFA4EF280104FF4004114
:10E5D800CEF20000416007F032FC40F21400C0F2B5
:10E5E800000027F8120CA7F1120009F052FC07F0FE
:10E5F80079FC60782946202800F01F0038BF4FF0CA
:10E60800A04101EB80000221C0F80017A01C55E7CB
:10E618000028B6D107F013FC40F21300C0F2000046
:10E6280027F8120CA7F1120009F033FC07F05AFC86
:10E6380044F200560020C4F200063060B06808F0CA
:10E648000DFA306908F00AFAF06808F007FA4EF295
:10E6580080101021CEF20000016007F0F0FB40F2BC
:10E668001400C0F2000027F8120CA7F1120009F0FC
:10E6780010FC07F037FC94F871022946202800F0B6
:10E688001F0038BF4FF0A04101EB80000221C0F805
:10E69800001704F2722069E7704700784AF258229E
:10E6A8000B464AF26421C0F20101C0F2010251F89E
:10E6B800201052F8202018460AF05FBB4AF29C024C
:10E6C8000B464AF2AA010078C0F20102C0F2010129
:10E6D800002808BF11464FF00802184608BF0E224E
:10E6E8000AF04BBB80B56F4682B001904AF2FC003D
:10E6F8000A464AF2F401C0F2010001AB009010464C
:10E70800C0F2010104220AF03CFB02B080BDD4D45F
:10E71800F0B503AF2DE9000FADF5577D824600F146
:10E72800580590F82E00894640F2085849F6743B7F
:10E73800C5F20008C0F2010BCDF81090DFE810F028
:10E748001D006B0536063401F9019201C00166020D
:10E7580075028502E500EF009502D501A4025F1558
:10E76800F900C902B402D3020801E8021E014607F3
:10E77800CE00E501C0003209120A0020544624F8F0
:10E788002C0F54F8080C44F8140C40F24060C4F202
:10E7980000000068C00709D041F20431C1F200014D
:10E7A800086800F00700072800F06C8542F28846E8
:10E7B8004EF2FC70C2F2010630440121D0E84F2F1E
:10E7C800002A40F01485C0E8421F002AF6D13046DE
:10E7D8004EF2FC71BFF35F8F0BF0D6F805A8CAF8AC
:10E7E8001C60039500250126CDF815508DF814609E
:10E7F800ADF8195008F069FB40F61C2140F20330CF
:10E80800C5F20001C8F8F80408604FF44070C8F871
:10E8180050028020C8F804632021C8F804034FF28E
:10E828005450C4F202004FF0FF3240F84C1C27212C
:10E8380040F8481C162140F8441C072140F8541C95
:10E848004FF08051056040F8301C4FF6B451CFF6B8
:10E85800FF71C56642504EF20410CEF200004FF42C
:10E868000041C0F880110160504600F8465F039DE2
:10E8780040F8164C029040F8124CA2E00022CAF868
:10E88800BC12AAF8C0220AF15400CAF84C100AF2C5
:10E89800C12500238AF85D20EF228AF861308AF8C2
:10E8A8005C20CAF858104946FEF700FE00284FF0D1
:10E8B800010118BF0321297000F05182032087E26B
:10E8C800544614F84C0FDFE810F0050024057105D4
:10E8D8009507B707DAE90D6500F068BF9AF89D0259
:10E8E8000AF130060AF29D24002800F04C82032821
:10E8F80000F0888649F6202049F62C72C0F2010003
:10E90800C0F20102232109F007FC544614F83A0F1B
:10E91800DFE810F066128C044C0577120213544697
:10E9280014F83A0FDFE810F0C512D6004205D612E7
:10E938006413544614F8381FA4F10800DFE811F0F6
:10E948000500BE0136059B14D814006802F088BC87
:10E95800544614F8400F002800F01B82032840F0AA
:10E96800B784554615F83C0F002800F04A82032862
:10E9780040F0E584DAF8386002F0B1BE544614F885
:10E98800480FA4F11806002800F00782032800F0B9
:10E99800FB8549F6202049F6BC52C0F20100C0F2BE
:10E9A8000102232109F0B8FB514611F8460F0291E4
:10E9B800DFE810F00700A404FC0448009C0A3102B8
:10E9C80046022E4607F03BFA40F20D00C0F2000066
:10E9D800ADF8140005A809F05CFA07F083FA4020A6
:10E9E8004FF40051C8F800000320C8F810020622AE
:10E9F800C8F8001340F61C21C5F20001886140F2F6
:10EA080001104FF25451AAF83C004FF00040C4F2F4
:10EA18000201CAF8380000208AF83E000A60DAF8D5
:10EA2800382041F8302C9AF83E20CA6601220A6044
:10EA380042F60652514621F8442F0C46496004F824
:10EA48000C0F1BE7544614F8500FDFE810F00700CE
:10EA58009904AF0442039401B801AF02DAF84810F0
:10EA68002E460BE7544614F83A0FDFE810F005007D
:10EA7800DF039F04160055109AF83800DAF83410AE
:10EA88000022CAF840108AF8492040F6EF42AAF856
:10EA980044208AF83900CAF830100AF13C00494687
:10EAA800FEF704FD002800F0998103202070012062
:10EAB80005218AF82E100DF5577DBDE8000FF0BD31
:10EAC800544614F83A0FDFE810F0E20F050071041D
:10EAD800F30F821049F6202049F6AC52C0F201002B
:10EAE800C0F20102232109F017FB544614F83C0F29
:10EAF800DFE810F00500A7035C04C8125213BAF847
:10EB08003810DAF8300002F0B0BA564616F8430F5B
:10EB1800A6F11304DFE810F0070008044A04BA015C
:10EB2800C501CE01E101DAE90E239AF8401000F0A0
:10EB380089BD514611F8460F0291DFE810F0070031
:10EB4800DF033704E1012D0DF10106022E4607F01F
:10EB580076F940F20D00C0F20000ADF84403D1A8E8
:10EB680009F097F907F0BEF94FF480704FF480511F
:10EB7800C8F800000320C8F818020622C8F80010D8
:10EB880044F25451C8F8280240F20110AAF83C0097
:10EB98004FF00040CAF838000020C4F200018AF89B
:10EBA8003E000A60DAF8382041F8302C9AF83E2006
:10EBB800CA6601220A6040F60842514621F8442FED
:10EBC8000C46496004F80C0F0022CAF8BC12AAF8D7
:10EBD800C0220AF15400CAF84C100AF2C1250023D9
:10EBE8008AF85D20EF228AF861308AF85C20CAF83A
:10EBF80058104946FEF70EFB00284FF0010118BFD8
:10EC08000321297000F0F08103202BE2544614F808
:10EC1800400FDFE810F005002103CB03BA0F4B10BB
:10EC28002E46DAF8345001F0A2BF544614F83C0FCF
:10EC3800DFE810F005000703BC031710A110BAF8AD
:10EC48003810DAF8300001F0FFBF544614F83A0FD4
:10EC5800DFE810F005000D03AC036C10F9109AF80A
:10EC68003800DAF8341002F054B8544614F8400F5B
:10EC7800DFE810F00500F2029C039C112D122E46CD
:10EC8800DAF8345002F084B9544614F83A0FDFE841
:10EC980010F00500EE028D035E12D6129AF83800C5
:10ECA800DAF8341002F046BA544614F8380FDFE8A0
:10ECB80010F0E81305007D03F513381449F62020F9
:10ECC80049F6DC52C0F20100C0F20102232109F02A
:10ECD80023FA544614F8380FDFE810F049130F00F0
:10ECE800680356139E13544614F8380FDFE810F0E3
:10ECF8004E1405005E035B14A31449F6202049F660
:10ED0800CC52C0F20100C0F20102232109F004FA3A
:10ED1800514611F8B40F002843D0032840F0E3828D
:10ED28005446039114F8B00F00286ED0032840F021
:10ED38001183D04618F8AC0F002800F06981032829
:10ED480040F01383564616F8A80F002800F0B68145
:10ED5800032840F02083DAF8A450286832E3002022
:10ED680040F22F518AF861003546DAF84C00AAF8CB
:10ED78005C10CAF858000AF154004946FEF796FBA1
:10ED880098B1042024E09AF89C02DAF8981200F06E
:10ED98002FBCDAF8300002F095BCDAF8400000F039
:10EDA800DBBBDAF830B000F059BD002030218AF81A
:10EDB8006100DAF84C00AAF85C10CAF858000AF1A9
:10EDC80054004946FEF772FB002800F0E480052055
:10EDD800207002980321017000F097BD0B210020DC
:10EDE8008AF8501001219AF83920CAE91500CAF8A2
:10EDF8005C00CAE91201CAE90F018AF8442001F04F
:10EE08002DBEDAF8340002F064BCDAE91EB6DAF88E
:10EE1800809000F036BD0395554615F85F0FA5F1B3
:10EE28001304DFE810F007008102C30264016E01D9
:10EE38004E017601DAE915169AF85C2000F076BFE3
:10EE4800564616F8500FDFE810F01D00B202B10266
:10EE580085089908AC08BE08D108E308F60808092F
:10EE68001B092D09400952096409760988099A097C
:10EE7800AC09BE09D009E209F409060A180A2A0AE7
:10EE88003C0A5B0ADAF8480001F05AB80AF1440073
:10EE98004946FDF737FFC00700F0C080032000F0A7
:10EEA80052BD9AF89402002800F0BC80032800F0B4
:10EEB800F58307E09AF89802002800F0B880032844
:10EEC80000F0158449F6202049F68432C0F201008A
:10EED800C0F20102232109F01FF99AF894020028D0
:10EEE80000F0AA80032800F0288449F6202049F67B
:10EEF8007432C0F20100C0F20102232109F00CF9BA
:10EF0800544614F8500FDFE810F007003B02510296
:10EF18000C017B00A600BC00DAF848102E4653E628
:10EF28000395554615F85F0FA5F11304DFE810F0B7
:10EF38000700FC013E020701110118011F01DAE96F
:10EF480015169AF85C2001F047BA564616F8500F85
:10EF5800DFE810F01D002D022C02560B6A0B7D0B0A
:10EF68008F0BA20BB40BC70BD90BEC0BFE0B110CC0
:10EF7800230C350C470C590C6B0C7D0C8F0CA10C19
:10EF8800B30CC50CD70CE90CFB0C0D0D2C0DDAF8E5
:10EF9800480001F02BBB00204FF498718AF86100FB
:10EFA800DAF84C00AAF85C10CAF858000AF15400C4
:10EFB8004946FEF77BFA00284FF0010118BF0621E9
:10EFC8008AF850107FF405AF06F039FF40F20E00C2
:10EFD800C0F20000ADF8140005A808F05AFF06F0CA
:10EFE80081FF002000F076BF002040F22F518AF800
:10EFF80061003546DAF84C00AAF85C10CAF85800E7
:10F008000AF154004946FEF705F9D0B1042029E079
:10F018000AF1840999E8410200F041BCDAF83400A9
:10F028000170A9E3DAE91120DAF84C102DE3DAE9E6
:10F038001220DAF8501051E3DAE91110DAF84C200E
:10F0480072E3002030218AF86100DAF84C00AAF84F
:10F058005C10CAF858000AF154004946FEF7DAF87D
:10F0680020B105202070032001F08ABC00204FF455
:10F0780098718AF86100DAF84C00AAF85C10CAF8AE
:10F0880058000AF154004946FEF7C4F800284FF02A
:10F09800010118BF06218AF85010E4D106F0CFFE0E
:10F0A80040F20E00C0F20000ADF84403D1A808F009
:10F0B800F0FE06F017FF002001F062BADAF89C00B3
:10F0C800FEE39AF8B402002862D0032800F0838691
:10F0D800F8E69AF8C1122E460AF154000AF2C12540
:10F0E80000295BD003293FF4DEABFFF703BC0AF12C
:10F0F80060004946FDF706FEC0073FD0032000F038
:10F1080014BF9AF8B00200284ED0032800F03A86BF
:10F11800D8E69AF8B00200284CD0032800F0808680
:10F12800E3E69AF8C1122E460AF154000AF2C12504
:10F13800002945D003293FF45CADFFF7DBBB0AF19A
:10F1480060004946FDF722FFC0071CD0032001F0EC
:10F1580042BA9AF8B002C0B3032801F06981B1E657
:10F168009AF8B402B8B3032801F08B81AAE69AF89A
:10F17800B002B0B3032801F0A981B6E6DAF850006E
:10F18800017000F06BBEDAF85000017001F0BCB9F4
:10F19800DAE91920DAF86C1000F014BE9AF8C022E7
:10F1A800DAF8BC12FFF775BBDAE91820DAF868104C
:10F1B80000F0DFBDDAE91810DAF8682000F027BEA1
:10F1C8009AF8C022DAF8BC1209E5DAE91820DAF868
:10F1D800681001F024B9DAE91920DAF86C1001F0A6
:10F1E80047B9DAE91810DAF8682001F066B90121A0
:10F1F800BFF32F8F069149F678710020C0F2010104
:10F20800059149F6E0710990C0F20101CDE907B016
:10F2180005A808F06CFF49F620204AF2D812C0F27F
:10F228000100C0F20102232108F076FF49F62020F0
:10F2380049F69C52C0F20100C0F20102232108F0F5
:10F248006BFF49F6202049F68C62C0F20100C0F23B
:10F258000102232108F060FF49F6202049F67C626C
:10F26800C0F20100C0F20102232108F055FF49F65F
:10F27800202049F6EC62C0F20100C0F2010223210D
:10F2880008F04AFF4EF200400122C4F20100C0F823
:10F2980004210268D20709D10268D20704BF0268B4
:10F2A8005FEAC27202D10268D207F2D06FF005029B
:10F2B8000A600168C90709D10168C90704BF016864
:10F2C8005FEAC17102D10168C907F2D005F00CFDEF
:10F2D80049F6202049F66852C0F20100C0F2010246
:10F2E800232108F019FF49F620204AF2C812C0F27B
:10F2F8000100C0F20102232108F00EFF49F6202088
:10F3080049F6FC62C0F20100C0F20102232108F0B4
:10F3180003FF49F620204AF28812C0F20100C0F229
:10F328000102232108F0F8FE49F6202049F6AC62D4
:10F33800C0F20100C0F20102232108F0EDFE49F6F7
:10F3480020204AF25C12C0F20100C0F2010223211F
:10F3580008F0E2FE49F6202049F64852C0F20100C2
:10F36800C0F20102232108F0D7FE49F6202049F611
:10F378004422C0F20100C0F20102232108F0CCFEB1
:10F3880049F6202049F6EC52C0F20100C0F2010211
:10F39800232108F0C1FE49F6202049F6D022C0F208
:10F3A8000100C0F20102232108F0B6FEFEDE49F694
:10F3B800202049F69C62C0F20100C0F2010223211C
:10F3C80008F0AAFE0138082882F0BF8140F61C72B6
:10F3D800D9F80010C2F2020202EBC00008F028F9C6
:10F3E80040F65C7147F2145CC2F20201C4F2020CEE
:10F3F8000A68BFF35F8F2B68DCF8005003F01F002A
:10F4080025FA00F0C00700F0808003F1100000F03A
:10F418001F0022FA00F0C00700F08180DAF8A0008F
:10F428000122BFF35F8F103000F01F0002FA00F0D6
:10F43800C24351E8000F104041E80003002BF8D107
:10F44800BFF35F8F40F20858DAF898600120DAF8C5
:10F458009010C5F20008072E8AF8A80000F2E88389
:10F4680047F22805DAF89400C4F2020505F58F641E
:10F4780054F8262082424AD80CF51E700C900CF5E0
:10F4880019700B900CF514700A900CF50F70099018
:10F498000CF50A7008900CF5057007900CF50070D3
:10F4A80006900CF5F670059005A850F82600016046
:10F4B800426008F030F805F58470002140F8261005
:10F4C800012145F8261050F82610C9070CD150F82C
:10F4D8002610C90704BF50F826105FEAC17103D18E
:10F4E80050F82610C907EED0002540F8265008F03D
:10F4F80013F844F8265001219AF838008AF8B01019
:10F508008AF8AC108AF8B41015E001203070012098
:10F51800DAF834B08AF8B0008AF8AC00A1E10399AF
:10F52800032088F8000040F2085830700125207048
:10F53800C5F200080870E90740F00F82C0B26128E0
:10F5480000F014820020544604F8480FA4F120006B
:10F55800A4F1180644F8080CCAF84400414640785B
:10F568000122202800F01F0028BF01F5407102FA8F
:10F5780000F008600120002107F0FEFFCAE90C0135
:10F5880002F001008AF838003046494608F012F8BF
:10F59800002840F0B781DAF844004FF441710122A5
:10F5A8004078202800F01F0038BF042102FA00F03C
:10F5B80048F80100A42000218AF8482007F0DCFF61
:10F5C800CAE90C0102F001008AF838000AF1300695
:10F5D8004946304607F0EEFF002840F09E8105209E
:10F5E8000AF12801AAF89C020AF29D24CAF8981286
:10F5F80000228AF83900EF208AF83D208AF838007E
:10F60800CAF8341030464946FDF750FF0146002934
:10F618004FF001024FF0010018BF032200292270A9
:10F6280040F084810021564606F8431FA6F11B02CC
:10F63800A6F1130456F8233C06F8031C46F80B2CD5
:10F6480046F8073C8125504600F8425F00F8011C47
:10F6580040F8122C40F80E3C11784FF4417201F03A
:10F668001F0320294FF0010138BF042201FA03F3D8
:10F6780048F80230002350F8122C80F85232C0F8B3
:10F688000220C0F80600C0F80A100023CAE9142BAB
:10F698008AF87830CAE91630CAF860100AF15000C2
:10F6A8004946FCF789FFC1B20122042908BF032299
:10F6B80004298AF8942200F04581032940F05986EC
:10F6C8009AF84110504600F8441F002180F854125F
:10F6D800012150F8142CC0E90120C1600023CAE9B7
:10F6E800152B8AF87C30CAE91730CAF864100AF179
:10F6F80054004946FCF760FFC1B20122042908BF43
:10F70800032204298AF8982200F01881032940F07E
:10F7180037860022DAE90C108AF894224FF48072B6
:10F72800CAE91110CAF84C200023CAE914108AF853
:10F738007830CAE9162BCAF860300AF150004946F9
:10F74800FCF73AFFC1B20122042908BF03220429A9
:10F758008AF8942200F0F480032940F01886206883
:10F76800012241460078202800F01F0028BF01F53B
:10F77800407102FA00F00860CDAB01208AF843001E
:10F788004FF480750FCB5446DAF82060CAE90E5062
:10F798000AF140000EC0002005A904F84C0F0AF138
:10F7A8004D004B22CAE90CA60AF0F0F8DAF830004E
:10F7B800CAF84450CAE90F064089CAF84800002828
:10F7C80000F04982CAE91465CAF85800FDB1DAF8B0
:10F7D80058200023DAF83C008AF894300AF15C03D8
:10F7E800DAF85010954238BF2A4607C3A81A1144C0
:10F7F800CAE91410D9F800100AF15C00FDF7A7F95E
:10F80800C1B2022967D1DAF85450002DDFD1DAF8F5
:10F818004800002800F01482DAF84410B1FBF0F236
:10F8280002FB101088B90020DAF83C108AF888002A
:10F83800CAE9141BCAF85800D9F800100AF1500098
:10F84800FDF785F9C1B202294ED1012020700020B0
:10F858005146CAF830A0D34601F8B40F0391CAF84C
:10F8680034B00AF1380640214FF0400930460AF01A
:10F878008FF80020544604F8B00F44E90EB644F857
:10F88800309C0020D04608F8AC0F0BF10A0049F66E
:10F89800743BA8F1280181E84102C0F2010BCAE9D2
:10F8A8002469817811F07F01CAF8981000F0E58189
:10F8B8000021564606F8A81FDDF8109046F80C0CF3
:10F8C8008078554610F07F0045F8A00F00F0DC81E5
:10F8D800CAF8A45076E503290AD08DF844034AF201
:10F8E8009810C0F20100E4E1032940F0DC81042013
:10F8F800207001201A218AF82E100DF5577DBDE8D9
:10F90800000FF0BD03201621207001208AF82E1068
:10F918000DF5577DBDE8000FF0BD012017218AF8CD
:10F928002E100DF5577DBDE8000FF0BD18218AF89F
:10F938002E100DF5577DBDE8000FF0BD052002E043
:10F94800062000E004203070012019218AF82E10CA
:10F958000DF5577DBDE8000FF0BD012015218AF88F
:10F968002E100DF5577DBDE8000FF0BD06F067FAC3
:10F9780040F20B00C0F20000ADF8140005A808F032
:10F9880088FA06F0AFFA0022BAF82800BAF82A1066
:10F99800AAF82C208AF8A0228AF83020AAF8A11206
:10F9A800AAF831000AF130054946284603F06AFAF8
:10F9B80040B101201B218AF82E100DF5577DBDE8B6
:10F9C800000FF0BD2846FEF726FD43F200234FF452
:10F9D800407BC4F202034FF006092020C8F810B299
:10F9E8004FF0020CC3F814934FF0040EC8F8F8B4A3
:10F9F8004246C3F8080340F61C20C5F200004FF049
:10FA0800FF38C0F800B02720C3F81003002043F2E5
:10FA18000026C3F800C3C3F854930824C3F8C003EE
:10FA2800C4F20006C3F85C030521C3F800E0C3F87C
:10FA380008814EF20413CEF20003C3F880411C6023
:10FA4800C2F818B2C6F81443C2F80CB2C6F80813C4
:10FA58001A21C2F860B2C6F810132946C6F800C3C6
:10FA6800C6F85493C6F8C003C6F85C03C6F800E0AD
:10FA7800C6F808815646C3F87C4143F8044C46F85A
:10FA88005C0F56F8409C344686F86000C6E91600BC
:10FA9800B0634A46306386F82800C6E90800F0607B
:10FAA800706006F8040C46E9030046F8200C46E9A5
:10FAB8000B0044F82C0F284603F06DFF002840F097
:10FAC800058142F2AA6009EB00022846294603F0A4
:10FAD80062FF002840F0008144F6545009EB000210
:10FAE8002846294603F057FF002840F0FB8047F2DC
:10FAF800FE3009EB00023046314603F04CFF002887
:10FB080040F0F68049F6A82009EB0002304631465D
:10FB180003F041FF002840F0F1804CF2521009EB4D
:10FB280000023046314603F036FF002840F0EC80F2
:10FB3800DDF8109000208AF8F5058AF862038AF843
:10FB480060038AF8D2000120CAE9D6648AF8D00096
:10FB5800CAE93254CAF8E445CAF8E8A5CAF8EC6517
:10FB6800CAF8F0550AF1C000494601F0FDFD40B160
:10FB780001201C218AF82E100DF5577DBDE8000FD5
:10FB8800F0BD504610F8D21F042907D8CA1E022A11
:10FB980002D319B90AF1D10003F059FD9AF86203AA
:10FBA80004280AD8C11E022902D20AF2623002E0F1
:10FBB80018B90AF2613003F07CFDDAF88C000028ED
:10FBC8001EBFC168DAF890008847DAF89400002868
:10FBD8001EBFC168DAF898008847DAF86000002884
:10FBE8001EBFC168DAF864008847DAF868000028A0
:10FBF8001EBFC168DAF86C008847DAF834000028BC
:10FC08001EBFC168DAF838008847DAF83C000028D7
:10FC18001EBFC168DAF84000884700200121AAF811
:10FC28002C008AF82E100DF5577DBDE8000FF0BDA9
:10FC38004AF698723046C0F20102082108F09FFA8D
:10FC480049F640404AF2A812C0F20100C0F201028F
:10FC5800392108F061FA01210020D2914AF20C0101
:10FC6800C0F20101D590D1914AF27811CDE9D3B013
:10FC7800D1A8C0F2010108F03AFA06F0E0F840F223
:10FC88002600C0F2000005E006F0D9F840F2240092
:10FC9800C0F20000ADF8140005A808F0FAF806F064
:10FCA80021F908F01CF98DF844034AF2B810C0F2A3
:10FCB80001004AF2600300904AF21400C0F2010306
:10FCC800C0F20100D1AA2B2108F078FA05904AF277
:10FCD800E810C0F201001CE005904AF2F810C0F2EA
:10FCE800010016E005904AF20820C0F2010010E079
:10FCF80005904AF21820C0F201000AE005904AF285
:10FD08002820C0F2010004E005904AF23820C0F231
:10FD180001004AF2400300904AF21400C0F20103C5
:10FD2800C0F2010005AA2B2108F048FA81235046A9
:10FD380000F85E3F00F8012C4FF4417240F8121CA5
:10FD480040F80E6C097801F01F0320294FF00101DB
:10FD580038BF042201FA03F348F80230002350F8B0
:10FD6800122C80F85232C0F80220C0F80600C0F801
:10FD78000A100023CAE91B2B8AF89430CAE91D30FF
:10FD8800CAF87C100AF16C004946FCF715FCC1B2B0
:10FD98000122042908BF032204298AF8B02200F0AE
:10FDA800BF80032940F0E5829AF85D10504600F8BC
:10FDB800601F002180F85412012150F8142CC0E96A
:10FDC8000120C1600023CAE91C2B8AF89830CAE9CF
:10FDD8001E30CAF880100AF170004946FCF7ECFBA7
:10FDE800C1B20122042908BF032204298AF8B422D7
:10FDF80000F09880032940F0C3820022DAE913104A
:10FE08008AF8B0220222CAE91810CAF8682000232A
:10FE1800CAE91B108AF89430CAE91D2BCAF87C304D
:10FE28000AF16C004946FCF7C7FBC1B2012204295C
:10FE380008BF032204298AF8B02275D0032940F0AC
:10FE4800A6822068012241460078202800F01F0081
:10FE580028BF01F5407102FA00F008600120039DF7
:10FE68008AF85F00BAF84800ADF8440305F0E7FFE8
:10FE780040F20F00C0F20000ADF8140005A808F029
:10FE880008F840F20300C0F20000ADF8140005A81D
:10FE980007F0BEFFD1A807F0BBFF06F023F8BDF8B6
:10FEA800440347F22501884242D0DAF8400003288B
:10FEB80000F0808205F0C3FF40F21000C0F200009D
:10FEC800ADF8140005A807F0E4FF06F00BF8DAF81F
:10FED80040000130CAF840002120002107F04CFB07
:10FEE800CAE9120102F001008AF850000AF1480636
:10FEF8004946304607F05EFBA0BB039500205546F7
:10FF0800022205F85F0FA5F11B01A5F1130405F8FE
:10FF1800032C45F80B1C45F8076C25F8170C05E76A
:10FF2800042002E0052000E0062028700520D1E129
:10FF38000020564606F8500FA6F10C0046F8080CAB
:10FF48000021CAF858008AF86110EF21AAF85C105D
:10FF5800CAF84C000AF154004946FDF7A7FA18B14F
:10FF68000320B5E10420B5E10020DC218AF8610016
:10FF7800DAF84C00AAF85C10CAF858000AF15400E4
:10FF88004946FDF793FA08B10420A1E1002040F2A8
:10FF9800FB418AF86100DAF84C00AAF85C10CAF84C
:10FFA80058000AF154004946FDF780FA08B10520C7
:10FFB8008EE10020EF218AF86100DAF84C00AAF8F7
:10FFC8005C10CAF858000AF154004946FDF76EFA69
:10FFD80008B106207CE1002040F22F518AF8610028
:10FFE800DAF84C00AAF85C10CAF858000AF1540074
:08FFF8004946FDF75BFA08B170
:020000021000EC
:10000000072069E1002030218AF86100DAF84C000D
:10001000AAF85C10CAF858000AF154004946FDF7E6
:1000200049FA08B1082057E100204FF498718AF886
:100030006100DAF84C00AAF85C10CAF858000AF11E
:1000400054004946FDF736FA08B1092044E1002082
:100050001F218AF86100DAF84C00AAF85C10CAF88F
:1000600058000AF154004946FDF724FA08B10A2065
:1000700032E1002040F2EF118AF86100DAF84C001A
:10008000AAF85C10CAF858000AF154004946FDF776
:1000900011FA08B10B201FE100202D218AF8610020
:1000A000DAF84C00AAF85C10CAF858000AF15400BB
:1000B0004946FDF7FFF908B10C200DE1002040F69C
:1000C000EF418AF86100DAF84C00AAF85C10CAF82F
:1000D00058000AF154004946FDF7ECF908B10D202B
:1000E000FAE0002064218AF86100DAF84C00AAF8EE
:1000F0005C10CAF858000AF154004946FDF7DAF9D5
:1001000008B10E20E8E0002065218AF86100DAF8E5
:100110004C00AAF85C10CAF858000AF1540049468D
:10012000FDF7C8F908B10F20D6E0002066218AF853
:100130006100DAF84C00AAF85C10CAF858000AF11D
:1001400054004946FDF7B6F908B11020C4E000207C
:1001500067218AF86100DAF84C00AAF85C10CAF846
:1001600058000AF154004946FDF7A4F908B11120DE
:10017000B2E0002068218AF86100DAF84C00AAF8A1
:100180005C10CAF858000AF154004946FDF792F98C
:1001900008B11220A0E0002069218AF86100DAF895
:1001A0004C00AAF85C10CAF858000AF154004946FD
:1001B000FDF780F908B113208EE000206A218AF84B
:1001C0006100DAF84C00AAF85C10CAF858000AF18D
:1001D00054004946FDF76EF908B114207CE0002078
:1001E0006B218AF86100DAF84C00AAF85C10CAF8B2
:1001F00058000AF154004946FDF75CF908B1152092
:100200006AE000206C218AF86100DAF84C00AAF854
:100210005C10CAF858000AF154004946FDF74AF943
:1002200008B1162058E0002071218AF86100DAF840
:100230004C00AAF85C10CAF858000AF1540049466C
:10024000FDF738F908B1172046E0002072218AF83E
:100250006100DAF84C00AAF85C10CAF858000AF1FC
:1002600054004946FDF726F908B1182034E0002073
:1002700012218AF86100DAF84C00AAF85C10CAF87A
:1002800058000AF154004946FDF714F908B1192045
:1002900022E0002013218AF86100DAF84C00AAF865
:1002A0005C10CAF858000AF154004946FDF702F9FB
:1002B00008B11A2010E00020EF218AF86100DAF876
:1002C0004C00AAF85C10CAF858000AF154004946DC
:1002D000FDF7F0F868B11B20307006200299087015
:1002E000012003218AF82E100DF5577DBDE8000F7F
:1002F000F0BD002040F201118AF86100DAF84C00EC
:10030000AAF85C10CAF858000AF154004946FDF7F3
:10031000D1F800284FF001004FF0010118BF1C2058
:100320008AF85000D9D1544604F8461FA4F11A06A1
:1003300034F8020C24F81E0C00208DF84A033246D3
:10034000ADF848034FF08050D190D1A804F8191CA3
:10035000314600903046334603F0E1F9002005A90C
:100360002070601C40F2812244F8166C44F8126C34
:10037000029409F00FFBFEF7EDBB8DF8140049F66F
:10038000BC60C0F201000CE08DF8140049F6CC60AE
:10039000C0F2010005E08DF8140049F6DC60C0F2FF
:1003A00001004AF2500300904AF21400C0F2010327
:1003B000C0F2010005AA2B2107F004FF0121002053
:1003C000069149F61471C0F201010990059149F6B0
:1003D0001C71CDE907B005A8C0F2010107F08BFE42
:1003E0008123504600F85E3F00F8012C4FF4417223
:1003F00040F8121C40F80E6C097801F01F03202908
:100400004FF0010138BF042201FA03F348F802302B
:10041000002350F8122C80F85232C0F80220C0F8A5
:100420000600C0F80A100023CAE91B2B8AF8943092
:10043000CAE91D30CAF87C100AF16C004946FBF786
:10044000BBFFC1B20122042908BF032204298AF894
:10045000B02200F0BF80032940F0D1829AF85D10ED
:10046000504600F8601F002180F85412012150F816
:10047000142CC0E90120C1600023CAE91C2B8AF8B2
:100480009830CAE91E30CAF880100AF17000494657
:10049000FBF792FFC1B20122042908BF03220429FD
:1004A0008AF8B42200F09880032940F0AF8200223D
:1004B000DAE913108AF8B0220222CAE91810CAF841
:1004C00068200023CAE91B108AF89430CAE91D2B62
:1004D000CAF87C300AF16C004946FBF76DFFC1B2E7
:1004E0000122042908BF032204298AF8B02275D00A
:1004F000032940F09282206801224146007820289A
:1005000000F01F0028BF01F5407102FA00F00860FA
:100510000120039D8AF85F00BAF84800ADF8340363
:1005200005F091FC40F20F00C0F20000ADF844036A
:10053000D1A807F0B2FC40F20300C0F20000ADF811
:100540004403D1A807F068FCCDA807F065FC05F0CE
:10055000CDFCBDF8340347F22501884242D0DAF8D9
:100560004000032800F06C8205F06DFC40F21000A2
:10057000C0F20000ADF84403D1A807F08EFC05F0EE
:10058000B5FCDAF840000130CAF840002120002113
:1005900006F0F6FFCAE9120102F001008AF85000E5
:1005A0000AF148064946304607F008F8A0BB039513
:1005B00000205546022205F85F0FA5F11B01A5F1A9
:1005C000130405F8032C45F80B1C45F8076C25F8B7
:1005D000170C05E7042002E0052000E00620287043
:1005E0000520D1E10020564606F8500FA6F10C0078
:1005F00046F8080C0021CAF858008AF86110EF216B
:10060000AAF85C10CAF84C000AF154004946FCF7FD
:1006100005FE18B10320B5E10420B5E10020DC217E
:100620008AF86100DAF84C00AAF85C10CAF85800A1
:100630000AF154004946FCF7F1FD08B10420A1E19C
:10064000002040F2FB418AF86100DAF84C00AAF879
:100650005C10CAF858000AF154004946FCF7DEFD68
:1006600008B105208EE10020EF218AF86100DAF858
:100670004C00AAF85C10CAF858000AF15400494628
:10068000FCF7CCFD08B106207CE1002040F22F51A0
:100690008AF86100DAF84C00AAF85C10CAF8580031
:1006A0000AF154004946FCF7B9FD08B1072069E199
:1006B000002030218AF86100DAF84C00AAF85C10BA
:1006C000CAF858000AF154004946FCF7A7FD08B1E2
:1006D000082057E100204FF498718AF86100DAF899
:1006E0004C00AAF85C10CAF858000AF154004946B8
:1006F000FCF794FD08B1092044E100201F218AF88D
:100700006100DAF84C00AAF85C10CAF858000AF147
:1007100054004946FCF782FD08B10A2032E100206E
:1007200040F2EF118AF86100DAF84C00AAF85C1088
:10073000CAF858000AF154004946FCF76FFD08B1A9
:100740000B201FE100202D218AF86100DAF84C000F
:10075000AAF85C10CAF858000AF154004946FCF7A0
:100760005DFD08B10C200DE1002040F6EF418AF854
:100770006100DAF84C00AAF85C10CAF858000AF1D7
:1007800054004946FCF74AFD08B10D20FAE000206C
:1007900064218AF86100DAF84C00AAF85C10CAF803
:1007A00058000AF154004946FCF738FD08B10E2004
:1007B000E8E0002065218AF86100DAF84C00AAF828
:1007C0005C10CAF858000AF154004946FCF726FDAF
:1007D00008B10F20D6E0002066218AF86100DAF81F
:1007E0004C00AAF85C10CAF858000AF154004946B7
:1007F000FCF714FD08B11020C4E0002067218AF83E
:100800006100DAF84C00AAF85C10CAF858000AF146
:1008100054004946FCF702FD08B11120B2E0002067
:1008200068218AF86100DAF84C00AAF85C10CAF86E
:1008300058000AF154004946FCF7F0FC08B11220B8
:10084000A0E0002069218AF86100DAF84C00AAF8DB
:100850005C10CAF858000AF154004946FCF7DEFC67
:1008600008B113208EE000206A218AF86100DAF8CE
:100870004C00AAF85C10CAF858000AF15400494626
:10088000FCF7CCFC08B114207CE000206B218AF836
:100890006100DAF84C00AAF85C10CAF858000AF1B6
:1008A00054004946FCF7BAFC08B115206AE0002064
:1008B0006C218AF86100DAF84C00AAF85C10CAF8DA
:1008C00058000AF154004946FCF7A8FC08B116206C
:1008D00058E0002071218AF86100DAF84C00AAF88B
:1008E0005C10CAF858000AF154004946FCF796FC1F
:1008F00008B1172046E0002072218AF86100DAF87A
:100900004C00AAF85C10CAF858000AF15400494695
:10091000FCF784FC08B1182034E0002012218AF88A
:100920006100DAF84C00AAF85C10CAF858000AF125
:1009300054004946FCF772FC08B1192022E000205F
:1009400013218AF86100DAF84C00AAF85C10CAF8A2
:1009500058000AF154004946FCF760FC08B11A201F
:1009600010E00020EF218AF86100DAF84C00AAF8C4
:100970005C10CAF858000AF154004946FCF74EFCD6
:1009800068B11B20307006200299087001200421F4
:100990008AF82E100DF5577DBDE8000FF0BD002040
:1009A00040F201118AF86100DAF84C00AAF85C10F4
:1009B000CAF858000AF154004946FCF72FFC0028F9
:1009C0004FF001004FF0010118BF1C208AF85000C1
:1009D00001D00620D8E7BAF844005446AAF82A0005
:1009E000002004F83A0F8AF846108AF82C10A4F177
:1009F000120104F8020C44F8061CFEF745B88DF805
:100A0000440349F6BC60C0F201000CE08DF84403D9
:100A100049F6CC60C0F2010005E08DF8440349F6C8
:100A2000DC60C0F201004AF2500300904AF2140068
:100A3000C0F20103C0F20100D1AA2B2107F0C2FBD2
:100A400001210020D29149F61471C0F20101D59024
:100A5000D19149F61C71CDE9D3B0D1A8C0F2010102
:100A600007F049FB81421FBFDAE912120120CAF8E0
:100A70003C008A4243D10020544604F83A0F05A9AD
:100A800040F28D2204F8020CA4F1120044F8060C86
:100A9000601C08F07FFF0020DAF834108AF8490063
:100AA00040F6EF429AF83800AAF84420CAF830100D
:100AB000CAF840108AF839000AF13C004946FCF7B0
:100AC000F9FC50B103202070012006218AF82E1075
:100AD0000DF5577DBDE8000FF0BD0C2100208AF810
:100AE000501001219AF83920CAE91500CAF85C00B3
:100AF000CAE91201CAE90F018AF844201CE0DAF8B9
:100B000030100023CAF848009AF850009AF84420A0
:100B10008AF86D308AF869208AF86800CAF864108B
:100B20000AF160004946FCF7C5FC10B9DAE90F018B
:100B300098E70420FDF7BEBF81421FBFDAE9121219
:100B40000120CAF83C008A4234D101202E468AF89E
:100B50003A0000208AF840004FF400250AF12800EE
:100B6000CAE90C050AF1410005A940F28F220AF1F9
:100B7000400408F00FFF00208AF8510040F6EF40D3
:100B8000AAF84C00DAF83000CAE90E053546CAF872
:100B900048000AF144004946FCF78CFC032118B3D5
:100BA0002170012007218AF82E100DF5577DBDE830
:100BB000000FF0BDDAF830100023CAF848009AF8A8
:100BC00050009AF844208AF86D308AF869208AF833
:100BD0006800CAF864100AF160004946FCF76AFC34
:100BE000C0B9DAE90F01A7E740F607030020C0F219
:100BF00009030422CAE91401190C0AF1440CDAF8B9
:100C00003C602B80CAE91700CAF864008CE84500F4
:100C1000A97001E0042056E782421FBFDAE91412EE
:100C2000431CCAF844308A4230D1012054468AF825
:100C30004000002004F83C0F4FF2D020CFF6FF70A8
:100C40004FF2D02124F8040CA4F1140044F80C0C49
:100C50000022CAF844008AF84D2040F6EF42AAF874
:100C60004820AAF83A10CAF834000AF14000494670
:100C7000FCF720FC38B303202070012008218AF8FB
:100C80002E100DF5577DBDE8000FF0BD0AF14103B0
:100C90004E1C18441944DAF838200023C07ACAF8E8
:100CA0005060C97D8AF875308AF871008AF8701032
:100CB000CAF86C200AF168004946FCF7FBFBA8B9AA
:100CC000DAE91102A8E741F20F010020AAF8541056
:100CD0000221BAF83A20CAE91600CAF86000CAE947
:100CE0001301CAE91001AAF8482001E0042157E7DE
:100CF00081421FBFDAE91312431CCAF840308A420E
:100D000029D10020544604F83A0F0120A4F1120121
:100D100004F8020C44F8061CA0700022CAF8401027
:100D20008AF8492040F2EF12AAF844208AF83900E4
:100D3000CAF830100AF13C004946FCF7BBFB38B357
:100D400003202070012009218AF82E100DF5577D0F
:100D5000BDE8000FF0BD0AF13D034E1C18441944D4
:100D6000DAF834200023C07ACAF84C60C97D8AF8CA
:100D700071308AF86D008AF86C10CAF868200AF1A0
:100D800064004946FCF796FB98B9DAE91001AFE731
:100D9000002001219AF83920CAE91500CAF85C0040
:100DA0008AF85010CAE91201CAE90F018AF84420F2
:100DB00001E0042060E781421FBFDAE9121201203E
:100DC000CAF83C008A4231D10020544604F83A0F58
:100DD00005A940F28D2204F8020CA4F1100044F899
:100DE000060C601C08F0D6FD0020DAF834108AF8F2
:100DF000490040F6EF429AF83800AAF84420CAF8B1
:100E00003010CAF840108AF839000AF13C0049460F
:100E1000FCF704FA20B30320207001200A218AF88D
:100E20002E100DF5577DBDE8000FF0BDDAF830103B
:100E30000023CAF848009AF850009AF844208AF82B
:100E40006D308AF869208AF86800CAF864100AF1DF
:100E500060004946FCF72EFBA0B9DAE90F01AAE7CA
:100E60000B2100208AF8501001219AF83920CAE994
:100E70001500CAF85C00CAE91201CAE90F018AF834
:100E8000442001E004205CE781421FBFDAE912122E
:100E90000120CAF83C008A4231D10020544604F8AF
:100EA0003A0F05A940F28D2204F8020CA4F11000BB
:100EB00044F8060C601C08F06DFD0020DAF83410D0
:100EC0008AF8490040F6EF429AF83800AAF8442020
:100ED000CAF83010CAF840108AF839000AF13C000C
:100EE0004946FCF79BF920B30320207001200B2119
:100EF0008AF82E100DF5577DBDE8000FF0BDDAF829
:100F000030100023CAF848009AF850009AF844209C
:100F10008AF86D308AF869208AF86800CAF8641087
:100F20000AF160004946FCF779F9A0B9DAE90F0146
:100F3000AAE70C2100208AF8501001219AF83920E4
:100F4000CAE91500CAF85C00CAE91201CAE90F0132
:100F50008AF8442001E004205EE781421FBFDAE9FD
:100F600012120120CAF83C008A4234D101202E46D8
:100F70008AF83A0000208AF840004FF400250AF170
:100F80002A00CAE90C050AF1410005A940F28F22A6
:100F90000AF1400408F0FEFC00208AF8510040F6F7
:100FA000EF40AAF84C00DAF83000CAE90E053546E1
:100FB000CAF848000AF144004946FCF72FF903211A
:100FC00018B3217001200C218AF82E100DF5577DE1
:100FD000BDE8000FF0BDDAF830100023CAF8480071
:100FE0009AF850009AF844208AF86D308AF86920FF
:100FF0008AF86800CAF864100AF160004946FCF7F4
:101000000DF9C0B9DAE90F01A7E740F607030020A0
:10101000C0F209030422CAE91401190C0AF1440CB4
:10102000DAF83C602B80CAE91700CAF864008CE843
:101030004500A97001E0042057E782421FBFDAE9AA
:101040001412431CCAF844308A4230D1012054465D
:101050008AF84000002004F83C0F4FF2D020CFF671
:10106000FF704FF2D02124F8040CA4F1120044F8D0
:101070000C0C0022CAF844008AF84D2040F6EF42DA
:10108000AAF84820AAF83A10CAF834000AF1400039
:101090004946FCF7C3F838B30320207001200D2126
:1010A0008AF82E100DF5577DBDE8000FF0BD0AF14E
:1010B00041034E1C18441944DAF838200023C07A42
:1010C000CAF85060C97D8AF875308AF871008AF8CC
:1010D0007010CAF86C200AF168004946FCF79EF8C7
:1010E000A8B9DAE91102A8E741F20F010020AAF835
:1010F00054100221BAF83A20CAE91600CAF8600072
:10110000CAE91301CAE91001AAF8482001E0042144
:1011100057E781421FBFDAE91312431CCAF8403077
:101120008A4229D10020544604F83A0F0120A4F144
:10113000100104F8020C44F8061CA0700022CAF842
:1011400040108AF8492040F2EF12AAF844208AF8A9
:101150003900CAF830100AF13C004946FCF75EF845
:1011600038B30320207001200E218AF82E100DF5CF
:10117000577DBDE8000FF0BD0AF13D034E1C184439
:101180001944DAF834200023C07ACAF84C60C97DCB
:101190008AF871308AF86D008AF86C10CAF86820F5
:1011A0000AF164004946FCF739F898B9DAE9100108
:1011B000AFE7002001219AF83920CAE91500CAF8E2
:1011C0005C008AF85010CAE91201CAE90F018AF8D6
:1011D000442001E0042060E781421FBFDAE91212D7
:1011E0000120CAF83C008A421CD1012000218AF863
:1011F0003A0040F6CD4006F0C3F9CAE90C0102F00E
:1012000001008AF838000AF13000494606F0D6F9A4
:1012100010B301200F218AF82E100DF5577DBDE87F
:10122000000FF0BDDAF830100023CAF848009AF831
:1012300050009AF844208AF86D308AF869208AF8BC
:101240006800CAF864100AF160004946FBF7E6FF3F
:10125000B0BBDAE90F01BFE70020544604F8380FAD
:10126000A4F1100044F8080C0021CAF840008AF8E4
:10127000491040F2EF11AAF84410CAF834000AF1FC
:101280003C0649463046FCF715F930B103200121F0
:101290002070090440F0A18043E040F60E70002168
:1012A000AAF8B8020AF13E000222CAE9AF11CAF850
:1012B000C412CAE9AA60CAE9AC12AAF83C1001E05B
:1012C00004204FE786421FBFDAE9AC01721CCAF85E
:1012D000A82281421DD0411C5044CAF8B0120022FD
:1012E00090F8B802DAF83410CAF840608AF84F2053
:1012F0008AF84C00CAF848100AF144004946FBF746
:1013000005FDC00767D1DAF840000170DAE9AA608C
:10131000D8E7012000218AF83800BAF83C00090417
:101320005BD1ADF8440304F08EFD40F20700C0F23B
:101330000000ADF8140005A806F0AFFD40F2030070
:10134000C0F20000ADF8140005A806F065FDD1A8B4
:1013500006F062FD04F0CAFD54460AF1280044F884
:10136000300F002104F1090040F28F2204F8081F19
:1013700005A908F00FFB002040F6EF418AF849006C
:10138000DAF83000AAF84410CAF84000CAF834006D
:101390000AF13C0649463046FCF78CF818B10320A8
:1013A000012120704FE040F607010AF14000C0F231
:1013B00009010023A5F860120322090CCAE9AA60FA
:1013C000CAE9AC32CAF83C30CAE9AF33CAF8C43211
:1013D00085F862120AE004202070012010218AF8AA
:1013E0002E100DF5577DBDE8000FF0BD86421FBFE2
:1013F000DAE9AC01721CCAF8A82281421DD0411C56
:101400005044CAF8B012002290F8B802DAF834104A
:10141000CAF840608AF84F208AF84C00CAF8481091
:101420000AF144004946FBF771FCC00758D1DAF8CD
:1014300040000170DAE9AA60D8E7012000218AF8AB
:101440003800DAF83C0000294CD1D19004F0FBFCC4
:1014500040F20800C0F20000ADF83403CDA806F059
:101460001CFDD1A803F00FFC04F040FD54460AF126
:101470002A0044F8300F002104F1090040F28F22C5
:1014800004F8081F05A908F085FA002040F2EF11C2
:101490008AF84900DAF83000AAF84410CAF8400087
:1014A000CAF834000AF13C0649463046FBF7B6FE5E
:1014B00018B10320012120704AE040F60E7000218F
:1014C000AAF8B8020AF13E000222CAE9AF11CAF82E
:1014D000C412CAE9AA60CAE9AC12AAF83C100AE030
:1014E00004202070012011218AF82E100DF5577D5F
:1014F000BDE8000FF0BD86421FBFDAE9AC01721CE7
:10150000CAF8A82281421DD0411C5044CAF8B0122A
:10151000002290F8B802DAF83410CAF840608AF86D
:101520004F208AF84C00CAF848100AF14400494696
:10153000FBF730FDC0075DD1DAF840000170DAE951
:10154000AA60D8E7012000218AF83800BAF83C00E8
:10155000090451D1ADF8340304F075FC40F20900E0
:10156000C0F20000ADF84403D1A806F096FCCDA867
:1015700003F068FB04F0BAFC0020544604F8380F6E
:1015800005A9A4F10E0040F28F2244F8080C601C5B
:1015900008F000FA002040F6EF418AF84900DAF836
:1015A0003000AAF84410CAF84000CAF834000AF122
:1015B0003C0649463046FBF731FE18B103200121B5
:1015C00020704FE040F607010AF14000C0F2090127
:1015D0000023A5F860120322090CCAE9AA60CAE92F
:1015E000AC32CAF83C30CAE9AF33CAF8C43285F825
:1015F00062120AE004202070012012218AF82E10C5
:101600000DF5577DBDE8000FF0BD86421FBFDAE93A
:10161000AC01721CCAF8A82281421DD0411C504462
:10162000CAF8B012002290F8B802DAF83410CAF8FA
:1016300040608AF84F208AF84C00CAF848100AF136
:1016400044004946FBF7A6FCC00777D1DAF8400012
:101650000170DAE9AA60D8E7012000218AF8380091
:10166000DAF83C0000296BD1D19004F0ECFB40F299
:101670000A00C0F20000ADF83403CDA806F00DFC5E
:10168000D1A803F000FB04F031FC0DF11408404632
:1016900003F0BCFB4146D44691E87D0008F11801F7
:1016A0008CE87D00A9AE9022304607F0D7FF304687
:1016B00003F02DFE01460AF1180003F0A8FA0020FD
:1016C000544604F8400F5046CAF830A00021554651
:1016D00005F83C1F0A3045F8080C807810F07F06AA
:1016E0003ED0CAF83860701E082832D240F61C720C
:1016F000D9F80010C2F2020202EBC00005F09CFF14
:1017000047F21450C4F202000168012000FA06F208
:1017100011404FF0010208BF032222702A7029B144
:10172000DAF81C00CAF82000FEF795B814218AF8F0
:101730002E100DF5577DBDE8000FF0BD0420207080
:10174000012013218AF82E100DF5577DBDE8000FFA
:10175000F0BD4AF624720821C0F2010206F013FD22
:1017600004F071FB40F22300C0F20000FEF796BACD
:10177000F0B503AF2DE9000F8FB0834688461BF804
:10178000129F0446CDF818B0B9F1040F00F2DC80C6
:10179000B9F1000F1AD0B9F1040F22D194F88C02DC
:1017A00004F5237AF8B1032840F00B81264616F899
:1017B0004C0FDFE810F005001101BB014A00840066
:1017C000D4E909C0D4E90B15636B31E0D4E9020216
:1017D000217C6174C4E90002014602F056F868B940
:1017E000A5E0606903E0D4E906C0216A12E0014681
:1017F000424602F05DF908B90320A3E000216061D0
:1018000084F88C1242F2AA61C4E906B004F5237A86
:101810002162DC460023264606F84C3F4AF2C835D2
:10182000C0F2010546E90AC046F8201C46E9075304
:101830000022C4E914C084F88020C4E91615236688
:10184000C4E90EC0C4E91015A36404F1500107A84F
:10185000424600F0F7FE9DF81C0002286CD0E8B369
:101860009DF81D0002284ED104F0EDFA40F215005B
:10187000C0F20000ADF81C0007A806F00EFB04F053
:1018800035FB04F18C0B4FF40071584608F07EF8DC
:10189000A56CB5F5007F00F27784616C58462A4646
:1018A00008F078F804F13802002384F8803004F15D
:1018B000500307CA256683E80708DDF818B004F16D
:1018C000500107A8424600F0BDFE9DF81C100229F9
:1018D00030D0089801223270B9B902E0012108988D
:1018E00031706169012284F88C2242F2A763627C24
:1018F000CA5442F2A86261698854000A42F2A9629D
:101900006169885404E00120307001208AF80000E9
:1019100060686269014602F016F9002840F05283BF
:101920002068014601F0B1FF00287FF467AF20680E
:1019300060615CE7042000E0032003213070042094
:101940008AF800108BF8000094F8A22204F2A22575
:10195000042A4CD8CDE90429E2B1042A29D194F80B
:101960001C0504F21C5A38B303282AD194F8DC026F
:1019700004F53779AB46DFE810F005002F00D900F9
:101980006703A203D4E9AD205D46D4E9AF16D4F8CD
:10199000C43249E3D4E9A60294F8A01284F8A11253
:1019A000C4E9A402014601F070FF002840F0D28390
:1019B00026E3D4F8A40217E3D4E9AA20D4F8B0129D
:1019C00023E34AF2F0204AF26C42C0F20100C0F276
:1019D0000102232106F0A4FB4AF2F0204AF23C4225
:1019E000C0F20100C0F20102232106F099FB4FF082
:1019F000000A042A88BF4FF0010A94F83505B9F1AE
:101A0000040F4FF0000100F0060988BF0121B9F171
:101A1000060F00F04882CDE90115CDE9039ADFE811
:101A200010F04D018500850006002A000900D4F859
:101A300038054DE194F8BC0504F2BC5168B30328A5
:101A40003DD194F8B80504F5B76B059140B3032870
:101A50004BD194F8B40504F2B45930B303284FD1F4
:101A600094F8B00504F5B66630B3032853D1D4F822
:101A7000AC5528685BE094F8540504F25455DFE84F
:101A800010F00500290055006C019501D4F83825A7
:101A9000D4F83C05D4F8401537E1D4F83855B3E113
:101AA00004F5B06A9AE86004C2E1D4F88C05D4F871
:101AB0009065D4F894A5C8E1D4F8A405D8E14AF219
:101AC000F0204AF2FC62C0F20100C0F201022321C0
:101AD00006F026FB4AF2F0204AF27462C0F20100DE
:101AE000C0F20102232106F01BFB4AF2F0204AF269
:101AF000E842C0F20100C0F20102232106F010FB0F
:101B00004AF2F0204AF21432C0F20100C0F201029F
:101B1000232106F005FB4AF2F0204AF22432C0F2FB
:101B20000100C0F20102232106F0FAFAFEDE0138BC
:101B3000082880F0D88140F61C72D8F80010C2F254
:101B4000020202EBC00005F077FD40F65C7047F240
:101B50001453C2F20200C4F202030168BFF35F8FA4
:101B60002A681B6802F01F05EB40DB0700F0898044
:101B7000103202F01F02D140C90700F08C80D4F867
:101B8000A8150122BFF35F8F103101F01F0102FA87
:101B900001F1C94350E8002F0A4040E80023002B20
:101BA000F8D1BFF35F8F0121D4F8A065D4F8980570
:101BB000DDF818B0072E84F8B01500F29B8147F2CB
:101BC0002801D4F89C25C4F2020101F58F6959F867
:101BD0002610914257D847F21453C4F2020303F57A
:101BE0001E720E9203F519720D9203F514720C9287
:101BF00003F50F720B9203F50A720A9203F5057250
:101C0000099203F50072089203F5F672079207AA8B
:101C100052F826201060516005F081FC47F228023E
:101C20000021C4F2020202F5847040F8261001215E
:101C300042F8261050F82610C9070CD150F826108B
:101C4000C90704BF50F826105FEAC17103D150F8EC
:101C50002610C907EED0002540F8265005F060FC9C
:101C600049F82650012194F8400584F8B81584F805
:101C7000B41584F8BC15DDF80C90E9071AD00520DE
:101C80000DE1012030700120D4F83C5584F8B805EE
:101C900084F8B405BBE003200599307001258BF86A
:101CA0000000DDF818B089F800000870DDF80C902D
:101CB000E907E4D1C0B2722800F07381D4F824059A
:101CC000014601F027FE50B9D4F82405C4F83805C0
