:107000000000042001710000794201003D79010077
:10701000794201007942010079420100000000003C
:1070200000000000000000000000000079420100A4
:10703000794201000000000079420100794201001C
:107040004DF700007942010079420100FDF5000092
:1070500021F6000079420100814C010079420100D3
:10706000794201009DF70000794201007942010058
:107070007942010079420100794201007942010020
:1070800079420100594D0100794201007942010025
:107090007942010079420100794201007942010000
:1070A00079420100794201007942010079420100F0
:1070B0007942010079420100000000000000000058
:1070C00079420100794201007942010045F6000051
:1070D00079420100794201007942010069F600001D
:1070E000794201007942010079420100000000006C
:1070F0000000000079420100000000007942010018
:107100000DF0BDF80E480F490022814201D004C0A5
:10711000FBE70D480D490E4A814202D008CA08C05B
:10712000FAE70C484FF47001026842EA010202607B
:10713000BFF34F8FBFF36F8F0CF05CF900DE0000E0
:1071400050000020080E0120000000205000002008
:10715000B0C3010088ED00E0D0B502AF044690F85E
:107160001C0320B103280DD010480DF072F8002048
:1071700084F81003D4F81803C4F8F802D4E9000224
:10718000C4E9020204F1080007F050F8C1B2C807D0
:107190004FF0050018BF00200122022908BF03227A
:1071A00084F81C2308BF0620D0BD00BFA0870100C3
:1071B000D0B502AF044690F8180320B1032812D0CE
:1071C00012480DF046F8B4F81623002084F808039E
:1071D0000220A4F81423D4F81023C4F8F02204F5F4
:1071E0004572C4E90020204607F020F8C1B2C80764
:1071F0004FF0050018BF00200122022908BF03221A
:1072000084F8182308BF0620D0BD00BFB087010056
:10721000F0B503AF4DF804BD044690F84A000D46A2
:10722000DFE800F0033E41052F000FF022FB0FF0D6
:10723000BFFDC0B2022802D1022003212CE00FF0D2
:107240000DFE26D1206500200321E26B84F8950015
:1072500094F8480061660221A165C4E92061C4F880
:10726000902084F84D00D4E90001C4E91A010129F5
:107270006FF07F00214688BF6FF07E0001F84C0F51
:1072800061650FF02AFEC0B2022802D1022004215B
:1072900002E000F00100012184F84A100FF095BCD3
:1072A00001480CF0D6FFFEDEC0870100F0B503AF49
:1072B0004DF804BD044690F84A000D46DFE800F0A2
:1072C000033A3D052B000FF0D4FA0FF071FDC0B268
:1072D000022802D10220032128E00FF0BFFD22D1B5
:1072E0000221E36B606620650020A165C4E920618E
:1072F00094F8481084F89500C4F8903084F84D1044
:10730000D4E90012C4E91A122146012A88BF0120DB
:1073100001F84C0F61650FF0E0FDC0B2022802D108
:107320000220042102E000F00100012184F84A104B
:107330000FF04BBC01480CF08CFFFEDED087010043
:10734000F0B503AF2DE9000B064690F830008846F3
:1073500050B103286DD1B14619F82C0FB0B10328F4
:107360006AD1746A20681BE0D6E90010B2687261C5
:10737000C6E90310887910F07F00B06155D0002075
:10738000B14609F82C0F49F8101C00E0F169887922
:10739000344610F07F0044F8200F43D0C6E909417D
:1073A00007F06AFAD8E900120DF069FD264DD5F80C
:1073B0000880BFF35F8FB06A2168006807F04AFA5F
:1073C00020B3206800F01F0028FA00F0C00720D08A
:1073D000306A0121BFF35F8F00F01F0001FA00F057
:1073E000C04355E8021F014045E80212002AF8D1C7
:1073F000BFF35F8F06F10C0301240DCB86F82C4000
:10740000B16900680DF04EFB022006E00124012066
:1074100001E00324032089F8004086F83040BDE8ED
:10742000000BF0BD09480A4A01E00848094A0FF07C
:10743000BBFD04480CF00DFF01480CF00AFF00BF33
:107440005888010008880100240D0120E087010010
:1074500048880100F8870100F0B503AF2DE9000767
:107460002DED0C8BADF5487D1546804607F062FF8B
:10747000C0B2102840F0E2802C460DF1C80A291D48
:107480001C2234F82C9B0AF1040010F07EF805F160
:1074900020000AF1200190E84C000AF12C004CC1B8
:1074A000214607F01FFE0AF59A7005F59A7107F05C
:1074B00019FE05F51370694690E8580001F11002B5
:1074C00005F50F7058C290E878000A460AF50F706B
:1074D00078C2ADF8C8901C2210F057F86D4651469E
:1074E00028460EF042FED8F800140020B0EB912F91
:1074F00040F0A4809DF8002008F80120D8F800147E
:107500000131B0EB912FC8F8001440F097809DF83E
:1075100001009DED01DA9DED02CA9DED03BA9DEDDE
:1075200004AA9DED059A9DED068A08F801004146E2
:10753000D8F800040130C8F80004BDF8020001F0DA
:10754000ABF8C1B210297AD1B0EE4D0A0FF037FB7B
:10755000C1B2102973D1B0EE4C0A0FF030FBC1B2AA
:1075600010296CD1B0EE4B0A0FF029FBC1B21029E3
:1075700065D1B0EE4A0A0FF022FBC1B210295ED1EC
:10758000B0EE490A0FF01BFBC1B2102957D1B0EE83
:10759000480A0FF014FBC1B2102950D19DED070A23
:1075A0009DED089A9DED098A0FF009FBC1B21029E3
:1075B00045D1B0EE490A0FF002FBC1B210293ED10D
:1075C000B0EE480A0FF0FBFAC1B2102937D132AC45
:1075D00005F1280138220FF04EFB4046214604F009
:1075E00026FEC1B210292AD132AC05F16001382241
:1075F0000FF041FB4046214604F019FEC1B21029AC
:107600001DD105F1980132AD302228460FF0BDFFA3
:107610004046294604F074FDC1B210290FD105F18E
:10762000240400250C2D11D0601990ED000A0FF0F4
:10763000C6FAC1B204351029F4D000E002200DF5DD
:10764000487DBDEC0C8BBDE80007F0BD1020F6E7CF
:10765000B0B502AF0546044655F80C0F30B12846C8
:1076600007F092FE00B1B0BD002028602168002024
:10767000012904D1D4E9012160601046B0BDB0BD3C
:10768000F0B503AF2DE9800F2DED108BF8B0044657
:107690000720CDE93A103AA800F07AFFC0F3072896
:1076A000C1B20229C24600F0A780C00726D03AA87E
:1076B00000F06EFFC1B2C0F3072A022900F09C80DF
:1076C000C0071BD03B9ECEB1DDF8E890A6F1010BC0
:1076D0000720CDF8ECB0CDE9699069A800F08EFFE5
:1076E000054680B2022818BF05F07F4005F47F01EF
:1076F00008444FEA104104D18A467DE04FF00E0A5B
:107700007AE0CDE9046B06944AA88B4669A900F09B
:1077100052FBE80708BF4FF0640B4A98022868D074
:10772000C00700F05D819DED4B8A4AA869A900F071
:1077300042FB4A9802285CD0C00700F051819DEDC1
:107740004B9A4AA869A900F036FB4A98022850D003
:10775000C00700F045819DED4BAA4AA869A900F039
:107760002AFB4A98022844D0C00700F039819DEDD9
:107770004BBA4AA869A900F01EFB4A98022838D0E3
:10778000C00700F02D819DED4BCA4AA869A900F001
:1077900012FB4A9802282CD0C00700F021810598DE
:1077A000002800F01D8104989DED4BDA02383B90D3
:1077B0000320CDE969904AA869A900F0FCFA4A982B
:1077C000022816D0C00700F00B814B9C4AA869A97B
:1077D00000F0F1FA4A9802280BD0C00700F00081AF
:1077E0009DED4BEA4AA869A900F0E5FA4A980228FB
:1077F0000DD19DF82CA1069C022084F800A084F8ED
:10780000380278B0BDEC108B01B00FF072BAC0072F
:1078100000F0E6800DF594799DED4BFA3AA94846C3
:1078200000F0D8FC0FF09BFB059002D1DDF814A00E
:10783000E1E709F105013CA80FF08EFBE80700F035
:10784000CF800DF594793AA9484600F0C3FC0FF0BB
:1078500086FB049002D1DDF810A0CCE709F1050108
:1078600059A80FF079FBE80700F0BA803B98002890
:1078700000F0B6803A9802210DF59479CDE96701C0
:1078800067A9484600F0B4F90FF069FB039002D1F4
:10789000DDF80CA0AFE709F1050169A823220FF07C
:1078A00074FEE80700F09C806898002800F098803B
:1078B00067980321CDE9720174A872A900F07BFAE0
:1078C0007498022802D19DF8D4A194E7C00700F073
:1078D0008780759E76A872A900F06DFA76980228C6
:1078E00002D19DF8DCA186E7C00779D0DDED778A6B
:1078F0004AA872A900F05FFA4A9802283FF479AFCB
:10790000C0076DD04FEA1B210DF11F005D462322F9
:107910000191210A00F1050983469A3000914B99A3
:10792000029169A90FF031FE0BF12A003CA90FF07A
:1079300013FB0BF1620059A90FF00EFB00998DF8B3
:1079400022508DF821A08DF820808DF83C408DF8D4
:10795000DC60080CA9F819100BF1010189F81B0073
:107960001DEE100AC9F814001CEE100AC9F8100028
:107970001BEE100AC9F80C001AEE100AC9F808002C
:1079800019EE100AC9F8040018EE100AC9F8000030
:107990001FEE100AC9F820001EEE100AC9F81C00DC
:1079A00001988DF8230003988DF8B80004988DF89D
:1079B000800005988DF848000298C9F8C00018EEBC
:1079C000900AC9F8BC00300E89F8BB00300AA9F84B
:1079D000B90000208DF81F0006980EF07BFC10E720
:1079E0004FF00E0A07E7F0B503AF4DF8048D84B0F1
:1079F00080464868E0B101380026486008680221E6
:107A0000CDE9010101AD03AC284600F0F7FD0FF010
:107A1000B1F818BF00F07F4111444FEA114111D075
:107A2000C00707D0022E0CD024F816100136EBE761
:107A300000200AE0022E04D10398C8F802000120B9
:107A400003E00E21022088F80210A8F8000004B01C
:107A50000FF0D2B8F0B503AF2DE9000F89B00FF0E9
:107A6000B7F912D00FF0F6F90E21CDE9070107A8FA
:107A700000F0C4FD0FF07EF818BF00F07F41114404
:107A80004FEA114503D12946ACE00020ACE0C00725
:107A900000F0A78007A800F0B1FD0FF06BF818BF49
:107AA00000F07F4111444FEA114601D1314699E07F
:107AB000C00700F0968007A800F0A0FD0FF05AF86C
:107AC00018BF00F07F4111444FEA114801D14146EF
:107AD00088E0C00700F0858007A800F059FDC1B21A
:107AE000C0F30729022949467CD0C00779D007A8EE
:107AF00000F04EFDC1B2C0F3072A0229514671D0F1
:107B0000C0076ED007A800F043FDC1B2C0F3072B39
:107B10000229594666D0C00763D007A800F038FD97
:107B20000EF097FE06925DD0C0075AD007A800F06D
:107B30002FFD0EF08EFE059254D0C00751D007A83D
:107B400000F026FD0EF085FE04924BD0C00748D011
:107B500007A800F01DFD0EF07CFE039242D0C00786
:107B60003FD007A800F014FD0EF073FE029239D04A
:107B7000C00736D007A800F00BFD0EF06AFE019298
:107B800030D0C0072DD007A800F002FD0EF061FE36
:107B9000009227D0C00724D007A800F0F9FCC2B299
:107BA000C0F30721022A1DD0C0071AD00098A17483
:107BB00084F80AB084F809A084F80890A4F8068034
:107BC000A68065806074019820740298E073039821
:107BD000A07304986073059820730698E0720120E2
:107BE00002E00E210220A170208009B00FF081B8C0
:107BF000D0B502AF2DED108B94B00FF0E9F80ED098
:107C00000FF028F90921CDE9000102A8694600F02A
:107C1000D2F80298022805D19DF80C008AE00020D5
:107C200020608AE0C00700F084809DED038A04A8EC
:107C3000694600F0C0F80498022802D19DF81400AB
:107C400078E0C00775D09DED059A06A8694600F05A
:107C5000B2F80698022802D19DF81C006AE0C0071D
:107C600067D09DED07AA08A8694600F0A4F8089817
:107C7000022802D19DF824005CE0C00759D09DED98
:107C800009BA0AA8694600F096F80A98022802D1B3
:107C90009DF82C004EE0C0074BD09DED0BCA0CA800
:107CA000694600F088F80C98022802D19DF834004B
:107CB00040E0C0073DD09DED0DDA0EA8694600F00A
:107CC0007AF80E98022802D19DF83C0032E0C007F5
:107CD0002FD09DED0FEA10A8694600F06CF81098BF
:107CE000022802D19DF8440024E0C00721D09DED78
:107CF00011FA12A8694600F05EF81298022802D123
:107D00009DF84C0016E0C00713D0139884ED018A4B
:107D100084ED029A84ED03AA84ED04BA84ED05CAC9
:107D200084ED06DA84ED07EA84ED08FA606201204A
:107D300076E70E2002212071216014B0BDEC108B7B
:107D4000D0BDF0B503AF4DF804BD82B00FF040F8E0
:107D500016D00FF07FF80321CDE90001684600F04E
:107D60004DFC050C81B2022916D0C00721D068460F
:107D700000F044FC060C81B2022903D135460BE029
:107D800000200BE0C00714D0684600F037FC010C5F
:107D900082B2022A06D10D460220A570208002B0D0
:107DA0000EF010BFC00704D00120E180A6806580DE
:107DB000F4E70E25F0E74A68B2B180B56F46013AA4
:107DC0004A600A68D2E900135B1A042B07D30B1D23
:107DD000136021B109680122C0E9002180BD0221A0
:107DE00001600421017180BD002101607047F0B580
:107DF00003AF2DE9000B92B080464868E8B1013826
:107E000000240DF13409486008680321CDE90B0115
:107E100010AD0BAE28463146FFF7CDFF1098022873
:107E20000DD0C0070ED00C2C2AD09DED110A09EB05
:107E30000400043480ED000AECE700201DE09DF80A
:107E400044001EE00C2C1BD1A7F142000DA90C220E
:107E50000EF0A6FF04A829460C22861C0EF0F7FFA0
:107E6000A7F15E0031460C220EF09AFF08F10400E3
:107E700029460C220FF089FB0120C8F8000005E01C
:107E80000E20022188F80400C8F8001012B00FF08C
:107E90008EB8F0B503AF2DE9000FADF5257D0EF0DE
:107EA00097FF10D00EF0D6FF1021CDE90B0155AD94
:107EB0000BA92846FFF7CEFDBDF85401022805D1D5
:107EC0009DF8560162E10020208062E1C00700F0C9
:107ED0005C815AAE0BA93046FFF7BCFDBDF86801C6
:107EE000022802D19DF86A0150E1C00700F04D81DF
:107EF0000DF5BE780BA94046FFF7ACFDBDF87C013F
:107F0000022802D19DF87E0140E1C00700F03D81CA
:107F10000DF5C8790BA94846FFF79CFDBDF8900107
:107F2000022802D19DF8920130E1C00700F02D81B6
:107F30000DF5D27A0BA95046FFF78CFDBDF8A401D0
:107F4000022802D19DF8A60120E1C00700F01D81A2
:107F50000DF5DC7B0BA95846FFF77CFDBDF8B80199
:107F6000022802D19DF8BA0110E1C00700F00D818E
:107F700073A80BA9FFF76EFDBDF8CC01022802D152
:107F80009DF8CE0102E1C00700F0FF8078A80BA9A0
:107F9000FFF760FDBDF8E001022802D19DF8E20183
:107FA000F4E0C00700F0F1807DA80BA9FFF752FDB7
:107FB000BDF8F401022802D19DF8F601E6E0C00701
:107FC00000F0E38082A80BA9FFF744FDBDF808028A
:107FD000022802D19DF80A02D8E0C00700F0D5803F
:107FE00087A80BA9FFF736FDBDF81C02022802D1B5
:107FF0009DF81E02CAE0C00700F0C7808CA80BA93C
:10800000FFF728FDBDF83002022802D19DF83202A8
:10801000BCE0C00700F0B98091A80BA9FFF71AFDDA
:10802000BDF84402022802D19DF84602AEE0C00726
:1080300000F0AB8096A80BA9FFF70CFDBDF8580225
:10804000022802D19DF85A02A0E0C00700F09D80EE
:108050009BA80BA9FFF7FEFCBDF86C02022802D119
:108060009DF86E0292E0C00700F08F80A0A80BA9D7
:10807000FFF7F0FCBDF88002022802D19DF88202D1
:1080800084E0C00700F08180A81C1222023608F1AB
:10809000020809F102090AF1020A0BF1020B019030
:1080A00073A80230029078A8023003907DA80230B5
:1080B000049082A80230059087A8023006908CA810
:1080C0000230079091A80230089096A802300990DB
:1080D0009BA802300A90A0A80DAD811C05F5877001
:1080E0000FF053FA019928460EF039FD05F1120000
:1080F00031460EF034FD05F1240041460EF02FFD0F
:1081000005F1360049460EF02AFD05F148005146BA
:108110000EF025FD05F15A0059460EF020FD02999A
:1081200005F16C000EF01BFD039905F17E000EF0C9
:1081300016FD049905F190000EF011FD059905F169
:10814000A2000EF00CFD069905F1B4000EF007FD3B
:10815000079905F1C6000EF002FD089905F1D80057
:108160000EF0FDFC099905F1EA000EF0F8FC0A9901
:1081700005F1FC000EF0F3FC012029464FF490724B
:1081800024F8020B0EF077FD03E00E200221A07010
:1081900021800DF5257D0EF0ACBDDCB504AF0EF0F1
:1081A00017FE0FD0013848600968684607F093F859
:1081B0009DF80000012808D19DF8010002212160EE
:1081C0002071DCBD00202060DCBD01980121C4E9E4
:1081D0000010DCBDF0B503AF4DF8048D2DED068B1E
:1081E000A0B00EF0F5FD26D00EF034FE0221CDE950
:1081F000010103AD01A92846FFF7FAFC039E9DF893
:108200001080022E6DD0691D0DA823220FF0BDF93C
:10821000F00764D00298002861D001980521CDE9CB
:10822000160118A816A9FFF7C6FD1898022804D150
:108230009DF8648055E0002056E0C0074FD0199D9E
:108240001AA816A9FFF7B7FD1A98022802D19DF8BF
:108250006C8046E0C00742D09DED1B8A1CA816A981
:10826000FFF7A9FD1C98022802D19DF8748038E020
:10827000C00734D09DED1D9A1EA816A9FFF79BFDDF
:108280001E98022802D19DF87C802AE0C00726D0E3
:108290009DED1FAA03A816A9FFF78DFD03980228DC
:1082A00002D19DF810801CE0C00718D0049E601D0C
:1082B0000DA923220FF069F9280EA66384ED0B8A1D
:1082C00084ED0C9A84ED0DAA84F8285084F804807B
:1082D00084F82B00280AA4F82900012004E04FF0BC
:1082E0000E08022084F80480206020B0BDEC068BCC
:1082F0000EF082BCF0B503AF2DE9000FA3B00EF075
:1083000067FD0FD00EF0A6FD1021CDE909010BA8E5
:1083100009A9FFF768FBBDF82C00022805D19DF8DC
:108320002E002FE1002020802FE1C00700F02981DE
:10833000DDF82E50A7F1760009A9FFF754FB37F8B6
:10834000760C022802D117F8740C1BE1C00700F06C
:10835000188157F8746C0EA809A9FFF744FBBDF803
:108360003800022802D19DF83A000BE1C00700F066
:108370000881DDF83A80A7F16A0009A9FFF733FB0D
:1083800037F86A0C022802D117F8680CFAE0C00727
:1083900000F0F78057F8689C11A809A9FFF723FBA4
:1083A000BDF84400022802D19DF84600EAE0C0076B
:1083B00000F0E780DDF846A0A7F15E0009A9FFF70D
:1083C00012FB37F85E0C022802D117F85C0CD9E0DA
:1083D000C00700F0D68057F85CBC14A809A9FFF7C5
:1083E00002FBBDF85000022802D19DF85200C9E0FE
:1083F000C00700F0C680DDF852000890A7F15200D7
:1084000009A9FFF7F0FA37F8520C022802D117F841
:10841000500CB7E0C00700F0B48057F8500C07903C
:1084200017A809A9FFF7DFFABDF85C00022802D1FE
:108430009DF85E00A6E0C00700F0A380DDF85E00B6
:108440000690A7F1460009A9FFF7CDFA37F8460CC8
:10845000022802D117F8440C94E0C00700F0918084
:1084600057F8440C05901AA809A9FFF7BCFABDF803
:108470006800022802D19DF86A0083E0C00700F07E
:108480008080DDF86A000490A7F13A0009A9FFF79F
:10849000AAFA37F83A0C022802D117F8380C71E022
:1084A000C0076ED057F8380C03901DA809A9FFF734
:1084B0009AFABDF87400022802D19DF8760061E0B6
:1084C000C0075ED0DDF876000290A7F12E0009A962
:1084D000FFF789FA37F82E0C022802D117F82C0C76
:1084E00050E0C0074DD057F82C0C019020A809A9E6
:1084F000FFF779FABDF88000022802D19DF88200CA
:1085000040E0C0073DD0DDF882000090A7F12200D6
:1085100009A9FFF768FA37F8220C022802D117F8E8
:10852000200C2FE0C0072CD057F8200CC4F816B050
:10853000C4F812A0C4F80E90C4F80A80C4F806600B
:10854000C4F80250C4F83E000098C4F83A000198FC
:10855000C4F836000298C4F832000398C4F82E001C
:108560000498C4F82A000598C4F826000698C4F8B0
:1085700022000798C4F81E000898C4F81A000120C9
:10858000D1E60E200221A070218023B00EF0B1BBF5
:10859000416869B180B56F4601394160006806F0F5
:1085A0003BFA0EF05BFC18BF0220BDE8804000E003
:1085B000002040EA01207047416879B1E0B502AF80
:1085C000013941600168684606F085FE9DF80000AB
:1085D000012806D19DF8011001208CBD0020022148
:1085E00070470198012803D028B9002100208CBDD4
:1085F000002001218CBD01200E218CBD416819B3E2
:10860000F0B503AF4DF804BD0468013900254FF003
:10861000FF364160022E14D0204606F0FDF9C00757
:1086200015D1013601F07F00C6EBC60292B2904030
:10863000054348B20028EDD4022E0CD1C8B203285D
:1086400009D940F2015009E00020002114E0012086
:1086500061F30B2000E02804C10705D04FF470211E
:1086600001EA0020022103E04FF6FF718843012157
:108670005DF804BBBDE8F04008437047E0B502AFC9
:108680008DED010A01A9042206F0FEFD102100284B
:1086900018BF022108468CBDDCB504AF0C4601466C
:1086A00000208DF80600ADF804008AB201A9032865
:1086B00009D0D3090A5409D0D2B242F080020A5438
:1086C00001301A46F3E7032201AB06E0084B01A98B
:1086D000032203F0FBFD03460A462046194606F036
:1086E000D3FD1021002818BF02210846DCBD00BFC1
:1086F00040920100F0B503AF2DE9000FADF5E25D4A
:1087000081B08346129100F5B36AD0E90001CDF83B
:1087100044B0084302D0012001F0EDBB0DF56F60BD
:108720000BF53672013001900BF1080002909BF8B6
:10873000B70204920BF23D6203920BF52E72059282
:10874000DFE810F00F00D600C61A40006F020103E8
:108750002C0024006F00B504CE049C053C007B0077
:1087600017000BF526760BF51A7C7FCEACE87F0060
:10877000D1E29BF8B89215208BF8B802B9F1150F29
:1087800000F0A780DBF8184500F0EABC9BF83D0636
:10879000002800F07C8003284BD13EE39BF82E1686
:1087A0000BF530700BF22E68002900F0738003295E
:1087B00000F0FA82DFF85C0A0BF04BFDDBF8BC023C
:1087C00000F069BD9BF810070BF5E261002800F08E
:1087D0006C80032840F090800BF20C700F91109089
:1087E0009BF80C07002800F06380032840F0888085
:1087F0009BF808070BF5E168002800F0608003286B
:1088000040F082809BF804070BF2047900285DD0C9
:10881000032840F07D80DDF844B0DBF8FC4620689A
:10882000D5E09BF83D06002800F02083032800F0E7
:108830002583DFF8E4090BF00CFD0BF2BA519BF82D
:10884000BA051091DFE810F01D006800441A8B058E
:10885000BC05EB051A0649067B06AA06DB060A07D5
:10886000390766079507AD071F0850087F08AE084F
:10887000DD080F093E096F099E09CD09F909270A8C
:108880003E0ADBF87C65DBF8804500F04BBDDBF889
:108890003856BCE2DBF82066DBF82416DBF82856F5
:1088A0009BF82D269BF82C3671E20598056837E079
:1088B000DBF8BC66DBF8C046DBF8C4864BE0DBF8CF
:1088C000D866DBF8DC06DBF8E0165FE0DBF8F46680
:1088D00070E0DFF848290DF6F4740EF012F9DFF8B5
:1088E0004019C4F83C2404A800F5A1500AF0B6FDD4
:1088F000DFF830090BF0ADFCDFF82C090BF0A9FC18
:10890000DFF828090BF0A5FCDFF824090BF0A1FC27
:10891000DFF820090BF09DFCDFF81C090BF099FC37
:108920000BF52F740F914FF480614FF4806820464F
:108930000EF073FBDFF804090BF034FD2E68002005
:10894000CBF8C046CBF8C4868BF80C070BF20C7042
:10895000CBF8BC6610900025CBF8C866CBF8CC46A7
:10896000CBF8D086CBF8D456DFF8D4382846214649
:1089700042460CF025FD0022CBF8D866CBF8DC0689
:10898000CBF8E0160BF5E1688BF80827CBF8EC166E
:10899000CBF8E806CBF8E466B07910F07F00CBF8AE
:1089A000F00602F075800020CBF8F4660BF2047933
:1089B0008BF80407B07910F07F00CBF8F80602F0CE
:1089C0006C800BF5DF64CBF80067CBF8FC4605F054
:1089D00077FF129909680EF0B5F9DFF86868B56895
:1089E000BFF35F8FDBF800072168006805F056FFD2
:1089F00098B3206800F01F0080F0100025FA00F006
:108A0000C00701F0F382DDF844B00121DBF8F8067D
:108A1000BFF35F8F00F01F0080F0100001FA00F03C
:108A2000C04356E8021F014046E80212002AF8D16E
:108A3000BFF35F8F01208BF80407DBF8E406DBF857
:108A4000EC46DBF8E836DBF8F0260168009404A871
:108A500000F5A1500BF0F0FF0AE00120DDF844B072
:108A60000DF5805189F8000040F20110A1F83004A2
:108A70000DF6F4700122D0F83C14D0F8400488F8C8
:108A80000020CAB2022A01F0B682CA070AD0109AA0
:108A900001201070C1F300200D90C1F307200C904D
:108AA000072033E0DBF8D416DBF8C8660D18CBF8E6
:108AB000D456B188884280F0F38110980124047064
:108AC000DFF884070BF06EFCB5F5806F02F246808C
:108AD0000BF52F70CDF8844C0DF67844CDF8780C5A
:108AE0002844CDF8804C2146CDF87C0C04A80EF02B
:108AF0003DF80DF580500EF08CFA40F014820DF523
:108B0000805090F831340520CDE90C330E901520BB
:108B100010900DF66C400DF526780DF5237990E850
:108B20001C0041460DF546601CC10CC849460CC1ED
:108B3000028880780A8088709AA80DF63C410DF072
:108B4000C6FF8AA80DF6FC310EF051FA61A80DF6A9
:108B500058310EF0B2F819A80DF638210EF02EF9A2
:108B60000DF624200DF1500B90E87C0059460120B1
:108B70007CC10DF59E650F990870284698E80E0097
:108B80000EC0B9E806000DF2E44006C02422B9F890
:108B90000010018099F8021081700DF598609AA973
:108BA0000EF0F3FC0DF590608AA90EF020FAF7A8FC
:108BB00061A90EF082F8AFA819A90EF0FFF80DF523
:108BC0002A789BE85E0040465EC09DF84F00DDF8C5
:108BD00040B08DF8A602BDF84D00BBF1150FADF801
:108BE000A40229D10E9D6FF001000C99DDF844B06C
:108BF0006C1F50FA84F0B0FA80F04009084200F08F
:108C00005481DBF878020068CBF8B80204A90BF5B0
:108C10002F7001F5A15191E81C001CC000208BF8B9
:108C2000C80212980168059806F024FA002800F09E
:108C30007280042001F05CB9119E0020F0720D9842
:108C400086F808B0B0720E98707206F10C000E90A3
:108C500095E80E000EC00DF2E4410B220898307723
:108C60000798B06106F11D000EF08FFC06F1280098
:108C70000DF598610DF02BFF09980DF590613F22DD
:108C800086F84C0006F14D000EF07FFC06F18C00DA
:108C9000F7A90EF012F80A9840F21F1286F8300178
:108CA00006F23110AFA90EF070FC98E83E0006F510
:108CB00014704FF013094FF0000C4FF000083EC045
:108CC0005946002500240023BDF8A4020B9AA6F8FB
:108CD00065029DF8A60286F8642286F867020120E4
:108CE00001260F90DDF844B0DFE811F01F00CD0140
:108CF000150083028F0115004C09150015001500A1
:108D000015001500150015005D09C4021500730952
:108D1000140215001500DBF8785200200BF5E26113
:108D20008BF81007CBF8B852FAE5DBF80C00CBF85B
:108D30008402C0074FF4187018BF4FF419700299DD
:108D40000858CBF8B8020DF077FE059E002800F019
:108D5000598100219BF885329BF886229BF8874237
:108D600000F11005CBF88802CBF820660BF53070C7
:108D70000BF22E688BF82E160121CBF828568BF8B3
:108D80002D268BF82C36CBF824168BF8B84200240D
:108D9000CBE9BC6142EA0321CBF800538BF80A43CC
:108DA000CBF8F842ABF8041312990968FEF77EFA83
:108DB0000DF057FE08BF032188F8001000F01C8159
:108DC000C00740F0FD80DBF88802DFF88024018CCA
:108DD0001030CBE9AE02CBF8CC02CBF8C4024FF492
:108DE0005872481CABF8D012ABF8C812ABF8C002EE
:108DF00002A800F5815404A80DF099FE04980EF025
:108E000071F8059D00208BF83D06CBF83856686850
:108E100080470DF03AFF0DF015FE0EF072F80DF0E0
:108E200020FE08BF0321039A117000F0E280C00702
:108E300040F0C680DBF888020022018C8BF83D26CA
:108E4000059A1030CBF8CC02CBF8C402CBF8382608
:108E5000DFF8F823ABF8D012CBE9AE0201F5807051
:108E6000ABF8C80201F20110ABF8C002DBF83856CB
:108E7000686880470DF009FF0DF0E4FD0EF041F841
:108E80000DF0EFFD08BF0321039A117000F0B780C9
:108E9000C00740F09580DBF8880205F085FB3AE7D3
:108EA000DBF8CC46DBF8D0865EE500200DF580517E
:108EB0000D9E81F832040DF5805080F831640DF577
:108EC000805080F83054E2480BF060FAE1480BF033
:108ED0004BFAE0B2032828BF0124E0B2002800F0DA
:108EE0007380012840F07D8004A800F5A150441C47
:108EF00001200BF042FAD8480BF036FAE8B2DFE86E
:108F000010F00500860882088408800800200BF015
:108F100034FAD2480BF028FAF0B2182841F08180D8
:108F2000002001F078B80DF6F4700E23D0F840540C
:108F3000142D3FF6E8ADDFE815F0150060098C0A46
:108F400000097F0E350B480BAB0A890BB5098B0B5B
:108F5000E50847094A0BB3088A0AB0081A0BA30BA5
:108F6000A50B770B0DF6F47104200DF0D3FE04A8C9
:108F700000F5A150FFF720FBC0070B467FF4C3ADFF
:108F8000C8B20E230C4602283FF4BDAD04A80DF074
:108F900066FC054680B2030AE8B202283FF4B3AD8E
:108FA000E8074FF00E033FF4AEAD04A80DF057FCF8
:108FB00081B20E0AC1B2022941F05C853346A2E5B6
:108FC000DBF8880200F021BF00200BF0D6F9A4489E
:108FD0000BF0CAF9A34970B251F82000007801F0F3
:108FE0001AB802200BF0C9F9304605F0B3FB01F0C6
:108FF00014B8072000F07CBF062000F079BF0820DD
:1090000000F076BF052000F073BFDBF87C02C822B9
:10901000011D02A800F5815420460EF06BFA04A849
:10902000214600F5A1500DF055F90DF580504FF493
:10903000137290F830840DF5805090F831540DF58E
:10904000805090F832640DF5805090F833940DF50F
:109050008050B0F834B40DF58050B0F836440DF6B9
:10906000F470D0F844040F9004A800F5A15000F16A
:109070000C010DF2FC400EF03DFA0B9A4B46DC461B
:109080004FF0050946E0BDF8F0044FF41871ABF855
:10909000B4029DF8F2048BF8B6029BF8B4020028E3
:1090A00018BF4FF4197102984058CBF8B8020DF070
:1090B000C3FC059B002800F085800021BBF8B52289
:1090C000CBF88C021030CBF820368BF8B8128BF826
:1090D0002E160121CBF82806ABF82C26CBF8241647
:1090E000129801680BF5307005F068FFC0B20228D5
:1090F0006BD0C00779D1DBF88C029BF8B8629BF883
:10910000B6529BF8B5829BF8644205F04DFA2246B0
:109110004FF00209D0B2FF2851D0DDF844B00F98CB
:109120000DF2FC41CBF8C402ABF8C2428BF8BD5241
:109130001546DBF874420BF532704FF41372ABF83E
:10914000C0C28BF8BF328BF8BE628BF8BC820EF0C7
:10915000D1F91520CBF818458BF814558BF8B802C7
:1091600004A80BF2B92140F25F2200F5A1500130B2
:109170000EF00BFA0DF58050129B059D80F830948F
:109180000DF6F470C0F89C36C0F8A04620680028A0
:1091900041F0DE854FF0FF30211D206002A804AAB7
:1091A00000F5815002F5A15203F01EFC2068013049
:1091B00020600DF5805090F82800152808D1DDF8C2
:1091C00044B0A8E5092000F093BE0A2000F090BE4C
:1091D00002A84FF4187200F5815128460EF08AF962
:1091E000DDF844B00E2000F083BEDBF88C0200F006
:1091F0000CBEDBF87C4204A80E990DF0BFFD0CF00C
:10920000B4FF201D2946C8220EF074F9E0881649E3
:10921000088080E5409101001C8D0100B89201009A
:10922000C092010050930100A49301005C8D0100E5
:109230002888010058880100D4940100090000002A
:109240006C8D0100240D01200A00000025F00000B3
:10925000180000002A000000300000000600000096
:109260002F00000060C30100000000202DF000006E
:109270001DF00000DBF86802CBF8B8020DF0DCFB53
:10928000002800F0F385CBF8900200F11001DBF824
:109290006C02CBE9AE101299096805F063FF002853
:1092A00000F0EA850446CBF89402DBF8B86206A821
:1092B0000DF5E9654FF4317200F5C15128460DF006
:1092C0005AFF0DF164090DF63821362248460EF09A
:1092D0005CF902A840F28D3200F5815804A800F52F
:1092E000A15140460EF006F9059829464FF4317217
:1092F0000DF041FF10340BF2845049463622CBF872
:109300007C65CBF880450EF040F90020414640F2E4
:109310008D328BF8BA050BF2BB500EF036F90BF21A
:10932000BA501090CBF83864CBF83C440021308A16
:109330008BF826190BF25441CBF8C062CBF8B86217
:10934000CBF85464CBF820195FF8E010ABF8C402F6
:10935000ABF8BC020B30CBF85814ABF85C040DF042
:109360005AFA03F08BFDC1B2022900F079850DF0A5
:1093700095FB40F0B1840DF0C0FBABF886050BF215
:1093800086500CF0FBF9ABF88405DBF838045FF885
:109390004421018ACBF8D002CBF8C802CBF8600494
:1093A0000BF58C60CBF864240DF0DDF901F6464036
:1093B000ABF8D412ABF8680401F54060ABF8CC020E
:1093C0000DF076F9C1B2022900F046850DF066FB7A
:1093D00040F082840DF091FB8BF895050BF29550CF
:1093E0000CF0DDF98BF89405DBF838045FF8A42164
:1093F000018ACBF8E002CBF8D802CBF86C040BF270
:109400006C40CBF870240DF0AEF901F64740ABF894
:10941000E412ABF8740401F54060ABF8DC020DF027
:1094200047F9C1B2022900F01D850DF037FB40F06D
:1094300053840DF062FB8BF897050BF297500CF0FC
:10944000AEF98BF89605DBF838045FF8E021018A65
:10945000CBF8F002CBF8E802CBF878040BF58F607C
:10946000CBF87C240DF0B1FA01F58770ABF8F4125B
:10947000ABF8800401F58070ABF8EC020DF0CBF98D
:1094800003F0B8FCC1B2022900F00C850DF006FB18
:1094900040F022840DF031FBABF88A050BF28A50C4
:1094A0000CF0A7F9ABF88805DBF838045FF8402228
:1094B000018ACBF80003CBF8F802CBF888040BF54F
:1094C0009160CBF88C240DF097FCABF80413ABF84B
:1094D000900401F54060ABF8FC020DF09CF903F03C
:1094E00011FDC1B2022900F0ED840DF0D7FA40F071
:1094F000F383010E000AAAF8000050468AF8021011
:109500000CF07FF9DDF844B05FF8C022CBF884049A
:10951000DBF83804018ACBF81003CBF80803CBF84A
:1095200094040BF29440CBF898240DF01CF901F14F
:109530002800ABF81413ABF80C13ABF89C040DF037
:10954000B7F8C1B2022900F0B9840DF0A7FA40F0D3
:10955000C3830DF0D2FA8BF89C050BF29C500CF0F3
:109560001EF98BF89B05DBF838045FF82023018A8D
:10957000CBF82003CBF81803CBF8A0040BF59460CC
:10958000CBF8A4240DF0EFF801F20510ABF824138A
:10959000ABF8A80401F58070ABF81C030DF03BF9A3
:1095A00003F04AFCC1B2022900F090840DF076FA73
:1095B00040F092830DF0A1FA8BF89E050BF29E50BD
:1095C0000CF0FEF88BF89D05DBF838045FF8842377
:1095D000018ACBF83003CBF82803CBF8AC040BF2AC
:1095E000AC40CBF8B0240DF0BEF801F58370ABF8B9
:1095F0003413ABF8B40401F58070ABF82C030DF014
:109600000AF903F0B9FCC1B2022900F015840DF08B
:1096100045FA40F061830DF070FA8BF8A0050BF568
:10962000B4600CF0DEF88BF89F05DBF838045FF8C7
:10963000E423018ACBF84003CBF83803CBF8B80415
:109640000BF59760CBF8BC240DF08DF801F11900F3
:10965000ABF84413ABF83C13ABF8C0040DF0DBF8E7
:1096600003F0EAFBC1B2022900F0E2830DF016FA22
:1096700040F032830DF041FA8BF8A2050BF2A250B4
:109680000CF09EF88BF8A105DBF838045FF8442451
:10969000018ACBF85003CBF84803CBF8C4040BF293
:1096A000C440CBF8C8240DF05EF801F10F00ABF810
:1096B0005413ABF84C13ABF8CC040CF0F9FFC1B267
:1096C000022900F0EB830DF0E9F940F005830DF07D
:1096D00014FA8BF8A4050BF2A4500CF060F88BF888
:1096E000A305DBF838045FF89C24018ACBF86003FB
:1096F000CBF85803CBF8D0040BF59A60CBF8D42400
:109700000DF031F801F11200ABF86413ABF85C1303
:10971000ABF8D8040CF0CCFFC1B2022900F0A8834A
:109720000DF0BCF940F0D8820DF0E7F98BF8A605F2
:109730000BF2A6500CF033F88BF8A505DBF83804D3
:109740005FF8D824018ACBF87003CBF86803CBF814
:10975000DC040BF2DC40CBF8E0240DF036F901F527
:109760004660ABF87413ABF8E40401F54060ABF865
:109770006C030DF091FAC1B2022900F087830DF05D
:109780008DF940F0A9820DF080F9ABF8BC05DBF84B
:1097900038040022018A8BF846295FF830250DF045
:1097A000F9F80DF00FFBC1B2022900F05383C10795
:1097B00040F09082000AADF8380A0DF638200CF01F
:1097C00043F8119E119D119C119B8646DBF8840481
:1097D0001199119ABBF88885BBF8BC9596F8A5C578
:1097E000119E95F8A35594F8A1450F90BBF88405F8
:1097F00091F894B5119993F89F3592F89D2586F8C4
:1098000053C4119E0E9091F89605119986F8525402
:10981000119D91F89B1585F85144119C84F85034A2
:10982000119B83F84F24119A82F84E1411995FF816
:10983000C42581F84D0411990E9881F84CB4DDF8D7
:1098400044B0ABF844040F98ABF84AE4ABF8489442
:10985000ABF84684CBF84004DBF83C04018ACBF833
:109860008003CBF87803CBF8E8040BF59D60CBF8C8
:10987000EC240DF0AAF801F10B00ABF88413ABF85F
:109880007C13ABF8F0040CF0C6FF03F0F7FAC1B29A
:10989000022900F00B830DF001F940F01D820DF05C
:1098A0002CF9ABF88E050BF28E500BF067FFABF87E
:1098B0008C05DBF83C045FF86C26018ACBF890033A
:1098C000CBF88803CBF8F4040BF2F440CBF8F8247F
:1098D0000CF049FF01F64640ABF89413ABF8FC04DA
:1098E00001F54060ABF88C030CF0E2FEC1B2022936
:1098F00000F0E0820DF0D2F840F0EE810DF0FDF8BE
:109900008BF8A8050BF5B5600BF049FF8BF8A705A0
:10991000DBF83C045FF8CC26018ACBF8A003CBF837
:109920009803CBF800050BF5A060CBF804250CF0EC
:109930001AFF01F64740ABF8A413ABF8080501F590
:109940004060ABF89C030CF0B3FEC1B2022900F0FA
:10995000C5820DF0A3F840F0BF810DF0CEF88BF872
:10996000AA050BF2AA500BF01AFF8BF8A905DBF839
:109970003C045FF80827018ACBF8B003CBF8A803B2
:10998000CBF80C050BF20C50CBF810250DF01DF8A0
:1099900001F58770ABF8B413ABF8140501F58070CE
:1099A000ABF8AC030CF037FF03F024FAC1B2022984
:1099B00000F068820DF072F840F08E810DF09DF895
:1099C000ABF892050BF292500BF013FFABF8900539
:1099D000DBF83C045FF86827018ACBF8C003CBF8BA
:1099E000B803CBF81C050BF21C50CBF820250DF06A
:1099F00003FAABF8C413ABF8240501F54060ABF8EB
:109A0000BC030CF008FF03F07DFAC1B2022900F09C
:109A100061820DF043F840F05F81020A5146000E6A
:109A200021F8132F887008460BF0EBFEDDF844B0E8
:109A30005FF8E827CBF81805DBF83C04018ACBF87F
:109A4000D003CBF8C803CBF828050BF5A560CBF8FD
:109A50002C250CF088FE01F12800ABF8D413ABF8EC
:109A6000CC13ABF830050CF023FEC1B2022900F094
:109A7000DB810DF013F840F02F810DF03EF88BF8EC
:109A8000AF050BF2AF500BF08AFE8BF8AE05DBF89A
:109A90003C045FF84828018ACBF8E003CBF8D803F0
:109AA000CBF834050BF23450CBF838250CF05BFEC4
:109AB00001F20510ABF8E413ABF83C0501F580703A
:109AC000ABF8DC030CF0A7FE03F0B6F9C1B2022933
:109AD00000F0A6810CF0E2FF40F0FE800DF00DF8E2
:109AE0008BF8B1050BF2B1500BF06AFE8BF8B005A4
:109AF000DBF83C045FF8AC28018ACBF8F003CBF824
:109B0000E803CBF840050BF5A860CBF844250CF032
:109B10002AFE01F58370ABF8F413ABF8480501F5A4
:109B20008070ABF8EC030CF076FE03F025FAC1B2BE
:109B3000022900F0AF810CF0B1FF40F0CD800CF0B5
:109B4000DCFF8BF8B3050BF2B3500BF04AFE8BF839
:109B5000B205DBF83C045FF80C29018ACBF800045D
:109B6000CBF8F803CBF84C050BF24C50CBF8502552
:109B70000CF0F9FD01F11900ABF80414ABF8FC137B
:109B8000ABF854050CF047FE03F056F9C1B20229B8
:109B900000F074810CF082FF40F09E800CF0ADFF6D
:109BA0008BF8B5050BF2B5500BF00AFE8BF8B40537
:109BB000DBF83C045FF86C29018ACBF81004CBF881
:109BC0000804CBF858050BF5AB60CBF85C250CF01E
:109BD000CAFD01F10F00ABF81414ABF80C14ABF88C
:109BE00060050CF065FDC1B2022900F02D810CF07A
:109BF00055FF71D10CF081FF8BF8B7050BF2B75010
:109C00000BF0CDFD8BF8B605DBF83C045FF8C429FA
:109C1000018ACBF82004CBF81804CBF864050BF2CA
:109C20006450CBF868250CF09EFD01F11200ABF8F2
:109C30002414ABF81C14ABF86C050CF039FDC1B260
:109C4000022900F04F810CF029FF45D10CF055FF9F
:109C50008BF8B9050BF2B9500BF0A1FD8BF8B805E4
:109C6000DBF83C045FF8FC29018ACBF83004CBF820
:109C70002804CBF870050BF5AE60CBF874250CF01A
:109C8000A4FE01F54660ABF83414ABF8780501F595
:109C90004060ABF82C040CF0FFFFC1B2022900F0C9
:109CA000CF800CF0FBFE17D10CF0EFFEABF8BC053B
:109CB000DBF83C040022018A8BF846295FF8542A1D
:109CC0000CF068FE0DF07EF8C1B2022900F0C080F1
:109CD000C1075DD04FF0010B04A800F5A15906A8FB
:109CE00000F5C15299E873000DF52169134673C35D
:109CF00001201099BBF1000F0870484692E87A00E5
:109D00007AC07AD1DDF844B0DBF87C0299E87C00B7
:109D100000F1D0017CC180F8F7E080F8F6C080F84F
:109D2000F580069980F8F410079980F8F3100899E7
:109D300080F8F210099980F8F1100A9980F8F01073
:109D40000B99A0F8EE100C99A0F8EC100D99A0F862
:109D5000EA100E99A0F8E8100F99C0F8E410DBF8AB
:109D6000940204F021FCDBF8900204F01DFCDBE916
:109D70009F54D5F8F82005F1D000214605F078FB76
:109D8000D5F8FC20281D214605F0B4FBFEF7C3BF23
:109D9000000AADF8380A0DF638200BF055FD0B908F
:109DA000DBF818059BF8B4859BF8B6C59BF8B8E5B9
:109DB0000BF588690F90BBF88C050E90BBF89005E9
:109DC0000D90BBF8BC050C909BF8A7050A909BF87A
:109DD000A90509909BF8AE0508909BF8B00507907F
:109DE0009BF8B205069004A800F5A15599E80F0864
:109DF00085E80F084FF0000B6EE7DDF844B0DBF8A4
:109E0000940204F0D1FBDBF8900204F0CDFB0122B8
:109E1000002001218BF8B7220D91CBE900206BE0E7
:109E2000DDF844B0162060E0DDF844B015205CE0B9
:109E3000DDF844B00B2058E0DDF844B00A2054E0CF
:109E4000DDF844B01B2050E0DDF844B019204CE0B0
:109E50001C204AE00F2048E0DDF844B0042044E034
:109E6000032042E0DDF844B005203EE00B203FE057
:109E7000DDF844B00D2038E00C2039E0DDF844B0C6
:109E8000182032E0DDF844B013202EE0DDF844B0B5
:109E90000E202AE0DDF844B0172026E0DDF844B0BB
:109EA0000C2022E0DDF844B006201EE0DDF844B0CE
:109EB00010201AE0DDF844B0112016E0DDF844B0BF
:109EC000082012E0DDF844B007200EE0DDF844B0D1
:109ED00009200AE0DDF844B0142006E0DDF844B0C3
:109EE000122002E0DDF844B01A20109908700D200D
:109EF0008BF8B70200200D90DAE9EC01014341F044
:109F00002E839BF880090E91F0B104282ED19BF886
:109F1000F00D0BF55F6868B3032840F02E879BF8BF
:109F2000AD0D0BF6AD56DFE810F005002C07D30E93
:109F3000D30AFB0A9BF8AE1DDBF89C4DDBF8A02D85
:109F4000DBF8A80D01F06ABADAE9EE01DBF8745922
:109F5000CAE9F201DBF85809DBF87019CBF87C5933
:109F6000CBF87819CBF8680900F016BFDBF88859F0
:109F700000F01ABFDBF88899DBF88CB99BF8006019
:109F800000F087BFBA4845F20F244FF00709D0F818
:109F90000080D0F804C04FEA18634FEA18464FEA31
:109FA0001825FFF7B7B89BF80E009BF80C40002867
:109FB00041D0012869D1DBF870020C2C00F08484B8
:109FC0000B2C00F082840A2C7EF4A5AE043000F045
:109FD0007CBCDBF87C029BF80C100170DBE99F0174
:109FE000D0F8002105F0C8FAFEF795BEDDF844B0C0
:109FF00003200CF0ACFF0F99032008701099087033
:10A0000076E7042007E0022005E0032000E00120BD
:10A010000AF0B3F930460AF0B0F90AF08DFAFFF70A
:10A02000CEB801200AF0A9F992480AF09DF920461D
:10A030000BF07AFDF1E79BF80D000DF58051DBF890
:10A040007052164681F831040DF5805080F8304486
:10A0500089480AF09BF987480AF086F904A800F5B8
:10A06000A1500BF061FD30460AF087F90AF064FA5E
:10A070000C2C00F02E840B2C00F02C840B980A2C56
:10A080007EF449AE043500F026BCDBF870020021F6
:10A090004170C1704171FEF73EBE102500F0B6BDA3
:10A0A00004A80DF678410CF061FD0DF580500CF020
:10A0B000B0FF3EF424AD0DF6F4700E23D0F840044A
:10A0C00017283EF620AD00250024DFE810F08505B6
:10A0D00018004E05500552055405560558055A05F9
:10A0E0005C055E05600562056405660568056A0530
:10A0F0006C056E05700572057405760584050124EE
:10A1000000F06ABD01200DF6F4780DF57F6148E995
:10A11000014004A80CF032FEFEF7ECF80DF580507B
:10A1200090F832940DF58050B0F83064022E40F073
:10A13000BF8215250DF60370EFE204A80DF67841F5
:10A140000CF0ADFE0DF5805090F86806022800F086
:10A15000358221460DF56F600CF0F2FE0DF6F470BD
:10A16000D0F8480407900DF5805090F840840DF524
:10A170006E600DF00AFA04F11C010DF6BC600CF0E3
:10A18000A6FC0DF5805004F141013F2290F8709437
:10A190000DF678600DF0F9F904F180010DF6D45058
:10A1A0000CF08BFD0DF580500CF0C3FE06A800F5F9
:10A1B000C1500DF0EAF904F511700DF6BC510CF028
:10A1C00050FD032500F027BD0320CDF80C4F0DF600
:10A1D0000C71CDF8100F04A800F5A150FDF7DDFFBC
:10A1E0000DF5805090F834540DF6F470D0F83C041E
:10A1F000022840F095822846CBE30DF6F471032047
:10A200000CF088FD04A800F5A150FEF7D5F9C007B1
:10A210000B467EF478ACC8B20E230C4602283EF4FE
:10A2200072AC04A80CF01BFB054680B2030AE8B22E
:10A2300002283EF468ACE8074FF00E033EF463AC2E
:10A2400004A80CF00CFBC0F30721C2B2022A0B4693
:10A250003EF459AC0CF027FD3EF455AC8DF8F21EDF
:10A2600025F0FF0004F001010125084400F0CCBCFA
:10A2700060000010310000000B000000E0870100CA
:10A280001888010048880100B49301008C8C0100FB
:10A29000D5E70000C49301003C8D0100948C0100BF
:10A2A000609201000320CDF8044F0DF60471CDF843
:10A2B000080F04A800F5A150FDF76FFF0DF58050C1
:10A2C00090F834640DF6F470D0F83C04022800F0E5
:10A2D0004682C0074FF00E0000F05B830DF5805002
:10A2E0000DF6047190F837B40DF58050B0F8359440
:10A2F00004A80CF043FDFDF7CCFD0DF580510DF5E4
:10A300008050B1F8304490F83204022C00F04183C0
:10A310000DF6F4721090D2F84214D2F83F04D2F83D
:10A320004634C2F82F10D0620DF58050079305F126
:10A330000F010B2290F83E040D9005A800F58058FF
:10A3400040460DF022F905F11A010DF57F600CF081
:10A35000BEFB0DF5805005F13F013F2290F86E04E1
:10A360000E900DF57B600DF010F905F17E010DF6F4
:10A370000C70A4220DF009F9E0074FF00E0000F078
:10A38000088304A80DF604710CF0F8FCFDF781FDBC
:10A390000DF580510DF58050B1F8304490F832043D
:10A3A000022C00F0F6820C9002A8E91C40F21F1269
:10A3B0000CF0E8FCE0074FF00E0000F0EA8206A87F
:10A3C00002A940F21F1249EA0B4500F5C15001F500
:10A3D00081510DF08FF80D980DF6F4718DF8EC0E9B
:10A3E000C86AD1F82F10CDF8F81ECDF8F50E0DF58E
:10A3F0006E60B8E8060006C02422B8F8001001809C
:10A4000098F8021081700DF6BC600DF57F610DF0BB
:10A41000BCF80E980DF57B613F228DF8B80E0DF655
:10A4200078600DF0B2F80DF6D4500DF60C710CF00A
:10A4300044FC0199280C8DF8F06E887010980D80FE
:10A4400009250DF55D618DF8F40E0C98A4E20F2539
:10A45000DCE30DF6F47103200CF05CFC04A80CF0B6
:10A46000FEF9C0F30724C1B2022923463EF44BABE8
:10A470000CF019FC3EF447AB04A80CF0F0F981B2E3
:10A480000D0AC1B2022940F089822B46FEF73BBB80
:10A490000DF6F4710120C1E90D4006200CF03AFCE4
:10A4A00004A80CF0DCF9C0F30725C1B202292B4641
:10A4B0003EF429AB0CF0F7FB3EF425AB04A80CF0FE
:10A4C000CEF9044680B2030AE0B202283EF41BAB88
:10A4D000E0074FF00E033EF416AB04A80CF0BFF9F2
:10A4E000C0F30726C1B2022933463EF40CAB0CF090
:10A4F000DAFB3EF408AB04A80CF0B1F9C0F307296D
:10A50000C1B202294B463EF4FEAA0CF0CCFB3EF44D
:10A51000FAAA04A80CF0A3F9C0F30728C1B20229D3
:10A5200043463EF4F0AA0CF0BEFB3EF4ECAA04A8AD
:10A530000CF095F9C0F3072BC1B202295B463EF43B
:10A54000E2AA0CF0B0FB3EF4DEAA02A800F58150AE
:10A55000FEF754F80CF00EFB18BF00F07F411144D9
:10A560004FEA114140F0DF830B46FEF7CCBA04A856
:10A570000DF678410CF0FAFA0DF580500CF049FD1B
:10A580003EF4BDAA0DF6F470D0F840140120012964
:10A5900004D00E2300297EF4B6AA00208DF8F00E18
:10A5A000112533E304A80DF678410CF078FC0DF585
:10A5B000805090F86806022840F0D3800DF5805056
:10A5C00090F830048DF8030F24E306251EE30120E4
:10A5D0000DF6F475C5E90D4004A802A900F5A150D7
:10A5E00001F58151FDF7D9FD0DF58050D5F83C14EA
:10A5F00090F83404022900F01283C9074FF00E03CB
:10A600003EF481AA0DF580510DF580528DF8F00EC3
:10A610000D2591F83714B2F8352442EA0141019A28
:10A620001180090C9170F1E20220CDF80C4FCDF8A9
:10A63000100F0DF60C70FDF7ABFF81B20D0AC1B221
:10A64000022940F0C8808DF8035FE3E20825DDE2CF
:10A6500002200DF6F479C9E9084004A800F5A155D7
:10A6600005A80CF003FC0DF5805090F832840DF530
:10A670008050B0F83064022E40F0E880404688E117
:10A680001225C3E202200DF6F475C5E90D4004A8B9
:10A6900002A90CF05FFB0DF58050B0F830040228E1
:10A6A00040F005810DF5805090F83234FEF72BBA5A
:10A6B000E91C0DF60C700CF0FDFAD8F84A040DF503
:10A6C0007B6405F113010B2207900DF5805090F883
:10A6D00042840CF0D0FA02A805F11E0124220CF0ED
:10A6E00051FBF0074FF015054FF00E010DF603700A
:10A6F00014D001980DF60C710B220B250CF045FFC0
:10A700008DF8EC8E0DF56E600CF066FB02A90DF66F
:10A71000BC600CF01BFB0DF56F60494601707AE2DE
:10A72000C0074FF00E0000F034810DF580500DF69B
:10A730000C7190F837840DF58050B0F8359404A86A
:10A7400000F5A150FDF753FB0DF580500DF6F473A5
:10A7500090F83464D3F83C04022840F0F780304687
:10A7600017E121460DF56F600CF0EAFB0DF6F47071
:10A77000D0F8480407900DF5805090F840840DF50E
:10A780006E600CF002FF04F11C010DF6BC600CF0D1
:10A790009EF90DF5805004F141013F2290F870942C
:10A7A0000DF678600CF0F1FE04F180010DF6D45046
:10A7B0000CF083FA0DF580500CF0BBFB06A800F5F9
:10A7C000C1500CF0E2FE04F511700DF6BC510CF016
:10A7D00048FA05251FE2C00700F0B882DDF8100F27
:10A7E0000E21002800F01482DDF80C0F02210DF676
:10A7F000F472C2E90D0102A800F58150FDF7C8FE10
:10A80000C1B2C0F307260229314600F00182C00719
:10A810004FF00E0100F0FC810DF6F470806B002803
:10A8200000F0F6810DF6F470446B04A800F5A15019
:10A83000214604F050FD0DF580500CF0EAFB40F08D
:10A8400045810DF5805090F83114E1E1E91C0DF5DA
:10A850007B600CF02FFAD9F84A040DF57F6405F1FE
:10A8600013010B2207900DF5805090F842940CF0E4
:10A8700002FA05F11E010DF60C700CF028F9F00734
:10A880004FF00E0000F0858004A800F5A15505A842
:10A890000CF0ECFA0DF5805090F832B40DF58050C4
:10A8A000B0F83064022E40F09280584671E0D5F83E
:10A8B0003C64D5F84054300C40EA0544B0B202285C
:10A8C0000ED12346FEF71FB9023000214170FEF77A
:10A8D00076BC02350B98287001206870FEF71BBA11
:10A8E000F0074FF00E033EF40EA904A802A90CF0E5
:10A8F00031FA0DF58050B0F8300402283FF4D2AEA2
:10A900000DF6F470D0F83C24D0F84014100C93B23B
:10A9100040EA0140022B00F08281D3074FF00E0382
:10A920003EF4F1A8330E120E019E8DF8F04E8DF814
:10A93000F60E43EA052342EA01222D0E090E357177
:10A940003360C6F80620B17213255FE1C007D3F863
:10A950004424D3F84114D3F848344FF00E00CDF816
:10A96000B32F0793CDF8B01F13D004A80DF60C71C8
:10A9700000F5A1542046FDF73AFA0DF5805090F805
:10A9800034140DF6F470D0F83CB4BBF1020F45D18D
:10A99000084615250DF6037108703CE10CF083F9AB
:10A9A0003EF4B1A804A80BF05AFFC1B202296BD043
:10A9B000C1074FF00E033EF4A6A800F47F40010A41
:10A9C0002843022544EA00208DF8F21E1CE102A86B
:10A9D000E91C3F220CF0D6F9F0074FF00E00D8D05A
:10A9E00002A90DF678603F220CF0B0F901980DF540
:10A9F0007B610CF05FF98DF8EC9E0DF56E600CF04C
:10AA0000EBF90DF6BC600DF60C710CF0BEFD8DF887
:10AA1000F08E0DF6B86158460A25BDE7109102A8E0
:10AA2000611D0B2200F581540CF025F95FEACB7013
:10AA30004FF00E00ADD00CCC0DF56E6149EA084028
:10AA40000CC18DF8F05E8DF8F46E0C2522880A801A
:10AA5000A2788A70DDF8B01FDDF8B32FCDF8F51EAF
:10AA6000CDF8F82E019A010C1080109891700DF617
:10AA7000EC6191E70CF017F93EF445A804A80BF03F
:10AA8000EEFEC1B202290ED180B2030AFEF73BB836
:10AA90005FF818085FF8182803E05FF820085FF8EF
:10AAA0001C280CF081FAC1074FF00E033EF42BA8CE
:10AAB00000F47F4005F47F410025304341EA004027
:10AAC00004F001010844CDF8F00E9FE00DF6F4709B
:10AAD000D4E90081D0F84004A1EB080204218242AD
:10AAE000C0F0968008EB0001B8F1000F216000F083
:10AAF0008E800E21622840F08B800DF56F6098F8F3
:10AB0000004008F10101092203300CF03EFD98F8E5
:10AB10000E0008F10F010B228DF8EC0ED8F80A0098
:10AB200007900DF56E600CF030FD08F11A010DF67E
:10AB3000BC600BF0CCFF98F83E0008F13F012322E7
:10AB40008DF8B80E0DF678600CF01FFD8DF8F05EF4
:10AB500014258DF8F24E8DF8F16E5CE05FF8D82880
:10AB600028464FF4806108F091FD022434E003246C
:10AB700032E0042430E005242EE006242CE00724F3
:10AB80002AE0082428E0092426E00A2424E00B24F3
:10AB900022E00C2420E00D241EE00E241CE00F24F3
:10ABA0001AE0102418E0112416E0122414E01324F3
:10ABB00012E0142410E015240EE0DDF8780CDDF826
:10ABC0007C1C042388423DF49EAF10F8015B1624E0
:10ABD000CDF8780C00E0172404A80DF678410BF0AE
:10ABE000C5FF0DF580500CF014FA3DF488AF0DF65A
:10ABF000F4700E23D0F8400402283DF684AF8DF89F
:10AC0000F20E44EA05200E25ADF8F00E14E00146E0
:10AC10008DF8031F15259DF8030F152D02D103464E
:10AC2000FDF771BF0E909DF8D00D0A909DF8B80EFB
:10AC300009909DF8EC0E089010950DF56F610DF6DA
:10AC400088480DF55B6B91E81C00404659461CC0D6
:10AC50000DF56E600CC80CC1028880780A8088707F
:10AC60000DF68C500DF6BC610BF031FF0DF64C501B
:10AC70000DF678610CF0BBF90DF6A8400DF6D45135
:10AC80000CF01BF806A90DF5E96040F21F1201F562
:10AC9000C1510CF02FFC0DF6BC500DF6944990E814
:10ACA0007C0049460DF548607CC1FDF771FCC0F39E
:10ACB0000722C1B2022913463DF425AF0BF0F3FF82
:10ACC0003DF421AF0B920DF66C4098E80E000EC0DB
:10ACD000BBE806000DF5466006C02422BBF8001054
:10ACE00001809BF8021081700DF63C400DF68C51EE
:10ACF0000CF04BFC0DF6FC300DF64C510CF077F9D6
:10AD00000DF658300DF6A8410BF0D7FF0DF63820A0
:10AD10000DF5E9610CF052F899E83E000DF624209B
:10AD20003EC0FDF7F6BE0BF0BEFF3DF4ECAE48EAC8
:10AD30000B2040EA0140CDF8F40E04F47F40284493
:10AD4000072540EA064040EA0960BCE60E2039E4E7
:10AD500000200DF6F4745FF8CC2A01210DF5E963AB
:10AD6000C4F854085FF8D80A0BF0D9FFCDF84C07A7
:10AD70000DF63820CDF8480707E05FF8E80A09F03B
:10AD800068FA5FF8EC0A09F064FA06A85FF8F41AAA
:10AD900000F5C15008F062FB0BF51661CBF888593D
:10ADA000CBF88C09CBF890192868002840F05E8316
:10ADB0004FF0FF30002105F1140405F1040828606C
:10ADC00095F89C09012805D105F10C000AF04AF814
:10ADD00095F89C19D5F89409D5F89829904201D195
:10ADE000C9070FD0411C0A1F18BF0A460021C5F829
:10ADF000942985F89C194FF4187100FB01F2A65CA8
:10AE0000152E08D112980068D0E9001240460AF0C9
:10AE100009F8152609E000FB014040F25F22411CC1
:10AE200004A800F5A1500CF0B0FB28680130152EE5
:10AE3000286000F0FE8102A804A940F25F2200F51C
:10AE4000815001F5A1510CF055FB162E00F04882FF
:10AE500002A80DF5E96440F25F2200F58151204619
:10AE60000CF048FB0BF6F550214640F25F228BF8C0
:10AE7000F46D0CF08AFB00208BF8F00D58460BF6B1
:10AE8000F45B00F67819C0F88CB900F55F68C0F87B
:10AE9000889900200DF6F4710BF10404C1F8440CFC
:10AEA000DFE816F015000201B700DC006C00740149
:10AEB0008A01DF00AA019300900161006F007C010C
:10AEC0003A00D90037002A018D01AD01350106A8ED
:10AED00000210BF0F7FCC0B2102840F0B7829BF8BD
:10AEE000041006A80BF0E5FFC0B2102840F0AE82B7
:10AEF0000BF08EFD40F0AA829BF805200BF09EFC23
:10AF000040F0A4829BF8060060540BF044FC07213B
:10AF1000E5E006A810213EE206A80E210BF0D2FCC7
:10AF2000C0B2102840F092829BF80400DFE810F0D5
:10AF30001800F801EC01F201E301FE010A02F5013B
:10AF40001002E9011302E001E6010402DD01EF0154
:10AF5000DA01FB010D022602010207021602290294
:10AF600006A800210FE206A80B210BF0ABFCC0B233
:10AF7000102840F06B8206A8214638E106A804217B
:10AF800009E206A80C210BF09DFCC0B2102840F08D
:10AF90005D82DBF8041006A80BF0E2FEC0B21028B8
:10AFA00040F0548206A80BF1080100F5C15001F0F1
:10AFB000BAF8C0B2102840F0498206A80BF114017B
:10AFC00000F5C15001F0AFF8E7E106A809210BF048
:10AFD00079FCC0B2102840F03982DBF8041006A8D2
:10AFE0000BF0BEFEC0B2102840F0308206A80BF174
:10AFF000080100F5C15001F0B2F8C0B2102840F0CD
:10B00000258206A80BF5947100F5C15001F0A7F850
:10B01000C3E106A802210BF085FDC0B2102840F064
:10B0200015820BF0F5FC40F011829BF804200BF028
:10B0300005FC40F00B829BF8050060540BF0ABFB65
:10B040000021B1EB902F40F001829BF806102154B3
:10B050000BF0A1FBA8E106A80F219CE106A80321A3
:10B0600096E006A8072100F5C155284604F062F9CC
:10B07000C0B2102840F0EA8100200021062900F02B
:10B080001D810DF6F472D2F8442CB0EB922F40F0F3
:10B09000DD81635C0131AB540DF6F473D3F8442CBD
:10B0A0000132C3F8442CE9E706A801210BF00AFCA1
:10B0B000C0B2102840F0CA819BF8041006A80BF01B
:10B0C000F8FEC0B2102840F0C1810BF08DFE40F0B8
:10B0D000BD819BF8051021540BF05DFB0621B0F5F6
:10B0E000806F80F0B3811BF8011006AA02F5C152EF
:10B0F00011540BF050FB53E106A811210BF0E2FBB9
:10B10000C0B2102840F0A2819BF8041042E106A8CA
:10B1100014210BF007FDC0B2102840F097810BF00E
:10B1200077FC40F093819BF804200BF087FB40F004
:10B130008D819BF805005FF8982E60540DF6F47130
:10B14000D1F8440C0130C1F8440C622000218DF884
:10B15000FC040020CDF8FD040DF2FC4003F0CAFA17
:10B1600002460B46204611461A4604F08DF8002888
:10B1700040F06C8106A80BF10601622200F5C15077
:10B1800004F082F8002800F00B815FE106A8052199
:10B1900000F5C1502246FCF75FF9FEE006A80D213C
:10B1A0000BF090FBC0B2102840F05081DBF8041087
:10B1B00006A80BF0D5FDF0E006A80621EBE006A8F6
:10B1C0001221E8E006A80A210BF07CFBC0B210288F
:10B1D00040F03C8106A8214600F5C15001F058F826
:10B1E000C0B2102840F0328106A80BF1440100F5EE
:10B1F000C15001F04DF8D0E006A80821CBE006A828
:10B2000013210BF05FFBC0B2102840F01F8106A88D
:10B21000214600F5C15001F027F8C0B2102840F0D7
:10B22000158106A80BF10A0100F5C15001F01CF8C8
:10B23000B3E0DBF88C09DFF8701EDBF8904903F00F
:10B240002CFA834690F830008846012800F02381CC
:10B25000129ADBF828000BF108091268C100D2E944
:10B2600000454A4649B11346083908325E68B5427E
:10B27000F8D11B689C42F5D12BE004280CD10026A4
:10B28000CBF82860042E07D00BEBC600D0E90210E3
:10B29000496888470136F5E7216828468847DBF882
:10B2A0002820032A12D849F8320009EBC200416075
:10B2B000DBF828000130CBF828000AE0BBF80A00D0
:10B2C00006A901F5C151FDF7E7F966E0002840F055
:10B2D000C080D8F80000DDF844B00130C8F80000A4
:10B2E000032039E106A810214DE006A80E214AE00E
:10B2F00006A80B2147E006A8042144E006A80C217B
:10B3000041E006A809213EE006A802213BE006A88C
:10B310000F2138E006A8032135E006A8072132E016
:10B3200006A801212FE006A811212CE006A805217E
:10B3300029E006A8142126E006A80D2123E006A88E
:10B34000152120E006A806211DE006A812211AE01A
:10B3500006A8082117E006A80A2114E006A816216D
:10B360000BF0E0FBC0B2102870D10BF03DFD6DD1A9
:10B370009BF8051021540BF00EFA09E006A81321E2
:10B3800001E006A817210BF09DFAC0B210285DD18C
:10B390009BF8061006A80BF095FAC0B2102855D1FC
:10B3A0000DF6F470D0F8440CB0F5806F4ED29BF8D7
:10B3B0005C2206A901F5C1510A540DF6F472D2F8C7
:10B3C000440C0130C2F8440C04A840F2044200F5D9
:10B3D000A150841C0BF04FFC02A8214640F204420D
:10B3E00000F581500BF0DCFCDDF844B0294640F25A
:10B3F00004420BF519640BF03EFCD9F800004FF441
:10B400008071DBF8902D0BF6AD56CBF89C4DABF868
:10B41000AD1D0121CBF8A80DCBF8A02D8BF8AC1DEC
:10B42000CBF8944DCBF8982DCBF8A40D214683880A
:10B43000DFF86C0C009004A80BF0A0FC03F066F998
:10B4400095E80E000BF55B600EC031E0DDF844B00E
:10B4500073E0C26808469047DFF8502C0DF6F4748C
:10B460000BF04FFBDFF8481CFDF73BBA00200DF650
:10B47000F474DFF8242C01210DF2FC43C4F85408C5
:10B48000DFF8180C0BF04BFCCDF800050DF638205A
:10B49000CDF8FC0479E4DBE90001DFF81C2CC4E9F9
:10B4A000000113210BF01FFCDFF8080C08F04FFA25
:10B4B0000BF55B6003F068FFB8B10022CBF8C00D5C
:10B4C000CBF8C41D8BF8EC2DDBF8A42DCBF8BC2DEC
:10B4D000129801680BF6BC50FBF732FFC0B202288D
:10B4E000E6D0032827D1032031E09BF8AC0D0128DA
:10B4F00021D1DBF8A40D8188002900F09680DBF8CB
:10B50000982DB2FBF1F303FB1121A1B90021012217
:10B51000CBF8B00D8BF8E01DCBF8B42DCBF8B81DEF
:10B52000129801680BF55B60FBF70AFFC0B20228B6
:10B5300001D003280AD0012030700120DBF87C59AB
:10B540008BF8F00DDBF86809FFF726BC0420032117
:10B550003070042088F800100E998BF880090029BB
:10B5600018BF01210E91DAF8C00ADAF8C41A50EABD
:10B57000010240F02E829AF8F40A0C92B0B103282E
:10B580002AD19AF8040B0AF6F8260AF60438C0B352
:10B5900003284ED19AF8010B0AF6FC240AF6013969
:10B5A000A0B303284DD19AF8005B73E0DAF8CC0A17
:10B5B000DAF8C82ADAF8D03ADAF8D44A0021CAF818
:10B5C000F01ACAF8E81ACAF8D82ACAF8DC0ACAF87F
:10B5D000E03ACAF8E44A38E09AF8440E0AF64468B9
:10B5E00088B1032829D19AF83A0E0BF5855B0AF643
:10B5F0003A6968B1032800F0CB80DFF8C00A08F090
:10B6000028FE30682AE0DAF8405E79E020682EE013
:10B61000DAF8F42D002A00F0CE80DAF8F01DDAF81E
:10B62000345E087860F07F0086E0DFF8780A08F082
:10B63000FDFDDFF8940A08F00CFEDFF8840A08F03C
:10B6400008FEDFF8800A08F004FE0021CAF8F80AB4
:10B650000AF604380AF6F8268AF8041B0021CAF80C
:10B66000FC0A0AF601390AF6FC24CAF8001B017824
:10B67000EC4A202901F01F0138BF4FF0A04202EB35
:10B680008101D1F8002742F44032C1F80027057843
:10B690008AF8005B302D80F00D831299DFF8300AB4
:10B6A000096800EBC5000BF04DFBDE48202D05F0CE
:10B6B0001F0138BF4FF0A04000EB8100D0F8000719
:10B6C00010F4403F40F07F8141F29800584409F067
:10B6D000BDF80125204689F8005002F017FF88F8D0
:10B6E0000050307B032802D1301D02F00FFFDAF842
:10B6F000D85A00200AF644688AF8440ECAF8405E18
:10B70000002010220AF6F821CAF8345E0BF5855B9A
:10B710000AF63A69CAF8F80ACAF8FC0ACAF8000B2D
:10B72000CAF8040B8AF83A0E0C20CAF8F01DCAF8C1
:10B73000F42D8AF8F80A8C20DFF898398AF8390E47
:10B740000026012001248AF8386E09F039FECAF873
:10B75000240E0AF63860CAF8281E0AF6F851CAF80C
:10B76000206ECAF80C6ECAF8144ECAF8F84DCAF822
:10B77000004E8AF8256BCAF8205BCAF8100E0AF64C
:10B780003960CAF8101BCAF8FC0D0320CAF8140B64
:10B7900012980168584601F069F9C0B2022800F019
:10B7A0000B81C00707D0DDF844B00121002400223E
:10B7B00089F800101EE00120DDF844B08AF83A0E46
:10B7C00041F291000BEB000104A800F5A15007F035
:10B7D0001FFE41F297000BEB000106A800F5C150D7
:10B7E00007F016FE9AF8070BBAF8051B052441EA84
:10B7F000004200210DF580500DF58053B0F83C98C3
:10B800000DF58050B3F830540123B0F83AE80DF547
:10B8100080500029B0F838C80DF58050B0F8346475
:10B820000DF58050B0F8320488F8003040F02C82DA
:10B83000DAF8E83A0021012B04D1DAF8EC1A511AAF
:10B8400021F07F41CAF8EC2A01224042ADF80065A0
:10B850000DF2FC46CAF8E82A40F27122ADF8FE0467
:10B8600068420025A1FB0212ADF8FC04090941EA77
:10B870000271DAF8F02A02EB0108CAF8F08A04A88B
:10B8800000F5A152032D18D002EB850006EB45010F
:10B8900000230124E4070ED003EB430300EB8304F1
:10B8A00031F9133000EE103A0123B8EEC00A84EDEE
:10B8B000000A0024EEE70135E4E706A813469FEDF1
:10B8C0005F0A00F5C15093E87000014670C1002185
:10B8D0000C2908D04318043193ED001A21EE001A08
:10B8E00083ED001AF4E790E838009FED550A114601
:10B8F000002038C10C2808D01118043091ED001A2E
:10B9000021EE001A81ED001AF4E70DF5E96092E8E6
:10B910003800014638C1DAF8E41A4A78002A48D0DB
:10B92000097802AA90E870000DF580509FED451A45
:10B930009FED452A02F5815202F1080370C380F899
:10B9400084120C200DF6F4710DF58053C1F8388087
:10B9500083F828000FFA89F000EE100A0FFA8EF033
:10B96000B8EEC00A80EE010A9FED381A20EE010AF7
:10B9700081ED140A00EE100A0FFA8CF00BF030FB88
:10B9800081ED130A00EE100A0BF02AFB81ED120A7A
:10B99000DAF8E01A04A800F5A15000F0EFFF0DF569
:10B9A000805090F83004152803D0DFF82C0708F0F9
:10B9B000F9FCDAF8DC0A48E60320DDF844B00BF0C5
:10B9C000C6FA042002E003200BF0C1FA0C9A8AF8B0
:10B9D000F40A002A18BF0122DAF8480EDAF84C1EE1
:10B9E00008430DD0DDE90D010840104000F04D8303
:10B9F00058460AF56C7401F0F5FA204601F0DEFABB
:10BA000041F2E8600C920BEB00080AF648600B90DC
:10BA100041F2E830834498F842000FF20C01D1E87B
:10BA200010F000BF0003005017004F0157018700BE
:10BA30009901BE0184009300270300BF0000003A73
:10BA40000AE81C416F1283426F1283C235FA8E3CA2
:10BA5000D8E90E0108F12004D8F81030D8F81820E1
:10BA600098F8156098F81C504FF000090BC498F82E
:10BA700041000021C8F82C2098F814400A9098F84A
:10BA800040000F9098F81D001090204600F048FCF0
:10BA90002846002100F044FC3046214600F09EFD7F
:10BAA000CDE908101098294600F098FD07919F49AC
:10BAB0000DF6F4731090042001240322C3F840040F
:10BAC00001F54051C3F83C1499490C60C1F8009548
:10BAD00098490A60D3F83C14CC604C60C1F810055A
:10BAE0004FF48074D3F8406404A800F5A1554E4586
:10BAF0002CD02846494608F051FFD1F800220628EC
:10BB000080F0D280012383409A43C1F8002204FAD6
:10BB100000F2D1F8003223EA0202C1F8002200222A
:10BB200008F066FF09F10109E1E7D8F8480059E19A
:10BB3000444614F8500F002800F08882032840F093
:10BB4000C380D8F84C50C4E0119E72E10DF6F47237
:10BB5000D2F84014D2F83C049163012141600421E1
:10BB6000C0F810150021C0F844114FF40031C0F89E
:10BB70000413506302A8002100F58155284608F0FF
:10BB80000DFF064689462846012108F007FF0446B6
:10BB90000D463046494602220696CDF8149008F02C
:10BBA00027FF2046294641F2883208F021FFD5F8C8
:10BBB0000002062C78D20121A14008432946C5F88D
:10BBC0000002204608F026FF099E584D0146DDF888
:10BBD00040900F9C06F03F0005EB800000F1300222
:10BBE00009F03F0005EB800000F13003204600F033
:10BBF00079FBDDE9051008F00DFF0146602040EA01
:10BC0000860240EA890055FA82F255FA80F30A9DCD
:10BC1000284600F067FB002088F80D5088F80C409B
:10BC200088F80A9088F8086088F80E00079888F865
:10BC30000B00089888F809000DF6F470D0E90D01A2
:10BC4000C8E900014046002108F0A8FE00F0B4FC5D
:10BC50004046012108F0A2FE00F0AEFC98F80C006E
:10BC600008F06EFE98F80D0008F06AFE32484FF4B6
:10BC7000007101600121D8F80000C160D8F800000F
:10BC8000016088F80E10D3E10DF58050DFF85434D0
:10BC900080F83044DFF84404009004A9DFF8400441
:10BCA00001F5A1520BF079F8DFF84804DFF84824D9
:10BCB0000AF06FFFDFF814242846302107F0B0FBAC
:10BCC000DFF82C0408F0C5FADFF8200408F0C1FA08
:10BCD000FEDEEFF3108172B6D5E900090022AB68F1
:10BCE000CE072A60022840F04F8106B962B60120D3
:10BCF000207004A9002001F5A151B2F5807F06D083
:10BD00008B1888501032C3E90100D860F5E704A809
:10BD1000002400F5A155B4F5007F0FD00BEB040013
:10BD200029460BF033F804F58074F4E70060004016
:10BD3000049000400895004000E100E0119941F2B4
:10BD4000E85008444FF480710BF0BEF9D8F8280091
:10BD5000C8F8480012984646016856F8480F03F0A4
:10BD600001FA002800F037810546C8F8300002A823
:10BD70004FF4587200F5815404A80AF0D8FE3046FA
:10BD80000BF0B0F80020119B0BF046F8A8F8B403B4
:10BD900005F110001A44C8E9EA21C8F8B003129866
:10BDA000016808F1480003F009F9C4B2022C00F060
:10BDB0001081D8F8300002F0F7FBE00740F0F58082
:10BDC000119941F2E850014404A800F5A15420461D
:10BDD00009F0A4FC584621460AF0D8FFD8F82C00F8
:10BDE000C8F848001299096803F0BCF9002800F06F
:10BDF000EE800546C8F8340002A84FF4587200F5EA
:10BE0000815404A80AF093FE119E41F2307021463D
:10BE10004FF4587230440BF0AEF900200AF0FCFFEA
:10BE20003244A8F8B40305F11000C8E9EA21C8F8C3
:10BE3000B003129941F230703044096803F0BEF843
:10BE4000C4B2022C00F0C180D8F8340002F0ACFB80
:10BE5000E00740F0AA80119C41F2E850211804A8A4
:10BE60000AF08CFF09F05AFC41F2E84029464FF4F1
:10BE7000807220440F900BF07EF9D8F824005946C8
:10BE80004FF480720079109004A80AF077FF0BF04D
:10BE900072F902A8002640F6FF7400F58159102EB1
:10BEA0000FD00AF0C0FE08BFA14203D08E4A104056
:10BEB000084301E003F002FA49F826001035013684
:10BEC000EDE702A90DF2FC4040220AF03FFF04A872
:10BED0000F994FF480720AF051FF0BF04CF90024D7
:10BEE00040F6FF760DF5E969102C11D00AF09BFEA3
:10BEF00008BFB14205D07C4A714010400843504011
:10BF000001E003F0DBF949F8240010350134EBE7D8
:10BF100002A80DF5E961402200F5815404F14000CA
:10BF20000BF033FB0DF2FC41204640220BF02DFBC1
:10BF300004A82146802200F5A155E81C0BF025FB42
:10BF40000A200DF58051832281F8380806A8294679
:10BF500000F5C154601C0BF018FB10980DF58051D2
:10BF6000224681F8940AD8F8201004A800F5A150C0
:10BF700000F004FD0DF5805090F83004152857D0DE
:10BF80005E4808F00FFA53E038BB12980068D0E919
:10BF90000010096888470DF6F4730122C3F83C24A9
:10BFA000C3F84004C3F844143AE0DDF844B041F269
:10BFB000E860584402F044FB0B9A0120002188F805
:10BFC0004200C2E900010C9A0CE507205BE0062064
:10BFD00059E0052057E0042055E012980DF6F47A58
:10BFE0000068D0E90010834208BF894511D0096874
:10BFF0009B4688470122CAF84004CAF84414CAF88C
:10C000003C2404A80AF064FFD9F804105846884775
:10C0100009E00120CAF84094CAF84434CAF83C0444
:10C0200004A80AF055FF06B962B6032020702AE082
:10C03000D8F82400407978B100204446119904F8DA
:10C04000500F41F2E860084444F8080C114800F130
:10C050004405C8F84C503CE608F05EFB002288F826
:10C06000502040F26762801841F10001C8E91201D6
:10C07000119941F2307008441299096808F044FFA0
:10C080000028D5D0082088F842000DF5E25D01B007
:10C090000AF02FBE240D01208C8C0100D5E7000092
:10C0A0002C8D01004C8D010038880100E48C0100CA
:10C0B000EC8C0100609301007493010080920100F8
:10C0C000BC8E01000889010018890100B4BC010080
:10C0D000200B0120709201001200000084930100E7
:10C0E0007CC10100308F01000000FF0FD0920100E1
:10C0F000949301009CBB010034BC010013000000BC
:10C10000F0B503AF4DF804BD0C4605460026242EBD
:10C1100006D00AF02DFEC1B204361029F7D000E097
:10C1200010200AF052BDF0B503AF4DF804BD0C4627
:10C13000054600260C2E06D00AF01AFEC1B20436BF
:10C140001029F7D000E010200AF03FBD80B56F46FF
:10C1500003F0F0F8C0B2102818BF022080BDF0B57F
:10C1600003AF2DE9000B884605464FF00009002477
:10C17000B4F5907F4FD038F804000AF02EFFC1B21A
:10C18000102945D108EB040629467088FCF784FA8B
:10C19000C1B210293CD1B0880AF01FFFC1B21029EA
:10C1A00036D1D5F80004B9EB902F30D1B1790AF02F
:10C1B00061FA2CD1F1790AF05DFA28D1317A0AF0CE
:10C1C00059FA24D1717A0AF055FA20D1B17A0AF0DD
:10C1D00051FA1CD1F17A0AF04DFA18D1317B0AF0EC
:10C1E00049FA14D1717B0AF045FA10D1B17B0AF0FB
:10C1F00041FA0CD1F17B0AF03DFA08D1317C1234BE
:10C200002954D5F800040130C5F80004B0E7022035
:10C21000BDE8000BF0BD1020FAE780B56F46C9B24B
:10C2200003F088F8C0B2102818BF022080BDF0B516
:10C2300003AF4DF804BD0D460446FFF761FFC1B2E0
:10C2400010290FD124350026142E0AD0A81990EDFC
:10C25000000A2046FCF712FAC1B204361029F3D0C6
:10C2600000E010200AF0B1BCF0B503AF4DF804BDFA
:10C270000C4605460026062E07D0A05B0AF0ADFE50
:10C28000C1B202361029F6D000E010200AF09DBCA1
:10C29000F0B503AF4DF8048D0C4605464FF000088D
:10C2A000B8F1400F0ED008F104080026042E07D084
:10C2B000A05B0AF092FEC1B202361029F6D002E06D
:10C2C0000434EDE710205DF8048BF0BDDCB504AF5D
:10C2D00014460A460093411C0020234608F0C2FE83
:10C2E000DCBDD4D4F0B503AF4DF804BDC4B2142CFA
:10C2F0000CD20A4D45EAC406C6F8101545EA840179
:10C30000C6F81425C1F810390AF05FBC0148024A8A
:10C310000AF0CDFC93900100B090010000F00140C4
:10C32000D0B502AF0F4AC3B20F4C202B38BF141D3B
:10C33000A2F5027302F5407238BF4FF0A0433CBF34
:10C3400040F20852C5F20002002900F01F0108BFA8
:10C35000224601248C4043EA810114600322C1F883
:10C360000027D0BD080500500C080050F0B503AF01
:10C370002DE9C00B044690F828000D46DFE800F0D8
:10C38000034E51103E00002004F12C0C84F8900064
:10C3900094E84F00ACE84F0004F1140CACE84F00F7
:10C3A0000AF073FDC0B2022802D10220032130E05E
:10C3B000C0074FF0000629D004F194084FF4007133
:10C3C00040460AF02AFE606A174B41464FF400725D
:10C3D00008F076FE81461548D4E908238846009087
:10C3E000484608F051FE04F1140204F12C0384F8CD
:10C3F0009060C4F83C8007CA83E807020AF045FD54
:10C40000C6B2022E02D10220042102E006F0010091
:10C41000012184F82810BDE80C0BF0BD014807F09D
:10C4200018FFFEDE788801008888010098880100E6
:10C43000F0B503AF2DE9800F814690F8640088467F
:10C4400050B103283FD14E4616F8600F90B3032831
:10C450003CD1D9F85C0090E0D9F81020D9E900046B
:10C46000D9E90213C9E90504C9E90713C9F8242069
:10C470004AB10120B3F1005FC0F08F8013441B0F5D
:10C48000022B00F28A8001204FF6FE7489F83800F2
:10C4900000208A4288BF11464FF6FF72B1FBF2F2CC
:10C4A000A2EB0243CB4218BF0132C9E90A10C9E925
:10C4B0000C240EE009F1440ED9E90FC5D9E9141492
:10C4C0009EE808442AE03B4807F0C3FE384807F0DE
:10C4D000C0FE0020002A60D04E4606F8600F501EB5
:10C4E00056F8341C46F8300CA6F1440E56E913C534
:10C4F0009EE8084460184FF6FF74013046F8340C8B
:10C5000056F8380C401AA04238BF0446A6F11C0069
:10C5100046E909C546E9041480E808445A1A4FF070
:10C52000000B944238BF22468B42634688BF0D44BD
:10C5300053F8040FC0F834554FF0000588BF95B28A
:10C54000AEEB0102C0F83855944238BF22468E4502
:10C5500088BF8A444FF00001C0F844A588BF91B25B
:10C56000C0F84815C0F818B14021C0F804130121E3
:10C570000161DCF80000C9E91630D8E9001208F0C2
:10C580007EFCD9F858000068D0F8180138B10120B5
:10C59000D9E90C2489F860009BE7012102E003211E
:10C5A0000220317089F86410BDE8080FF0BD00BFAB
:10C5B000C8880100B888010006283FBF01EB800051
:10C5C0000021C0F84011704780B56F460148024A0B
:10C5D0000AF0DFFA9CBB010044BC0100B0B502AF19
:10C5E000C2B2082A1CD2124ACBB201F01F04114D6C
:10C5F000202B02F540723CBF40F20452C5F200020B
:10C600001F2B126822FA04F262F3145588BF05F555
:10C610000055830045EA0422074CDBB21A51B0BD35
:10C620000148024A0AF0B5FAE8BB010064BC010007
:10C63000040500500300020010650040F0B503AF90
:10C640002DE9800F8046407A0D46DFE810F00500A6
:10C650001F01280149002B00D8F8040098F80810A1
:10C66000C8F80000DFE801F003DD4C5B4700022161
:10C6700080F8A0100021D8F8000080F89C10D8F8AD
:10C68000000080F89D10D8F8000080F8A1100AF092
:10C69000C7F8002D00F0D280F4E80201096988474C
:10C6A000083DF6E798F81000C00740F0F280D8F88F
:10C6B0000C0000680021C0F80015012088F8100067
:10C6C000D8F8000080F8A0100AF0AAF8002D00F0B9
:10C6D000D680F4E80201CA6800219047083DF5E7DA
:10C6E000464616F8180FDFE800F003D7DA42730069
:10C6F000D8F80C001AE02C300021C8E90301D8E773
:10C70000002180F89C100AF08BF8002D00F0B78013
:10C71000F4E80201CA6900219047083DF5E70021CD
:10C7200046462C3006F8181F46F80C0CC8F81000C6
:10C7300049F2753203230168404640F8141F5B49F3
:10C740000A60C1F814310A600B6803B90A60C0239B
:10C750004B610A600122D8F81410C1F800254FF48B
:10C760008002D8F81410C1F80423C8F81C005048FF
:10C77000D5E900121C3008F082FBD8F81C000068D4
:10C78000D0F80004000501D403202FE0D8F81400ED
:10C790004FF40061C0F800144448016811B949F22F
:10C7A00075310160002149F2753241610260026019
:10C7B000C0F8141102603F48802101603E49D8F85A
:10C7C0001400C0F80413D8F810000530C8F81C0095
:10C7D0003748D5E90012143008F051FB374801689A
:10C7E000890707D40068C00709D0042030700120F1
:10C7F000032146E0D8F814000121C0F804150120F7
:10C80000022188F81800D8F8000080F8A0100AF07B
:10C8100007F8A5B3F4E80201CA6801219047083D72
:10C82000F7E7012180F89C1009F0FAFF3DB3F4E826
:10C830000201CA6901219047083DF7E7D8F80000D6
:10C840004FF000090025816D00F1500B0BEB410A00
:10C85000D34514D08BF80090D8F8000000F15C04A8
:10C86000C06FC6003EB1F4E8020100224B6A2946BF
:10C870009847083EF6E701350BF1020BE8E7002088
:10C88000012188F80910BDE8080FF0BD064807F03F
:10C89000E0FC034807F0DDFC024807F0DAFCFEDEAE
:10C8A00014900100049001002889010000EC06406A
:10C8B000240D012004E100E00100400138040040A3
:10C8C000D0B502AF86B0044624300122D0E84F3FF5
:10C8D00063B9C0E8432F002BF8D120462422BFF3D0
:10C8E0005F8F0AF052FE204606B0D0BD0AF025FA4E
:10C8F000019104490AF043F968460091024906F0A3
:10C90000ADFD00BFD88B0100E08B0100FEB506AF86
:10C9100000F580710122D1E84F3F3BB9C1E8432FB8
:10C92000002BF8D1BFF35F8F06B080BD0AF005FA87
:10C93000019104490AF023F968460091024906F082
:10C940008DFD00BF2C8C0100348C0100B0B502AF0E
:10C950000D4609490446284601F09FFEC36A00229D
:10C96000032B04D80133C362C4E900222A46A26023
:10C97000086801300860B0BD548C0100B0B502AF4A
:10C98000ADF5227D05460C469891114668464FF458
:10C9900018720AF0AFFD206870B94FF0FF30211D0A
:10C9A0006A4600232060284600F01EF82068013007
:10C9B00020600DF5227DB0BD002008499D9001202A
:10C9C00099919A909C909FA806499B900448A090AA
:10C9D000A7F109009F9099A806F040FD8C8C0100FA
:10C9E000D5E70000948C0100F0B503AF4DF8048D3D
:10C9F000804691F8980916460D4698B116F8014BF5
:10CA0000152C2AD033B11868D0E9001205F10800BE
:10CA100008F008FA08F10100314640F25F220AF0FE
:10CA2000B4FD1EE0D5F894094FF418714FF4187254
:10CA300000FB0150314610300AF05CFDD5F8941926
:10CA4000D5F8900901310A1F18BF0A46C5F8942984
:10CA5000904204BF012085F89809284608F002FAA0
:10CA6000152488F800400AF0C7B8D4D4F0B503AF55
:10CA70002DE900070446407F8946DFE810F00A00F0
:10CA80007E008D003F0031004C002200C000DF001E
:10CA90006401A269D4E902014FF44173226101EB00
:10CAA0008101127B00EB8101202A38BF042302F0B0
:10CAB0001F02012606FA02F2BA4E9A51C4E9000199
:10CAC0006BE094F8A400A0B3032859D194F8A00017
:10CAD000002840D0032800F0FC80A94807F0B9FBEB
