:10700000000004205571000099430100477B0100F6
:1070100099430100994301009943010099430100FC
:107020000000000000000000000000009943010083
:1070300099430100000000009943010099430100B9
:1070400099430100994301000000000099430100A9
:107050000000000099430100000000000000000053
:1070600015F4000039F400005DF4000099430100BC
:10707000994301002D4E01009943010099430100FD
:10708000ADF5000099430100000000000000000081
:1070900099430100054F01000000000000000000BE
:1070A000994301009943010099430100994301006C
:1070B000994301009943010099430100994301005C
:1070C000994301009943010099430100994301004C
:1070D00099430100000000009943010000000000F6
:1070E0009943010000000000994301009943010009
:1070F00000000000994301000000000099430100D6
:1071000000000000000000000000000099430100A2
:10711000994301000000000081F400005DF50000CB
:107120000000000099430100000000000000000082
:10713000000000000000000000000000000000004F
:10714000000000000000000000000000000000003F
:04715000994301005E
:107154000DF023F90E480F490022814201D004C0EA
:10716400FBE70D480D490E4A814202D008CA08C007
:10717400FAE70C484FF47001026842EA0102026027
:10718400BFF34F8FBFF36F8F0CF0A6F900DE000042
:1071940050000020F03D002000000020500000209E
:1071A400B0A6010088ED00E0F0B503AF4DF804BDD2
:1071B400044690F84A000D46DFE800F0033E41051E
:1071C4002F000FF075FC0FF0DFFEC0B2022802D1D1
:1071D400022003212CE00FF02EFF26D12065002091
:1071E4000321E26B84F8950094F84800616602215B
:1071F400A165C4E92061C4F8902084F84D00D4E965
:107204000001C4E91A0101296FF07F00214688BFFB
:107214006FF07E0001F84C0F61650FF05BFFC0B2A8
:10722400022802D10220042102E000F00100012121
:1072340084F84A100FF057BE01480DF080F8FEDEC6
:107244004C7B0100F0B503AF4DF804BD044690F843
:107254004A000D46DFE800F0033A3D052B000FF02D
:1072640027FC0FF091FEC0B2022802D102200321B4
:1072740028E00FF0E0FE22D10221E36B6066206576
:107284000020A165C4E9206194F8481084F89500B1
:10729400C4F8903084F84D10D4E90012C4E91A12ED
:1072A4002146012A88BF012001F84C0F61650FF0C7
:1072B40011FFC0B2022802D10220042102E000F032
:1072C4000100012184F84A100FF00DBE01480DF0B1
:1072D40036F8FEDE5C7B0100F0B503AF2DE9000B50
:1072E400044690F83000884650B1032869D1A1467D
:1072F40019F82C0FB0B1032866D1656A28681BE021
:10730400D4E90010A2686261C4E90310887910F01E
:107314007F00A06151D00020A14609F82C0F49F844
:10732400101C00E0E1698879254610F07F0045F8DB
:10733400200F3FD0C4E9095107F096F9D8E90012AB
:107344000DF071FE244800F10806D6E8AF8FA06A5C
:107354002968006807F076F900B3286800F01F0078
:1073640028FA00F0C0071CD0206A012100F01F0099
:1073740001FA00F0C043D6E8EF1F0140C6E8E21F5F
:10738400002AF8D104F10C030125A1690DCB84F87E
:107394002C5000680DF05AFC022006E00125012063
:1073A40001E00325032089F8005084F83050BDE83B
:1073B400000BF0BD09480A4A01E00848094A0FF0E9
:1073C400EEFE04480CF0BBFF01480CF0B8FF00BF10
:1073D400708B0100947B01000C3D00206C7B01004C
:1073E400608B0100847B0100F0B503AF2DE9000739
:1073F4002DED0C8BADF5487D1546804607F0FCFE5F
:10740400C0B2102840F0E2802C460DF1C80A291DB4
:107414001C2234F82C9B0AF1040010F062F905F1E7
:1074240020000AF1200190E84C000AF12C004CC124
:10743400214607F0A3FD0AF59A7005F59A7107F045
:107444009DFD05F51370694690E8580001F110029E
:1074540005F50F7058C290E878000A460AF50F70D7
:1074640078C2ADF8C8901C2210F03BF96D46514625
:1074740028460EF042FFD8F800140020B0EB912FFC
:1074840040F0A4809DF8002008F80120D8F80014EA
:107494000131B0EB912FC8F8001440F097809DF8AB
:1074A40001009DED01DA9DED02CA9DED03BA9DED4B
:1074B40004AA9DED059A9DED068A08F8010041464F
:1074C400D8F800040130C8F80004BDF8020001F047
:1074D400ABF8C1B210297AD1B0EE4D0A0FF0ACFC72
:1074E400C1B2102973D1B0EE4C0A0FF0A5FCC1B2A1
:1074F40010296CD1B0EE4B0A0FF09EFCC1B21029DA
:1075040065D1B0EE4A0A0FF097FCC1B210295ED1E2
:10751400B0EE490A0FF090FCC1B2102957D1B0EE79
:10752400480A0FF089FCC1B2102950D19DED070A19
:107534009DED089A9DED098A0FF07EFCC1B21029D9
:1075440045D1B0EE490A0FF077FCC1B210293ED103
:10755400B0EE480A0FF070FCC1B2102937D132AC3A
:1075640005F1280138220FF098FC4046214604F02A
:10757400CBFDC1B210292AD132AC05F16001382209
:107584000FF08BFC4046214604F0BEFDC1B2102929
:107594001DD105F1980132AD3022284610F0A1F832
:1075A4004046294604F049FEC1B210290FD105F125
:1075B400240400250C2D11D0601990ED000A0FF061
:1075C4003BFCC1B204351029F4D000E002200DF5D3
:1075D400487DBDEC0C8BBDE80007F0BD1020F6E73C
:1075E400B0B502AF0546044655F80C0F30B1284635
:1075F40007F02CFE00B1B0BD0020286021680020F7
:10760400012904D1D4E9012160601046B0BDB0BDA8
:10761400F0B503AF2DE9800F2DED108BF8B00446C3
:107624000720CDE93A103AA800F0DCFFC0F30728A0
:10763400C1B20229C24600F0A780C00726D03AA8EA
:1076440000F0D0FFC1B2C0F3072A022900F09C80E9
:10765400C0071BD03B9ECEB1DDF8E890A6F1010B2C
:107664000720CDF8ECB0CDE9699069A800F095FC4D
:10767400054680B2022818BF05F07F4005F47F015B
:1076840008444FEA104104D18A467DE04FF00E0AC7
:107694007AE0CDE9046B06944AA88B4669A900F008
:1076A40060FCE80708BF4FF0640B4A98022868D0D2
:1076B400C00700F05D819DED4B8A4AA869A900F0DE
:1076C40050FC4A9802285CD0C00700F051819DED1F
:1076D4004B9A4AA869A900F044FC4A98022850D061
:1076E400C00700F045819DED4BAA4AA869A900F0A6
:1076F40038FC4A98022844D0C00700F039819DED37
:107704004BBA4AA869A900F02CFC4A98022838D040
:10771400C00700F02D819DED4BCA4AA869A900F06D
:1077240020FC4A9802282CD0C00700F0218105983B
:10773400002800F01D8104989DED4BDA02383B903F
:107744000320CDE969904AA869A900F00AFC4A9887
:10775400022816D0C00700F00B814B9C4AA869A9E7
:1077640000F0FFFB4A9802280BD0C00700F000810C
:107774009DED4BEA4AA869A900F0F3FB4A98022858
:107784000DD19DF82CA1069C022084F800A084F859
:10779400380278B0BDEC108B01B00FF0B6BBC00757
:1077A40000F0E6800DF594799DED4BFA3AA9484630
:1077B40000F047FB0FF0C4FC059002D1DDF814A0E3
:1077C400E1E709F105013CA80FF0B7FCE80700F078
:1077D400CF800DF594793AA9484600F032FB0FF0BA
:1077E400AFFC049002D1DDF810A0CCE709F105014B
:1077F40059A80FF0A2FCE80700F0BA803B980028D3
:1078040000F0B6803A9802210DF59479CDE967012C
:1078140067A9484600F06CFA0FF092FC039002D17D
:10782400DDF80CA0AFE709F1050169A823220FF0E8
:1078340058FFE80700F09C806898002800F09880C2
:1078440067980321CDE9720174A872A900F089FB3D
:107854007498022802D19DF8D4A194E7C00700F0DF
:107864008780759E76A872A900F07BFB7698022823
:1078740002D19DF8DCA186E7C00779D0DDED778AD7
:107884004AA872A900F06DFB4A9802283FF479AF28
:10789400C0076DD04FEA1B210DF11F005D46232266
:1078A4000191210A00F1050983469A3000914B9910
:1078B400029169A90FF015FF0BF12A003CA90FF002
:1078C4003CFC0BF1620059A90FF037FC00998DF8CC
:1078D40022508DF821A08DF820808DF83C408DF841
:1078E400DC60080CA9F819100BF1010189F81B00E0
:1078F4001DEE100AC9F814001CEE100AC9F8100095
:107904001BEE100AC9F80C001AEE100AC9F8080098
:1079140019EE100AC9F8040018EE100AC9F800009C
:107924001FEE100AC9F820001EEE100AC9F81C0048
:1079340001988DF8230003988DF8B80004988DF809
:10794400800005988DF848000298C9F8C00018EE28
:10795400900AC9F8BC00300E89F8BB00300AA9F8B7
:10796400B90000208DF81F0006980EF07BFD10E78B
:107974004FF00E0A07E7F0B503AF2DE9000FA3B0EF
:107984000FF00CFB0FD00FF04EFB1021CDE90901D5
:107994000BA809A900F021FDBDF82C00022805D18F
:1079A4009DF82E002FE1002020802FE1C00700F079
:1079B4002981DDF82E50A7F1760009A900F00DFD0C
:1079C40037F8760C022802D117F8740C1BE1C007B3
:1079D40000F0188157F8746C0EA809A900F0FDFC9A
:1079E400BDF83800022802D19DF83A000BE1C00727
:1079F40000F00881DDF83A80A7F16A0009A900F0D7
:107A0400ECFC37F86A0C022802D117F8680CFAE08B
:107A1400C00700F0F78057F8689C11A809A900F086
:107A2400DCFCBDF84400022802D19DF84600EAE0DF
:107A3400C00700F0E780DDF846A0A7F15E0009A9C1
:107A440000F0CBFC37F85E0C022802D117F85C0C6E
:107A5400D9E0C00700F0D68057F85CBC14A809A987
:107A640000F0BBFCBDF85000022802D19DF8520082
:107A7400C9E0C00700F0C680DDF852000890A7F105
:107A8400520009A900F0A9FC37F8520C022802D1CF
:107A940017F8500CB7E0C00700F0B48057F8500C4A
:107AA400079017A809A900F098FCBDF85C0002280B
:107AB40002D19DF85E00A6E0C00700F0A380DDF8C7
:107AC4005E000690A7F1460009A900F086FC37F88D
:107AD400460C022802D117F8440C94E0C00700F0C9
:107AE400918057F8440C05901AA809A900F075FC78
:107AF400BDF86800022802D19DF86A0083E0C0073F
:107B040000F08080DDF86A000490A7F13A0009A92A
:107B140000F063FC37F83A0C022802D117F8380C4D
:107B240071E0C0076ED057F8380C03901DA809A95E
:107B340000F053FCBDF87400022802D19DF87600D1
:107B440061E0C0075ED0DDF876000290A7F12E0058
:107B540009A900F042FC37F82E0C022802D117F8CC
:107B64002C0C50E0C0074DD057F82C0C019020A8E5
:107B740009A900F032FCBDF88000022802D19DF86A
:107B8400820040E0C0073DD0DDF882000090A7F1FC
:107B9400220009A900F021FC37F8220C022802D1A6
:107BA40017F8200C2FE0C0072CD057F8200CC4F88D
:107BB40016B0C4F812A0C4F80E90C4F80A80C4F831
:107BC4000660C4F80250C4F83E000098C4F83A00B5
:107BD4000198C4F836000298C4F832000398C4F837
:107BE4002E000498C4F82A000598C4F826000698C4
:107BF400C4F822000798C4F81E000898C4F81A00B4
:107C04000120D1E60E200221A070218023B00FF0C4
:107C14007CB9DCB504AF0FF0C1F90FD0013848606E
:107C24000968684607F0B9FA9DF80000012808D1F0
:107C34009DF80100022121602071DCBD002020603C
:107C4400DCBD01980121C4E90010DCBDF0B503AF2F
:107C54002DE9000B92B080464868E8B10138002451
:107C64000DF13409486008680321CDE90B0110AD1A
:107C74000BAE2846314600F074F9109802280DD056
:107C8400C0070ED00C2C2AD09DED110A09EB04007C
:107C9400043480ED000AECE700201DE09DF8440068
:107CA4001EE00C2C1BD1A7F142000DA90C220FF0F1
:107CB40071F904A829460C22861C0FF087FAA7F153
:107CC4005E0031460C220FF065F908F104002946E4
:107CD4000C220FF006FD0120C8F8000005E00E207C
:107CE400022188F80400C8F8001012B00FF05ABA44
:107CF400D0B502AF2DED108B94B00FF04FF90ED02C
:107D04000FF091F90921CDE9000102A8694600F0BC
:107D140028F90298022805D19DF80C008AE0002079
:107D240020608AE0C00700F084809DED038A04A8E7
:107D3400694600F016F90498022802D19DF814004F
:107D440078E0C00775D09DED059A06A8694600F055
:107D540008F90698022802D19DF81C006AE0C007C1
:107D640067D09DED07AA08A8694600F0FAF80898BC
:107D7400022802D19DF824005CE0C00759D09DED93
:107D840009BA0AA8694600F0ECF80A98022802D158
:107D94009DF82C004EE0C0074BD09DED0BCA0CA8FB
:107DA400694600F0DEF80C98022802D19DF83400F0
:107DB40040E0C0073DD09DED0DDA0EA8694600F005
:107DC400D0F80E98022802D19DF83C0032E0C0079A
:107DD4002FD09DED0FEA10A8694600F0C2F8109864
:107DE400022802D19DF8440024E0C00721D09DED73
:107DF40011FA12A8694600F0B4F81298022802D1C8
:107E04009DF84C0016E0C00713D0139884ED018A46
:107E140084ED029A84ED03AA84ED04BA84ED05CAC4
:107E240084ED06DA84ED07EA84ED08FA6062012045
:107E340076E70E2002212071216014B0BDEC108B76
:107E4400D0BDF0B503AF4DF8048D2DED068BA0B079
:107E54000FF0A4F826D00FF0E6F80221CDE90101D5
:107E640003AD01A92846FFF743FF039E9DF8108048
:107E7400022E6DD0691D0DA823220FF032FCF007ED
:107E840064D00298002861D001980521CDE916013B
:107E940018A816A900F065F81898022804D19DF8CE
:107EA400648055E0002056E0C0074FD0199D1AA801
:107EB40016A900F056F81A98022802D19DF86C8091
:107EC40046E0C00742D09DED1B8A1CA816A900F00D
:107ED40048F81C98022802D19DF8748038E0C00745
:107EE40034D09DED1D9A1EA816A900F03AF81E98EC
:107EF400022802D19DF87C802AE0C00726D09DED9F
:107F04001FAA03A816A900F02CF80398022802D18E
:107F14009DF810801CE0C00718D0049E601D0DA9B8
:107F240023220FF0DEFB280EA66384ED0B8A84ED7A
:107F34000C9A84ED0DAA84F8285084F8048084F8FF
:107F44002B00280AA4F82900012004E04FF00E08B1
:107F5400022084F80480206020B0BDEC068B0EF073
:107F64006EBF4A68B2B180B56F46013A4A600A688A
:107F7400D2E900135B1A042B07D30B1D136021B144
:107F840009680122C0E9002180BD022101600421A9
:107F9400017180BD002101607047416819B3F0B5DB
:107FA40003AF4DF804BD0468013900254FF0FF36D6
:107FB4004160022E14D0204606F036FCC00715D1CD
:107FC400013601F07F00C6EBC60292B29040054331
:107FD40048B20028EDD4022E0CD1C8B2032809D926
:107FE40040F2015009E00020002114E0012061F377
:107FF4000B2000E02804C10705D04FF4702101EAEA
:108004000020022103E04FF6FF71884301215DF84F
:1080140004BBBDE8F04008437047F0B503AF2DE959
:10802400000FADF5257D0EF0B9FF10D00EF0FBFF6B
:108034001021CDE90B0155AD0BA9284600F004FA37
:10804400BDF85401022805D19DF8560162E10020D3
:10805400208062E1C00700F05C815AAE0BA9304673
:1080640000F0F2F9BDF86801022802D19DF86A0116
:1080740050E1C00700F04D810DF5BE780BA94046D4
:1080840000F0E2F9BDF87C01022802D19DF87E01DE
:1080940040E1C00700F03D810DF5C8790BA94846C1
:1080A40000F0D2F9BDF89001022802D19DF89201A6
:1080B40030E1C00700F02D810DF5D27A0BA95046AE
:1080C40000F0C2F9BDF8A401022802D19DF8A6016E
:1080D40020E1C00700F01D810DF5DC7B0BA958469B
:1080E40000F0B2F9BDF8B801022802D19DF8BA0136
:1080F40010E1C00700F00D8173A80BA900F0A4F9EA
:10810400BDF8CC01022802D19DF8CE0102E1C007DE
:1081140000F0FF8078A80BA900F096F9BDF8E00103
:10812400022802D19DF8E201F4E0C00700F0F180DA
:108134007DA80BA900F088F9BDF8F401022802D14A
:108144009DF8F601E6E0C00700F0E38082A80BA9E1
:1081540000F07AF9BDF80802022802D19DF80A025B
:10816400D8E0C00700F0D58087A80BA900F06CF90F
:10817400BDF81C02022802D19DF81E02CAE0C00705
:1081840000F0C7808CA80BA900F05EF9BDF830029E
:10819400022802D19DF83202BCE0C00700F0B98089
:1081A40091A80BA900F050F9BDF84402022802D1AD
:1081B4009DF84602AEE0C00700F0AB8096A80BA97C
:1081C40000F042F9BDF85802022802D19DF85A0283
:1081D400A0E0C00700F09D809BA80BA900F034F933
:1081E400BDF86C02022802D19DF86E0292E0C0072D
:1081F40000F08F80A0A80BA900F026F9BDF880023A
:10820400022802D19DF8820284E0C00700F0818038
:10821400A81C1222023608F1020809F102090AF127
:10822400020A0BF1020B019073A80230029078A8A5
:10823400023003907DA80230049082A80230059099
:1082440087A8023006908CA80230079091A80230CB
:10825400089096A8023009909BA802300A90A0A822
:108264000DAD811C05F587700FF03BFA0199284686
:108274000EF085FD05F1120031460EF080FD05F18A
:10828400240041460EF07BFD05F1360049460EF010
:1082940076FD05F1480051460EF071FD05F15A00D6
:1082A40059460EF06CFD029905F16C000EF067FD65
:1082B400039905F17E000EF062FD049905F190002A
:1082C4000EF05DFD059905F1A2000EF058FD06992A
:1082D40005F1B4000EF053FD079905F1C6000EF048
:1082E4004EFD089905F1D8000EF049FD099905F1F4
:1082F400EA000EF044FD0A9905F1FC000EF03FFD82
:10830400012029464FF4907224F8020B0EF0C5FDAB
:1083140003E00E200221A07021800DF5257D0EF0D2
:10832400F4BDF0B503AF4DF804BD82B00EF036FED7
:1083340016D00EF078FE0321CDE900016846FFF760
:108344002CFE050C81B2022916D0C00721D0684644
:10835400FFF723FE060C81B2022903D135460BE058
:1083640000200BE0C00714D06846FFF716FE010C8E
:1083740082B2022A06D10D460220A570208002B0E6
:108384000EF060BDC00704D00120E180A6806580A6
:10839400F4E70E25F0E7416879B1E0B502AF0139A1
:1083A40041600168684606F0F8FE9DF80000012867
:1083B40006D19DF8011001208CBD002002217047D8
:1083C4000198012803D028B9002100208CBD002089
:1083D40001218CBD01200E218CBDF0B503AF4DF8F9
:1083E400048D84B080464868E0B1013800264860B6
:1083F40008680221CDE9010101AD03AC2846FFF76D
:10840400CCFD0EF0EDFC18BF00F07F4111444FEAA3
:10841400114111D0C00707D0022E0CD024F8161039
:108424000136EBE700200AE0022E04D10398C8F8D5
:108434000200012003E00E21022088F80210A8F8AF
:10844400000004B00EF0FBBCF0B503AF2DE9000F43
:1084540089B00EF0A3FD12D00EF0E5FD0E21CDE99A
:10846400070107A8FFF799FD0EF0BAFC18BF00F04A
:108474007F4111444FEA114503D12946ACE0002065
:10848400ACE0C00700F0A78007A8FFF786FD0EF058
:10849400A7FC18BF00F07F4111444FEA114601D1F7
:1084A400314699E0C00700F0968007A8FFF775FDF4
:1084B4000EF096FC18BF00F07F4111444FEA1148BA
:1084C40001D1414688E0C00700F0858007A800F08C
:1084D40089F8C1B2C0F30729022949467CD0C007F4
:1084E40079D007A800F07EF8C1B2C0F3072A0229A8
:1084F400514671D0C0076ED007A800F073F8C1B21E
:10850400C0F3072B0229594666D0C00763D007A8D9
:1085140000F068F80EF0C0FA06925DD0C0075AD099
:1085240007A800F05FF80EF0B7FA059254D0C00720
:1085340051D007A800F056F80EF0AEFA04924BD0D2
:10854400C00748D007A800F04DF80EF0A5FA039232
:1085540042D0C0073FD007A800F044F80EF09CFAC0
:10856400029239D0C00736D007A800F03BF80EF0CD
:1085740093FA019230D0C0072DD007A800F032F84A
:108584000EF08AFA009227D0C00724D007A800F082
:1085940029F8C2B2C0F30721022A1DD0C0071AD09D
:1085A4000098A17484F80AB084F809A084F80890AB
:1085B400A4F80680A68065806074019820740298EF
:1085C400E0730398A0730498607305982073069869
:1085D400E072012002E00E210220A170208009B087
:1085E4000EF093BC416869B180B56F4601394160B2
:1085F400006806F019F90EF01EFD18BF0220BDE850
:10860400804000E0002040EA01207047E0B502AF5E
:108614008DED010A01A9042206F084FD1021002831
:1086240018BF022108468CBDDCB504AF0C460146D8
:1086340000208DF80600ADF804008AB201A90328D1
:1086440009D0D3090A5409D0D2B242F080020A54A4
:1086540001301A46F3E7032201AB06E0084B01A9F7
:10866400032203F023FE03460A462046194606F079
:1086740059FD1021002818BF02210846DCBD00BFA7
:108684003C950100824221BF0B18111A184670470D
:1086940080B56F4611461A460BF03FF8F0B503AFAC
:1086A4002DE9000FADF5FA5D87B08B46814600F5E4
:1086B400B36AD0E90001CDE912A9084302D0012030
:1086C40001F000BC06A809F5367200F5D05001305F
:1086D400029009F10800039099F8B702059209F68F
:1086E4003D02049209F52E720692DFE810F00F00A5
:1086F400E100FC1A440076020F03300028007300E6
:10870400B404CD04990540007F00190009F52676CC
:1087140009F51A7CCDF850B07FCEACE87F00DBE2DF
:10872400CDF850B099F8B8B2152089F8B802BBF169
:10873400150F00F0AD80D9F8184500F0E6BC99F8A3
:108744003D08002800F07C8003284BD14CE399F8C5
:108754002E1809F5307009F62E08002900F07380F0
:10876400032900F00483DFF84C0A0BF0E8FDD9F884
:10877400BC0200F062BD99F8100709F5E266002812
:1087840000F06C80032840F0978099F80C0709F2F8
:108794000C7A002800F067800328119640F090803E
:1087A40099F8080709F5E168002800F065800328B6
:1087B40040F08A804E4609F2047996F804070028AE
:1087C40000F06380032840F08380139ED6F8FC56A3
:1087D4002868DCE099F83D08002800F02E8303287F
:1087E40000F03383DFF8D0090BF0A9FD09F2BA5188
:1087F40099F8BA051191DFE810F01D006F00761AA0
:108804008305B405E305120641067306A206D306E2
:10881400020731075E078D07A5072308540883085C
:10882400B208E108130942097309A209D109FD0933
:108834002B0AA30AD9F87C65D9F8804500F043BD1A
:10884400D9F83858CAE2D9F82068D9F82418D9F8E0
:10885400285899F82D2899F82C387BE20698CDF8F9
:1088640050B004683CE0CDF850B0D9F8BC46D9F813
:10887400C056D9F8C4B64CE0D9F8D846D9F8DC06C5
:10888400D9F8E016CDF850B05DE0D6F8F44671E0C2
:1088940001210020CDF8AC1FDFF820190EF0ECF90F
:1088A4000DF6A870CDF8A81FDFF814190AF040FEE1
:1088B400DFF810090BF043FDDFF80C090BF03FFD66
:1088C400DFF808090BF03BFDDFF804090BF037FD76
:1088D400DFF800090BF033FDDFF8FC080BF02FFD87
:1088E40009F52F754FF480614FF4806B28460EF024
:1088F40056FEDFF8E8080BF0E4FD24680020C9F810
:10890400C056C9F8C4B609F20C7A89F80C07C9F83C
:10891400BC461196002609F5D96080E83008C9F8EC
:10892400D466DFF8BC38304629465A46FFF7AAFE1B
:108934000022C9F8D846C9F8DC06C9F8E01609F5DA
:10894400E16889F80827C9F8EC16C9F8E806C9F8F7
:10895400E446A07910F07F00C9F8F00602F08580A3
:108964000020DDF850B0C9F8F4464E4689F80407F3
:1089740009F20479A07910F07F00C6F8F80602F035
:10898400798006F5DF65C6F80047C6F8FC5605F0A1
:108994008FFEDBF80010CDF850B00EF0C7FADFF808
:1089A400440800F10804D4E8AFBFD6F800072968EA
:1089B400006805F06BFE70B3286800F01F0080F0BB
:1089C40010002BFA00F0C00701F0FE82DDF84C9095
:1089D4000121D9F8F80600F01F0080F0100001FA18
:1089E40000F0C043D4E8EF1F0140C4E8E21F002AAE
:1089F400F8D10120D9F8E836D9F8EC46D9F8F026B0
:108A040089F80407D9F8E40601680DF6A870009403
:108A14000CF0E6F808E0012089F8000040F20110AB
:108A2400DDF84C90ADF8A80FDDF8A81F0122DDF8A1
:108A3400AC0FDDF850B088F80020CAB2022A01F069
:108A4400CA82CA070AD001208AF80000C1F30020B4
:108A54000E90C1F307200D9007202BE0D9F8D4160F
:108A6400D9F8C8460E18C9F8D466A188884280F09F
:108A74000082DFF8740701248AF800400BF021FD1E
:108A8400B6F5806F02F2608009F52F700DF5BD51C7
:108A94008219C1E90214C1E900020DF6A87006F0BA
:108AA4007CFB0EF0B5FB40F022829DF8A93F052027
:108AB400CDE90D330F901520109005A80DF52879F8
:108AC4000DF5257A00F5BC50494690E82C002CC1E0
:108AD40002A800F5BC5051460EF08BFB0A8088704A
:108AE4009CA801A9242201F5BB510EF0FAFD8CA823
:108AF40001A93F2201F5B9510EF0F3FD63A80DF56C
:108B0400B451A4220EF0A2FD0DF16C0B0DF5AB5186
:108B140040F21F1258460EF099FD03A80DF15808B3
:108B240000F5AA50414690E87C0001207CC10DF577
:108B34009F6511990870284699E80E000EC0BAE89E
:108B440006000DF2EC400EF0E8F90DF599609CA9D1
:108B54000EF0C7FD0DF591608CA90EF042FBF9A84B
:108B640063A9A4220EF072FDB1A8594640F21F1267
:108B74000EF06CFD0DF52C7998E85E0048465EC059
:108B84009DF85700DDF840808DF8AE02BDF8550021
:108B9400B8F1150FADF8AC022FD10F9D6FF00100A5
:108BA4000D996C1F50FA84F0B0FA80F04009084225
:108BB40000F06481DDF84C900DF6A871D9F87802C4
:108BC4000068C9F8B80209F52F7091E81C001CC0B0
:108BD400DDF850B0002089F8C8020698DBF80010D0
:108BE400CDF850B0069006F091F9002800F074809A
:108BF4000EF06AF8042001F062B9139E0020F072AE
:108C04000E9886F80880B0720F98707206F10C0006
:108C14000F9095E80E000EC00DF2EC410B2209985E
:108C240030770898B06106F11D000EF05AFD06F188
:108C340028000DF599610EF0F3F80A980DF591618D
:108C44003F2286F84C0006F14D000EF04AFD06F175
:108C54008C00F9A9A4220EF0F9FC0B9840F21F1223
:108C640086F8300106F23110B1A90EF03AFD99E808
:108C74003E0006F514704FF0130BB1464FF0000A96
:108C84003EC04146002500240023BDF8AC020C9AE6
:108C9400A6F865029DF8AE0286F8642286F867029B
:108CA4000120012611904FF00008DFE811F01F00A9
:108CB400BE0115007102920115005A091500150034
:108CC400150015001500150015006A09B3021500FA
:108CD4008009090215001500D9F87842002009F529
:108CE400E26689F81007C9F8B842F9E5D9F80C002A
:108CF400C9F88402C0074FF4187018BF4FF41970F4
:108D040003990DF0E1FF0858C9F8B8020DF0AEFF61
:108D1400069E002800F05A81002199F8853299F8BE
:108D2400862299F8874200F11005C9F88802C9F82B
:108D3400206809F5307009F62E0889F82E180121EB
:108D4400C9F8285889F82D2889F82C38C9F8241826
:108D540089F8B8420024C9E9BC6142EA0321C9F890
:108D6400005389F80A43C9F8F842A9F80413DBF858
:108D74000010FEF767FA0DF0BAFF08BF032188F868
:108D8400001000F01D81C00740F0FF80D9F8880270
:108D9400DFF858240DF5EA64018C1030C9E9AE02FD
:108DA400C9F8CC02C9F8C4024FF4AC62481CA9F853
:108DB400D012A9F8C8120DF6A871A9F8C00220466D
:108DC4000EF02EFA059821464FF4AC620EF028FA04
:108DD400069D002089F83D08C9F83858686880471E
:108DE4000EF076F80DF061FF0EF033F90DF07FFF11
:108DF40008BF0321049A117000F0DF80C00740F01F
:108E0400C480D9F888020022018C89F83D28069A8A
:108E14001030C9F8CC02C9F8C402C9F83828DFF800
:108E2400CC23A9F8D012C9E9AE0201F58070A9F8E3
:108E3400C80201F20110A9F8C002D9F838586868CC
:108E440080470EF045F80DF030FF0EF002F90DF0FA
:108E54004EFF08BF0321049A117000F0B480C007CC
:108E640040F09380D9F88802CDF850B005F0CAFAE2
:108E740032E7D9F8CC56D9F8D0B652E500200E9E88
:108E84008DF8A85F8DF8AA0FD9488DF8A96F0BF05B
:108E94000CFBD8480BF0E8FAE0B2032828BF012401
:108EA400E0B2DDF84C90002800F07280012840F018
:108EB4007C800DF6A870441C01200BF0EDFACE481E
:108EC4000BF0D2FAE8B2DFE810F00500940890083D
:108ED40092088E0800200BF0DFFAC8480BF0C4FAA1
:108EE400F0B2182841F08F80002001F086B8DDF838
:108EF400AC5F0E23142D3FF6DAADDFE815F0150054
:108F04008509C70907099F0E950AE80A050AEC0AAC
:108F14007009EE0AED084509AA0ABE08C409BB088F
:108F24007D0AEA0A010BD30A0420CDF8AC0F0DF533
:108F3400BD50CDF8A80F0DF6A870FFF72CFAC007A6
:108F44000B467FF4B4ADC8B20E230D4602283FF49D
:108F5400AEAD0DF6A870FFF745FB044680B2030AD8
:108F6400E0B202283FF4A3ADE0074FF00E033FF454
:108F74009EAD0DF6A870FFF735FB81B20E0AC1B2A3
:108F8400022941F06385334691E5D9F88802FBE074
:108F940000200BF081FA9A480BF066FA994970B2F6
:108FA40051F82000007801F028B802200BF074FA80
:108FB400304605F0F9FA01F022B8072000F07FBF2F
:108FC400062000F07CBF082000F079BF052000F0E7
:108FD40076BFD9F87C020DF5EA64C822011D20464B
:108FE4000EF034FB0DF6A87021460DF03BFADDF8C7
:108FF400B00F9DF8A8AF9DF8A94F9DF8AA6F9DF8F2
:10900400ABBFBDF8AC5FBDF8AE8F4FF413721190D7
:109014000DF6A87000F10C010DF204500EF016FBD1
:109024000C9A5B464FF0050B4AE0BDF8F8044FF488
:109034001871A9F8B4029DF8FA0489F8B60299F8EF
:10904400B402002818BF4FF4197103980DF03CFEC8
:109054004058C9F8B8020DF009FE069B002800F03C
:109064008B800021B9F8B522C9F88C021030C9F8F8
:10907400203889F8B81289F82E180121C9F828086F
:10908400A9F82C28C9F82418DBF8001009F5307069
:1090940005F0A0FEC0B2022871D0C00772D1D9F881
:1090A4008C0299F8B86299F8B64299F8B5A299F881
:1090B4006452CDF850B005F0A5F92A464FF0020BE2
:1090C400D0B2FF283FF408AE1198A9F8C05289F82D
:1090D400BD421546D9F874420DF204514FF413728F
:1090E400A9F8C28289F8BF3289F8BE6289F8BCA2A5
:1090F400C9F8C40209F532700EF0A8FA1520C9F8AF
:10910400184589F8145589F8B8020DF6A87009F2C3
:10911400B92140F25F2201300EF0E3FA8DF8A8BFC6
:10912400DDF850B00DF26C70069DC0F8A04AC0F88E
:109134009CBA2068002841F027864FF0FF30211D9B
:109144000DF6A8725B4620600DF5EA6003F042FC60
:109154002068013020609DF8500715283FF4BCAD0D
:109164000DF5EA6128464FF418720EF06FFADDF837
:1091740048A00E2000F0A3BE092000F0A0BE0A20E3
:1091840000F09DBED9F88C0205F03CF900F026BE33
:109194000DF6A8740F99D9F87C5220460DF0ADF85D
:1091A400281D2146C8220EF051FAE8881649088085
:1091B40092E500BFE0920100349001008495010023
:1091C4008C9501001C9601007096010074900100BA
:1091D400B47B0100708B0100B4970100080000000B
:1091E400849001000C3D00200900000041EE0000C5
:1091F40017000000290000002F00000006000000F6
:109204002E0000005CA601000000002049EE0000D2
:1092140039EE0000D9F868020DF056FDC9F8B8021D
:109224000DF024FD002800F00886C9F8900200F132
:109234001001D9F86C02C9E9AE10DBF8001005F092
:1092440053FF002800F0FF850446C9F89402D9F8BA
:10925400B86204A80DF54E654FF4317200F5DA5189
:109264000DF093FF0DF16C0A0DF5AB51362250460B
:109274000EF037FA0DF5EA680DF6A87140F28D523A
:1092840040460EF0E3F9069829464FF431720DF08A
:10929400C7FF1034514609F28450DDF848A0362245
:1092A400C9F87C65C9F880450EF01BFA00204146D8
:1092B40040F28D5289F8BA0509F2BB500EF011FA4A
:1092C40009F2BA501190C9F83864C9F83C44002135
:1092D400308A89F8261B09F25441C9F8C062C9F8DA
:1092E400B862C9F85464C9F8201B5FF8E010A9F803
:1092F400C402A9F8BC020B30C9F85814A9F85C04DC
:109304000DF0ABFB03F0D2FDC1B2022900F08F8552
:109314000DF017FD40F0A5840DF025FDA9F8860594
:1093240009F286500CF0F2FAA9F88405D9F8380449
:109334005FF84821018AC9F8D002C9F8C802C9F8FF
:10934400600409F58C60C9F864240DF001FB01F692
:109354004640A9F8D412A9F8680401F54060A9F8B8
:10936400CC020DF0BBFAC1B2022900F05C850DF00D
:10937400E8FC40F076840DF0F6FC89F8950509F2D6
:1093840095500CF0D4FA89F89405D9F838045FF8AC
:10939400A421018AC9F8E002C9F8D802C9F86C040A
:1093A40009F26C40C9F870240DF0D2FA01F6474076
:1093B400A9F8E412A9F8740401F54060A9F8DC02E4
:1093C4000DF08CFAC1B2022900F033850DF0B9FC1E
:1093D40040F047840DF0C7FC89F8970509F29750CF
:1093E4000CF0A5FA89F89605D9F838045FF8E42159
:1093F400018AC9F8F002C9F8E802C9F8780409F545
:109404008F60C9F87C240DF002FC01F58770A9F87F
:10941400F412A9F8800401F58070A9F8EC020DF0AB
:109424001CFB03F0FFFCC1B2022900F022850DF001
:1094340088FC40F016840DF096FCA9F88A0509F220
:109444008A500CF09EFAA9F88805D9F838045FF818
:109454004022018AC9F80003C9F8F802C9F888044F
:1094640009F59160C9F88C240DF0A4FDA9F8041342
:10947400A9F8900401F54060A9F8FC020DF0EDFA9A
:1094840003F036FDC1B2022900F003850DF059FC4A
:1094940040F0E783010E000AAAF8000050468AF85B
:1094A40002100CF076FADDF84C905FF8C022C9F88F
:1094B4008404D9F83804018AC9F81003C9F80803E8
:1094C400C9F8940409F29440C9F898240DF040FABC
:1094D40001F12800A9F81413A9F80C13A9F89C04A5
:1094E4000DF0FCF9C1B2022900F0CF840DF029FC83
:1094F40040F0B7830DF037FC89F89C0509F29C50C5
:109504000CF015FA89F89B05D9F838045FF8242380
:10951400018AC9F82003C9F81803C9F8A00409F599
:109524009460C9F8A4240DF013FA01F20510A9F807
:109534002413A9F8A80401F58070A9F81C030DF000
:109544008CFA03F00FFDC1B2022900F0A6840DF0DD
:10955400F8FB40F086830DF006FC89F89E0509F2BD
:109564009E500CF0F5F989F89D05D9F838045FF898
:109574008423018AC9F83003C9F82803C9F8AC0464
:1095840009F2AC40C9F8B0240DF0E2F901F583709A
:10959400A9F83413A9F8B40401F58070A9F82C03D0
:1095A4000DF05BFA03F060FCC1B2022900F02B84D9
:1095B4000DF0C7FB40F055830DF0D5FB89F8A005ED
:1095C40009F5B4600CF0D5F989F89F05D9F8380489
:1095D4005FF8E823018AC9F84003C9F83803C9F8D9
:1095E400B80409F59760C9F8BC240DF0B1F901F18C
:1095F4001900A9F84413A9F83C13A9F8C0040DF004
:109604002CFA03F0AFFCC1B2022900F0F8830DF08C
:1096140098FB40F026830DF0A6FB89F8A20509F219
:10962400A2500CF095F989F8A105D9F838045FF82F
:109634004424018AC9F85003C9F84803C9F8C4048A
:1096440009F2C440C9F8C8240DF082F901F10F00F1
:10965400A9F85413A9F84C13A9F8CC040DF03EF959
:10966400C1B2022900F001840DF06BFB40F0F982D5
:109674000DF079FB89F8A40509F2A4500CF057F910
:1096840089F8A305D9F838045FF8A024018AC9F839
:109694006003C9F85803C9F8D00409F59A60C9F8F9
:1096A400D4240DF055F901F11200A9F86413A9F8B6
:1096B4005C13A9F8D8040DF011F9C1B2022900F025
:1096C400BE830DF03EFB40F0CC820DF04CFB89F8DC
:1096D400A60509F2A6500CF02AF989F8A505D9F8CF
:1096E40038045FF8D824018AC9F87003C9F86803FC
:1096F400C9F8DC0409F2DC40C9F8E0240DF087FA6B
:1097040001F54660A9F87413A9F8E40401F5406072
:10971400A9F86C030DF0CEFBC1B2022900F09D83C1
:109724000DF00FFB40F09D820DF0FBFAA9F8BC058B
:10973400D9F838040022018A89F8462B5FF83425C9
:109744000DF022FA0DF0F6FBC1B2022900F0698394
:10975400C10702D0CDF850B0FBE2000A0DF58051EC
:10976400A1F860050DF5AB500CF036F9139E139D6E
:10977400DDF84CC0139C8646D9F884041399139BD6
:10978400B9F88885139A96F8A56595F8A3551490A9
:10979400B9F88405B1F8BC95139994F8A14593F8E8
:1097A4009F3592F89D258CF85364139E91F894A5E7
:1097B40013991090584686F85254139D91F896B513
:1097C400139985F85144139C91F89B1584F85034EF
:1097D400139B83F84F24139A82F84E1413995FF85D
:1097E400D42581F84DB4834613981399A0F848946E
:1097F400DDF84C90109881F84CA41399DDF848A03A
:10980400A9F844041498A1F84AE4A9F84684C9F8CC
:109814004004D9F83C04018AC9F88003C9F87803E4
:10982400C9F8E80409F59D60C9F8EC240DF0EFF9D6
:1098340001F10B00A9F88413A9F87C13A9F8F0042A
:109844000DF00BF903F032FBC1B2022900F01583CD
:109854000DF077FA40F005820DF085FAA9F88E052F
:1098640009F28E500CF052F8A9F88C05D9F83C0492
:109874005FF88826018AC9F89003C9F88803C9F8F3
:10988400F40409F2F440C9F8F8240DF061F801F683
:109894004640A9F89413A9F8FC0401F54060A9F81E
:1098A4008C030DF01BF8C1B2022900F0EA820DF01E
:1098B40048FA40F0D6810DF056FA89F8A80509F562
:1098C400B5600CF034F889F8A705D9F83C045FF8C2
:1098D400E426018AC9F8A003C9F89803C9F8000569
:1098E40009F5A060C9F804250DF032F801F64740E7
:1098F400A9F8A413A9F8080501F54060A9F89C0388
:109904000CF0ECFFC1B2022900F0D3820DF019FA79
:1099140040F0A7810DF027FA89F8AA0509F2AA50A8
:109924000CF005F889F8A905D9F83C045FF8242758
:10993400018AC9F8B003C9F8A803C9F80C0509F2EB
:109944000C50C9F810250DF062F901F58770A9F8DB
:10995400B413A9F8140501F58070A9F8AC030DF04F
:109964007CF803F05FFAC1B2022900F072820DF0B4
:10997400E8F940F076810DF0F6F9A9F8920509F2BC
:1099840092500BF0FEFFA9F89005D9F83C045FF85B
:109994008027018AC9F8C003C9F8B803C9F81C05AF
:1099A40009F21C50C9F820250DF004FBA9F8C413D2
:1099B400A9F8240501F54060A9F8BC030DF04DF8A1
:1099C40003F096FAC1B2022900F06B820DF0B9F9E6
:1099D40040F04781020A5146000E21F8132F887087
:1099E40008460BF0D6FFDDF84C905FF80028C9F864
:1099F4001805D9F83C04018AC9F8D003C9F8C8038A
:109A0400C9F8280509F5A560C9F82C250CF0A0FFB4
:109A140001F12800A9F8D413A9F8CC13A9F830054A
:109A24000CF05CFFC1B2022900F0E5810DF089F968
:109A340040F017810DF097F989F8AF0509F2AF509E
:109A44000BF075FF89F8AE05D9F83C045FF864287B
:109A5400018AC9F8E003C9F8D803C9F8340509F242
:109A64003450C9F838250CF073FF01F20510A9F839
:109A7400E413A9F83C0501F58070A9F8DC030CF0A7
:109A8400ECFF03F06FFAC1B2022900F0B0810DF0CF
:109A940058F940F0E6800DF066F989F8B10509F24D
:109AA400B1500BF055FF89F8B005D9F83C045FF8C4
:109AB400C428018AC9F8F003C9F8E803C9F84005C5
:109AC40009F5A860C9F844250CF042FF01F583703C
:109AD400A9F8F413A9F8480501F58070A9F8EC0376
:109AE4000CF0BBFF03F0C0F9C1B2022900F0B98148
:109AF4000DF027F940F0B5800DF035F989F8B3057C
:109B040009F2B3500BF035FF89F8B205D9F83C04DB
:109B14005FF82829018AC9F80004C9F8F803C9F8CC
:109B24004C0509F24C50C9F850250CF011FF01F115
:109B34001900A9F80414A9F8FC13A9F854050CF0A9
:109B44008CFF03F00FFAC1B2022900F07E810DF000
:109B5400F8F840F086800DF006F989F8B50509F2A9
:109B6400B5500BF0F5FE89F8B405D9F83C045FF85C
:109B74008429018AC9F81004C9F80804C9F85805E9
:109B840009F5AB60C9F85C250CF0E2FE01F10F00A9
:109B9400A9F81414A9F80C14A9F860050CF09EFE99
:109BA400C1B2022900F037810DF0CBF859D10DF084
:109BB400DAF889F8B70509F2B7500BF0B8FE89F85E
:109BC400B605D9F83C045FF8DC29018AC9F82004F9
:109BD400C9F81804C9F8640509F26450C9F868257D
:109BE4000CF0B6FE01F11200A9F82414A9F81C1413
:109BF400A9F86C050CF072FEC1B2022900F055817F
:109C04000DF09FF82DD10DF0AEF889F8B90509F2E1
:109C1400B9500BF08CFE89F8B805D9F83C045FF80C
:109C2400142A018AC9F83004C9F82804C9F870054F
:109C340009F5AE60C9F874250CF0E9FF01F546603A
:109C4400A9F83414A9F8780501F54060A9F82C04A2
:109C54000DF030F9C1B2022900F0D9800DF071F88D
:109C640060D0CDF850B0DDF844B004A80DF6A87A61
:109C740000F5DA529AE85B0015465BC501208BF8C3
:109C8400000006A892E87A00B9F1000F00F5A95A7D
:109C940050467AC040F09680DDF84C90D9F87C02AA
:109CA4009AE87C0000F1D0017CC180F8F7E080F8EC
:109CB400F6C080F8F580079980F8F410089980F8C8
:109CC400F310099980F8F2100A9980F8F1100B99B1
:109CD40080F8F0100C99A0F8EE100D99A0F8EC1093
:109CE4000E99A0F8EA100F99A0F8E8101099C0F89E
:109CF400E410D9F8940204F085FBD9F8900204F03A
:109D040081FBD9E99F54D5F8F82005F1D00021460C
:109D140005F0B8FAD5F8FC20281D214605F0F4FA20
:109D2400FEF7DABF0CF0FDFFA9F8BC05D9F83C0436
:109D34000022018A89F8462B5FF8302B0CF024FFAF
:109D44000DF0F8F8C1B2CDF850B0022967D0C107C0
:109D540002D04FF0010986E7000A0DF58051A1F801
:109D640060050DF5AB500BF037FE0C90D9F81805D3
:109D740009F5886199F8B48599F8B6C599F8B8E5F4
:109D84000DF6A8751090B9F88C050F90B9F89005E8
:109D94000E90B9F8BC050D9099F8A7050B9099F8A9
:109DA400A9050A9099F8AE05099099F8B0050890AC
:109DB40099F8B205079091E8050E85E8050E4FF075
:109DC400000950E7DDF84C90D9F8940204F01AFB2E
:109DD400D9F8900204F016FB0CF076FF0122002063
:109DE400012189F8B7220A91C9E900206BE0DDF866
:109DF4004C90162060E0DDF84C9015205CE0DDF816
:109E04004C900B2058E0DDF84C900A2054E0DDF82B
:109E14004C901B2050E0DDF84C9019204CE01C20A5
:109E24004AE00F2048E0DDF84C90042044E0032091
:109E340042E0DDF84C9005203EE00B203FE0DDF8E9
:109E44004C900D2038E00C2039E0DDF84C901820BF
:109E540032E0DDF84C9013202EE0DDF84C900E201B
:109E64002AE0DDF84C90172026E0DDF84C900C2019
:109E740022E0DDF84C9006201EE0DDF84C90102026
:109E84001AE0DDF84C90112016E0DDF84C90082023
:109E940012E0DDF84C9007200EE0DDF84C9009202C
:109EA4000AE0DDF84C90142006E0DDF84C901A200E
:109EB40002E0DDF84C901220119908700D2089F809
:109EC400B70200200A90DAF8B005DAF8B415CDF834
:109ED40050B0014341F0628399F8800B0B91F0B1CB
:109EE400042832D199F8F00F09F57F6888B3032864
:109EF40040F0618799F8AD0F09F6AD76DFE810F010
:109F040005005F07F30E070B2F0B99F8AE1FD9F866
:109F14009C4FD9F8A02FD9F8A80F01F093BADAF81A
:109F2400B805DAF8BC15D9F8745BCAF8C805D9F8CD
:109F3400580BCAF8CC15D9F8701BC9F87C5BC9F862
:109F4400781BC9F8680B00F045BFD9F8885B00F0AE
:109F540049BFD9F88CBBD9F888AB9BF8006000F0F6
:109F6400B1BFDC4845F20F284FF0070BD0F800A032
:109F740045684FEA1A634FEA1A464FEA1A24FFF774
:109F84009FB899F80E0099F80C40002845D0012894
:109F940068D1D9F870020C2C00F09F840B2C00F0CF
:109FA4009D840A2C7EF498AE043000F097BCD9F856
:109FB4007C0299F80C100170D9E99F01D0F80021B6
:109FC40005F0E4F9FEF788BE032089F80000DDE916
:109FD400139B88F80000032011998AF80000DDF82B
:109FE40048A008706BE7042007E0022005E0032086
:109FF40000E001200AF050FA30460AF04DFA0AF067
:10A004002DFBFEF769BE01200AF046FAB2480AF0B9
:10A014002BFA20460BF050FEF1E799F80D00D9F821
:10A0240070528DF8A84F16468DF8A90FAB480AF068
:10A034003CFAA9480AF018FA0DF6A8700BF03CFE99
:10A0440030460AF029FA0AF009FB0C2C00F04A8485
:10A054000B2C00F048840C980A2C7EF43DAE043599
:10A0640000F042BCD9F8700200214170C170417106
:10A07400FEF732BE102500F0C1BD0DF6A8700DF537
:10A08400BD5105F08AF80DF0C3F83EF40EADDDF8CD
:10A09400AC0F0E2317283EF60AAD00250024DFE896
:10A0A40010F09205180060056205640566056805F0
:10A0B4006A056C056E0570055A05720574055C0524
:10A0C40076055E0578057A057C057E0580058205A2
:10A0D4009105012400F077BD01200DF5BD510DF669
:10A0E400A875C1E9DE1006A800F5D8512846FDF789
:10A0F40042FCBDF8A86F9DF8AA9F022E40F016827C
:10A104000DF10B00152500F5D1504FE20DF6A875A1
:10A114000DF5BD512846FDF77BFA0DF5805090F8FA
:10A12400E001022800F08E81284606A90CF0D1FD3A
:10A1340002A80CF013FF01A805F11C010CF040FE6D
:10A144009DF8E89F05F141010DF5CD500DF049F85A
:10A1540007A80CF0B6FE0DF580500CF0D6FF04A84D
:10A1640000F5DA500DF0BDFA05F5117001A990E87B
:10A174007C0001F5C7510DF580507CC180F8E09951
:10A184000DF580500325FEE203200DF5BD51C1E914
:10A19400A51005A90DF6A87001F5D151FDF739FDFB
:10A1A400DDF8A80F9DF8AC5F02282BD0C0074FF054
:10A1B4000E0000F0F6839DF8AF8FBDF8ADAF05A992
:10A1C4000DF6A87001F5D151FDF740FDDDF8A80F9B
:10A1D4009DF8AC9F022840F0C4834846E1E3032085
:10A1E4000DF5BD51C1E9A31003A90DF6A87001F541
:10A1F400D151FDF70EFDDDF8A80F9DF8AC5F0228E4
:10A2040040F0D7812846CCE30320CDF8AC0F0DF500
:10A21400BD50CDF8A80F0DF6A870FEF7BCF8C00726
:10A224000B467EF444ACC8B20E230D4602283EF41D
:10A234003EAC0DF6A870FEF7D5F9044680B2030AC9
:10A24400E0B202283EF433ACE0074FF00E033EF4D4
:10A254002EAC0DF6A870FEF7C5F9C0F30721C2B203
:10A26400022A0B463EF423AC0CF039FE3EF41FAC3C
:10A274000DF5805080F81A1A05F0010124F0FF0052
:10A2840001250844AFE30F2500F0B8BC0320CDF846
:10A29400AC0F0DF5BD50CDF8A80F0DF6A870FEF764
:10A2A400A1F9C0F30724C1B2022923463EF4FFAB4F
:10A2B4000CF015FE3EF4FBAB0DF6A870FEF792F918
:10A2C40081B20D0AC1B2022940F072832B46FEF717
:10A2D400EEBB00BF0402FF00300000000A000000D3
:10A2E4006C7B0100A47B0100608B0100809601005F
:10A2F400A48F010019E6000090960100549001001B
:10A30400AC8F01005C95010001200DF5BD51CDF825
:10A3140054070620CDF85017CDF8A81FCDF8AC0F80
:10A324000DF6A870FEF75EF9C0F30724C1B2022946
:10A3340023463EF4BCAB0CF0D2FD3EF4B8AB0DF6B4
:10A34400A870FEF74FF9064680B2030AF0B202285D
:10A354003EF4ADABF0074FF00E033EF4A8AB0DF6A0
:10A36400A870FEF73FF9C0F30725C1B202292B46B6
:10A374003EF49DAB0CF0B3FD3EF499AB0DF6A87022
:10A38400FEF730F9C0F3072AC1B2022953463EF45E
:10A394008EAB0CF0A4FD3EF48AAB0DF6A870FEF76C
:10A3A40021F9C0F30728C1B2022943463EF47FAB2A
:10A3B4000CF095FD3EF47BAB0DF6A870FEF712F998
:10A3C400C0F30729C1B202294B463EF470AB0CF02E
:10A3D40086FD3EF46CAB0DF5EA60FDF7DEFD0CF096
:10A3E400FFFC18BF00F07F4111444FEA114140F0D7
:10A3F400B3840B46FEF75BBB0DF6A8700DF5BD519B
:10A4040004F0CBFE0CF004FF3EF44FABDDF8AC1FC0
:10A414000120012904D00E2300297EF448AB00203A
:10A424000DF5805111253AE00DF6A8750DF5BD51D5
:10A434002846FDF7EDF80DF5805090F8E00102286C
:10A4440040F072819DF8A80F0DF5805181F82B0A18
:10A45400DAE301200DF5EA61CDF854070DF5BD509E
:10A46400CDF850070DF6A870FDF7D3FBDDF8A81F53
:10A474009DF8AC0F022900F0CE83C9074FF00E03FC
:10A484003EF415AB9DF8AF1FBDF8AD2F0D2542EA84
:10A494000141029A1180090C91700DF5805181F8E7
:10A4A400180AABE302200DF5BD51C1E9A51005A8BA
:10A4B40000F5D150FEF796F881B20D0AC1B2022917
:10A4C40040F068810DF5805080F82B5A9CE30625F6
:10A4D40094E3122592E3082590E302200DF5BD5183
:10A4E4000DF6A874C1E9E71007A80CF0B7FDBDF894
:10A4F400A86F9DF8AA8F022E40F08381404650E257
:10A5040002200DF5EA61CDF854070DF5BD50CDF8E4
:10A5140050070DF6A870FDF704FFBDF8A80F022838
:10A5240040F0CE819DF8AA3FFEF7C1BA05A8E91C08
:10A534000B220CF00FFDDDF8B60F9DF8BA8F05F174
:10A5440013010B22089006A800F5D6540CF0A5FCC4
:10A5540005F11E010DF5EA600CF062FCF0074FF006
:10A5640015054FF00E010DF10B0000F5D1501ED072
:10A5740005A80B220B2500F5D15102980DF0B1F876
:10A584000DF5805080F8148A02A806CC0CF0C9FDA1
:10A5940021880180A178817001A80DF5EA6100F598
:10A5A400CF500DF09EF806A800F5D0504946017032
:10A5B4002BE3C0074FF00E0000F0F3819DF8AFBF0E
:10A5C400BDF8ADAF03A80DF6A8740CF03DFDBDF8C1
:10A5D400A86F9DF8AA0F022E00F0E3811090DDF819
:10A5E400AB0FDDF8AE1F0DF5BD52DDF8B29FC2F81A
:10A5F400AB13C2F8A8039DF8B60F04F10F010B22A8
:10A604000E9007A800F5D95840460DF06AF806A840
:10A6140004F11A01242200F5D8500DF062F89DF8D7
:10A62400E60F04F13F013F220F9006A800F5D65033
:10A634000DF057F805A804F17E01A4220CF08AFC61
:10A644000CF0EAFD00F0AD8103A80DF6A8740CF03F
:10A65400FBFCBDF8A86F9DF8AA0F022E00F0A181A3
:10A664000D90E11C0DF5EA6040F21F120DF039F86F
:10A674000CF0D2FD00F09581CDF8209004A80DF5E2
:10A68400EA6140F21F124AEA0B4400F5DA500CF07A
:10A69400DDFF0E980DF580510DF5BD5281F8140AB9
:10A6A400D2F8AB13D2F8A803C2F88012C2F87D0224
:10A6B40002A8B8E806000CF034FDB8F800100180D8
:10A6C40098F80210817001A806A900F5CF5001F591
:10A6D400D8510DF006F80F980DF580513F2281F8FE
:10A6E400E00906A90DF5CD5001F5D6510CF0F9FF9E
:10A6F40007A805A9A42200F5C75001F5D1510CF013
:10A70400A5FF0299200C88700DF580500C800DF582
:10A71400805180F8185A1098092581F81C0A06A857
:10A7240000F5C7510D9841E1284606A90CF0D1FA6D
:10A7340002A80CF013FC01A805F11C010CF040FB6D
:10A744009DF8E89F05F141010DF5CD500CF049FD50
:10A7540007A80CF0B6FB0DF580500CF0D6FC04A84D
:10A7640000F5DA500CF0BDFF05F5117001A990E871
:10A774007C0001F5C7510DF580507CC180F8E0994B
:10A784000DF58050052580F8148A0DF5805080F869
:10A79400F8A83AE2C00700F0F4820DF5BD500E218E
:10A7A400D0F89802002800F02B820DF5BD5002214C
:10A7B400D0F89402CDF85417CDF850070DF5EA609F
:10A7C400FDF710FFC1B2C0F307260229314600F09D
:10A7D4001782C0074FF00E0100F01282DDF8540713
:10A7E400002800F00D82DDF850470DF6A8702146D0
:10A7F40004F0D3FC0CF00CFD40F057819DF8A91F28
:10A80400FEE106A8E11C0B2200F5D6500CF069FF0E
:10A81400DDF8B69F9DF8BAAF06A804F113010B2228
:10A8240000F5D85528460CF05CFF05A804F11E017C
:10A8340024220CF08FFB0CF0EFFC00F0B28007A890
:10A844000DF6A8740CF00AFCBDF8A86F9DF8AABF19
:10A85400022E00F0A580E11C0DF5EA600CF0C1FCAD
:10A864000CF0DAFC00F09D800DF5CD500DF5EA6199
:10A874003F22CDF820900CF034FF06A80B2200F5FF
:10A88400D65102980CF02DFF0DF5805080F814AAD3
:10A8940002A806CD0CF045FC29880180A9788170B6
:10A8A40001A805A900F5CF5001F5D1510CF019FF0D
:10A8B4000DF580500A250DF5CF5180F8188AC3E0B4
:10A8C400DDF8A86FDDF8AC5F300C40EA0544B0B2A7
:10A8D40002280ED12346FEF7EAB802300021417067
:10A8E400FEF7FAB902350C98287001206870FEF75B
:10A8F400F3B9F0074FF00E033EF4D9A80DF6A87093
:10A904000DF5EA61FDF70DFDBDF8A80F02283FF42F
:10A9140009AEDDF8A82FDDF8AC1F100C93B240EAA5
:10A924000140022B00F07781D3074FF00E033EF471
:10A93400BEA8330E120E029E42EA0122090E43EA19
:10A9440005232D0EB1720DF5805135713360C6F8B3
:10A954000620132581F8184A0DF5805181F81E0A46
:10A964004CE1DDF8B43FC007DDF8AD1FDDF8B02FD2
:10A974004FF00E0008930DF5BD53C3F83B23C3F805
:10A9840038130ED005A80DF6A87400F5D151204651
:10A99400FDF75CF9DDF8A86F9DF8ACBF022E25D158
:10A9A40058460DF10B01152501F5D15108702CE124
:10A9B4000CF095FA3EF47BA80DF6A870FDF712FE94
:10A9C400C1B202294DD0C1074FF00E033EF46FA867
:10A9D40000F47F400DF58052010A2843022582F8D5
:10A9E4001A1A44EA00200DF5805105E1611D0DF5A8
:10A9F400EA640B220CF051FA0CF00EFCD1D002A93F
:10AA04000CCC4AEA084001F5D0510CC10DF5BD53F8
:10AA140022880A80A2788A70D3F83813D3F83B23AB
:10AA2400C3F87D12C3F88022029A010C10800DF540
:10AA34008050917080F8185A0DF580500C2580F8DC
:10AA44001C9A05A800F5D0515846AFE70CF047FA18
:10AA54003EF42DA80DF6A870FDF7C4FDC1B202297D
:10AA64000ED180B2030AFEF722B85FF88C075FF8B4
:10AA74008C2703E05FF898075FF894270CF08FFBAE
:10AA8400C1074FF00E033EF412A800F47F4004F413
:10AA94007F41304341EA004005F0010100250844AC
:10AAA4000DF5BD51C1F87802A8E0D4E90081DDF8C4
:10AAB400AC0FA1EB080204218242C0F0A18008EB94
:10AAC4000001B8F1000F216000F099800E21622886
:10AAD40040F0968098F8004006A808F10101092288
:10AAE40000F5D05003300CF0FCFD98F80E000DF585
:10AAF40080510B2281F8140AD8F80A0008F10F01DA
:10AB0400089002A80CF02AFA01A808F11A010CF026
:10AB140057F998F83E000DF58051232281F8E00999
:10AB240008F13F010DF5CD500CF0DBFD0DF5805023
:10AB340080F81A4A0DF5805080F8196A0DF5805096
:10AB440080F8185A142560E05FF8602830464FF406
:10AB5400806108F005FE0B2435E00E2433E0102458
:10AB640031E002242FE003242DE004242BE005240B
:10AB740029E0062427E0072425E0082423E009240B
:10AB840021E00A241FE00C241DE00D241BE00F2407
:10AB940019E0112417E0122415E0132413E01424FF
:10ABA40011E015240FE00DF5BD500423D0E9000198
:10ABB40088423DF47CAF10F8015B0DF5BD511624BD
:10ABC400086000E017240DF6A8700DF5BD5104F0DF
:10ABD400E4FA0CF01DFB3DF468AFDDF8AC0F0E2376
:10ABE40002283DF664AF0DF5805181F81A0A44EA53
:10ABF40005200DF580510E25A1F8180A1EE0014626
:10AC04000DF5805080F82B1A15250DF58050152D63
:10AC140090F82B0A02D10346FDF749BF0F900DF5BA
:10AC2400805090F8F8080B900DF5805090F8E009EA
:10AC34000A900DF5805090F8140A099004A806A90A
:10AC4400AB4601F5D05100F5BD5891E81C004046D3
:10AC54001CC002A806A900F5D05001F5C65A0CC8BC
:10AC640051460CC1028880780A80887005A801A921
:10AC7400242200F5C55001F5CF510CF032FD05A892
:10AC84000DF5CD513F2200F5C3500CF02AFD04A868
:10AC940007A9A42200F5BE5001F5C7510CF0D6FC5B
:10ACA40004A90DF54E6040F21F1201F5DA510CF0C3
:10ACB400CDFC01A807A900F5C75001F5BD5990E8DE
:10ACC4007C0049467CC102A800F5BD50FDF78AFC12
:10ACD400C0F30722C1B2022913463DF4E8AE0CF0DA
:10ACE400FEF83DF4E4AE0C9205A898E80E0000F5D9
:10ACF400BC500EC002A8BAE8060000F5BC500CF027
:10AD04000CF901A805A900F5BB5001F5C5510CF0DB
:10AD1400E8FC01A805A93F2200F5B95001F5C3518B
:10AD24000CF0DFFC04A90DF5B450A42201F5BE51CA
:10AD34000CF08CFC0DF5AB500DF54E6140F21F127A
:10AD44000CF084FC03A899E83E0000F5AA503EC02C
:10AD5400CDF840B0FDF7B1BE0CF0C1F83DF4A7AE9C
:10AD640048EA09200DF5BD5240EA014006F47F414E
:10AD7400214441EA0541072541EA0A61C2E99E10DE
:10AD84003CE70E20FFF760BB00200DF5BD545FF8D3
:10AD9400A02A01210DF54E63C4F8C0035FF8AC0A84
:10ADA400C4E9EE31C4E9EC21CDF8E40C0DF5AB5067
:10ADB400CDF8E00C07E05FF8C00A09F0C0FA5FF8CC
:10ADC400C40A09F0BCFA04A85FF8CC1A00F5DA50FA
:10ADD40008F0AEFB09F53661C9F8885BC9F88C0B3D
:10ADE400C9F8901B2868002840F05A834FF0FF30C0
:10ADF400002105F1140405F10408286095F89C0964
:10AE0400012805D105F10C000AF000F995F89C1908
:10AE1400D5F89409D5F89829904201D1C9070FD0E3
:10AE2400411C0A1F18BF0A460021C5F8942985F859
:10AE34009C194FF4187100FB01F2A65C152E08D181
:10AE4400DBF80000D0E9001240460AF0BFF81526EE
:10AE540008E000FB014040F25F22411C0DF6A8709F
:10AE64000CF03FFC28680130152E286000F0F781B3
:10AE74000DF5EA600DF6A87140F25F220CF0E6FBD6
:10AE8400162E00F043820DF54E640DF5EA6140F292
:10AE94005F2220460CF0DAFB09F6F570214640F2F9
:10AEA4005F2289F8F46F0CF01CFC002009F6F47B97
:10AEB40009F6783A09F57F6889F8F00FC9F888AB84
:10AEC400C9F88CBB00200DF5BD510BF10405C1F888
:10AED400B007DFE816F01500FF00B700DC006C00D7
:10AEE40071018701DF00A70193008D0161006F00EC
:10AEF40079013A00D900370027018A01AA013201F9
:10AF040004A800210BF0F8FDC0B2102840F0B28272
:10AF14009BF8041004A80CF0C4F8C0B2102840F048
:10AF2400A9820BF09BFE40F0A5829BF805200BF054
:10AF3400A0FD40F09F829BF8060060540BF01AFDC0
:10AF44000721E2E004A810213BE204A80E210BF043
:10AF5400D3FDC0B2102840F08D829BF80400DFE8D6
:10AF640010F01800F501E901EF01E001FB0107020F
:10AF7400F2010D02E6011002DD01E3010402DA012F
:10AF8400EC01D701F8010A022302FE0101021302B7
:10AF9400260204A800210CE204A80B210BF0ACFD4E
:10AFA400C0B2102840F0668204A8294635E104A8FE
:10AFB400042106E204A80C210BF09EFDC0B2102867
:10AFC40040F05882DBF8041004A80BF0B9FFC0B2BB
:10AFD400102840F04F8204A80BF1080100F5DA5064
:10AFE40001F03EF9C0B2102840F0448204A80BF1ED
:10AFF400140100F5DA5001F033F9E4E104A8092161
:10B004000BF07AFDC0B2102840F03482DBF8041053
:10B0140004A80BF095FFC0B2102840F02B8204A8BE
:10B024000BF1080100F5DA5001F08BF8C0B21028DA
:10B0340040F0208204A80BF5947100F5DA5001F079
:10B0440080F8C0E104A802210BF0EDFDC0B2102885
:10B0540040F010820BF002FE40F00C829BF80420BA
:10B064000BF007FD40F006829BF8050060540BF0DE
:10B0740081FC0021B1EB902F40F0FC819BF806107D
:10B0840021540BF077FCA5E104A80F2199E104A851
:10B09400032193E004A807210BF0C5FDC0B21028DA
:10B0A40040F0E88100200021062900F01D810DF503
:10B0B400BD52D2F8B027B0EB922F40F0DB816B5C2D
:10B0C4000131A3540DF5BD53D3F8B0270132C3F8B1
:10B0D400B027E9E704A801210BF00EFDC0B2102847
:10B0E40040F0C8819BF8041004A80BF0DAFFC0B24A
:10B0F400102840F0BF810BF055FF40F0BB819BF856
:10B10400051021540BF036FC0621B0F5806F80F059
:10B11400B1811BF8011004AA02F5DA5211540BF0A4
:10B1240029FC53E104A811210BF0E6FCC0B210285D
:10B1340040F0A0819BF8041042E104A814210BF014
:10B1440072FDC0B2102840F095810BF087FD40F0ED
:10B1540091819BF804200BF08CFC40F08B819BF8D0
:10B1640005005FF8602E60540DF5BD51D1F8B007AD
:10B174000130C1F8B007622000218DF804050020D9
:10B18400CDF805050DF2045003F0E3F902460B4631
:10B19400204611461A4603F0C5FF002840F06A8194
:10B1A40004A80BF10601622200F5DA5003F0BAFF9D
:10B1B400002800F00B815DE104A8052100F5DA50B8
:10B1C4002A46FCF711F9FEE004A80D210BF094FCCB
:10B1D400C0B2102840F04E81DBF8041004A80BF034
:10B1E400AFFEF0E004A80621EBE004A81221E8E099
:10B1F40004A80A210BF080FCC0B2102840F03A8168
:10B2040004A8294600F5DA5000F0F9FFC0B210286E
:10B2140040F0308104A80BF1440100F5DA5000F04D
:10B22400EEFFD0E004A80821CBE004A813210BF022
:10B2340063FCC0B2102840F01D8104A8294600F523
:10B24400DA5000F04DFFC0B2102840F0138104A87A
:10B254000BF10A0100F5DA5000F042FFB3E0D9F82F
:10B264008C0BDFF8181ED9F8904B03F050F9814687
:10B2740090F830008A46012800F02981DBF800208C
:10B28400D9F8280009F10808D2E90046C10042466D
:10B2940049B11346083908325D68AE42F8D11B68DB
:10B2A4009C42F5D12BE004280CD10025C9F8285084
:10B2B400042D07D009EBC500D0E90210496888477E
:10B2C4000135F5E7216830468847D9F82820032A54
:10B2D40012D848F8320008EBC2004160D9F82800BF
:10B2E4000130C9F828000AE0BBF80A0004A901F5F6
:10B2F400DA51FDF799F966E0002840F0BE80DAF8EB
:10B3040000000130CAF80000DDE912A9032042E17F
:10B3140004A810214DE004A80E214AE004A80B2142
:10B3240047E004A8042144E004A80C2141E004A857
:10B3340009213EE004A802213BE004A80F2138E0E3
:10B3440004A8032135E004A8072132E004A8012160
:10B354002FE004A811212CE004A8052129E004A869
:10B36400142126E004A8152123E004A80D2120E0DF
:10B3740004A806211DE004A812211AE004A808214B
:10B3840017E004A80A2114E004A816210BF04BFCD2
:10B39400C0B210286ED10BF005FE6BD19BF80510DE
:10B3A40021540BF0E7FA09E004A8132101E004A8F2
:10B3B40017210BF0A1FBC0B210285BD19BF806103B
:10B3C40004A80BF099FBC0B2102853D10DF5BD5061
:10B3D400D0F8B007B0F5806F4CD29BF85C2204A97A
:10B3E40001F5DA510A540DF5BD52D2F8B007013017
:10B3F400C2F8B0070DF6A87040F20442841C0BF0AA
:10B404004CFD0DF5EA60214640F204420BF0C2FD0A
:10B4140009F53964294640F204420BF03EFDDAF89E
:10B4240000004FF48071D9F8902F0BF04DFC09F611
:10B43400AD76C9F89C4FA9F8AD1F0121C9F8A80F32
:10B44400C9F8A02F89F8AC1FC9F8944FC9F8982FF0
:10B45400C9F8A40F0DF6A87521468388DFF8140CEB
:10B464000090284603F080F895E80E0009F57B600B
:10B474000EC03CE00BF028FC7EE0C2680846904712
:10B4840001210020CDF8AC1FDFF8F41B0BF0F4FB16
:10B494000DF6A870CDF8A81FDFF8E81B08F048F8EF
:10B4A40000200DF5BD54DFF8C42B01210DF2045327
:10B4B400C4F8C003DFF8B80BC4E9EE31C4E9EC21E9
:10B4C400CDF808050DF5AB50CDF804057BE4D9E9BA
:10B4D4000001DFF8B82BC4E900011321DAF80000F9
:10B4E4000130CAF80000DFF8A00B08F0A2FA09F551
:10B4F4007B6003F0ABFEB8B10022C9F8C00FC9F8F5
:10B50400C41F89F8EC2FD9F8A42FC9F8BC2FDBF895
:10B51400001009F6BC70FBF7DFFEC0B20228E6D0CB
:10B52400032827D1032031E099F8AC0F012821D159
:10B53400D9F8A40F8188002900F0A480D9F8982FA5
:10B54400B2FBF1F303FB1121A1B900210122C9F8D7
:10B55400B00F89F8E01FC9F8B42FC9F8B81FDBF899
:10B56400001009F57B60FBF7B7FEC0B2022801D0DA
:10B5740003280AD0012030700120D9F87C5B89F8B7
:10B58400F00FD9F8680BFFF725BC042003213070B5
:10B59400042088F800100B9989F8800B002918BF43
:10B5A400012141F290700B9109EB0006DAF8C00C0E
:10B5B400DAF8C41C1196084340F0198209909AF8ED
:10B5C400F00CB0B1032836D19AF8000D0AF6F4480D
:10B5D4000AF55065D0B3032858D19AF8FD0C0AF641
:10B5E400F84B0AF6FD46D0B3032853D19AF8FC4C25
:10B5F40054E0DAF8C80CDAF8CC1CDAF8D02CDAF813
:10B60400D43CCAF8D80CDFF8940ACAF8DC1CCAF88F
:10B61400E02C0122CAF8E43C00F62401D1E8CF3F33
:10B6240003BBC1E8432F002BF8D10021CAF8E80C72
:10B63400CAF8EC1CA5E1354615F8240F48B10328D7
:10B6440000F08080DFF8480A08F079FED8F800009E
:10B65400A4E1DAF8F81CDAF8FC2C306A5DE0DBF8D7
:10B664000000A4E10BF0DFFBCDF8AC1FDFF8301ACB
:10B674000BF002FB0DF6A870CDF8A81FDFF8241A12
:10B6840007F056FFDFF8F00908F046FEDFF8080A75
:10B6940008F055FEDFF8FC0908F051FE302C80F06C
:10B6A400FB821499DFF8040A096800EBC4000BF06C
:10B6B4003DFCE248202C04F01F0128BF00F5407037
:10B6C40000EB8100D0F8000210F4403F40F0858187
:10B6D4000AF6FC4009F04AF901245846347002F095
:10B6E40029FE2C7098F80C00032803D108F10400FB
:10B6F40002F020FE119EDAF8E81CDAF8D80C0023D8
:10B7040040F20922DDF850B0CAF8FC2C3546CAF8DC
:10B71400F81C05F8243F45F8040C9300CAF8001DF2
:10B72400002ACAF8043D00F0B182AD220A7000215B
:10B7340030603176DAF8000DDAF8041DCAF8080D25
:10B74400CAF80C1DDBF8001009F5955002F05EFDF7
:10B75400C0B2022800F03F81C00740F0A382DAF8AB
:10B76400041D0329C0F0B28200F0AA8201204FF424
:10B774007A74B34E2870DAF8E80CDAF8EC1CDAF8CC
:10B78400E48CB0F813305BBA634301EB5311CAF88D
:10B79400EC1C1091C57D017C05F00F0343EA0111F7
:10B7A40090F90F30DCB2002B41EA043248BF324337
:10B7B40090F816B0817B0F920BF00F0343EA01114E
:10B7C40090F90D30DCB2002B41EA043148BF31431B
:10B7D4000E91447D037B90F806E090F80AA0017A6C
:10B7E4000D9104F00F0141EA031190F90B30DAB224
:10B7F400002B41EA023248BF324390F909C090F964
:10B80400073090F9050098F80110002900F0B9807C
:10B814000C924FEA0A125FFA8CF1BCF1000F5FFA46
:10B8240080F9DEB242EA151242EA0131844A48BF85
:10B83400114398F800C0CDF8E81C00284FEA0E1117
:10B8440041EA141141EA093148BF11430D98CDF87A
:10B85400E41C000140EA1B10002B40EA06300DF600
:10B86400A87648BF1043DDF848E000224042CDF8F6
:10B87400E00C0DF54E60032A14D006EB820100EBB8
:10B88400820300240125ED070AD00D191C4494ED10
:10B89400000A0C24B8EEC00A85ED000A0025F2E780
:10B8A4000132E8E704A832469FED660A00F5DA5053
:10B8B40092E83800014638C1DDF84C9000210C298B
:10B8C40008D04218043192ED001A21EE001A82EDDC
:10B8D400001AF4E790E81C009FED5B0A3146002053
:10B8E4001CC10C2808D03118043091ED001A21EE47
:10B8F400001A81ED001AF4E70DF5EA6296E81A00E1
:10B904009FED521A9FED522A02F108001AC08DF8D9
:10B91400ACC91098DEF8E01CCDF854070C208DF863
:10B9240050070F9800EE100A0C98B8EEC00A03EE08
:10B93400100A0E9880EE010AB8EEC33A404283EE34
:10B94400013A04EE100A0DF26C70B8EEC44A84EEAB
:10B95400011A20EE020A80ED000A23EE023A00EDFD
:10B96400013A21EE021A00ED021A0DF6A87000F059
:10B97400FBFF9DF8A80F152803D0DFF8380708F05F
:10B98400A0FDDDF848A000208AF8000DDAF8DC0CF0
:10B994000AF550650AF6F448CAF8F40C0021CAF80E
:10B9A400F80C0AF6FD460AF6F84BCAF8FC1C0178B6
:10B9B400224A202901F01F0128BF02F5407202EB40
:10B9C4008101D1F8002242F44032C1F80022047807
:10B9D4008AF8FC4C62E6042004E00320DDF850B051
:10B9E4003070119E032129708AF8F00C0998002800
:10B9F40018BF01200246D6E90A0108430DD0DDE94B
:10BA04000A010840104000F02A8348460AF5B6644B
:10BA140001F0DEFA204601F0C7FA96F89203099283
:10BA240009F5BE58DFE810F0160057015F01240144
:10BA3400B801D8012F011102C60200BF00258450AD
:10BA44000000F0FF000000380AE81C416F12834335
:10BA540035FA8E3CD6E9E20106F55C74D6F8682323
:10BA6400D6F8603396F86D9396F865B300250BC449
:10BA740096F89103C6F87C23002196F86C43129043
:10BA840096F8900396F864630E90304600F060FCDC
:10BA94002046002100F05CFC58463146002200F0AC
:10BAA400B3FDCDE90F1048462146002200F0ACFD5D
:10BAB400CDE90C10AE490420012203230DF6A87928
:10BAC400CDF8540701F54051CDF85017A9490A6043
:10BAD400C1F80055A8490B60DDF85017CA604A60E8
:10BAE400C1F81005DDF85467AE4217D00DF5EA60D1
:10BAF400294608F0DDFF8346CDF8A80F48460C46DA
:10BB0400CDF8AC1F09F03AF8484609F04FF858460A
:10BB14002146002208F0F6FF0135E5E7DDF8541769
:10BB2400DDF850070DF54E69DFF8AC55CDF8E41C8F
:10BB3400012141600421C0F810150021C0F844110E
:10BB44004FF40031C0F80413CDF8E00C484600214E
:10BB5400A847044607900E46089148460121A84785
:10BB6400CDF8AC1FCDF8A80F20463146022208F0CC
:10BB7400C9FFDDF8A84FDDF8AC5F41F288322046FA
:10BB8400294608F0BFFF0DF6A87008F0DFFFDDF8C6
:10BB940034B077490BF03F00894601EB8000294619
:10BBA40000F13006204608F0BFFF109D02460096C3
:10BBB4004E460E9905F03F0009EB8000DDF84C90ED
:10BBC40000F1300309F5D65000F07CFBDDE90701F4
:10BBD40008F0AAFF6021024641EA8B0041EA850190
:10BBE40056FA80F056FA81F31299009041F6D0206B
:10BBF400484400F067FB119E0020DDF8E41C86F841
:10BC04005C030C9886F8585306F55474DFF8C8544E
:10BC140086F85AB386F85B030F9886F85903DDF863
:10BC2400E00CC6E9D40120460021A84700F0DAFC64
:10BC340020460121A84700F0D5FC96F83C030122D8
:10BC44004E490BF0B2FA086096F84C030BF0ADFACB
:10BC540008604B484FF480310160D6F85003C2604D
:10BC6400D6F85003026086F85C23DDF850B03BE060
:10BC740096F8A00306F5687B002844D003282ED14B
:10BC8400D6F89C5344E0D6F89803C2E0DFF8382491
:10BC94000020002107F02EFCDFF80C242046302180
:10BCA40007F028FC0120DFF81C340DF5AB522B21E2
:10BCB4002870DFF808040090DFF8040408F0A1F904
:10BCC400DFF8F4230320032107F014FCDFF8E0235A
:10BCD400022007F00FFCDFF8FC0308F030FBDFF86C
:10BCE400F00308F02CFBFEDED6F87403407900283C
:10BCF40000F05481002006F5687B86F8A00309F55E
:10BD0400D650C6F89803D84800F14405C6F89C53A9
:10BD1400EFF3108172B6D5E900090022AC68CE07B2
:10BD24002A60022840F0528106B962B60120119EB1
:10BD34000DF6A8718BF80000DDE9139B0020B2F525
:10BD4400807F06D08B1888501032C3E90100D86078
:10BD5400F5E700250DF6A874B5F5007F12D008EBC1
:10BD6400050021460BF005F905F58075F4E700BFE1
:10BD740000D0005004000150080501500475015022
:10BD840000E100E009F5CE504FF480710BF0AFFCF8
:10BD9400D6F87803C6F89803DBF80010D6F89803B1
:10BDA40003F0A2F9002800F02F8106F56675C6F8A5
:10BDB40080030DF5EA6604460DF6A8714FF4AC62F3
:10BDC40030460BF02DFA31462846119E4FF4AC62F2
:10BDD4000BF026FA0AF008FFDBF8001006F566708F
:10BDE40002F0F8FFC4B2022C00F00C81D6F88003F4
:10BDF40002F008FBE00740F0F5800DF6A8740BF0A4
:10BE04004BF9404621460BF0B4F8D6F87C03C6F84B
:10BE14009803DBF8001003F067F9002800F0F080C5
:10BE24000DF5EA650446C6F884030DF6A8714FF4CF
:10BE3400AC620BF0AAF941F6283029464FF4AC6203
:10BE440048440BF0EDF90AF0CFFE41F62830DBF858
:10BE54000010484402F0BEFFC4B2022C00F0CE80B1
:10BE6400D6F8840302F0CEFAE00740F0BB800DF66A
:10BE7400A8740BF011F909F5C65B21464FF48072E2
:10BE840058460BF0CDF9D6F874030DF6A874414664
:10BE94004FF480720079129020460BF0C1F900260D
:10BEA40040F6FF750DF5EA69102E11D062686088BE
:10BEB4000BF098F808BFA94203D0844A1040084305
:10BEC40001E003F05DF949F8260010340136EBE790
:10BED4000DF204500DF5EA6140220BF002FC0DF660
:10BEE400A87659464FF4807230460BF099F9DDF884
:10BEF40050B0002440F6FF750DF54E69102C13D098
:10BF0400726870880BF06EF808BFA94205D06F4ABA
:10BF1400694010400843504001E003F031F949F80A
:10BF2400240010360134E9E70DF5EA640DF54E619D
:10BF3400402204F140000BF0D4FB0DF204512046E2
:10BF440040220BF0CEFB0DF6A87521468022E81C9A
:10BF54000BF0C7FB0A200DF58051832281F8500BAA
:10BF640004A8294600F5DA54601C0BF0BAFB1298B9
:10BF7400119E0DF58051224681F8AC0DD6F8701350
:10BF84000DF6A87000F0F0FC9DF8A80F152802D05B
:10BF9400524808F096FADDF84C90A5E608F044FC07
:10BFA400002286F8A02340F26762801841F1000164
:10BFB400C6E9E60141F62830DBF80010484409F0F0
:10BFC40077F800283FF490AE082046E0F0B91498C2
:10BFD4000068D0E9001009688847CDF8B01FCDF893
:10BFE400AC0F2FE009F5D65002F058FA099A012057
:10BFF400002186F89203C6E90A0100E507202CE037
:10C0040006202AE0052028E0042026E01498006891
:10C01400D0E90010844208BF89450FD009688847D9
:10C02400CDF8AC0F0120CDF8B01F0DF6A8710BF0C0
:10C034003DF8D9F804102046884708E0CDF8B04F01
:10C04400CDF8AC9F01200DF6A8710BF02FF806B9BE
:10C0540062B60320119E8BF8000086F892030DF55A
:10C06400FA5D07B00AF051BF0C3D0020A48F010017
:10C0740019E600004490010064900100F08A010078
:10C08400FC8F0100049001002C96010040960100F1
:10C094000C950100208C0100308C01005000002020
:10C0A400448F01004C8F0100B09F0100083B002029
:10C0B4001C950100110000002C9501005096010010
:10C0C40088A4010038910100FC9401000000FF0FD6
:10C0D4009C95010060960100B54A01001200000021
:10C0E400F0B503AF4DF804BD0C4605460026062EF8
:10C0F40007D0A05B0BF06DF8C1B202361029F6D060
:10C1040000E010200AF0EFBEF0B503AF4DF804BD17
:10C114000D46044600F091F8C1B210290FD1243520
:10C124000026142E0AD0A81990ED000A2046FCF728
:10C134006DFAC1B204361029F3D000E010200AF0E1
:10C14400D2BEF0B503AF2DE9000B884605464FF08B
:10C1540000090024B4F5907F4FD038F804000BF0A8
:10C1640038F8C1B2102945D108EB04062946708875
:10C17400FCF75AFAC1B210293CD1B0880BF029F867
:10C18400C1B2102936D1D5F80004B9EB902F30D1C3
:10C19400B1790AF03FFB2CD1F1790AF03BFB28D1AD
:10C1A400317A0AF037FB24D1717A0AF033FB20D1BB
:10C1B400B17A0AF02FFB1CD1F17A0AF02BFB18D1CB
:10C1C400317B0AF027FB14D1717B0AF023FB10D1D9
:10C1D400B17B0AF01FFB0CD1F17B0AF01BFB08D1E9
:10C1E400317C12342954D5F800040130C5F8000418
:10C1F400B0E70220BDE8000BF0BD1020FAE7F0B56F
:10C2040003AF4DF8048D0C4605464FF00008B8F115
:10C21400400F0ED008F104080026042E07D0A05BBE
:10C224000AF0D7FFC1B202361029F6D002E0043476
:10C23400EDE710205DF8048BF0BDF0B503AF4DF8C9
:10C2440004BD0C4605460026242E06D00AF07CFECA
:10C25400C1B204361029F7D000E010200AF043BE22
:10C26400F0B503AF4DF804BD0C46054600260C2E70
:10C2740006D00AF069FEC1B204361029F7D000E0F6
:10C2840010200AF030BE80B56F4602F0B5FFC0B290
:10C29400102818BF022080BD80B56F46C9B202F0D5
:10C2A400ABFFC0B2102818BF022080BDDCB504AFBC
:10C2B40014460A460093411C0020234608F0A6FFBA
:10C2C400DCBDD4D4F0B503AF4DF8048D8AB0D7F8F3
:10C2D40008C04FF4000488460226EE4664F31F2883
:10C2E400CDE9023C042E08D05EF82640D4F88050F4
:10C2F40075B9C4F880800136F4E7D2F88040A4B957
:10C304000173C2F8808080E80C100AB00AF097BD6F
:10C314000121002005910A49089007900420069005
:10C324000491084904A807F003F9012100200591AC
:10C334000549089007900420069004910349F1E709
:10C34400488B0100508B0100188B0100208B0100E9
:10C35400B0B502AF0F4AC4B24FF44375202C4FF46A
:10C36400427402F540733CBF42F20053C5F28403A9
:10C3740038BF082438BF0C25002900F01F0118BF5E
:10C38400254601248C4043EA8101AC500322C1F8C4
:10C394000022B0BD00258450F0B503AF2DE9C00BD9
:10C3A400044690F828000D46DFE800F0034E5110D3
:10C3B4003E00002004F12C0C84F8900094E84F0017
:10C3C400ACE84F0004F1140CACE84F000AF050FE46
:10C3D400C0B2022802D10220032130E0C0074FF08E
:10C3E400000629D004F194084FF4806140460BF014
:10C3F400D6F8606A174B41464FF4806208F034FF68
:10C4040081461548D4E9082388460090484608F038
:10C414000FFF04F1140204F12C0384F89060C4F8B3
:10C424003C8007CA83E807020AF022FEC6B2022E45
:10C4340002D10220042102E006F00100012184F867
:10C444002810BDE80C0BF0BD014807F078FFFEDEB4
:10C45400908B0100A08B0100B08B0100F0B503AFFD
:10C464002DE9800F814690F86400884650B1032876
:10C474003FD14E4616F8600F90B303283CD1D9F84B
:10C484005C0090E0D9F81020D9E90004D9E902133E
:10C49400C9E90504C9E90713C9F824204AB10120F0
:10C4A400B3F1005FC0F08F8013441B0F022B00F226
:10C4B4008A8001204FF6FE7489F8380000208A42F1
:10C4C40088BF11464FF6FF72B1FBF2F2A2EB0243B2
:10C4D400CB4218BF0132C9E90A10C9E90C240EE0A5
:10C4E40009F1440ED9E90FC5D9E914149EE80844AA
:10C4F4002AE03B4807F023FF384807F020FF0020DC
:10C50400002A60D04E4606F8600F501E56F8341CC0
:10C5140046F8300CA6F1440E56E913C59EE80844CB
:10C5240060184FF6FF74013046F8340C56F8380C96
:10C53400401AA04238BF0446A6F11C0046E909C5CA
:10C5440046E9041480E808445A1A4FF0000B944258
:10C5540038BF22468B42634688BF0D4453F8040F0C
:10C56400C0F834554FF0000588BF95B2AEEB010218
:10C57400C0F83855944238BF22468E4588BF8A4455
:10C584004FF00001C0F844A588BF91B2C0F8481527
:10C59400C0F818B14021C0F8041301210161DCF88E
:10C5A4000000C9E91630D8E9001208F03CFDD9F8BA
:10C5B40058000068D0F8180138B10120D9E90C24DA
:10C5C40089F860009BE7012102E003210220317019
:10C5D40089F86410BDE8080FF0BD00BFE08B0100CE
:10C5E400D08B010006283FBF01EB80000021C0F87A
:10C5F4004011704780B56F460148024A0AF0B7FB04
:10C60400F49E0100309F0100B0B502AFC3B2082B05
:10C6140021D2154BD2B2CCB201F01F05202C53F815
:10C624002220124B03F540733CBF42F20453C5F27F
:10C6340084031B68EB40DB070D4B08BF03231A433D
:10C644001F2C88BF42F400520A4C830042EA0522A0
:10C65400DBB21A51B0BD0248024A0AF088FB00BF9F
:10C66400889E0100509F0100D89901000425845040
:10C674000300100010D50050F0B503AF2DE9800F72
:10C684008046407A0D46DFE810F00500FF000801FF
:10C6940049002B00D8F8040098F80810C8F80000E6
:10C6A400DFE801F003BD4C5B4700022180F8A010D5
:10C6B4000021D8F8000080F89C10D8F8000080F819
:10C6C4009D10D8F8000080F8A1100AF0CBF9002DD5
:10C6D40000F0B280F4E8020109698847083DF6E7F2
:10C6E40098F81000C00740F0D280D8F80C00006819
:10C6F4000021C0F80015012088F81000D8F80000C7
:10C7040080F8A0100AF0AEF9002D00F0B680F4E82D
:10C714000201CA6800219047083DF5E7464616F82D
:10C72400180FDFE800F003B7BA305300D8F80C0054
:10C734001AE02C300021C8E90301D8E7002180F871
:10C744009C100AF08FF9002D00F09780F4E80201A4
:10C75400CA6900219047083DF5E7002146462C3080
:10C7640006F8181F46F80C0CC8F8100041460122C0
:10C77400006841F8140FC0F800254FF480020868DF
:10C78400C0F8042389604848D5E900121C3008F039
:10C794004AFCD8F81C000068D0F80004000501D455
:10C7A400032021E0D8F814004FF40061C0F800140D
:10C7B4003E484FF4800101603D49D8F81400C0F8A8
:10C7C4000413D8F810000530C8F81C003648D5E921
:10C7D4000012143008F027FC36480168890707D492
:10C7E4000068C00709D0042030700120032146E00E
:10C7F400D8F814000121C0F804150120022188F89A
:10C804001800D8F8000080F8A0100AF02BF9A5B39E
:10C81400F4E80201CA6801219047083DF7E70121C5
:10C8240080F89C100AF01EF93DB3F4E80201CA69CD
:10C8340001219047083DF7E7D8F800004FF00009C0
:10C844000025816D00F1500B0BEB410AD34514D048
:10C854008BF80090D8F8000000F15C04C06FC600AB
:10C864003EB1F4E8020100224B6A29469847083E8B
:10C87400F6E701350BF1020BE8E70020012188F807
:10C884000910BDE8080FF0BD064807F058FD03483D
:10C8940007F055FD024807F052FDFEDEB891010095
:10C8A400A8910100408C01000C3D002004E100E04F
:10C8B4000100400100740350D0B502AF86B00446B5
:10C8C40024300122D0E8CF3F4BB9C0E8432F002BDE
:10C8D400F8D120460AF0A4FA204606B0D0BD0AF0EA
:10C8E400A2FA019103490AF006FA68460091024946
:10C8F40006F01EFEF08E0100F88E0100FEB506AFB4
:10C9040000F580710122D1E8CF3F2BB9C1E8432F54
:10C91400002BF8D106B080BD0AF085FA01910449D4
:10C924000AF0E9F968460091024906F001FE00BFE9
:10C93400448F01004C8F0100B0B502AF0D46094988
:10C944000446284601F0E3FDC36A0022032B04D801
:10C954000133C362C4E900222A46A2600868013098
:10C964000860B0BD6C8F0100B0B502AFADF5227D9B
:10C9740005460C469891114668464FF418720AF021
:10C9840065FE206870B94FF0FF30211D6A46002310
:10C994002060284600F01EF82068013020600DF564
:10C9A400227DB0BD002008499D90012099919A9064
:10C9B4009C909FA806499B900448A090A7F1090069
:10C9C4009F9099A806F0B4FDA48F010019E6000019
:10C9D400AC8F0100F0B503AF4DF8048D804691F89B
:10C9E400980916460D4698B116F8014B152C2AD015
:10C9F40033B11868D0E9001205F1080008F0E6FA2E
:10CA040008F10100314640F25F220AF06AFE1EE09E
:10CA1400D5F894094FF418714FF4187200FB0150C3
:10CA2400314610300AF012FED5F89419D5F8900961
:10CA340001310A1F18BF0A46C5F89429904204BF61
:10CA4400012085F89809284608F0E0FA152488F8AA
:10CA540000400AF0F4B9D4D4F0B503AF2DE90007CF
:10CA64000446407F8946DFE810F00A007E008D000E
:10CA74003F0031004C002200C000DF006401A269C5
:10CA8400D4E902014FF44173226101EB8101127B6D
:10CA940000EB8101202A38BF042302F01F02012683
:10CAA40006FA02F2BA4E9A51C4E900016BE094F816
:10CAB400A400A0B3032859D194F8A000002840D0C2
:10CAC400032800F0FC80A94807F039FC94F8D0044E
:10CAD40048B303284DD194F8CC04B0B3032800F034
