:100000000000042055010000E5280000DB3200005C
:10001000E5280000E5280000E5280000E5280000AC
:10002000000000000000000000000000E5280000C3
:10003000E528000000000000E5280000E528000099
:10004000E5280000E528000000000000E528000089
:1000500000000000E5280000000000000000000093
:10006000E5280000E5280000E5280000E52800005C
:10007000E5280000E5280000E5280000E52800004C
:10008000E5280000E5280000000000000000000056
:10009000E5280000E5280000000000000000000046
:1000A000E5280000E5280000E5280000E52800001C
:1000B000E5280000E5280000E5280000E52800000C
:1000C000E5280000E5280000E5280000E5280000FC
:1000D000E528000000000000E52800000000000006
:1000E000E528000000000000E5280000E5280000E9
:1000F00000000000E528000000000000E5280000E6
:10010000000000000000000000000000E5280000E2
:10011000E528000000000000812200005D230000AF
:1001200000000000E52800000000000000000000C2
:1001300000000000000000000000000000000000BF
:1001400000000000000000000000000000000000AF
:04015000E52800009E
:1001540002F0F2FB0E480F490022814201D004C094
:10016400FBE70D480D490E4A814202D008CA08C077
:10017400FAE70C484FF47001026842EA0102026097
:10018400BFF34F8FBFF36F8F02F00CF900DE000056
:1001940000000020A000002000000020000000203B
:1001A4005433000088ED00E00246C06870B1136962
:1001B40053B1D0B502AF5169994228BF19465B1AB1
:1001C4004418C2E90343D0BD0020D0601168002068
:1001D400012901BFD2E901315060184670477047C8
:1001E40080B56F46814207D399429FBF0244091AE2
:1001F400104680BD0846194602F092FB80B56F4652
:1002040013460A4601460020BDE88040FFF7E8BFD8
:10021400F0B503AF2DE9800F8046407A0D46DFE844
:1002240010F00500FD00FF0046002B0098F80810B0
:10023400D8F80400C8F80000DFE801F003BB49580F
:100244004400022180F899100021D8F8000080F8B9
:100254009510D8F8000080F89610D8F8000080F8BF
:100264009A1002F06DFD002D00F0B080F4E8020158
:1002740009698847083DF6E798F81000C00740F080
:10028400CD80684800210160012088F81000D8F86A
:10029400000080F8991002F053FD002D00F0B780A3
:1002A400F4E80201CA6800219047083DF5E7464694
:1002B40016F8180FDFE800F003B2B4315400D8F890
:1002C4000C001AE000219430C8E90301D9E70021A9
:1002D40080F8951002F034FD002D00F09880F4E8C9
:1002E4000201CA6900219047083DF5E7002146460E
:1002F40006F8181F943046F80C0C4A494346A1F5F9
:10030400A06243F8142F43F8040C012008604FF452
:1003140080011868C0F804139B604348D5E90012B3
:100324000C3002F06FFBD8F81C000068D0F8000411
:10033400000501D4032021E0D8F814004FF4006133
:10034400C0F800144FF4800138480160D8F8140054
:100354003749C0F80413D8F810000130C8F81C005D
:100364003148D5E90012043002F04CFB31480168F1
:10037400890707D40068C00709D004203070012021
:10038400032146E0D8F814000121C0F80415012027
:10039400022188F81800D8F8000080F8991002F0BB
:1003A400CFFCA5B3F4E80201CA6801219047083DD7
:1003B400F7E7012180F8951002F0C2FC3DB3F4E8A0
:1003C4000201CA6901219047083DF7E7D8F8000007
:1003D4004FF00009002500F1480B016D0BEB410AB9
:1003E400D34514D08BF80090D8F8000000F15404E1
:1003F400406FC6003EB1F4E8020100224B6A294670
:100404009847083EF6E701350BF1020BE8E70020B8
:10041400012188F80910BDE8080FF0BD02F084FA44
:10042400FEDE00BF006503508400002004E100E00C
:10043400010040010074035080B56F4680BD80B553
:100444006F46002080BD80B56F4680BD80B56F4685
:1004540080BD80B56F4680BDF0B503AF4DF804BDD7
:10046400846DC4B10546006CA8B90E46696DA142FD
:1004740013D30A1B132A0ED9286D0119142002F074
:100484002EFB3246142302F012FB04F11400A8657B
:100494005DF804BBF0BD02F037FA204602F040FAE2
:1004A400DFB506AF0446806DD0B90020626D27F831
:1004B4000A0C0C4847F80E0C0A20092A47F8120CBB
:1004C4000ED9216D02F00BFBA7F112020A2302F0F0
:1004D400EEFAA06D0A30A065022084F85C00DFBD4E
:1004E40002F012FA00000306F0B503AF2DE9000F85
:1004F40093B0044691F827000D4668B195F82200A0
:10050400EF2804BF95F82300022801D002F0FCF97B
:1005140095F824000128F9D1E88BB0F5FA7F9FBF44
:1005240095F825100839CEB249019EBF41EAD6019B
:10053400C9B20729EAD84FF0010909FA01F111F00B
:100544008B0FE3D040084FF4807A07F81D0C4FF06E
:10055400807095F828100026CDE9052A4FF0040B89
:1005640047F8230C6FF07F0295F8260000290796C0
:100574000DF104080396CDE9019BCDE90E66CDE9A2
:100584000C3A0A96089607F81F6C18BF6FF03F02E2
:1005940060F3451207F81E2CA7F1230240460221FE
:1005A400072302F0A6FACDE90F9B0DF120091A4AA0
:1005B4000F214846032302F09CFA184A48460221B8
:1005C400042302F0CCFA204641461C2202F07DFEB0
:1005D40004F11C004946242202F077FE04F1600075
:1005E40029462C2202F071FE4FF48050F968C4E9C8
:1005F4002310B868C4F8B46084F8C8B0C4E930669D
:1006040084F85C60C4E9140AA665A664266413B081
:10061400BDE8000FF0BD00BF4C33000050330000B4
:10062400F0B503AF2DE9000FA1B012AE88464031FA
:1006340004463046202202F048FE189A002508F1AC
:100644001C09002A5BD0DDE9160106F1080302F05B
:1006540021FBDDE912061295DDE916230128189D18
:100664000DD1B01D06F1080102F013FAAA1B27F8F8
:10067400362CA7F1360202F0B8FB16AD2CCD0820BB
:100684000A2102F006FAA7F13602022327F8365CA3
:1006940002F00DFA189D8DB3DDF85CB0BBF1070FC5
:1006A40040F22F810020DDF858A007F81E0C9F208F
:1006B40007F8260CA7F136029448052147F82A0CBE
:1006C4001923934847F82E0C924847F8320C924865
:1006D40047F8360CDAF8040047F8250C280A9DF888
:1006E400646007F8200C484607F81F6C07F8215C83
:1006F40002F035FA5D4505D9284603E100254FF09F
:10070400010A0026CDE90C6A08F110060220042132
:100714004CCECDE90E9502F0BCF9ADF8486012AAB2
:1007240002F063FBD8F834606EB1D8E90B230020E3
:10073400C8F838000220042102F0ABF9ADF8486093
:1007440012AA02F052FBB8F87E0008F19401E0838B
:100754002422D8F88600C4F82600B8F88A006085F8
:10076400D8F860001190D8F864000A90D8F86800AE
:100774001090D8F86C000990D8E91CA0B8F87CB0A7
:100784000B90B8F88000089098F88200079098F8C9
:100794008300069098F884000590B8F878000490D7
:1007A400B8F87A00009004F1540098F8859002F0AB
:1007B4008CFD404602F08AF9CDE901100E9802F052
:1007C40085F908F1B80C0E9104F1480301219CE865
:1007D4006400BAF1000FDE4664C3A4F8A49084F860
:1007E4008910CDF80CA018BF4FF0030A109B84F8B1
:1007F40088A0002B18BF01235B0084F88730119B6D
:10080400002B18BF0123DDF800C00222049984F8EC
:1008140086304FEA1B2384F885304FEA1C2384F882
:1008240083300B0A84F881304FF48973A4F878304C
:10083400D8E92335C4E927350C9B84F84430029B5E
:10084400E362019BC4E90C300E98A0630D98E06349
:100854000F982064119820600A9860601098A06036
:100864000998E060039820610B9860610020C4F847
:100874009700C4F89300012084F89200022084F8C1
:100884008D0040F20A60A4F88A009DF84A00DDF861
:1008940018A0079E84F884B0DDF814B084F87B2097
:1008A400089A84F84700BDF8480084F882C084F8A8
:1008B400801084F87F9084F87EB084F87DA084F85A
:1008C4007C6084F87A2084F8259084F824B084F835
:1008D40023A084F822602284A4F81CE0A4F81AC09F
:1008E400218384F890B084F88FA084F88E6084F813
:1008F4008C2084F89190A4F8450021B0BDE8000F45
:10090400F0BD0820594602F00BF800BF9D9E648A92
:100914004C9CD265D88945C700DF60DDB0B502AF15
:100924000D4604461146042002F015FA02460B4611
:10093400002000218B4202D050540131FAE70820F4
:1009440000EB850104F1180000F03CF9C1B201206C
:100954008843032908BF0420B0BDF0B503AF2DE9D7
:10096400800F80460C46D1F820901146042002F0F6
:10097400F2F904F1180A05460E46042102F01FFAA2
:10098400C1B2032927D1A9F104006FF0010101EBE1
:1009940090090020864206D0295C0130FF29F9D055
:1009A400C8F804901FE000244FF0080B4C45F7D022
:1009B4000BEB840102F003FAC1B203290BD1601CD2
:1009C40031462A4629B112F8013B0139FF2BF9D1EE
:1009D40007E00446EAE7012020EA010188F8011053
:1009E40002E0C8F80440002088F80000BDE8080FC1
:1009F400F0BDF0B503AF2DE9C007BC6881461646CB
:100A04008846684602F0D6F99DF80000012802D114
:100A14009DF8010021E00198404501D904201CE023
:100A240009F10C0A05F580522946504600F080F879
:100A3400C0B203280ED10021C80711D1484602F0E4
:100A4400ABF9C0B2032805D1504602F09FF902F079
:100A5400A9F9F1D0012121EA0000BDE80C07F0BD9D
:100A640048464146224602B0BDE80007BDE8F040D2
:100A7400FFF754BFF0B503AF2DE9C007BC6881464A
:100A840016468846684602F095F99DF8000001284C
:100A940002D19DF8010021E00198404501D90420CC
:100AA4001CE005F580524846294600F041F8C0B2E2
:100AB400032810D109F10C0A0021C80711D15046AE
:100AC40002F06AF9C0B2032805D1484602F05EF983
:100AD40002F068F9F1D0012121EA0000BDE80C0719
:100AE400F0BD48464146224602B0BDE80007BDE8D5
:100AF400F040FFF713BFD4D4B0B502AF1446054697
:100B0400074A0848831A284601F0CCF8064A2146C9
:100B14000648831A05F10C00BDE8B04001F0C2B8E4
:100B240000700400008008000060000000700000F5
:100B3400F0B503AF2DE9000B04468068824201D969
:100B4400022014E0D4F8008016460D46404601F019
:100B5400B3F8606881194419A14202D3B1F5801F2A
:100B640008D90020D8F800100131C8F80010BDE8F9
:100B7400000BF0BD41EA040000054FF00100F1D183
:100B84000F4B0222091B1A6038BF00210A0B994639
:100B94000B0518BF00EB1132564201F0DDFE4FF099
:100BA400FF3536B1256004F5805401F0D5FE0136D9
:100BB400F7E70020C9F8000001F0CEFE0320D1E7DA
:100BC40004950350F0B503AF2DE9000B06460C461F
:100BD4005818B168884201D9022033E0D6F8008061
:100BE40099461546404601F067F87068044409EBDD
:100BF4000400B0F5801F01D900201EE049EA04007A
:100C040080074FF0010018D1104EC6F8FC0001F027
:100C1400A3FE4FEA99000021814208D055F8212013
:100C240044F821203268D207FCD00131F4E70020D7
:100C3400C6F8FC0001F090FE0320D8F80010013142
:100C4400C8F80010BDE8000BF0BD00BF08940350C5
:100C5400F0B503AF2DE9000B04460E465818A16801
:100C6400884201D902201CE0D4F800901D46904629
:100C7400484601F021F8606881190020B0EB115F4B
:100C84000AD16818B0F5801F01D9002004E040465D
:100C94002A4602F01AFB0320D9F800100131C9F8E2
:100CA4000010BDE8000BF0BD80B56F46B4B08146BE
:100CB4004FF0000ADFF8F00B09F11501189009F163
:100CC4006C08CDF864A0012699F80800059121AAC2
:100CD400111D049109F13C010C9109F14C010F9192
:100CE40009F15E01079109F15401069102F10A012B
:100CF400039109F12C01029109F118010D9109F1F7
:100D04007801099109F10C01089109F1140112917A
:100D1400DFF8F81DCE4C1431CDF83890CDE91081B0
:100D2400C0B270B1032811D112980078DFE810F036
:100D340006000D0722072900A2001B00089800687E
:100D440067E0D9F80000C9F804005DE01298007863
:100D5400DFE810F07200FB0610070500E0060D98AE
:100D6400006800F0C4BE99F83600DFE810F0050012
:100D7400EE0603071D000D00D9E906B0D9F82010CE
:100D8400C2E00D98006865E099F86800DFE810F0AB
:100D94000800DD06F206CB0422002900EC02CB0495
:100DA400D9F850B006983BE199F84A200F98DFE84B
:100DB40012F00500CC06E10609007405D9F838B034
:100DC4000024DAE099F8810090B1032840F0BD8650
:100DD40000F051BE99F89C0080B1032840F0B5861C
:100DE400C4E199F8790060B1032840F0AE8653E27B
:100DF40099F88300D9E91D8B00F00BBED9E924656D
:100E0400ABE1D9F8740045E2129981F800A0089981
:100E14000860C9F81000014611F8952F92B1D9F86D
:100E240004002322C9F80C00059889F8146089F895
:100E340014A021A902F049FAD9F80C00C9F810004D
:100E440000F04EBE00F1A402943009F1180389F8B1
:100E540028A007C3DDE9181200F0E2FFC0B205289C
:100E640006D199F8280078B1032840F06E8615E081
:100E740001F083FF0D9818A9FFF7CAF9002800F0C4
:100E84009185042000F025BEC9F824404FF40001E8
:100E9400C4F800A2D9F82400C0F8041301F094FFA8
:100EA400D4F85C01002800F02982D9F82400C0F8A5
:100EB4005CA1D9F82410D1F88004D1F88424D1F8A5
:100EC4008834C0B2D1F88C44D2B2240663F31744F8
:100ED40044EA02221044D1F89024D1F89434D1F891
:100EE4009844D2B2DBB2D1F89C14D9F810B042EADB
:100EF4000322E3B2090689F836A041EA0341C9E9AD
:100F040006B01144C9F82010C0F3411389F83430F5
:100F1400030AC9E90901A9F82E10090CC0F3C0128B
:100F240089F83230030CA9F8301000F01F000421B6
:100F340089F835200428A9F82C3028BF08460299DE
:100F4400002A89F833001AAD21AC55D0084604991B
:100F54000CC80CC10088088021461CC928461CC046
:100F6400098801802946C9F838B00C981CC91CC0EE
:100F74000024098889F84AA00180B9F844005D4634
:100F8400C9F83CB01790B9F8420016909BF89A0043
:100F9400DBE92732B9F840C00A90BBF8A40099F8FD
:100FA40048B099F846E099F84780BBF1020F99F8E8
:100FB40049A00B901592CDE913C375D0BBF1000F76
:100FC40040F08280B8F1000F00F0B081B8F1010F59
:100FD40000F09881B8F1020F76D1BEF1000F40F015
:100FE4004D84169901F00F0049B2B1F1FF3F40F36F
:100FF400B08208281749B0E203980A2202F065F982
:1010040021462846AC4691E87C007CC00698C9F885
:1010140050B09CE87C0001467CC1012689F868A098
:1010240007990A22C9F840B002F04FF9B9F85800FC
:101034005946C9F8440031F8A44FC9E9124A51F895
:10104400042C824208D2024CC8E9001A6BE300BFA8
:101054000060035044640350DBF89C10FFF7CEF8A3
:10106400002C00F0648509F1780289F8846013C2C9
:101074004FF0010B00250020C007C8F800A004D1E0
:10108400099800F071FF06460D4656B199F8844060
:10109400D9F86C0089F884A0012846D1D9F87000E9
:1010A4004AE00F98036890E0B8F1000F0CD1D5F82E
:1010B4004090B9F1000F07D095F84400864504BF6D
:1010C4001698072800F0EF81686F05F154044FEA81
:1010D400C009B9F1000F00F0D183D4E900107646BD
:1010E400C56A1798ADF8C80016988DF8CDA08DF88C
:1010F400CCB08DF8CB808DF8CAE0ADF8C600ADF861
:10110400C4C0009221A831AAA847219838B9A9F1EE
:1011140008090834159AB646DDE913C3D9E7DDE9B1
:101124002239002B40F03482A8E3099800F01CFF18
:10113400C9E91BB0C9F87410B0FA80F089F89D4071
:10114400400989F89CA089F89E00D9F84000C9E9B3
:101154002465A430C9F89800DE4CC9E9226501264B
:10116400DD48C4F828A1E664C4F8040301F02CFEA9
:10117400D4F82801002800F09980D848D9E922122F
:10118400C06D904200F29A80D44AC2F8BC1200F0BA
:101194007F01C2F8C012C4F830A1A662D4F830119D
:1011A4000029FBD0CD49C4F830A1C1F85CA0D9E92D
:1011B4001212131889F89C608842C9F84C3004D381
:1011C400D9F84400834240F0D380D9F84040D4F8A1
:1011D400A0108B4200F2B084D4F89C00002299F84D
:1011E4005CB04FF0010E1690C9E90E03BBF1000F7D
:1011F400B9F85800B9F8546099F85AC099F85B5096
:101204001590B9F85600179099F85D00149058D0CD
:10121400606F04F15409C400002C00F07782F9E8EF
:1012240002019A468DF88CB0E046D1F828E0149972
:101234008DF88D101599ADF8881017998DF88B508D
:101244008DF88AC0ADF88610ADF8846021A9169A8D
:10125400F047C1B2083CC44653460229DCD0C0075B
:1012640040F05482DDF83890D9F8401001F1A40020
:1012740091F89820002A6FD091F89A104FF0000A44
:1012840089F879A0012689F87810C9F87400DDF886
:101294004080904CC8E9000A404600F045FED9F869
:1012A400400089F8796080F898A03FE2D4F8000102
:1012B40020B9D4F85C01002800F0EE8089F89C6025
:1012C40034E2002D00F0C5801798012D5FFA80FAF2
:1012D40055D0022D9CD1BCF1010F00F00F81BCF15F
:1012E400030F08BF002E40F011821798000700F08A
:1012F400A9820AF0870000F5807008E1032089F8CC
:101304002800E6E3286D1699884240F2B782BEF1C0
:101314000A0F00F01281BEF1000F7FF4D5AE022057
:101324001946FEF76BFFADF88440E5E0BEF1000F0F
:1013340000F0D680BEF1060F00F0B780BEF1080FB2
:1013440040F09C82002A00F0028495F89900043849
:10135400B0FA80F04009F8E0DDF840804FF0000A70
:101364005C4C0126C8E9000A404600F0DDFDDDE1E1
:101374004FF0010BD9E91B06D9F874507CE6216DB6
:101384004FF0000804EB4A00514588BF00F14808BB
:1013940040F2BC81BCF10B0F40F0B88198F8011009
:1013A400F0B2814240F2B281D4E90B01B34688F82D
:1013B40000604FF0000916940025CDE91F0121AC0F
:1013C4001FAE2046314601F036FC2198012840F03A
:1013D400A2802399002900F0B88301F0C0FC24D036
:1013E400042813D00528ECD131A801F0F0FBC00784
:1013F40040F0AB83E8B25045E3D198F800205FFA9F
:1014040089F0101A01F0B2FC179DDAE731A801F057
:10141400DEFBC00740F0998331A80D4601F0D7FBED
:10142400C00740F092838946CBE731A801F0F1FB75
:1014340080B2002840F0898331A801F0C8FBC007BE
:1014440040F0838331A801F0C2FBC00740F07D83E4
:10145400B7E7ACF10100082800F25881DFE810F08A
:1014640009005601E8005601CE0056015601560106
:10147400FA00012E40F04A81606F04F1540684F8AA
:101484009620C500002D3FF4EDAEF6E802010A6A8D
:1014940000219047083DF5E70420032189F86800FE
:1014A40089F89C1012E3EB6B72E04FF0FF3000EB15
:1014B4001C20052800F23D81DFE810F00600C10180
:1014C4009201E001E001BC0105F178034FF012093B
:1014D4005EE000BF006003500104800044640350D8
:1014E4000220194695F8964095F89750FEF786FE27
:1014F40064F34105ADF8845021AA3FE0002E40F08A
:101504000581179800073FF4ADAE0AF08700E4495F
:10151400C1F8D400A6E6DDF858A00AF15404DAF8BC
:101524007400C500002D3FF49DAEF4E802015A4654
:101534004B6A17999847083DF4E7002A00F007839F
:10154400169905F1480010F8110018704FF00109C0
:101554001EE0D449082801F5846121AD80F0F282AF
:1015640051F8204002201946FEF748FEA2B2013A83
:10157400B2FA82F25209ADF884202A46022300F01E
:10158400B8FBDDE914314FF00209012940F2D7829A
:1015940017990B9A08468A4238BF10460A9C002CB9
:1015A40018BF0846122A28BF0846484528BF48469F
:1015B4000ED9DDF83890002A4FF0010600F0C582FC
:1015C400B0FBF2F101FB1201B1FA81F1490907E024
:1015D400DDF838900021002A4FF0010600F0A782C0
:1015E4004FF0000BC9E9170200204FF0000A89F8F8
:1015F4007060C9E91361C9E915B3D7E1701E80B2FF
:101604007F2880F0838040F2013004F15408A4F86C
:101614009800606F84F89A60C500002D3FF422AEF4
:10162400F8E8020294F89A1052699047083DF4E7EA
:10163400012E6BD1606F04F1540684F896E0C50066
:10164400002D3FF40FAEF6E802010A6A012190472B
:10165400083DF5E7002E74D0012E57D10420D4F8AC
:10166400509084F8990004F1480AD4E90B01A34688
:10167400CDE91F010DF184081FAC0025002640466A
:10168400214601F0D8FA2198012840F09A80239944
:10169400002900F05A8201F062FB23D0042812D002
:1016A4000528ECD131A801F092FAC00740F04D8230
:1016B400F0B2814540F24F821AF81000EAB2801A63
:1016C40001F054FBDBE731A801F081FAC00740F0D8
:1016D4003C8231A80E4601F07AFAC00740F0358208
:1016E4000D46CCE731A801F094FA80B2002840F00E
:1016F4002C8231A801F06BFAC00740F0268231A891
:1017040001F065FAC00740F02082B8E7DDF83890B0
:101714004FF0000ADDF840800126624CD9F8400001
:10172400A430C9E91B0A404600F00EFC89F8686041
:1017340036E14FEA1C200F2840F0A080D5E90D398E
:1017440026E794F8990002283FF48CAD032026463E
:1017540084F89900D4E90B01CDE91F0121AC1FAD38
:101764002046294601F067FA219801286ED1239971
:10177400002900F0EA8101F0F2FA0ED0042813D017
:101784000528EDD131A801F022FAC00740F0DD812F
:101794000846002100F0F4FAE2E731A801F039FA32
:1017A40080B2002840F0D18131A801F010FAC007BE
:1017B40040F0CB8131A801F00AFAC00740F0C5819E
:1017C400CEE7DBF874000BF15404C500002D3FF4A0
:1017D40049ADF4E802018A6901219047083DF5E723
:1017E4005FFA8CF1032961D80FF20C04042004EB96
:1017F40081042E46A74600BF00F006B800F03BB8AF
:1018040000F032B800F034B8002A00F0A081012AB8
:10181400187000F0AB810320022A587040F29E81B8
:101824000920032A987000F09D814FF0040983F881
:101834000390ADE605F18A034FF00A09A8E6D5E95D
:101844000B39A5E6CD48C0F854E00BE5706F06F1FE
:101854005404C500002D3FF405ADF4E802018A6983
:1018640000219047083DF5E706F108050C2002E049
:1018740006F1100514203158286848BB0C984FF025
:10188400000ADDF838900126DDF840800068BB4C82
:1018940000F1A4010F98C0E9001A00F055FB0AE119
:1018A40044640350006003503C330000686F05F14A
:1018B4005404C500002DE1D0F4E80201169A0B6B24
:1018C40061469847159A083DDDE913C30028F1D015
:1018D400012A40F22C8100EB010A0DF1840B032252
:1018E4004FF0020900245A702CB14FF0000805464D
:1018F400DDF854C031E050454FD00546DDF854C002
:1019040015F9011BCCB2B1F1FF3F24DC427804F09D
:101914001F01E02C02F03F0211D38578F02C05F072
:101924003F0545EA82120ED3C47801F00701051D74
:1019340004F03F0444EA821242EA814806E042EAA3
:101944008114851C07E042EA0138C51C0020B0EB75
:10195400184F18D144464FF0000809F102066645B5
:1019640080F0E5801A46484631466346FEF738FC67
:101974005A460223ADF8844000F0BBF9149B284674
:101984004446B146B0E708F57F00372161F39F284C
:101994004FF4584141EA9024DFE783F80090F7E5DB
:1019A40089F83660D9F81000FFF735BAC007C9F8CE
:1019B40064A004D10F98FEF7F7FB80468B46B8F17C
:1019C400000F0AD099F87040D9F8640089F870A023
:1019D400012806D1D9F868000AE0DDF84080674C98
:1019E40069E00F98FEF7E0FBC9E91960C9F86C10CB
:1019F400B0FA80F0D9F83C10400989F88240A4314B
:101A040089F881A089F88300C9E91D8BC9F87C1085
:101A14005A4C89F88000C4F828A199F8800000285D
:101A240018BF0420BBF1410FC4F8000280F081808C
:101A34000125BBF1000F07D0B8F1005F06D30BEB13
:101A44000800B0F1405F01D2464605E021AE4146B0
:101A54005A46304601F039FC4948C0F8BC61C0F828
:101A6400C0B1C4F808A16560D4F808010028FBD00F
:101A74004148C4F80403DDE918563046A96888478C
:101A840011982946324600F0BDFFD4F8280138B138
:101A940009F1640B012689F881609BE8010985E757
:101AA400D4F8000110B9D4F85C0138B1DDF84080F5
:101AB400012689F8816089F84A6071E7DDF8408081
:101AC4000320012689F84A0089F8810089F8360044
:101AD400052012990870032089F80800FFF720B93F
:101AE400014611F8952F5AB19430C9E90601DDE990
:101AF400181200F095F9C0B2052809D103200FE0AF
:101B040089F81460D9F80400FFF77EB98400002036
:101B140001F033F90D9818A9FEF77AFB20B10420DF
:101B2400129908700420D7E7D9F81000D8E700F01C
:101B3400EBFE212000F0ECFE184600F0F1FE02203E
:101B440000F0EEFE1C2000F0E3FE00F0EDFE0020AD
:101B5400002100F0D5FE494600F0D2FE0220022109
:101B640000F0CEFE0320032100F0CAFE0120012173
:101B740000F0C6FEFEDE00BF0104800000600350DA
:101B840044640350F0B503AF4DF804BD82B004467D
:101B940090F887000D46012816D10021D4F8C00022
:101BA40007F8121CA7F117023B49062347F8161C35
:101BB4000B2101F00EF9D4E905100538884265D2ED
:101BC40021690A5C01320A54D4F8C00004285BD2AB
:101BD40004EB40020021A2F8B810D4F8C01001317F
:101BE400C4F8C010814251D992F8B910013182F879
:101BF400B9102168012947D1626861698A4247D2D4
:101C04002169A36907F8170C20468E5C01368E54AF
:101C14001A1D01210723C4E90212022127F8121C0C
:101C24004FF0FF71A7F1170247F8161C042100F0CA
:101C340060FF4FF48870A7F1170227F8120C2121D6
:101C44001648072347F8160C41F22C00285C01F0D3
:101C5400C0F804F1500204F1480307CA01F01AF86D
:101C6400D4F8B40004283FBF04EBC0000C49C0E919
:101C74002551D4F8B4003FBF0130C4F8B40002B019
:101C84005DF804BB38BFF0BD00F03EFE00F038FE46
:101C9400104600F035FE00BF00FE0102C40900102A
:101CA400E0320000D0B502AF140503D11C0504BF17
:101CB4000EC0D0BD00F028FE016819B94FF0FF3105
:101CC4000160704780B56F4600F02EFE80B56F4608
:101CD4000246007A18B9D2E90010814201D90020E5
:101CE40080BD03D2481C1060012080BD0120107209
:101CF40080BDD0B502AF0C46994201BF11462246C1
:101D0400BDE8D04001F0E1BA2046194600F010FECB
:101D140080B56F46084600F0FFFDD4D4C0B2002160
:101D2400C21E022A38BF811E21B101290CBF07201F
:101D34000E20704780B56F46C0000249C0B221FA38
:101D440000F080BD03080E00013807289EBF044937
:101D540001EBC000704780B56F46082100F0D0FD4C
:101D640000000020013807289EBF044901EBC00091
:101D7400704780B56F46082100F0C2FD4000002086
:101D8400B0B502AF00F01F040246012055B200FABC
:101D940004F302F07F00204AB5F1FF3F0ADD556FDE
:101DA400E1B1082845EA0301516732D2002142F823
:101DB400201020E0146F002924EA030518BF44EA28
:101DC400030515671AD01C421DD11449D1E8EF2F21
:101DD4001A43C1E8E42F002CF8D114E025EA0301EA
:101DE400516784F01001012202FA01F10B4AC94340
:101DF40000F0F4FFFCD1FFF7B5FF06E0074AD94332
:101E040000F0ECFFFCD1FFF79FFFBDE8B04000F00D
:101E140022BE1C2000F07CFDA0640350840000203E
:101E2400BFB506AF314D044605F10C0000F0EAFDE4
:101E34002F493048425812B3002242500121016018
:101E4400C0F80C122C4801600720C5E8AF1F8DF8BC
:101E54000C20CDE9011001AC2046FFF737FFC00785
:101E64000BD008460D46FFF76FFF00F0F4FD28463F
:101E7400FFF778FF00F0EFFDEEE7002034E0D0F844
:101E8400FC10CA071CBF0122C0F8FC204A0544BF4D
:101E94004FF48062C0F8FC20CA0516D48A051CD40D
:101EA400090544BF4FF40061C0F8FC1013480068F2
:101EB400217800F00100884215D081F001002070E3
:101EC4000320002918BF04200EE04FF48071C0F8ED
:101ED400FC1001200849886106E04FF40071C0F845
:101EE400FC10022000E0052004B0B0BD84000020F6
:101EF400FCFDFFFF0463035014650350007403509A
:101F040080B56F46016800224068022340F001005A
:101F1400EFF314829A4382F31488BFF36F8F81F333
:101F240008880047FEDED4D40179C90701BF0549FA
:101F340001220A60027108BF704780B56F4600F045
:101F4400F3FC00BF506003500179C90701BF054984
:101F540001220A60027108BF704780B56F4600F025
:101F6400E3FC00BF54600350436863B1D0B502AFD3
:101F7400024600689168994228BF19465B1A4418C2
:101F8400C2E90043D0BD00207047F0B503AF2DE98E
:101F9400E00F1D46137A04460020012B04BFD379B9
:101FA400012B03D02060BDE80E0FF0BD41F22C00E0
:101FB400D7F808800E189079072828BF072005282D
:101FC40014D0032808D0022819D1307880074FF0A4
:101FD4000000E7D5606038E096F80290B9F1030F8D
:101FE4000FD0B9F1060F10D100F0A6FEB8F1000F22
:101FF40031D00120B178C4E901502970D2E7002022
:10200400D0E74FF0050986F80290002006212A4601
:1020140043464FF0000B4FF0060AFEF7E1F8322278
:10202400062327F8212C727807F8222CA7F1220224
:1020340007F81DBC07F81E9C07F81FBCFFF759FEE4
:10204400B8F1050F03D9C4E9015A0120AAE7062013
:10205400414600F065FC0020002100F051FCD4D47E
:10206400F0B503AF2DE9E00F0E46097A05460220CC
:10207400012904BFF179012902D0BDE80E0FF0BD9A
:10208400B179072928BF07210629F6D8144605F592
:10209400805BDFE801F0F00D040405040500ECE7C3
:1020A40000204FF40071CBF80000ABF82D10E4E7EA
:1020B4009BF82C00C00701D10220DEE73088994646
:1020C40020B19BF82E00052806D008E00020CBF8AC
:1020D400000005208BF82E00B9F5805F05D940F685
:1020E4000E20ABF82D000120C7E74846294600F032
:1020F40032FE22464B46FFF7FCFDB088002851D043
:10210400DBE9096441F21800284400212346DBF886
:1021140000A03246FEF79CFDC0B203283ED1002C3D
:1021240066D016F8010B013CF028F8D041F20C00FF
:102134004FF4805628440290DBE90101CDE90010F8
:10214400002E5AD040F6FF702AEA0001019801F5EA
:1021540080544FEA1A38C00702D0009880450DD049
:1021640002982246FEF7E4FCC0B2032816D10121EE
:1021740001200190CBE90118CDF80080A4EB0A04FA
:102184005146B44228BF3446029800F0E0FDC0B284
:10219400032803D1A2442544361BD1E7012121EAB7
:1021A400000026E041F2180000212E18DBE9095452
:1021B400234630462A46FEF74BFDC0B2032850D1D1
:1021C4000020844248D0295C0130F029F9D03046FF
:1021D40004212A462346FEF73BFDC0B2032840D122
:1021E4000020844213D0295C0130FF29F9D01CE07F
:1021F40004200A218BF82E1039E04FF44070ABF81C
:102204002D00DBF800004844CBF8000033E0002048
:1022140000218C4202D068540131FAE7304604218F
:1022240000F095FDC0B203281BD1DBF82020304616
:102234000021FEF77DFCC0B2032812D10020F0215A
:10224400844202D029540130FAE73046002100F0DC
:102254007EFDC0B2032804D14FF4C060ABF82D005A
:1022640009E00A218BF82E10012121EA0000FFF772
:1022740055FD8BF82D000020FFE6D4D4F0B503AF54
:102284004DF8048D84B0324C206858B1314D012092
:10229400C4F8080205F10C0000F0DDFB05F11400A0
:1022A40000F0D9FBE06D38B14FF40000C4F8080227
:1022B4002848143000F0CFFBA06A38B14FF4806096
:1022C400C4F808022348143000F0C5FBA06D28B1FF
:1022D4000020A0651F480C3000F0BDFB206E98B3B1
:1022E40000202066D4F86C631A48C4F86C63D0E804
:1022F400EF1F3143C0E8E21F002AF8D100200DF19E
:1023040004088DF80C00072002900120019040463B
:10231400FFF7DCFCC00717D001F01F040D4626FAB6
:1023240004F0C00704D02846FFF70EFD00F093FB2D
:1023340084F0100026FA00F0C007E8D02846FFF722
:1023440011FD00F088FBE2E704B05DF8048BF0BDFA
:102354000061035084000020B0B502AF0F4C206828
:1023640028B1002020600E480C3000F074FB606837
:1023740048B10B4D0020606005F10C0000F06BFBD0
:10238400281D00F068FBA06838B10020A060044854
:102394000430BDE8B04000F05EBBB0BD0071035036
:1023A4008400002080B56F4600F000F8F0B503AF5C
:1023B400ADF58C4D93B06C466FF30404A546DFF87D
:1023C400DC14EFF3108072B60A78012A00F0208240
:1023D4000122C0070A7000D162B6F14CF14E2046CA
:1023E400314600F0C3FA8046EF4831460660814624
:1023F40004F11C0000F0BAFA054604F1280001219A
:102404000122C9F8086000F0B9FA5FFA88F10029DE
:1024140000F08581E9B2002900F08181C0B2002872
:1024240000F07D8108A800F54F5000F580500D9014
:10243400DE480168DE48B1F1FF3F12DC0021C0F83C
:10244400FC100321C0F8101501210160D0F8FC1024
:102454000029FBD00021C0F8FC1001214160C0F824
:1024640010150BA9002201F5015A0121C0F810151D
:10247400C0F8FC200160D0F8FC100029FBD000203B
:10248400DFF81C240E900DF13808DFF818040FACA7
:10249400DFF814944146831A2046C847DFF80C2419
:1024A40004F10C0BDFF808044146831A5846C84768
:1024B400DFF8002404F11806DFF8FC034146831A10
:1024C4003046C847DDF8408001A800F583504FF43A
:1024D400805100F0A3FE18A84FF4805100F047FE8D
:1024E40009A89BE82C0000F5015000F10C0100F153
:1024F40018092CC1494696E82C002CC194E80E001A
:102504000EC0DAF80060300540F08481DAF80C007F
:10251400010540F07F81801B0021B1EB103F00F0EA
:102524007F81DAF81810022000EBD620B0EB910F6F
:1025340000F279810A910420CDF8308018A900F0C6
:102544000AFC04460D464846002122462B46CDF897
:102554002C90FEF77DFBC0B2032840F057814FEA70
:10256400D62828462146002800F0DB8011F8012BEC
:102574000138F02AF7D005E014F8010B013DE028FA
:1025840040F07E81002DF7D1CC484FF400010722A2
:10259400C0F880110160CA490A604FF48001C0F894
:1025A4008011016002A800F502540EA920460A46D3
:1025B400FEF7A2FA4FF0000941F21800CAF834906D
:1025C40008A901F54F5A04F10C0150444FF48076E8
:1025D40091E82C002CC004A894E80E0000F5035BDD
:1025E4000BF104000EC04FF4807108A800F50350ED
:1025F40000F014FE08A84FF4807100F5075000F0B5
:102604000DFE08A84FF4807100F50B5000F006FE93
:1026140008A84FF4805200F50F5801A800F5835123
:10262400404600F0E5FB50464FF4805100F09FFD1A
:102634000D9D41F208005044DFF894C2C5F804909F
:102644009BE81E001EC00622022085F82E0008A961
:10265400042001F50251C5E909100920A8850DF5EA
:1026640080400DF11A01C5F8009080F820950DF511
:10267400804001F58A450DF58041A0F81E651223BE
:10268400904828604FF40470A1F818058E488F49CB
:10269400904C914E45F81E2C072245F8226C45F8C3
:1026A4001A4C45F8163C45F812CC45F80E2C45F862
:1026B4000A1C45F8060C08A800F50B50CDE90008E3
:1026C4000BA800F588441EA808AA08AB00F58941A8
:1026D40002F5035203F507532046FDF705FF204694
:1026E400FDF7DEFE1EA800F58946304600F0F2FA3A
:1026F40020463146FDF7B0FE20465146FFF742FA28
:1027040030462146FDF78CFF0DF58040C5F8866004
:1027140080F8A89508A800F58B40FEF7C5FA00F0EC
:102724005DF908A809A90DF1600A00F54F5001F5FB
:1027340001515246FEF711F90DF5405090F8E003AF
:10274400012863D00DF54050D0F8E413300B414517
:1027540030D2022101EB4008030309A800F5015916
:102764000026B41CA04500F08B80A3F58055484694
:102774003146CDF800A02A46FEF73BF9C0B2042842
:1027840044D1711C48462A462B46CDF800A0FEF7DA
:1027940071F9C0B22B4604282646E2D036E000BFC9
:1027A4000080FF00FA50FA50446500502024035082
:1027B4000850005002214FEA400B01EB40010D91FB
:1027C40009A8002600F5015400200D9900F1020922
:1027D40049452BD00BEB00052046324633462946AB
:1027E400CDF800A0FEF705F9C0B204280ED106F515
:1027F4008058691C204633464246CDF800A0FEF7B7
:1028040039F9C0B2464604284846DED000F08CF8B8
:1028140000F07AF808A8002100F54F50FFF778FA85
:102824004F2000F075F87A2000F072F818A90420FF
:1028340000F091FA05460C46002000218C4202D09B
:1028440068540131FAE70B98042100F080FAC0B211
:102854000328DBD10B9800210A9AFEF769F9C0B26C
:102864000328D3D10020C021844202D0295401304E
:10287400FAE70B98002100F06AFAC0B20328C5D128
:10288400164A002172B662B6C2F84812BFF34F8FDF
:10289400BFF36F8F0C981060FFF732FB80000020AD
:1028A4000070000000700400A91C00000070040007
:1028B40000800800006000000070000004E100E0F7
:1028C40004730350EF020140100064001519115203
:1028D4002C3300001A3300001433000008ED00E02C
:1028E40080B56F460148006800F002F804ED00E08E
:1028F40080B56F460148006800F006F804ED00E07A
:1029040080B56F4600F000F880B56F4600DEFEDE4D
:1029140080B56F46FFF7F8FF80B56F46FFF7F4FF09
:1029240080B56F46FFF7F0FF80B56F46FFF7ECFF09
:1029340080B56F46FFF7E8FF80B56F4680BDD4D4FD
:1029440080B56F460148002180BD00BF3C330000C4
:1029540080B56F4680BDD4D480B56F460248016807
:10296400C907FCD080BD00BF0094035080B56F46FA
:102974004FF0FF32BDE8804000F000B8B0B502AFC0
:10298400046802EA010304EA02059D4201D1012020
:10299400B0BD1C409C421CD10F4C0125EFF31083A9
:1029A40072B6C4F804512568ED07FCD061EA02014F
:1029B4000160BFF34F8F2068C007FCD00020C4F82B
:1029C40004012068C007FCD0D80700D162B60020FB
:1029D400B0BD0220B0BD00BF0094035080B56F4667
:1029E4000648BFF34F8F064A016801F4E0611143C2
:1029F4000160BFF34F8F00BFFDE700BF0CED00E0A7
:102A04000400FA05F0B503AF4DF8048DEFF3108818
:102A140072B6D0E900640546002028601EB19442D5
:102A240008BF8E420FD00968104688470246D5E990
:102A34000030C5E900210BB1D968884726B1F16897
:102A44002046884700E02E605FEAC87000D162B675
:102A54005DF8048BF0BDF0B503AF4DF8048DEFF3D2
:102A6400108872B6D0E900650446002020604EB19B
:102A7400B16828468847D4E90010C4E9006509B163
:102A8400C96888475FEAC87000D162B65DF8048BF4
:102A9400F0BD80B56F46814207D399429FBF02447F
:102AA400091A104680BD08461946FFF739FFD0B50C
:102AB40002AF0C46994201BF11462246BDE8D04000
:102AC40000F003BC20461946FFF732FF80B56F467D
:102AD400D0E904128069BDE8804000F000B880B5F8
:102AE4006F4613460A4601460020BDE88040FFF7C2
:102AF400D0BFF0B503AF2DE900079A46D0E90534FD
:102B04008146A01C00EB0A059D4222D89C423FBF8F
:102B14009046D9F810200AF1020616553CBF01343C
:102B24009C4218D211552946FFF7B3FF424653463B
:102B3400FFF7BDFFD9E9042328462946FFF7A9FF7B
:102B440001220023FFF7B3FFC9F81850BDE80007BE
:102B5400F0BDFFF7D9FE20461946FFF7D1FEF0B5C8
:102B640003AF2DE9000B0446C069012829D1994619
:102B74006369266A9E4226D290462269A069955DC1
:102B84000135955509F1030635189D4219D8984227
:102B94001AD21654461C9E423FBF10259555861CDA
:102BA4009E4210D20330915500EB09063146FFF7DF
:102BB40070FF42464B46FFF77AFFA661BDE8000B63
:102BC400F0BDFFF7A1FE30461946FFF799FEF0B5B8
:102BD40003AF4DF804BD446854B1066805460120AE
:102BE4002246314600F00AF8C5E900013178FFE7D2
:102BF400B4FA84F040095DF804BBF0BD824221BF01
:102C04000B18111A1846704780B56F461146FFF726
:102C140087FEB0B502AF4468022C07D301680546AD
:102C240002202246FFF7EAFFC5E900010020022C3A
:102C340038BF0120B0BDF0B503AF2DE9000B044649
:102C44004868A0B108460D46FFF7C1FFC0070AD186
:102C540028460E46FFF7BBFFC00704D1F0B26A68EE
:102C6400861E964208D90020A060012000E00020C2
:102C74002060BDE8000BF0BDD5F8009088463046D2
:102C84004946FFF7BBFFC5E90001C4E9029684F891
:102C94000480EAE7F0B503AF4DF804BD82B01446F2
:102CA4000246D3E900060D460021012819600CD123
:102CB400B01D06F108012B46FFF7EBFEA21B27F817
:102CC400122CA7F1120200F090F802B05DF804BBD8
:102CD400F0BDD4D4BFB506AF04460025684606212E
:102CE400CDE9005500F01EF80C4A0623FFF7DFFE7D
:102CF400CDE9025502A8002100F014F801220023B6
:102D0400FFF7D5FE06482060DDE90201E06021619D
:102D1400DDE900016060A160BFBD00BF3333000086
:102D24001400030080B56F46024608461146082287
:102D3400BDE88040FFF7D3BE80B56F46FFF74EFE77
:102D4400D8F8000000F15404406FC50070472A46CB
:102D54002346FDF737BF4FF48052FDF74FBA9DF875
:102D64008800249A0228CDE931127047B0FA80F025
:102D7400420908461146FFF703B889F82000D9F83C
:102D8400100089F821A0C9F81C0070472946224682
:102D94004FF48053FDF716BF314622464FF480535B
:102DA400FDF756BFC0B2012106F5805605F58055E2
:102DB40003287047494622461D46FDF7CEBD5046BE
:102DC4002A463346FDF744BFDDE918121198FFF790
:102DD40019BE07F8170C2046FFF78BBED2E8EF3F69
:102DE4000B40C2E8E43F002C70470223FFF75FBEAC
:102DF400042A08D3B0B502AFA2F1040E0EF00C04FD
:102E04000C2C06D121E00B4684466046194600F09E
:102E14003AB80B46844653F8045B1EF00C0F4CF88A
:102E2400045B07D04B68042C436007D1083A08318F
:102E3400083008E060461946724606E08B680C3A92
:102E440083600C310C3084460B46BEF10C0F14D356
:102E540084460B461868103ACCF80000032A5868D8
:102E6400CCF804009868CCF80800D86803F1100383
:102E7400CCF80C000CF1100CECD8BDE8B040604666
:102E8400194600F000B8F0B503AF2DE9000F8CB07F
:102E9400102A1ED3434203F0030800EB08039842B0
:102EA40033D2A8F1010CB8F1000F06460C461AD033
:102EB4000C46064614F801EBB8F1010F06F801EBD5
:102EC40011D04E78B8F1020F467008D18C1C861CC4
:102ED40009E084460CEB02039C4540D36CE08E78F9
:102EE400CC1C8670C61CBCF1030F0ED3043C043EFC
:102EF40014F8045F06F8045F65787570A578B570FA
:102F0400E578F570351D9D42F2D1A2EB080E01EB78
:102F140008042EF0030214F0030603EB020C59D14B
:102F2400634515D221460D6843F8045B63450FD20F
:102F34004D6843F8045B63453EBF8D6843F8045B0A
:102F4400634505D2CD68103143F8045B6345EAD389
:102F5400A1180EF003020CEB02039C452CD2A2F143
:102F6400010E12F0030413D00A46654612F8016BF1
:102F7400012C05F8016B0DD04A78022C8CF8012045
:102F84001ED18A1C0CF10205BEF1030F05D213E019
:102F940065460A46BEF1030F0ED3111F2A1F11F80E
:102FA400046F02F8046F4E7856708E789670CE785F
:102FB400D670161D9E42F2D10CB0BDE8000FF0BDD4
:102FC4008A780CF103058CF80220CA1CBEF1030FA9
:102FD400E3D2F1E74FF0000AC6F1040B0BADCDF8D4
:102FE4002CA005EB06095FEACB751EBF257889F88E
:102FF40000504FF0010AA51B0895F50001955FEA02
:103004008B7544BF34F80A5029F80A501D1DDDF8A9
:103014002CB06545019DC5F10009CDF8009060D242
:103024007342CDF820B001EB030A09F01801DDF872
:103034000490834607910AEB08050899CDF810A07F
:10304400D5F804A0079B21FA09F1CDF80CB0CDF80E
:1030540020A00AFA03F30B430BEB08018B464BF851
:10306400083BE34540D2089B0695D5F808A023FA0F
:1030740009F5079B05910AFA03F32B434B6001F111
:103084000C03634534D2069DED6808952AFA09F5C8
:103094000295DDE9075101FA05FA0599029D1031FF
:1030A400614545EA0A05CBF8005028D20699089DE7
:1030B400DDF810A0096925FA09FB079D08910AF1BA
:1030C400100A01FA05F545EA0B01DDF80CB01960A8
:1030D4000BF1100B0BEB0803191D6145ABD3C24474
:1030E40010E0DDF820A00FE005F1040A0B1D09E053
:1030F4000699D346059B083108338A4604E00699AD
:1031040001F10C0ADDF820B00021012E8DF8281001
:1031140007F8261C05D10DF128084FF000090025F9
:103124000AE09AF80550A7F126089AF804108DF8D9
:1031340028104FEA05290225E60701D1002509E0F8
:103144000AF10401495D88F8001017F8265C9DF81F
:1031540028102D0445EA0905019E2943009D05F028
:1031640018052BFA06F6A94031431960F0E680B53C
:103174006F46042906D3A1F1040C0CF00C030C2BAC
:1031840002D118E0024623E04FF0000E024642F856
:1031940004EB1CF00C0F06D0042BC0F804E005D19E
:1031A4000839083006E01046614604E000220C3974
:1031B40082600C300246BCF10C0F09D30023024696
:1031C4001039C2E90033C2E9023310320329F7D8B7
:1031D4005018824221D2A1F1010C11F003030CD04A
:1031E4004FF0000E114601F801EB012B0AD0022B1F
:1031F40082F801E003D1911C04E0114602E00021B1
:103204009170D11CBCF1030F38BF80BD043900227A
:1032140041F8042F0B1D8342FAD180BD80B56F465F
:10322400042906D3A1F1040C0CF00C030C2B02D1DD
:1032340018E0024623E04FF0000E024642F804EB89
:103244001CF00C0F06D0042BC0F804E005D108399B
:10325400083006E01046614604E000220C39826022
:103264000C300246BCF10C0F09D30023024610397E
:10327400C2E90033C2E9023310320329F7D85018E7
:10328400824221D2A1F1010C11F003030CD04FF0C2
:10329400000E114601F801EB012B0AD0022B82F833
:1032A40001E003D1911C04E0114602E00021917079
:1032B400D11CBCF1030F38BF80BD0439002241F892
:1032C400042F0B1D8342FAD180BD80B56F46BDE843
:0C32D4008040FFF7D8BD80B56F46FEE7D4
:1032E0000000000040100000200000003D0400002D
:1032F00051040000570400003D0400003D0400009C
:103300003D0400004B040000652000008F1F0000FA
:10331000430400004E6F726469635553422D444666
:103320005520426F6F746C6F616465723132333552
:1033300036373857494E55534200000045290000A2
:103340005529000055290000552900000000000003
:043350000000000079
:0400000300000155A3
:00000001FF
