:020000040000FA
:100000000000042055010000E5280000DB3200005C
:10001000E5280000E5280000E5280000E5280000AC
:10002000000000000000000000000000E5280000C3
:10003000E528000000000000E5280000E528000099
:10004000E5280000E528000000000000E528000089
:1000500000000000E5280000000000000000000093
:10006000E5280000E5280000E5280000E52800005C
:10007000E5280000E5280000E5280000E52800004C
:10008000E5280000E5280000000000000000000056
:10009000E5280000E5280000000000000000000046
:1000A000E5280000E5280000E5280000E52800001C
:1000B000E5280000E5280000E5280000E52800000C
:1000C000E5280000E5280000E5280000E5280000FC
:1000D000E528000000000000E52800000000000006
:1000E000E528000000000000E5280000E5280000E9
:1000F00000000000E528000000000000E5280000E6
:10010000000000000000000000000000E5280000E2
:10011000E528000000000000812200005D230000AF
:1001200000000000E52800000000000000000000C2
:1001300000000000000000000000000000000000BF
:1001400000000000000000000000000000000000AF
:10015000E528000002F0F2FB0E480F490022814220
:1001600001D004C0FBE70D480D490E4A814202D080
:1001700008CA08C0FAE70C484FF47001026842EA66
:1001800001020260BFF34F8FBFF36F8F02F00CF9D3
:1001900000DE000000000020A00000200000002081
:1001A000000000205433000088ED00E00246C068E3
:1001B00070B1136953B1D0B502AF5169994228BFEC
:1001C00019465B1A4418C2E90343D0BD0020D06031
:1001D00011680020012901BFD2E9013150601846A1
:1001E0007047704780B56F46814207D399429FBFE1
:1001F0000244091A104680BD0846194602F092FBD7
:1002000080B56F4613460A4601460020BDE880408F
:10021000FFF7E8BFF0B503AF2DE9800F8046407AC5
:100220000D46DFE810F00500FD00FF0046002B0042
:1002300098F80810D8F80400C8F80000DFE801F0CA
:1002400003BB49584400022180F899100021D8F8D6
:10025000000080F89510D8F8000080F89610D8F8C3
:10026000000080F89A1002F06DFD002D00F0B080C3
:10027000F4E8020109698847083DF6E798F810009C
:10028000C00740F0CD80684800210160012088F857
:100290001000D8F8000080F8991002F053FD002DEE
:1002A00000F0B780F4E80201CA6800219047083DD9
:1002B000F5E7464616F8180FDFE800F003B2B43150
:1002C0005400D8F80C001AE000219430C8E903016A
:1002D000D9E7002180F8951002F034FD002D00F0E0
:1002E0009880F4E80201CA6900219047083DF5E7CB
:1002F0000021464606F8181F943046F80C0C4A496F
:100300004346A1F5A06243F8142F43F8040C0120E2
:1003100008604FF480011868C0F804139B604348DC
:10032000D5E900120C3002F06FFBD8F81C00006811
:10033000D0F80004000501D4032021E0D8F814000F
:100340004FF40061C0F800144FF480013848016098
:10035000D8F814003749C0F80413D8F81000013059
:10036000C8F81C003148D5E90012043002F04CFBFB
:1003700031480168890707D40068C00709D0042004
:1003800030700120032146E0D8F814000121C0F8A4
:1003900004150120022188F81800D8F8000080F820
:1003A000991002F0CFFCA5B3F4E80201CA6801215C
:1003B0009047083DF7E7012180F8951002F0C2FC54
:1003C0003DB3F4E80201CA6901219047083DF7E70F
:1003D000D8F800004FF00009002500F1480B016D2E
:1003E0000BEB410AD34514D08BF80090D8F80000ED
:1003F00000F15404406FC6003EB1F4E8020100224F
:100400004B6A29469847083EF6E701350BF1020B87
:10041000E8E70020012188F80910BDE8080FF0BDC9
:1004200002F084FAFEDE00BF006503508400002065
:1004300004E100E0010040010074035080B56F4604
:1004400080BD80B56F46002080BD80B56F4680BD01
:1004500080B56F4680BD80B56F4680BDF0B503AFF7
:100460004DF804BD846DC4B10546006CA8B90E46B4
:10047000696DA14213D30A1B132A0ED9286D0119E5
:10048000142002F02EFB3246142302F012FB04F17A
:100490001400A8655DF804BBF0BD02F037FA2046F1
:1004A00002F040FADFB506AF0446806DD0B90020F7
:1004B000626D27F80A0C0C4847F80E0C0A20092A2E
:1004C00047F8120C0ED9216D02F00BFBA7F11202B6
:1004D0000A2302F0EEFAA06D0A30A065022084F82B
:1004E0005C00DFBD02F012FA00000306F0B503AFB6
:1004F0002DE9000F93B0044691F827000D4668B12E
:1005000095F82200EF2804BF95F82300022801D0B7
:1005100002F0FCF995F824000128F9D1E88BB0F538
:10052000FA7F9FBF95F825100839CEB249019EBFCA
:1005300041EAD601C9B20729EAD84FF0010909FA00
:1005400001F111F08B0FE3D040084FF4807A07F8E7
:100550001D0C4FF0807095F828100026CDE9052A73
:100560004FF0040B47F8230C6FF07F0295F826003C
:10057000002907960DF104080396CDE9019BCDE90A
:100580000E66CDE90C3A0A96089607F81F6C18BF5C
:100590006FF03F0260F3451207F81E2CA7F123020B
:1005A00040460221072302F0A6FACDE90F9B0DF188
:1005B00020091A4A0F214846032302F09CFA184AE0
:1005C00048460221042302F0CCFA204641461C2270
:1005D00002F07DFE04F11C004946242202F077FE61
:1005E00004F1600029462C2202F071FE4FF4805085
:1005F000F968C4E92310B868C4F8B46084F8C8B0D6
:10060000C4E9306684F85C60C4E9140AA665A6648F
:10061000266413B0BDE8000FF0BD00BF4C330000EE
:1006200050330000F0B503AF2DE9000FA1B012AEBA
:100630008846403104463046202202F048FE189A8F
:10064000002508F11C09002A5BD0DDE9160106F13E
:10065000080302F021FBDDE912061295DDE91623FD
:100660000128189D0DD1B01D06F1080102F013FA02
:10067000AA1B27F8362CA7F1360202F0B8FB16ADFC
:100680002CCD08200A2102F006FAA7F13602022337
:1006900027F8365C02F00DFA189D8DB3DDF85CB0DA
:1006A000BBF1070F40F22F810020DDF858A007F8BA
:1006B0001E0C9F2007F8260CA7F13602944805214E
:1006C00047F82A0C1923934847F82E0C924847F80C
:1006D000320C924847F8360CDAF8040047F8250C3B
:1006E000280A9DF8646007F8200C484607F81F6C3C
:1006F00007F8215C02F035FA5D4505D9284603E18B
:1007000000254FF0010A0026CDE90C6A08F1100619
:10071000022004214CCECDE90E9502F0BCF9ADF8D3
:10072000486012AA02F063FBD8F834606EB1D8E9D1
:100730000B230020C8F838000220042102F0ABF996
:10074000ADF8486012AA02F052FBB8F87E0008F13A
:100750009401E0832422D8F88600C4F82600B8F873
:100760008A006085D8F860001190D8F864000A907B
:10077000D8F868001090D8F86C000990D8E91CA04F
:10078000B8F87CB00B90B8F88000089098F8820018
:10079000079098F88300069098F884000590B8F8C0
:1007A00078000490B8F87A00009004F1540098F8AA
:1007B000859002F08CFD404602F08AF9CDE90110E7
:1007C0000E9802F085F908F1B80C0E9104F1480377
:1007D00001219CE86400BAF1000FDE4664C3A4F86E
:1007E000A49084F88910CDF80CA018BF4FF0030A2C
:1007F000109B84F888A0002B18BF01235B0084F8AD
:100800008730119B002B18BF0123DDF800C00222A6
:10081000049984F886304FEA1B2384F885304FEA28
:100820001C2384F883300B0A84F881304FF48973D9
:10083000A4F87830D8E92335C4E927350C9B84F82F
:100840004430029BE362019BC4E90C300E98A06324
:100850000D98E0630F982064119820600A986060FA
:100860001098A0600998E060039820610B9860617F
:100870000020C4F89700C4F89300012084F8920087
:10088000022084F88D0040F20A60A4F88A009DF8E6
:100890004A00DDF818A0079E84F884B0DDF814B093
:1008A00084F87B20089A84F84700BDF8480084F853
:1008B00082C084F8801084F87F9084F87EB084F839
:1008C0007DA084F87C6084F87A2084F8259084F8F0
:1008D00024B084F823A084F822602284A4F81CE0C9
:1008E000A4F81AC0218384F890B084F88FA084F80B
:1008F0008E6084F88C2084F89190A4F8450021B093
:10090000BDE8000FF0BD0820594602F00BF800BF0B
:100910009D9E648A4C9CD265D88945C700DF60DD06
:10092000B0B502AF0D4604461146042002F015FA98
:1009300002460B46002000218B4202D05054013168
:10094000FAE7082000EB850104F1180000F03CF9FB
:10095000C1B201208843032908BF0420B0BDF0B50F
:1009600003AF2DE9800F80460C46D1F82090114648
:10097000042002F0F2F904F1180A05460E4604219B
:1009800002F01FFAC1B2032927D1A9F104006FF0C8
:10099000010101EB90090020864206D0295C01305C
:1009A000FF29F9D0C8F804901FE000244FF0080B8D
:1009B0004C45F7D00BEB840102F003FAC1B20329D6
:1009C0000BD1601C31462A4629B112F8013B01398E
:1009D000FF2BF9D107E00446EAE7012020EA0101F4
:1009E00088F8011002E0C8F80440002088F80000F0
:1009F000BDE8080FF0BDF0B503AF2DE9C007BC6836
:100A0000814616468846684602F0D6F99DF80000F1
:100A1000012802D19DF8010021E00198404501D94B
:100A200004201CE009F10C0A05F5805229465046C5
:100A300000F080F8C0B203280ED10021C80711D100
:100A4000484602F0ABF9C0B2032805D1504602F087
:100A50009FF902F0A9F9F1D0012121EA0000BDE8D7
:100A60000C07F0BD48464146224602B0BDE80007EB
:100A7000BDE8F040FFF754BFF0B503AF2DE9C00764
:100A8000BC68814616468846684602F095F99DF88E
:100A90000000012802D19DF8010021E001984045A5
:100AA00001D904201CE005F580524846294600F093
:100AB00041F8C0B2032810D109F10C0A0021C8077F
:100AC00011D1504602F06AF9C0B2032805D1484658
:100AD00002F05EF902F068F9F1D0012121EA00008C
:100AE000BDE80C07F0BD48464146224602B0BDE8CD
:100AF0000007BDE8F040FFF713BFD4D4B0B502AF94
:100B000014460546074A0848831A284601F0CCF8DF
:100B1000064A21460648831A05F10C00BDE8B0409C
:100B200001F0C2B8007004000080080000600000FE
:100B300000700000F0B503AF2DE9000B044680689B
:100B4000824201D9022014E0D4F8008016460D46F6
:100B5000404601F0B3F8606881194419A14202D3FC
:100B6000B1F5801F08D90020D8F800100131C8F86D
:100B70000010BDE8000BF0BD41EA040000054FF095
:100B80000100F1D10F4B0222091B1A6038BF00216E
:100B90000A0B99460B0518BF00EB1132564201F0C3
:100BA000DDFE4FF0FF3536B1256004F5805401F0CD
:100BB000D5FE0136F7E70020C9F8000001F0CEFEAF
:100BC0000320D1E704950350F0B503AF2DE9000BE6
:100BD00006460C465818B168884201D9022033E015
:100BE000D6F8008099461546404601F067F87068CF
:100BF000044409EB0400B0F5801F01D900201EE079
:100C000049EA040080074FF0010018D1104EC6F8E1
:100C1000FC0001F0A3FE4FEA99000021814208D0B8
:100C200055F8212044F821203268D207FCD0013148
:100C3000F4E70020C6F8FC0001F090FE0320D8F88D
:100C400000100131C8F80010BDE8000BF0BD00BF76
:100C500008940350F0B503AF2DE9000B04460E468F
:100C60005818A168884201D902201CE0D4F80090ED
:100C70001D469046484601F021F860688119002021
:100C8000B0EB115F0AD16818B0F5801F01D90020C0
:100C900004E040462A4602F01AFB0320D9F800106F
:100CA0000131C9F80010BDE8000BF0BD80B56F46FA
:100CB000B4B081464FF0000ADFF8F00B09F11501DE
:100CC000189009F16C08CDF864A0012699F8080085
:100CD000059121AA111D049109F13C010C9109F122
:100CE0004C010F9109F15E01079109F15401069140
:100CF00002F10A01039109F12C01029109F1180195
:100D00000D9109F17801099109F10C01089109F19E
:100D100014011291DFF8F81DCE4C1431CDF8389043
:100D2000CDE91081C0B270B1032811D112980078BA
:100D3000DFE810F006000D0722072900A2001B00C3
:100D40000898006867E0D9F80000C9F804005DE081
:100D500012980078DFE810F07200FB06100705001B
:100D6000E0060D98006800F0C4BE99F83600DFE890
:100D700010F00500EE0603071D000D00D9E906B0CE
:100D8000D9F82010C2E00D98006865E099F8680075
:100D9000DFE810F00800DD06F206CB04220029008F
:100DA000EC02CB04D9F850B006983BE199F84A2000
:100DB0000F98DFE812F00500CC06E1060900740583
:100DC000D9F838B00024DAE099F8810090B103280E
:100DD00040F0BD8600F051BE99F89C0080B1032818
:100DE00040F0B586C4E199F8790060B1032840F07D
:100DF000AE8653E299F88300D9E91D8B00F00BBE53
:100E0000D9E92465ABE1D9F8740045E2129981F87B
:100E100000A008990860C9F81000014611F8952F44
:100E200092B1D9F804002322C9F80C00059889F87A
:100E3000146089F814A021A902F049FAD9F80C002D
:100E4000C9F8100000F04EBE00F1A402943009F180
:100E5000180389F828A007C3DDE9181200F0E2FFA3
:100E6000C0B2052806D199F8280078B1032840F0CF
:100E70006E8615E001F083FF0D9818A9FFF7CAF9F7
:100E8000002800F09185042000F025BEC9F8244018
:100E90004FF40001C4F800A2D9F82400C0F80413EC
:100EA00001F094FFD4F85C01002800F02982D9F801
:100EB0002400C0F85CA1D9F82410D1F88004D1F83E
:100EC0008424D1F88834C0B2D1F88C44D2B224063C
:100ED00063F3174444EA02221044D1F89024D1F875
:100EE0009434D1F89844D2B2DBB2D1F89C14D9F83A
:100EF00010B042EA0322E3B2090689F836A041EABB
:100F00000341C9E906B01144C9F82010C0F34113E8
:100F100089F83430030AC9E90901A9F82E10090C2F
:100F2000C0F3C01289F83230030CA9F8301000F079
:100F30001F00042189F835200428A9F82C3028BF87
:100F400008460299002A89F833001AAD21AC55D021
:100F5000084604990CC80CC10088088021461CC9A9
:100F600028461CC0098801802946C9F838B00C9869
:100F70001CC91CC00024098889F84AA00180B9F85E
:100F800044005D46C9F83CB01790B9F8420016908D
:100F90009BF89A00DBE92732B9F840C00A90BBF809
:100FA000A40099F848B099F846E099F84780BBF159
:100FB000020F99F849A00B901592CDE913C375D093
:100FC000BBF1000F40F08280B8F1000F00F0B0815B
:100FD000B8F1010F00F09881B8F1020F76D1BEF19F
:100FE000000F40F04D84169901F00F0049B2B1F1A5
:100FF000FF3F40F3B08208281749B0E203980A2265
:1010000002F065F921462846AC4691E87C007CC098
:101010000698C9F850B09CE87C0001467CC10126C6
:1010200089F868A007990A22C9F840B002F04FF980
:10103000B9F858005946C9F8440031F8A44FC9E935
:10104000124A51F8042C824208D2024CC8E9001A14
:101050006BE300BF0060035044640350DBF89C1056
:10106000FFF7CEF8002C00F0648509F1780289F8CA
:10107000846013C24FF0010B00250020C007C8F8A0
:1010800000A004D1099800F071FF06460D4656B144
:1010900099F88440D9F86C0089F884A0012846D1D9
:1010A000D9F870004AE00F98036890E0B8F1000F9B
:1010B0000CD1D5F84090B9F1000F07D095F8440055
:1010C000864504BF1698072800F0EF81686F05F188
:1010D00054044FEAC009B9F1000F00F0D183D4E9FC
:1010E00000107646C56A1798ADF8C80016988DF8B6
:1010F000CDA08DF8CCB08DF8CB808DF8CAE0ADF8DE
:10110000C600ADF8C4C0009221A831AAA847219812
:1011100038B9A9F108090834159AB646DDE913C3B0
:10112000D9E7DDE92239002B40F03482A8E30998A1
:1011300000F01CFFC9E91BB0C9F87410B0FA80F0C8
:1011400089F89D40400989F89CA089F89E00D9F84B
:101150004000C9E92465A430C9F89800DE4CC9E90B
:1011600022650126DD48C4F828A1E664C4F804031A
:1011700001F02CFED4F82801002800F09980D8480E
:10118000D9E92212C06D904200F29A80D44AC2F886
:10119000BC1200F07F01C2F8C012C4F830A1A662F0
:1011A000D4F830110029FBD0CD49C4F830A1C1F8E2
:1011B0005CA0D9E91212131889F89C608842C9F81A
:1011C0004C3004D3D9F84400834240F0D380D9F89E
:1011D0004040D4F8A0108B4200F2B084D4F89C00B8
:1011E000002299F85CB04FF0010E1690C9E90E0389
:1011F000BBF1000FB9F85800B9F8546099F85AC01B
:1012000099F85B501590B9F85600179099F85D0061
:10121000149058D0606F04F15409C400002C00F001
:101220007782F9E802019A468DF88CB0E046D1F851
:1012300028E014998DF88D101599ADF8881017993C
:101240008DF88B508DF88AC0ADF88610ADF88460AB
:1012500021A9169AF047C1B2083CC4465346022958
:10126000DCD0C00740F05482DDF83890D9F8401047
:1012700001F1A40091F89820002A6FD091F89A10FB
:101280004FF0000A89F879A0012689F87810C9F88A
:101290007400DDF84080904CC8E9000A404600F038
:1012A00045FED9F8400089F8796080F898A03FE2BF
:1012B000D4F8000120B9D4F85C01002800F0EE80D9
:1012C00089F89C6034E2002D00F0C5801798012D4C
:1012D0005FFA80FA55D0022D9CD1BCF1010F00F0CD
:1012E0000F81BCF1030F08BF002E40F01182179848
:1012F000000700F0A9820AF0870000F5807008E17D
:10130000032089F82800E6E3286D1699884240F208
:10131000B782BEF10A0F00F01281BEF1000F7FF418
:10132000D5AE02201946FEF76BFFADF88440E5E02C
:10133000BEF1000F00F0D680BEF1060F00F0B780BE
:10134000BEF1080F40F09C82002A00F0028495F85C
:1013500099000438B0FA80F04009F8E0DDF84080E8
:101360004FF0000A5C4C0126C8E9000A404600F034
:10137000DDFDDDE14FF0010BD9E91B06D9F8745012
:101380007CE6216D4FF0000804EB4A00514588BF10
:1013900000F1480840F2BC81BCF10B0F40F0B8816D
:1013A00098F80110F0B2814240F2B281D4E90B0109
:1013B000B34688F800604FF0000916940025CDE987
:1013C0001F0121AC1FAE2046314601F036FC2198AA
:1013D000012840F0A2802399002900F0B88301F091
:1013E000C0FC24D0042813D00528ECD131A801F08A
:1013F000F0FBC00740F0AB83E8B25045E3D198F86A
:1014000000205FFA89F0101A01F0B2FC179DDAE7AC
:1014100031A801F0DEFBC00740F0998331A80D46EA
:1014200001F0D7FBC00740F092838946CBE731A893
:1014300001F0F1FB80B2002840F0898331A801F06F
:10144000C8FBC00740F0838331A801F0C2FBC0078E
:1014500040F07D83B7E7ACF10100082800F2588125
:10146000DFE810F009005601E8005601CE005601F1
:1014700056015601FA00012E40F04A81606F04F1D6
:10148000540684F89620C500002D3FF4EDAEF6E832
:1014900002010A6A00219047083DF5E70420032174
:1014A00089F8680089F89C1012E3EB6B72E04FF04A
:1014B000FF3000EB1C20052800F23D81DFE810F032
:1014C0000600C1019201E001E001BC0105F17803D1
:1014D0004FF012095EE000BF00600350010480007D
:1014E000446403500220194695F8964095F89750A9
:1014F000FEF786FE64F34105ADF8845021AA3FE073
:10150000002E40F00581179800073FF4ADAE0AF0B9
:101510008700E449C1F8D400A6E6DDF858A00AF136
:101520005404DAF87400C500002D3FF49DAEF4E8D1
:1015300002015A464B6A17999847083DF4E7002A7A
:1015400000F00783169905F1480010F81100187093
:101550004FF001091EE0D449082801F5846121AD4E
:1015600080F0F28251F8204002201946FEF748FE32
:10157000A2B2013AB2FA82F25209ADF884202A46A8
:10158000022300F0B8FBDDE914314FF00209012914
:1015900040F2D78217990B9A08468A4238BF104604
:1015A0000A9C002C18BF0846122A28BF0846484546
:1015B00028BF48460ED9DDF83890002A4FF00106C2
:1015C00000F0C582B0FBF2F101FB1201B1FA81F12A
:1015D000490907E0DDF838900021002A4FF00106A4
:1015E00000F0A7824FF0000BC9E9170200204FF06E
:1015F000000A89F87060C9E91361C9E915B3D7E138
:10160000701E80B27F2880F0838040F2013004F1A8
:101610005408A4F89800606F84F89A60C500002D03
:101620003FF422AEF8E8020294F89A10526990470B
:10163000083DF4E7012E6BD1606F04F1540684F885
:1016400096E0C500002D3FF40FAEF6E802010A6AED
:1016500001219047083DF5E7002E74D0012E57D1A7
:101660000420D4F8509084F8990004F1480AD4E991
:101670000B01A346CDE91F010DF184081FAC002525
:1016800000264046214601F0D8FA2198012840F072
:101690009A802399002900F05A8201F062FB23D03E
:1016A000042812D00528ECD131A801F092FAC00725
:1016B00040F04D82F0B2814540F24F821AF810009E
:1016C000EAB2801A01F054FBDBE731A801F081FA9D
:1016D000C00740F03C8231A80E4601F07AFAC007FC
:1016E00040F035820D46CCE731A801F094FA80B283
:1016F000002840F02C8231A801F06BFAC00740F0BE
:10170000268231A801F065FAC00740F02082B8E7D0
:10171000DDF838904FF0000ADDF840800126624C79
:10172000D9F84000A430C9E91B0A404600F00EFC7D
:1017300089F8686036E14FEA1C200F2840F0A0804D
:10174000D5E90D3926E794F8990002283FF48CADCD
:101750000320264684F89900D4E90B01CDE91F0146
:1017600021AC1FAD2046294601F067FA21980128D7
:101770006ED12399002900F0EA8101F0F2FA0ED02F
:10178000042813D00528EDD131A801F022FAC007B2
:1017900040F0DD810846002100F0F4FAE2E731A8CC
:1017A00001F039FA80B2002840F0D18131A801F06F
:1017B00010FAC00740F0CB8131A801F00AFAC00747
:1017C00040F0C581CEE7DBF874000BF15404C5008E
:1017D000002D3FF449ADF4E802018A6901219047E8
:1017E000083DF5E75FFA8CF1032961D80FF20C048C
:1017F000042004EB81042E46A74600BF00F006B883
:1018000000F03BB800F032B800F034B8002A00F025
:10181000A081012A187000F0AB810320022A5870C1
:1018200040F29E810920032A987000F09D814FF0BC
:10183000040983F80390ADE605F18A034FF00A0925
:10184000A8E6D5E90B39A5E6CD48C0F854E00BE58C
:10185000706F06F15404C500002D3FF405ADF4E8A7
:1018600002018A6900219047083DF5E706F1080565
:101870000C2002E006F1100514203158286848BBFE
:101880000C984FF0000ADDF838900126DDF8408012
:101890000068BB4C00F1A4010F98C0E9001A00F0E9
:1018A00055FB0AE144640350006003503C330000E0
:1018B000686F05F15404C500002DE1D0F4E8020181
:1018C000169A0B6B61469847159A083DDDE913C3DC
:1018D0000028F1D0012A40F22C8100EB010A0DF121
:1018E000840B03224FF0020900245A702CB14FF0F0
:1018F00000080546DDF854C031E050454FD005469C
:10190000DDF854C015F9011BCCB2B1F1FF3F24DC66
:10191000427804F01F01E02C02F03F0211D38578D9
:10192000F02C05F03F0545EA82120ED3C47801F091
:101930000701051D04F03F0444EA821242EA81488F
:1019400006E042EA8114851C07E042EA0138C51C22
:101950000020B0EB184F18D144464FF0000809F1B1
:101960000206664580F0E5801A46484631466346E1
:10197000FEF738FC5A460223ADF8844000F0BBF96C
:10198000149B28464446B146B0E708F57F0037214E
:1019900061F39F284FF4584141EA9024DFE783F830
:1019A0000090F7E589F83660D9F81000FFF735BAEE
:1019B000C007C9F864A004D10F98FEF7F7FB804672
:1019C0008B46B8F1000F0AD099F87040D9F864003E
:1019D00089F870A0012806D1D9F868000AE0DDF87E
:1019E0004080674C69E00F98FEF7E0FBC9E9196099
:1019F000C9F86C10B0FA80F0D9F83C10400989F8A9
:101A00008240A43189F881A089F88300C9E91D8B3F
:101A1000C9F87C105A4C89F88000C4F828A199F8BC
:101A20008000002818BF0420BBF1410FC4F8000259
:101A300080F081800125BBF1000F07D0B8F1005F75
:101A400006D30BEB0800B0F1405F01D2464605E03B
:101A500021AE41465A46304601F039FC4948C0F8AB
:101A6000BC61C0F8C0B1C4F808A16560D4F8080131
:101A70000028FBD04148C4F80403DDE9185630467D
:101A8000A968884711982946324600F0BDFFD4F86E
:101A9000280138B109F1640B012689F881609BE8BF
:101AA000010985E7D4F8000110B9D4F85C0138B118
:101AB000DDF84080012689F8816089F84A6071E785
:101AC000DDF840800320012689F84A0089F881006A
:101AD00089F83600052012990870032089F808005B
:101AE000FFF720B9014611F8952F5AB19430C9E992
:101AF0000601DDE9181200F095F9C0B2052809D1F8
:101B000003200FE089F81460D9F80400FFF77EB9CC
:101B10008400002001F033F90D9818A9FEF77AFB34
:101B200020B10420129908700420D7E7D9F81000DA
:101B3000D8E700F0EBFE212000F0ECFE184600F0A4
:101B4000F1FE022000F0EEFE1C2000F0E3FE00F0AB
:101B5000EDFE0020002100F0D5FE494600F0D2FE47
:101B60000220022100F0CEFE0320032100F0CAFE75
:101B70000120012100F0C6FEFEDE00BF010480004E
:101B80000060035044640350F0B503AF4DF804BD4A
:101B900082B0044690F887000D46012816D1002136
:101BA000D4F8C00007F8121CA7F117023B4906231E
:101BB00047F8161C0B2101F00EF9D4E90510053881
:101BC000884265D221690A5C01320A54D4F8C00007
:101BD00004285BD204EB40020021A2F8B810D4F82C
:101BE000C0100131C4F8C010814251D992F8B91027
:101BF000013182F8B9102168012947D16268616911
:101C00008A4247D22169A36907F8170C20468E5CE7
:101C100001368E541A1D01210723C4E90212022144
:101C200027F8121C4FF0FF71A7F1170247F8161C96
:101C3000042100F060FF4FF48870A7F1170227F825
:101C4000120C21211648072347F8160C41F22C00EC
:101C5000285C01F0C0F804F1500204F1480307CAFF
:101C600001F01AF8D4F8B40004283FBF04EBC00018
:101C70000C49C0E92551D4F8B4003FBF0130C4F885
:101C8000B40002B05DF804BB38BFF0BD00F03EFE0A
:101C900000F038FE104600F035FE00BF00FE0102E5
:101CA000C4090010E0320000D0B502AF140503D122
:101CB0001C0504BF0EC0D0BD00F028FE016819B994
:101CC0004FF0FF310160704780B56F4600F02EFE87
:101CD00080B56F460246007A18B9D2E900108142F9
:101CE00001D9002080BD03D2481C1060012080BDB6
:101CF0000120107280BDD0B502AF0C46994201BFE1
:101D000011462246BDE8D04001F0E1BA204619460E
:101D100000F010FE80B56F46084600F0FFFDD4D4F9
:101D2000C0B20021C21E022A38BF811E21B1012982
:101D30000CBF07200E20704780B56F46C0000249D7
:101D4000C0B221FA00F080BD03080E000138072858
:101D50009EBF044901EBC000704780B56F46082163
:101D600000F0D0FD00000020013807289EBF044984
:101D700001EBC000704780B56F46082100F0C2FD3E
:101D800040000020B0B502AF00F01F040246012061
:101D900055B200FA04F302F07F00204AB5F1FF3F8C
:101DA0000ADD556FE1B1082845EA0301516732D2D7
:101DB000002142F8201020E0146F002924EA0305D6
:101DC00018BF44EA030515671AD01C421DD11449F7
:101DD000D1E8EF2F1A43C1E8E42F002CF8D114E02A
:101DE00025EA0301516784F01001012202FA01F192
:101DF0000B4AC94300F0F4FFFCD1FFF7B5FF06E042
:101E0000074AD94300F0ECFFFCD1FFF79FFFBDE884
:101E1000B04000F022BE1C2000F07CFDA064035006
:101E200084000020BFB506AF314D044605F10C001B
:101E300000F0EAFD2F493048425812B300224250C8
:101E400001210160C0F80C122C4801600720C5E890
:101E5000AF1F8DF80C20CDE9011001AC2046FFF733
:101E600037FFC0070BD008460D46FFF76FFF00F0A5
:101E7000F4FD2846FFF778FF00F0EFFDEEE70020C5
:101E800034E0D0F8FC10CA071CBF0122C0F8FC20C7
:101E90004A0544BF4FF48062C0F8FC20CA0516D43E
:101EA0008A051CD4090544BF4FF40061C0F8FC103A
:101EB00013480068217800F00100884215D081F0B5
:101EC000010020700320002918BF04200EE04FF409
:101ED0008071C0F8FC1001200849886106E04FF4C9
:101EE0000071C0F8FC10022000E0052004B0B0BD75
:101EF00084000020FCFDFFFF0463035014650350C1
:101F00000074035080B56F460168002240680223C8
:101F100040F00100EFF314829A4382F31488BFF378
:101F20006F8F81F308880047FEDED4D40179C9079A
:101F300001BF054901220A60027108BF704780B5E0
:101F40006F4600F0F3FC00BF506003500179C907F1
:101F500001BF054901220A60027108BF704780B5C0
:101F60006F4600F0E3FC00BF54600350436863B168
:101F7000D0B502AF024600689168994228BF194661
:101F80005B1A4418C2E90043D0BD00207047F0B589
:101F900003AF2DE9E00F1D46137A04460020012B04
:101FA00004BFD379012B03D02060BDE80E0FF0BD34
:101FB00041F22C00D7F808800E189079072828BF26
:101FC0000720052814D0032808D0022819D130781A
:101FD00080074FF00000E7D5606038E096F8029087
:101FE000B9F1030F0FD0B9F1060F10D100F0A6FE22
:101FF000B8F1000F31D00120B178C4E90150297047
:10200000D2E70020D0E74FF0050986F802900020C3
:1020100006212A4643464FF0000B4FF0060AFEF712
:10202000E1F83222062327F8212C727807F8222CB7
:10203000A7F1220207F81DBC07F81E9C07F81FBC79
:10204000FFF759FEB8F1050F03D9C4E9015A012081
:10205000AAE70620414600F065FC0020002100F0C0
:1020600051FCD4D4F0B503AF2DE9E00F0E46097A48
:1020700005460220012904BFF179012902D0BDE8FB
:102080000E0FF0BDB179072928BF07210629F6D820
:10209000144605F5805BDFE801F0F00D040405044B
:1020A0000500ECE700204FF40071CBF80000ABF81E
:1020B0002D10E4E79BF82C00C00701D10220DEE7D9
:1020C0003088994620B19BF82E00052806D008E0FC
:1020D0000020CBF8000005208BF82E00B9F5805FBA
:1020E00005D940F60E20ABF82D000120C7E7484681
:1020F000294600F032FE22464B46FFF7FCFDB08831
:10210000002851D0DBE9096441F21800284400217D
:102110002346DBF800A03246FEF79CFDC0B2032840
:102120003ED1002C66D016F8010B013CF028F8D007
:1021300041F20C004FF4805628440290DBE9010183
:10214000CDE90010002E5AD040F6FF702AEA0001B7
:10215000019801F580544FEA1A38C00702D0009860
:1021600080450DD002982246FEF7E4FCC0B2032859
:1021700016D1012101200190CBE90118CDF8008092
:10218000A4EB0A045146B44228BF3446029800F03A
:10219000E0FDC0B2032803D1A2442544361BD1E799
:1021A000012121EA000026E041F2180000212E184A
:1021B000DBE90954234630462A46FEF74BFDC0B200
:1021C000032850D10020844248D0295C0130F029F6
:1021D000F9D0304604212A462346FEF73BFDC0B223
:1021E000032840D10020844213D0295C0130FF290C
:1021F000F9D01CE004200A218BF82E1039E04FF4AE
:102200004070ABF82D00DBF800004844CBF800002C
:1022100033E0002000218C4202D068540131FAE7FB
:102220003046042100F095FDC0B203281BD1DBF835
:10223000202030460021FEF77DFCC0B2032812D1D9
:102240000020F021844202D029540130FAE73046C0
:10225000002100F07EFDC0B2032804D14FF4C0601D
:10226000ABF82D0009E00A218BF82E10012121EA9C
:102270000000FFF755FD8BF82D000020FFE6D4D4B9
:10228000F0B503AF4DF8048D84B0324C206858B1DE
:10229000314D0120C4F8080205F10C0000F0DDFB0F
:1022A00005F1140000F0D9FBE06D38B14FF40000E7
:1022B000C4F808022848143000F0CFFBA06A38B1F7
:1022C0004FF48060C4F808022348143000F0C5FBC6
:1022D000A06D28B10020A0651F480C3000F0BDFBA8
:1022E000206E98B300202066D4F86C631A48C4F8B6
:1022F0006C63D0E8EF1F3143C0E8E21F002AF8D139
:1023000000200DF104088DF80C0007200290012038
:1023100001904046FFF7DCFCC00717D001F01F0416
:102320000D4626FA04F0C00704D02846FFF70EFD3C
:1023300000F093FB84F0100026FA00F0C007E8D00C
:102340002846FFF711FD00F088FBE2E704B05DF8D6
:10235000048BF0BD0061035084000020B0B502AFD3
:102360000F4C206828B1002020600E480C3000F08F
:1023700074FB606848B10B4D0020606005F10C00F3
:1023800000F06BFB281D00F068FBA06838B100204E
:10239000A06004480430BDE8B04000F05EBBB0BDB2
:1023A000007103508400002080B56F4600F000F8F3
:1023B000F0B503AFADF58C4D93B06C466FF30404EC
:1023C000A546DFF8DC14EFF3108072B60A78012A14
:1023D00000F020820122C0070A7000D162B6F14CE1
:1023E000F14E2046314600F0C3FA8046EF483146B0
:1023F0000660814604F11C0000F0BAFA054604F1BB
:10240000280001210122C9F8086000F0B9FA5FFA3A
:1024100088F1002900F08581E9B2002900F081816E
:10242000C0B2002800F07D8108A800F54F5000F5EB
:1024300080500D90DE480168DE48B1F1FF3F12DCAC
:102440000021C0F8FC100321C0F810150121016023
:10245000D0F8FC100029FBD00021C0F8FC100121AD
:102460004160C0F810150BA9002201F5015A0121A5
:10247000C0F81015C0F8FC200160D0F8FC1000294D
:10248000FBD00020DFF81C240E900DF13808DFF897
:1024900018040FACDFF814944146831A2046C8474D
:1024A000DFF80C2404F10C0BDFF808044146831A12
:1024B0005846C847DFF8002404F11806DFF8FC038B
:1024C0004146831A3046C847DDF8408001A800F530
:1024D00083504FF4805100F0A3FE18A84FF48051B0
:1024E00000F047FE09A89BE82C0000F5015000F120
:1024F0000C0100F118092CC1494696E82C002CC1AA
:1025000094E80E000EC0DAF80060300540F08481D7
:10251000DAF80C00010540F07F81801B0021B1EB4F
:10252000103F00F07F81DAF81810022000EBD6206F
:10253000B0EB910F00F279810A910420CDF8308040
:1025400018A900F00AFC04460D4648460021224620
:102550002B46CDF82C90FEF77DFBC0B2032840F04F
:1025600057814FEAD62828462146002800F0DB8014
:1025700011F8012B0138F02AF7D005E014F8010B0F
:10258000013DE02840F07E81002DF7D1CC484FF48A
:1025900000010722C0F880110160CA490A604FF4A7
:1025A0008001C0F88011016002A800F502540EA954
:1025B00020460A46FEF7A2FA4FF0000941F2180041
:1025C000CAF8349008A901F54F5A04F10C0150449F
:1025D0004FF4807691E82C002CC004A894E80E00FB
:1025E00000F5035B0BF104000EC04FF4807108A8E6
:1025F00000F5035000F014FE08A84FF4807100F5B8
:10260000075000F00DFE08A84FF4807100F50B5044
:1026100000F006FE08A84FF4805200F50F5801A8FC
:1026200000F58351404600F0E5FB50464FF48051E1
:1026300000F09FFD0D9D41F208005044DFF894C268
:10264000C5F804909BE81E001EC00622022085F8F3
:102650002E0008A9042001F50251C5E9091009203E
:10266000A8850DF580400DF11A01C5F8009080F89D
:1026700020950DF5804001F58A450DF58041A0F8C3
:102680001E651223904828604FF40470A1F81805C5
:102690008E488F49904C914E45F81E2C072245F8E4
:1026A000226C45F81A4C45F8163C45F812CC45F812
:1026B0000E2C45F80A1C45F8060C08A800F50B502E
:1026C000CDE900080BA800F588441EA808AA08ABAD
:1026D00000F5894102F5035203F507532046FDF743
:1026E00005FF2046FDF7DEFE1EA800F589463046B0
:1026F00000F0F2FA20463146FDF7B0FE2046514682
:10270000FFF742FA30462146FDF78CFF0DF5804079
:10271000C5F8866080F8A89508A800F58B40FEF7FC
:10272000C5FA00F05DF908A809A90DF1600A00F5E5
:102730004F5001F501515246FEF711F90DF5405089
:1027400090F8E003012863D00DF54050D0F8E41371
:10275000300B414530D2022101EB4008030309A8A8
:1027600000F501590026B41CA04500F08B80A3F5AC
:10277000805548463146CDF800A02A46FEF73BF981
:10278000C0B2042844D1711C48462A462B46CDF8D5
:1027900000A0FEF771F9C0B22B4604282646E2D00D
:1027A00036E000BF0080FF00FA50FA504465005048
:1027B000202403500850005002214FEA400B01EB47
:1027C00040010D9109A8002600F5015400200D9943
:1027D00000F1020949452BD00BEB0005204632469B
:1027E00033462946CDF800A0FEF705F9C0B204280B
:1027F0000ED106F58058691C204633464246CDF876
:1028000000A0FEF739F9C0B2464604284846DED09B
:1028100000F08CF800F07AF808A8002100F54F507D
:10282000FFF778FA4F2000F075F87A2000F072F880
:1028300018A9042000F091FA05460C46002000215A
:102840008C4202D068540131FAE70B98042100F061
:1028500080FAC0B20328DBD10B9800210A9AFEF758
:1028600069F9C0B20328D3D10020C021844202D02C
:1028700029540130FAE70B98002100F06AFAC0B23F
:102880000328C5D1164A002172B662B6C2F84812B2
:10289000BFF34F8FBFF36F8F0C981060FFF732FBC1
:1028A000800000200070000000700400A91C0000DF
:1028B000007004000080080000600000007000004C
:1028C00004E100E004730350EF02014010006400D3
:1028D000151911522C3300001A3300001433000074
:1028E00008ED00E080B56F460148006800F002F88E
:1028F00004ED00E080B56F460148006800F006F87E
:1029000004ED00E080B56F4600F000F880B56F463A
:1029100000DEFEDE80B56F46FFF7F8FF80B56F463C
:10292000FFF7F4FF80B56F46FFF7F0FF80B56F4605
:10293000FFF7ECFF80B56F46FFF7E8FF80B56F4605
:1029400080BDD4D480B56F460148002180BD00BF52
:102950003C33000080B56F4680BDD4D480B56F464F
:1029600002480168C907FCD080BD00BF0094035035
:1029700080B56F464FF0FF32BDE8804000F000B8F0
:10298000B0B502AF046802EA010304EA02059D4201
:1029900001D10120B0BD1C409C421CD10F4C01252F
:1029A000EFF3108372B6C4F804512568ED07FCD02C
:1029B00061EA02010160BFF34F8F2068C007FCD0BD
:1029C0000020C4F804012068C007FCD0D80700D15B
:1029D00062B60020B0BD0220B0BD00BF009403501D
:1029E00080B56F460648BFF34F8F064A016801F471
:1029F000E06111430160BFF34F8F00BFFDE700BFEF
:102A00000CED00E00400FA05F0B503AF4DF8048DBD
:102A1000EFF3108872B6D0E9006405460020286004
:102A20001EB1944208BF8E420FD0096810468847F5
:102A30000246D5E90030C5E900210BB1D9688847C5
:102A400026B1F1682046884700E02E605FEAC87032
:102A500000D162B65DF8048BF0BDF0B503AF4DF860
:102A6000048DEFF3108872B6D0E9006504460020AB
:102A700020604EB1B16828468847D4E90010C4E907
:102A8000006509B1C96888475FEAC87000D162B6BD
:102A90005DF8048BF0BD80B56F46814207D3994243
:102AA0009FBF0244091A104680BD08461946FFF729
:102AB00039FFD0B502AF0C46994201BF11462246FC
:102AC000BDE8D04000F003BC20461946FFF732FFB6
:102AD00080B56F46D0E904128069BDE8804000F0FF
:102AE00000B880B56F4613460A4601460020BDE88F
:102AF0008040FFF7D0BFF0B503AF2DE900079A463D
:102B0000D0E905348146A01C00EB0A059D4222D87D
:102B10009C423FBF9046D9F810200AF10206165594
:102B20003CBF01349C4218D211552946FFF7B3FF30
:102B300042465346FFF7BDFFD9E9042328462946FC
:102B4000FFF7A9FF01220023FFF7B3FFC9F81850D0
:102B5000BDE80007F0BDFFF7D9FE20461946FFF794
:102B6000D1FEF0B503AF2DE9000B0446C069012882
:102B700029D199466369266A9E4226D290462269E7
:102B8000A069955D0135955509F1030635189D42FB
:102B900019D898421AD21654461C9E423FBF10259F
:102BA0009555861C9E4210D20330915500EB0906C4
:102BB0003146FFF770FF42464B46FFF77AFFA661AA
:102BC000BDE8000BF0BDFFF7A1FE30461946FFF748
:102BD00099FEF0B503AF4DF804BD446854B10668E2
:102BE000054601202246314600F00AF8C5E90001F9
:102BF0003178FFE7B4FA84F040095DF804BBF0BD1A
:102C0000824221BF0B18111A1846704780B56F46D3
:102C10001146FFF787FEB0B502AF4468022C07D318
:102C20000168054602202246FFF7EAFFC5E90001D8
:102C30000020022C38BF0120B0BDF0B503AF2DE954
:102C4000000B04464868A0B108460D46FFF7C1FFD7
:102C5000C0070AD128460E46FFF7BBFFC00704D1C4
:102C6000F0B26A68861E964208D90020A060012052
:102C700000E000202060BDE8000BF0BDD5F800901A
:102C8000884630464946FFF7BBFFC5E90001C4E965
:102C9000029684F80480EAE7F0B503AF4DF804BD6E
:102CA00082B014460246D3E900060D4600210128F1
:102CB00019600CD1B01D06F108012B46FFF7EBFEA1
:102CC000A21B27F8122CA7F1120200F090F802B014
:102CD0005DF804BBF0BDD4D4BFB506AF04460025F3
:102CE00068460621CDE9005500F01EF80C4A06237F
:102CF000FFF7DFFECDE9025502A8002100F014F82D
:102D000001220023FFF7D5FE06482060DDE902011D
:102D1000E0602161DDE900016060A160BFBD00BF2E
:102D2000333300001400030080B56F4602460846A6
:102D300011460822BDE88040FFF7D3BE80B56F463C
:102D4000FFF74EFED8F8000000F15404406FC500B4
:102D500070472A462346FDF737BF4FF48052FDF7F0
:102D60004FBA9DF88800249A0228CDE931127047A5
:102D7000B0FA80F0420908461146FFF703B889F817
:102D80002000D9F8100089F821A0C9F81C0070476C
:102D9000294622464FF48053FDF716BF314622469E
:102DA0004FF48053FDF756BFC0B2012106F580569F
:102DB00005F5805503287047494622461D46FDF714
:102DC000CEBD50462A463346FDF744BFDDE9181212
:102DD0001198FFF719BE07F8170C2046FFF78BBEB6
:102DE000D2E8EF3F0B40C2E8E43F002C70470223DB
:102DF000FFF75FBE042A08D3B0B502AFA2F1040EFC
:102E00000EF00C040C2C06D121E00B4684466046E3
:102E1000194600F03AB80B46844653F8045B1EF09E
:102E20000C0F4CF8045B07D04B68042C436007D1AF
:102E3000083A0831083008E060461946724606E054
:102E40008B680C3A83600C310C3084460B46BEF123
:102E50000C0F14D384460B461868103ACCF80000C7
:102E6000032A5868CCF804009868CCF80800D868A1
:102E700003F11003CCF80C000CF1100CECD8BDE8F9
:102E8000B0406046194600F000B8F0B503AF2DE938
:102E9000000F8CB0102A1ED3434203F0030800EB4E
:102EA0000803984233D2A8F1010CB8F1000F06468E
:102EB0000C461AD00C46064614F801EBB8F1010F87
:102EC00006F801EB11D04E78B8F1020F467008D128
:102ED0008C1C861C09E084460CEB02039C4540D305
:102EE0006CE08E78CC1C8670C61CBCF1030F0ED330
:102EF000043C043E14F8045F06F8045F65787570BE
:102F0000A578B570E578F570351D9D42F2D1A2EB3C
:102F1000080E01EB08042EF0030214F0030603EB85
:102F2000020C59D1634515D221460D6843F8045B64
:102F300063450FD24D6843F8045B63453EBF8D681F
:102F400043F8045B634505D2CD68103143F8045B58
:102F50006345EAD3A1180EF003020CEB02039C4573
:102F60002CD2A2F1010E12F0030413D00A466546DA
:102F700012F8016B012C05F8016B0DD04A78022C78
:102F80008CF801201ED18A1C0CF10205BEF1030F42
:102F900005D213E065460A46BEF1030F0ED3111F9A
:102FA0002A1F11F8046F02F8046F4E7856708E785D
:102FB0009670CE78D670161D9E42F2D10CB0BDE848
:102FC000000FF0BD8A780CF103058CF80220CA1CB2
:102FD000BEF1030FE3D2F1E74FF0000AC6F1040B94
:102FE0000BADCDF82CA005EB06095FEACB751EBF33
:102FF000257889F800504FF0010AA51B0895F500C7
:1030000001955FEA8B7544BF34F80A5029F80A50DD
:103010001D1DDDF82CB06545019DC5F10009CDF8F9
:10302000009060D27342CDF820B001EB030A09F0A2
:103030001801DDF80490834607910AEB080508990A
:10304000CDF810A0D5F804A0079B21FA09F1CDF81E
:103050000CB0CDF820A00AFA03F30B430BEB0801E8
:103060008B464BF8083BE34540D2089B0695D5F8C4
:1030700008A023FA09F5079B05910AFA03F32B43ED
:103080004B6001F10C03634534D2069DED68089551
:103090002AFA09F50295DDE9075101FA05FA0599C1
:1030A000029D1031614545EA0A05CBF8005028D24F
:1030B0000699089DDDF810A0096925FA09FB079D0E
:1030C00008910AF1100A01FA05F545EA0B01DDF84D
:1030D0000CB019600BF1100B0BEB0803191D6145C7
:1030E000ABD3C24410E0DDF820A00FE005F1040AE4
:1030F0000B1D09E00699D346059B083108338A4623
:1031000004E0069901F10C0ADDF820B00021012E3F
:103110008DF8281007F8261C05D10DF128084FF06E
:10312000000900250AE09AF80550A7F126089AF848
:1031300004108DF828104FEA05290225E60701D171
:10314000002509E00AF10401495D88F8001017F82C
:10315000265C9DF828102D0445EA0905019E2943A7
:10316000009D05F018052BFA06F6A94031431960B9
:10317000F0E680B56F46042906D3A1F1040C0CF0EB
:103180000C030C2B02D118E0024623E04FF0000E96
:10319000024642F804EB1CF00C0F06D0042BC0F8DA
:1031A00004E005D10839083006E01046614604E025
:1031B00000220C3982600C300246BCF10C0F09D39E
:1031C000002302461039C2E90033C2E9023310324B
:1031D0000329F7D85018824221D2A1F1010C11F035
:1031E00003030CD04FF0000E114601F801EB012B48
:1031F0000AD0022B82F801E003D1911C04E01146B1
:1032000002E000219170D11CBCF1030F38BF80BDDA
:103210000439002241F8042F0B1D8342FAD180BDEE
:1032200080B56F46042906D3A1F1040C0CF00C0301
:103230000C2B02D118E0024623E04FF0000E0246AC
:1032400042F804EB1CF00C0F06D0042BC0F804E08D
:1032500005D10839083006E01046614604E0002236
:103260000C3982600C300246BCF10C0F09D30023EC
:1032700002461039C2E90033C2E902331032032991
:10328000F7D85018824221D2A1F1010C11F00303AA
:103290000CD04FF0000E114601F801EB012B0AD0C3
:1032A000022B82F801E003D1911C04E0114602E0F8
:1032B00000219170D11CBCF1030F38BF80BD0439CF
:1032C000002241F8042F0B1D8342FAD180BD80B546
:1032D0006F46BDE88040FFF7D8BD80B56F46FEE77A
:1032E0000000000040100000200000003D0400002D
:1032F00051040000570400003D0400003D0400009C
:103300003D0400004B040000652000008F1F0000FA
:10331000430400004E6F726469635553422D444666
:103320005520426F6F746C6F616465723132333552
:1033300036373857494E55534200000045290000A2
:103340005529000055290000552900000000000003
:043350000000000079
:10700000000004205571000099430100477B0100F6
:1070100099430100994301009943010099430100FC
:107020000000000000000000000000009943010083
:1070300099430100000000009943010099430100B9
:1070400099430100994301000000000099430100A9
:107050000000000099430100000000000000000053
:1070600015F4000039F400005DF4000099430100BC
:10707000994301002D4E01009943010099430100FD
:10708000ADF5000099430100000000000000000081
:1070900099430100054F01000000000000000000BE
:1070A000994301009943010099430100994301006C
:1070B000994301009943010099430100994301005C
:1070C000994301009943010099430100994301004C
:1070D00099430100000000009943010000000000F6
:1070E0009943010000000000994301009943010009
:1070F00000000000994301000000000099430100D6
:1071000000000000000000000000000099430100A2
:10711000994301000000000081F400005DF50000CB
:107120000000000099430100000000000000000082
:10713000000000000000000000000000000000004F
:10714000000000000000000000000000000000003F
:10715000994301000DF023F90E480F4900228142A6
:1071600001D004C0FBE70D480D490E4A814202D010
:1071700008CA08C0FAE70C484FF47001026842EAF6
:1071800001020260BFF34F8FBFF36F8F0CF0A6F9BF
:1071900000DE000050000020F03D00200000002034
:1071A00050000020B0A6010088ED00E0F0B503AF6C
:1071B0004DF804BD044690F84A000D46DFE800F0A3
:1071C000033E41052F000FF075FC0FF0DFFEC0B24B
:1071D000022802D1022003212CE00FF02EFF26D13D
:1071E000206500200321E26B84F8950094F84800A4
:1071F00061660221A165C4E92061C4F8902084F889
:107200004D00D4E90001C4E91A0101296FF07F00A3
:10721000214688BF6FF07E0001F84C0F61650FF0CA
:107220005BFFC0B2022802D10220042102E000F07C
:107230000100012184F84A100FF057BE01480DF0FB
:1072400080F8FEDE4C7B0100F0B503AF4DF804BDC5
:10725000044690F84A000D46DFE800F0033A3D0589
:107260002B000FF027FC0FF091FEC0B2022802D1D4
:107270000220032128E00FF0E0FE22D10221E36B7F
:10728000606620650020A165C4E9206194F848107B
:1072900084F89500C4F8903084F84D10D4E90012B9
:1072A000C4E91A122146012A88BF012001F84C0FB7
:1072B00061650FF011FFC0B2022802D10220042143
:1072C00002E000F00100012184F84A100FF00DBE29
:1072D00001480DF036F8FEDE5C7B0100F0B503AF2F
:1072E0002DE9000B044690F83000884650B1032881
:1072F00069D1A14619F82C0FB0B1032866D1656A8F
:1073000028681BE0D4E90010A2686261C4E9031098
:10731000887910F07F00A06151D00020A14609F8C3
:107320002C0F49F8101C00E0E1698879254610F01F
:107330007F0045F8200F3FD0C4E9095107F096F9C6
:10734000D8E900120DF071FE244800F10806D6E8D5
:10735000AF8FA06A2968006807F076F900B3286843
:1073600000F01F0028FA00F0C0071CD0206A01219D
:1073700000F01F0001FA00F0C043D6E8EF1F014003
:10738000C6E8E21F002AF8D104F10C030125A16927
:107390000DCB84F82C5000680DF05AFC022006E05A
:1073A0000125012001E00325032089F8005084F81D
:1073B0003050BDE8000BF0BD09480A4A01E008481A
:1073C000094A0FF0EEFE04480CF0BBFF01480CF038
:1073D000B8FF00BF708B0100947B01000C3D0020C2
:1073E0006C7B0100608B0100847B0100F0B503AF72
:1073F0002DE900072DED0C8BADF5487D1546804637
:1074000007F0FCFEC0B2102840F0E2802C460DF1DF
:10741000C80A291D1C2234F82C9B0AF1040010F024
:1074200062F905F120000AF1200190E84C000AF110
:107430002C004CC1214607F0A3FD0AF59A7005F512
:107440009A7107F09DFD05F51370694690E85800A4
:1074500001F1100205F50F7058C290E878000A4655
:107460000AF50F7078C2ADF8C8901C2210F03BF9F5
:107470006D46514628460EF042FFD8F80014002011
:10748000B0EB912F40F0A4809DF8002008F8012077
:10749000D8F800140131B0EB912FC8F8001440F077
:1074A00097809DF801009DED01DA9DED02CA9DEDEA
:1074B00003BA9DED04AA9DED059A9DED068A08F894
:1074C00001004146D8F800040130C8F80004BDF8B6
:1074D000020001F0ABF8C1B210297AD1B0EE4D0A2A
:1074E0000FF0ACFCC1B2102973D1B0EE4C0A0FF012
:1074F000A5FCC1B210296CD1B0EE4B0A0FF09EFC76
:10750000C1B2102965D1B0EE4A0A0FF097FCC1B2A2
:1075100010295ED1B0EE490A0FF090FCC1B21029DB
:1075200057D1B0EE480A0FF089FCC1B2102950D1F2
:107530009DED070A9DED089A9DED098A0FF07EFCEE
:10754000C1B2102945D1B0EE490A0FF077FCC1B2A3
:1075500010293ED1B0EE480A0FF070FCC1B21029DC
:1075600037D132AC05F1280138220FF098FC4046A3
:10757000214604F0CBFDC1B210292AD132AC05F16D
:10758000600138220FF08BFC4046214604F0BEFD1E
:10759000C1B210291DD105F1980132AD3022284623
:1075A00010F0A1F84046294604F049FEC1B2102966
:1075B0000FD105F1240400250C2D11D0601990ED98
:1075C000000A0FF03BFCC1B204351029F4D000E0F2
:1075D00002200DF5487DBDEC0C8BBDE80007F0BD29
:1075E0001020F6E7B0B502AF0546044655F80C0F7B
:1075F00030B1284607F02CFE00B1B0BD0020286055
:1076000021680020012904D1D4E9012160601046DD
:10761000B0BDB0BDF0B503AF2DE9800F2DED108BDF
:10762000F8B004460720CDE93A103AA800F0DCFF94
:10763000C0F30728C1B20229C24600F0A780C007E4
:1076400026D03AA800F0D0FFC1B2C0F3072A022921
:1076500000F09C80C0071BD03B9ECEB1DDF8E890C7
:10766000A6F1010B0720CDF8ECB0CDE9699069A82F
:1076700000F095FC054680B2022818BF05F07F4057
:1076800005F47F0108444FEA104104D18A467DE0A9
:107690004FF00E0A7AE0CDE9046B06944AA88B46B7
:1076A00069A900F060FCE80708BF4FF0640B4A9836
:1076B000022868D0C00700F05D819DED4B8A4AA882
:1076C00069A900F050FC4A9802285CD0C00700F07D
:1076D00051819DED4B9A4AA869A900F044FC4A9853
:1076E000022850D0C00700F045819DED4BAA4AA862
:1076F00069A900F038FC4A98022844D0C00700F07D
:1077000039819DED4BBA4AA869A900F02CFC4A9832
:10771000022838D0C00700F02D819DED4BCA4AA841
:1077200069A900F020FC4A9802282CD0C00700F07C
:1077300021810598002800F01D8104989DED4BDA09
:1077400002383B900320CDE969904AA869A900F06E
:107750000AFC4A98022816D0C00700F00B814B9C07
:107760004AA869A900F0FFFB4A9802280BD0C0077D
:1077700000F000819DED4BEA4AA869A900F0F3FBF7
:107780004A9802280DD19DF82CA1069C022084F86D
:1077900000A084F8380278B0BDEC108B01B00FF077
:1077A000B6BBC00700F0E6800DF594799DED4BFA6D
:1077B0003AA9484600F047FB0FF0C4FC059002D1FF
:1077C000DDF814A0E1E709F105013CA80FF0B7FCD2
:1077D000E80700F0CF800DF594793AA9484600F00B
:1077E00032FB0FF0AFFC049002D1DDF810A0CCE723
:1077F00009F1050159A80FF0A2FCE80700F0BA80D2
:107800003B98002800F0B6803A9802210DF5947953
:10781000CDE9670167A9484600F06CFA0FF092FCC9
:10782000039002D1DDF80CA0AFE709F1050169A8CA
:1078300023220FF058FFE80700F09C80689800288A
:1078400000F0988067980321CDE9720174A872A9AD
:1078500000F089FB7498022802D19DF8D4A194E726
:10786000C00700F08780759E76A872A900F07BFBA8
:107870007698022802D19DF8DCA186E7C00779D06E
:10788000DDED778A4AA872A900F06DFB4A980228BC
:107890003FF479AFC0076DD04FEA1B210DF11F00F7
:1078A0005D4623220191210A00F1050983469A30A1
:1078B00000914B99029169A90FF015FF0BF12A0075
:1078C0003CA90FF03CFC0BF1620059A90FF037FC0A
:1078D00000998DF822508DF821A08DF820808DF828
:1078E0003C408DF8DC60080CA9F819100BF101017F
:1078F00089F81B001DEE100AC9F814001CEE100ACE
:10790000C9F810001BEE100AC9F80C001AEE100A94
:10791000C9F8080019EE100AC9F8040018EE100A98
:10792000C9F800001FEE100AC9F820001EEE100A68
:10793000C9F81C0001988DF8230003988DF8B80051
:1079400004988DF8800005988DF848000298C9F8D1
:10795000C00018EE900AC9F8BC00300E89F8BB00D0
:10796000300AA9F8B90000208DF81F0006980EF023
:107970007BFD10E74FF00E0A07E7F0B503AF2DE9E6
:10798000000FA3B00FF00CFB0FD00FF04EFB102137
:10799000CDE909010BA809A900F021FDBDF82C00D3
:1079A000022805D19DF82E002FE1002020802FE134
:1079B000C00700F02981DDF82E50A7F1760009A953
:1079C00000F00DFD37F8760C022802D117F8740C80
:1079D0001BE1C00700F0188157F8746C0EA809A9C4
:1079E00000F0FDFCBDF83800022802D19DF83A00F5
:1079F0000BE1C00700F00881DDF83A80A7F16A00CA
:107A000009A900F0ECFC37F86A0C022802D117F83B
:107A1000680CFAE0C00700F0F78057F8689C11A8DE
:107A200009A900F0DCFCBDF84400022802D19DF851
:107A30004600EAE0C00700F0E780DDF846A0A7F1C5
:107A40005E0009A900F0CBFC37F85E0C022802D1D9
:107A500017F85C0CD9E0C00700F0D68057F85CBC82
:107A600014A809A900F0BBFCBDF85000022802D1FF
:107A70009DF85200C9E0C00700F0C680DDF8520052
:107A80000890A7F1520009A900F0A9FC37F8520CA0
:107A9000022802D117F8500CB7E0C00700F0B480FC
:107AA00057F8500C079017A809A900F098FCBDF8EA
:107AB0005C00022802D19DF85E00A6E0C00700F03D
:107AC000A380DDF85E000690A7F1460009A900F04A
:107AD00086FC37F8460C022802D117F8440C94E0D3
:107AE000C00700F0918057F8440C05901AA809A926
:107AF00000F075FCBDF86800022802D19DF86A000C
:107B000083E0C00700F08080DDF86A000490A7F1F0
:107B10003A0009A900F063FC37F83A0C022802D1B8
:107B200017F8380C71E0C0076ED057F8380C039086
:107B30001DA809A900F053FCBDF87400022802D169
:107B40009DF8760061E0C0075ED0DDF87600029017
:107B5000A7F12E0009A900F042FC37F82E0C0228EC
:107B600002D117F82C0C50E0C0074DD057F82C0C60
:107B7000019020A809A900F032FCBDF8800002287D
:107B800002D19DF8820040E0C0073DD0DDF88200C0
:107B90000090A7F1220009A900F021FC37F8220C7F
:107BA000022802D117F8200C2FE0C0072CD057F87C
:107BB000200CC4F816B0C4F812A0C4F80E90C4F893
:107BC0000A80C4F80660C4F80250C4F83E00009869
:107BD000C4F83A000198C4F836000298C4F832009C
:107BE0000398C4F82E000498C4F82A000598C4F835
:107BF00026000698C4F822000798C4F81E000898CA
:107C0000C4F81A000120D1E60E200221A0702180C4
:107C100023B00FF07CB9DCB504AF0FF0C1F90FD081
:107C2000013848600968684607F0B9FA9DF8000015
:107C3000012808D19DF80100022121602071DCBDDE
:107C400000202060DCBD01980121C4E90010DCBDEA
:107C5000F0B503AF2DE9000B92B080464868E8B15B
:107C6000013800240DF13409486008680321CDE98A
:107C70000B0110AD0BAE2846314600F074F9109898
:107C800002280DD0C0070ED00C2C2AD09DED110A71
:107C900009EB0400043480ED000AECE700201DE04D
:107CA0009DF844001EE00C2C1BD1A7F142000DA949
:107CB0000C220FF071F904A829460C22861C0FF043
:107CC00087FAA7F15E0031460C220FF065F908F142
:107CD000040029460C220FF006FD0120C8F8000020
:107CE00005E00E20022188F80400C8F8001012B048
:107CF0000FF05ABAD0B502AF2DED108B94B00FF043
:107D00004FF90ED00FF091F90921CDE9000102A839
:107D1000694600F028F90298022805D19DF80C0068
:107D20008AE0002020608AE0C00700F084809DED9A
:107D3000038A04A8694600F016F90498022802D1C3
:107D40009DF8140078E0C00775D09DED059A06A84F
:107D5000694600F008F90698022802D19DF81C0037
:107D60006AE0C00767D09DED07AA08A8694600F041
:107D7000FAF80898022802D19DF824005CE0C007B8
:107D800059D09DED09BA0AA8694600F0ECF80A98A6
:107D9000022802D19DF82C004EE0C0074BD09DED8B
:107DA0000BCA0CA8694600F0DEF80C98022802D134
:107DB0009DF8340040E0C0073DD09DED0DDA0EA8DF
:107DC000694600F0D0F80E98022802D19DF83C00D8
:107DD00032E0C0072FD09DED0FEA10A8694600F0F1
:107DE000C2F81098022802D19DF8440024E0C00790
:107DF00021D09DED11FA12A8694600F0B4F812984E
:107E0000022802D19DF84C0016E0C00713D0139849
:107E100084ED018A84ED029A84ED03AA84ED04BA0C
:107E200084ED05CA84ED06DA84ED07EA84ED08FAEC
:107E30006062012076E70E2002212071216014B0DB
:107E4000BDEC108BD0BDF0B503AF4DF8048D2DED1A
:107E5000068BA0B00FF0A4F826D00FF0E6F80221B0
:107E6000CDE9010103AD01A92846FFF743FF039EB9
:107E70009DF81080022E6DD0691D0DA823220FF0F1
:107E800032FCF00764D00298002861D001980521E7
:107E9000CDE9160118A816A900F065F8189802286F
:107EA00004D19DF8648055E0002056E0C0074FD013
:107EB000199D1AA816A900F056F81A98022802D19E
:107EC0009DF86C8046E0C00742D09DED1B8A1CA83F
:107ED00016A900F048F81C98022802D19DF8748079
:107EE00038E0C00734D09DED1D9A1EA816A900F0F9
:107EF0003AF81E98022802D19DF87C802AE0C0073B
:107F000026D09DED1FAA03A816A900F02CF803980F
:107F1000022802D19DF810801CE0C00718D0049EF2
:107F2000601D0DA923220FF0DEFB280EA66384ED51
:107F30000B8A84ED0C9A84ED0DAA84F8285084F8FD
:107F4000048084F82B00280AA4F82900012004E00A
:107F50004FF00E08022084F80480206020B0BDECB1
:107F6000068B0EF06EBF4A68B2B180B56F46013A1B
:107F70004A600A68D2E900135B1A042B07D30B1D71
:107F8000136021B109680122C0E9002180BD0221EE
:107F900001600421017180BD0021016070474168CA
:107FA00019B3F0B503AF4DF804BD046801390025DD
:107FB0004FF0FF364160022E14D0204606F036FC0A
:107FC000C00715D1013601F07F00C6EBC60292B2A0
:107FD0009040054348B20028EDD4022E0CD1C8B21F
:107FE000032809D940F2015009E00020002114E0E3
:107FF000012061F30B2000E02804C10705D04FF4F5
:10800000702101EA0020022103E04FF6FF7188434E
:1080100001215DF804BBBDE8F04008437047F0B5AE
:1080200003AF2DE9000FADF5257D0EF0B9FF10D09F
:108030000EF0FBFF1021CDE90B0155AD0BA9284631
:1080400000F004FABDF85401022805D19DF856014C
:1080500062E10020208062E1C00700F05C815AAE3E
:108060000BA9304600F0F2F9BDF86801022802D1F0
:108070009DF86A0150E1C00700F04D810DF5BE7812
:108080000BA9404600F0E2F9BDF87C01022802D1BC
:108090009DF87E0140E1C00700F03D810DF5C879F3
:1080A0000BA9484600F0D2F9BDF89001022802D190
:1080B0009DF8920130E1C00700F02D810DF5D27AD4
:1080C0000BA9504600F0C2F9BDF8A401022802D164
:1080D0009DF8A60120E1C00700F01D810DF5DC7BB5
:1080E0000BA9584600F0B2F9BDF8B801022802D138
:1080F0009DF8BA0110E1C00700F00D8173A80BA92B
:1081000000F0A4F9BDF8CC01022802D19DF8CE01FF
:1081100002E1C00700F0FF8078A80BA900F096F9F3
:10812000BDF8E001022802D19DF8E201F4E0C007A9
:1081300000F0F1807DA80BA900F088F9BDF8F401EA
:10814000022802D19DF8F601E6E0C00700F0E380C6
:1081500082A80BA900F07AF9BDF80802022802D122
:108160009DF80A02D8E0C00700F0D58087A80BA9C7
:1081700000F06CF9BDF81C02022802D19DF81E0225
:10818000CAE0C00700F0C7808CA80BA900F05EF918
:10819000BDF83002022802D19DF83202BCE0C007CF
:1081A00000F0B98091A80BA900F050F9BDF8440285
:1081B000022802D19DF84602AEE0C00700F0AB8075
:1081C00096A80BA900F042F9BDF85802022802D186
:1081D0009DF85A02A0E0C00700F09D809BA80BA963
:1081E00000F034F9BDF86C02022802D19DF86E024D
:1081F00092E0C00700F08F80A0A80BA900F026F93C
:10820000BDF88002022802D19DF8820284E0C007F6
:1082100000F08180A81C1222023608F1020809F140
:1082200002090AF1020A0BF1020B019073A8023055
:10823000029078A8023003907DA80230049082A8B2
:108240000230059087A8023006908CA80230079073
:1082500091A80230089096A8023009909BA802309D
:108260000A90A0A80DAD811C05F587700FF03BFAB0
:10827000019928460EF085FD05F1120031460EF0F9
:1082800080FD05F1240041460EF07BFD05F136002E
:1082900049460EF076FD05F1480051460EF071FD9D
:1082A00005F15A0059460EF06CFD029905F16C007B
:1082B0000EF067FD039905F17E000EF062FD049952
:1082C00005F190000EF05DFD059905F1A2000EF09C
:1082D00058FD069905F1B4000EF053FD079905F11C
:1082E000C6000EF04EFD089905F1D8000EF049FDCC
:1082F000099905F1EA000EF044FD0A9905F1FC0028
:108300000EF03FFD012029464FF4907224F8020B35
:108310000EF0C5FD03E00E200221A07021800DF5B6
:10832000257D0EF0F4BDF0B503AF4DF804BD82B06D
:108330000EF036FE16D00EF078FE0321CDE90001D6
:108340006846FFF72CFE050C81B2022916D0C00743
:1083500021D06846FFF723FE060C81B2022903D123
:1083600035460BE000200BE0C00714D06846FFF74D
:1083700016FE010C82B2022A06D10D460220A5701B
:10838000208002B00EF060BDC00704D00120E18063
:10839000A6806580F4E70E25F0E7416879B1E0B585
:1083A00002AF013941600168684606F0F8FE9DF8A9
:1083B0000000012806D19DF8011001208CBD00208D
:1083C000022170470198012803D028B9002100201C
:1083D0008CBD002001218CBD01200E218CBDF0B58B
:1083E00003AF4DF8048D84B080464868E0B1013891
:1083F0000026486008680221CDE9010101AD03AC07
:108400002846FFF7CCFD0EF0EDFC18BF00F07F41D1
:1084100011444FEA114111D0C00707D0022E0CD0F1
:1084200024F816100136EBE700200AE0022E04D1F2
:108430000398C8F80200012003E00E21022088F80A
:108440000210A8F8000004B00EF0FBBCF0B503AFBA
:108450002DE9000F89B00EF0A3FD12D00EF0E5FD5E
:108460000E21CDE9070107A8FFF799FD0EF0BAFC30
:1084700018BF00F07F4111444FEA114503D129464E
:10848000ACE00020ACE0C00700F0A78007A8FFF731
:1084900086FD0EF0A7FC18BF00F07F4111444FEAA3
:1084A000114601D1314699E0C00700F0968007A837
:1084B000FFF775FD0EF096FC18BF00F07F411144E8
:1084C0004FEA114801D1414688E0C00700F085809D
:1084D00007A800F089F8C1B2C0F30729022949466C
:1084E0007CD0C00779D007A800F07EF8C1B2C0F3F5
:1084F000072A0229514671D0C0076ED007A800F0A4
:1085000073F8C1B2C0F3072B0229594666D0C007E1
:1085100063D007A800F068F80EF0C0FA06925DD0AC
:10852000C0075AD007A800F05FF80EF0B7FA05921E
:1085300054D0C00751D007A800F056F80EF0AEFA9C
:1085400004924BD0C00748D007A800F04DF80EF0B9
:10855000A5FA039242D0C0073FD007A800F044F824
:108560000EF09CFA029239D0C00736D007A800F06E
:108570003BF80EF093FA019230D0C0072DD007A837
:1085800000F032F80EF08AFA009227D0C00724D00B
:1085900007A800F029F8C2B2C0F30721022A1DD0B3
:1085A000C0071AD00098A17484F80AB084F809A012
:1085B00084F80890A4F80680A6806580607401980D
:1085C00020740298E0730398A07304986073059870
:1085D00020730698E072012002E00E210220A170B3
:1085E000208009B00EF093BC416869B180B56F4638
:1085F00001394160006806F019F90EF01EFD18BF40
:108600000220BDE8804000E0002040EA01207047E1
:10861000E0B502AF8DED010A01A9042206F084FD48
:108620001021002818BF022108468CBDDCB504AF1C
:108630000C46014600208DF80600ADF804008AB211
:1086400001A9032809D0D3090A5409D0D2B242F0B3
:1086500080020A5401301A46F3E7032201AB06E018
:10866000084B01A9032203F023FE03460A462046D5
:10867000194606F059FD1021002818BF02210846AE
:10868000DCBD00BF3C950100824221BF0B18111ACE
:108690001846704780B56F4611461A460BF03FF8F2
:1086A000F0B503AF2DE9000FADF5FA5D87B08B464D
:1086B000814600F5B36AD0E90001CDE912A908436B
:1086C00002D0012001F000BC06A809F5367200F5C1
:1086D000D0500130029009F10800039099F8B702D8
:1086E000059209F63D02049209F52E720692DFE822
:1086F00010F00F00E100FC1A440076020F03300076
:1087000028007300B404CD04990540007F001900CF
:1087100009F5267609F51A7CCDF850B07FCEACE885
:108720007F00DBE2CDF850B099F8B8B2152089F897
:10873000B802BBF1150F00F0AD80D9F8184500F074
:10874000E6BC99F83D08002800F07C8003284BD156
:108750004CE399F82E1809F5307009F62E08002917
:1087600000F07380032900F00483DFF84C0A0BF05B
:10877000E8FDD9F8BC0200F062BD99F8100709F5D0
:10878000E266002800F06C80032840F0978099F89A
:108790000C0709F20C7A002800F067800328119674
:1087A00040F0908099F8080709F5E168002800F08A
:1087B0006580032840F08A804E4609F2047996F8D5
:1087C0000407002800F06380032840F08380139E94
:1087D000D6F8FC562868DCE099F83D08002800F03F
:1087E0002E83032800F03383DFF8D0090BF0A9FDB6
:1087F00009F2BA5199F8BA051191DFE810F01D009D
:108800006F00761A8305B405E30512064106730668
:10881000A206D306020731075E078D07A5072308C6
:1088200054088308B208E108130942097309A20930
:10883000D109FD092B0AA30AD9F87C65D9F880452E
:1088400000F043BDD9F83858CAE2D9F82068D9F801
:108850002418D9F8285899F82D2899F82C387BE253
:108860000698CDF850B004683CE0CDF850B0D9F887
:10887000BC46D9F8C056D9F8C4B64CE0D9F8D846A9
:10888000D9F8DC06D9F8E016CDF850B05DE0D6F89E
:10889000F44671E001210020CDF8AC1FDFF820196B
:1088A0000EF0ECF90DF6A870CDF8A81FDFF814193A
:1088B0000AF040FEDFF810090BF043FDDFF80C0969
:1088C0000BF03FFDDFF808090BF03BFDDFF8040972
:1088D0000BF037FDDFF800090BF033FDDFF8FC0883
:1088E0000BF02FFD09F52F754FF480614FF4806B6D
:1088F00028460EF056FEDFF8E8080BF0E4FD246889
:108900000020C9F8C056C9F8C4B609F20C7A89F833
:108910000C07C9F8BC461196002609F5D96080E815
:108920003008C9F8D466DFF8BC38304629465A46C4
:10893000FFF7AAFE0022C9F8D846C9F8DC06C9F834
:10894000E01609F5E16889F80827C9F8EC16C9F8B6
:10895000E806C9F8E446A07910F07F00C9F8F006EF
:1089600002F085800020DDF850B0C9F8F4464E468C
:1089700089F8040709F20479A07910F07F00C6F89D
:10898000F80602F0798006F5DF65C6F80047C6F8FC
:10899000FC5605F08FFEDBF80010CDF850B00EF05D
:1089A000C7FADFF8440800F10804D4E8AFBFD6F8EE
:1089B00000072968006805F06BFE70B3286800F0B6
:1089C0001F0080F010002BFA00F0C00701F0FE82BB
:1089D000DDF84C900121D9F8F80600F01F0080F076
:1089E000100001FA00F0C043D4E8EF1F0140C4E8D2
:1089F000E21F002AF8D10120D9F8E836D9F8EC4670
:108A0000D9F8F02689F80407D9F8E40601680DF6CC
:108A1000A87000940CF0E6F808E0012089F8000046
:108A200040F20110DDF84C90ADF8A80FDDF8A81F5A
:108A30000122DDF8AC0FDDF850B088F80020CAB292
:108A4000022A01F0CA82CA070AD001208AF800006F
:108A5000C1F300200E90C1F307200D9007202BE0FA
:108A6000D9F8D416D9F8C8460E18C9F8D466A18822
:108A7000884280F00082DFF8740701248AF8004001
:108A80000BF021FDB6F5806F02F2608009F52F70C2
:108A90000DF5BD518219C1E90214C1E900020DF6BC
:108AA000A87006F07CFB0EF0B5FB40F022829DF82A
:108AB000A93F0520CDE90D330F901520109005A892
:108AC0000DF528790DF5257A00F5BC50494690E85A
:108AD0002C002CC102A800F5BC5051460EF08BFBB7
:108AE0000A8088709CA801A9242201F5BB510EF0D0
:108AF000FAFD8CA801A93F2201F5B9510EF0F3FD52
:108B000063A80DF5B451A4220EF0A2FD0DF16C0B7B
:108B10000DF5AB5140F21F1258460EF099FD03A817
:108B20000DF1580800F5AA50414690E87C0001205C
:108B30007CC10DF59F6511990870284699E80E00D3
:108B40000EC0BAE806000DF2EC400EF0E8F90DF5A3
:108B500099609CA90EF0C7FD0DF591608CA90EF0EF
:108B600042FBF9A863A9A4220EF072FDB1A85946F0
:108B700040F21F120EF06CFD0DF52C7998E85E00A6
:108B800048465EC09DF85700DDF840808DF8AE0283
:108B9000BDF85500B8F1150FADF8AC022FD10F9DFF
:108BA0006FF001000D996C1F50FA84F0B0FA80F05C
:108BB0004009084200F06481DDF84C900DF6A87180
:108BC000D9F878020068C9F8B80209F52F7091E861
:108BD0001C001CC0DDF850B0002089F8C8020698BF
:108BE000DBF80010CDF850B0069006F091F900289F
:108BF00000F074800EF06AF8042001F062B9139E50
:108C00000020F0720E9886F80880B0720F9870728B
:108C100006F10C000F9095E80E000EC00DF2EC412D
:108C20000B22099830770898B06106F11D000EF00C
:108C30005AFD06F128000DF599610EF0F3F80A9837
:108C40000DF591613F2286F84C0006F14D000EF0C3
:108C50004AFD06F18C00F9A9A4220EF0F9FC0B984C
:108C600040F21F1286F8300106F23110B1A90EF061
:108C70003AFD99E83E0006F514704FF0130BB1462B
:108C80004FF0000A3EC04146002500240023BDF8F5
:108C9000AC020C9AA6F865029DF8AE0286F8642232
:108CA00086F867020120012611904FF00008DFE8E6
:108CB00011F01F00BE0115007102920115005A0942
:108CC00015001500150015001500150015006A099E
:108CD000B30215008009090215001500D9F8784281
:108CE000002009F5E26689F81007C9F8B842F9E5ED
:108CF000D9F80C00C9F88402C0074FF4187018BFE7
:108D00004FF4197003990DF0E1FF0858C9F8B80243
:108D10000DF0AEFF069E002800F05A81002199F860
:108D2000853299F8862299F8874200F11005C9F832
:108D30008802C9F8206809F5307009F62E0889F80C
:108D40002E180121C9F8285889F82D2889F82C38BF
:108D5000C9F8241889F8B8420024C9E9BC6142EA7C
:108D60000321C9F8005389F80A43C9F8F842A9F861
:108D70000413DBF80010FEF767FA0DF0BAFF08BF26
:108D8000032188F8001000F01D81C00740F0FF802B
:108D9000D9F88802DFF858240DF5EA64018C103008
:108DA000C9E9AE02C9F8CC02C9F8C4024FF4AC62FA
:108DB000481CA9F8D012A9F8C8120DF6A871A9F894
:108DC000C00220460EF02EFA059821464FF4AC6200
:108DD0000EF028FA069D002089F83D08C9F8385899
:108DE000686880470EF076F80DF061FF0EF033F9F9
:108DF0000DF07FFF08BF0321049A117000F0DF809F
:108E0000C00740F0C480D9F888020022018C89F89C
:108E10003D28069A1030C9F8CC02C9F8C402C9F836
:108E20003828DFF8CC23A9F8D012C9E9AE0201F541
:108E30008070A9F8C80201F20110A9F8C002D9F89F
:108E40003858686880470EF045F80DF030FF0EF096
:108E500002F90DF04EFF08BF0321049A117000F0D3
:108E6000B480C00740F09380D9F88802CDF850B0A4
:108E700005F0CAFA32E7D9F8CC56D9F8D0B652E59F
:108E800000200E9E8DF8A85F8DF8AA0FD9488DF8A6
:108E9000A96F0BF00CFBD8480BF0E8FAE0B20328FE
:108EA00028BF0124E0B2DDF84C90002800F0728069
:108EB000012840F07C800DF6A870441C01200BF0C6
:108EC000EDFACE480BF0D2FAE8B2DFE810F0050078
:108ED0009408900892088E0800200BF0DFFAC8482A
:108EE0000BF0C4FAF0B2182841F08F80002001F096
:108EF00086B8DDF8AC5F0E23142D3FF6DAADDFE85F
:108F000015F015008509C70907099F0E950AE80A9B
:108F1000050AEC0A7009EE0AED084509AA0ABE081E
:108F2000C409BB087D0AEA0A010BD30A0420CDF864
:108F3000AC0F0DF5BD50CDF8A80F0DF6A870FFF7DA
:108F40002CFAC0070B467FF4B4ADC8B20E230D4611
:108F500002283FF4AEAD0DF6A870FFF745FB0446BE
:108F600080B2030AE0B202283FF4A3ADE0074FF05D
:108F70000E033FF49EAD0DF6A870FFF735FB81B2EE
:108F80000E0AC1B2022941F06385334691E5D9F852
:108F90008802FBE000200BF081FA9A480BF066FA99
:108FA000994970B251F82000007801F028B80220E9
:108FB0000BF074FA304605F0F9FA01F022B80720F8
:108FC00000F07FBF062000F07CBF082000F079BFD2
:108FD000052000F076BFD9F87C020DF5EA64C822BE
:108FE000011D20460EF034FB0DF6A87021460DF051
:108FF0003BFADDF8B00F9DF8A8AF9DF8A94F9DF89A
:10900000AA6F9DF8ABBFBDF8AC5FBDF8AE8F4FF453
:10901000137211900DF6A87000F10C010DF20450BE
:109020000EF016FB0C9A5B464FF0050B4AE0BDF8BC
:10903000F8044FF41871A9F8B4029DF8FA0489F8FD
:10904000B60299F8B402002818BF4FF419710398BA
:109050000DF03CFE4058C9F8B8020DF009FE069B21
:10906000002800F08B800021B9F8B522C9F88C02E5
:109070001030C9F8203889F8B81289F82E18012163
:10908000C9F82808A9F82C28C9F82418DBF800101A
:1090900009F5307005F0A0FEC0B2022871D0C007FB
:1090A00072D1D9F88C0299F8B86299F8B64299F859
:1090B000B5A299F86452CDF850B005F0A5F92A464A
:1090C0004FF0020BD0B2FF283FF408AE1198A9F878
:1090D000C05289F8BD421546D9F874420DF20451C8
:1090E0004FF41372A9F8C28289F8BF3289F8BE62C0
:1090F00089F8BCA2C9F8C40209F532700EF0A8FACA
:109100001520C9F8184589F8145589F8B8020DF6E4
:10911000A87009F2B92140F25F2201300EF0E3FAA3
:109120008DF8A8BFDDF850B00DF26C70069DC0F848
:10913000A04AC0F89CBA2068002841F027864FF06A
:10914000FF30211D0DF6A8725B4620600DF5EA6028
:1091500003F042FC2068013020609DF8500715287C
:109160003FF4BCAD0DF5EA6128464FF418720EF0DD
:109170006FFADDF848A00E2000F0A3BE092000F031
:10918000A0BE0A2000F09DBED9F88C0205F03CF983
:1091900000F026BE0DF6A8740F99D9F87C5220462F
:1091A0000DF0ADF8281D2146C8220EF051FAE888CE
:1091B0001649088092E500BFE0920100349001005A
:1091C000849501008C9501001C96010070960100A9
:1091D00074900100B47B0100708B0100B497010012
:1091E00008000000849001000C3D002009000000F0
:1091F00041EE000017000000290000002F000000D1
:10920000060000002E0000005CA601000000002007
:1092100049EE000039EE0000D9F868020DF056FD65
:10922000C9F8B8020DF024FD002800F00886C9F83E
:10923000900200F11001D9F86C02C9E9AE10DBF818
:10924000001005F053FF002800F0FF850446C9F820
:109250009402D9F8B86204A80DF54E654FF4317246
:1092600000F5DA510DF093FF0DF16C0A0DF5AB51DD
:10927000362250460EF037FA0DF5EA680DF6A87161
:1092800040F28D5240460EF0E3F9069829464FF41D
:1092900031720DF0C7FF1034514609F28450DDF8E9
:1092A00048A03622C9F87C65C9F880450EF01BFA43
:1092B0000020414640F28D5289F8BA0509F2BB50B0
:1092C0000EF011FA09F2BA501190C9F83864C9F8D1
:1092D0003C440021308A89F8261B09F25441C9F820
:1092E000C062C9F8B862C9F85464C9F8201B5FF8B5
:1092F000E010A9F8C402A9F8BC020B30C9F8581450
:10930000A9F85C040DF0ABFB03F0D2FDC1B2022959
:1093100000F08F850DF017FD40F0A5840DF025FDC0
:10932000A9F8860509F286500CF0F2FAA9F884052E
:10933000D9F838045FF84821018AC9F8D002C9F881
:10934000C802C9F8600409F58C60C9F864240DF0FE
:1093500001FB01F64640A9F8D412A9F8680401F50A
:109360004060A9F8CC020DF0BBFAC1B2022900F0AE
:109370005C850DF0E8FC40F076840DF0F6FC89F891
:10938000950509F295500CF0D4FA89F89405D9F8AE
:1093900038045FF8A421018AC9F8E002C9F8D802AC
:1093A000C9F86C0409F26C40C9F870240DF0D2FAC7
:1093B00001F64740A9F8E412A9F8740401F54060E9
:1093C000A9F8DC020DF08CFAC1B2022900F0338555
:1093D0000DF0B9FC40F047840DF0C7FC89F8970503
:1093E00009F297500CF0A5FA89F89605D9F83804D7
:1093F0005FF8E421018AC9F8F002C9F8E802C9F867
:10940000780409F58F60C9F87C240DF002FC01F5A1
:109410008770A9F8F412A9F8800401F58070A9F802
:10942000EC020DF01CFB03F0FFFCC1B2022900F0BE
:1094300022850DF088FC40F016840DF096FCA9F80A
:109440008A0509F28A500CF09EFAA9F88805D9F825
:1094500038045FF84022018AC9F80003C9F8F8020D
:10946000C9F8880409F59160C9F88C240DF0A4FDB1
:10947000A9F80413A9F8900401F54060A9F8FC02CA
:109480000DF0EDFA03F036FDC1B2022900F00385BC
:109490000DF059FC40F0E783010E000AAAF8000025
:1094A00050468AF802100CF076FADDF84C905FF81E
:1094B000C022C9F88404D9F83804018AC9F8100315
:1094C000C9F80803C9F8940409F29440C9F898242B
:1094D0000DF040FA01F12800A9F81413A9F80C13B3
:1094E000A9F89C040DF0FCF9C1B2022900F0CF8468
:1094F0000DF029FC40F0B7830DF037FC89F89C058E
:1095000009F29C500CF015FA89F89B05D9F838043B
:109510005FF82423018AC9F82003C9F81803C9F8A1
:10952000A00409F59460C9F8A4240DF013FA01F21F
:109530000510A9F82413A9F8A80401F58070A9F86A
:109540001C030DF08CFA03F00FFDC1B2022900F0EC
:10955000A6840DF0F8FB40F086830DF006FC89F838
:109560009E0509F29E500CF0F5F989F89D05D9F891
:1095700038045FF88423018AC9F83003C9F8280346
:10958000C9F8AC0409F2AC40C9F8B0240DF0E2F916
:1095900001F58370A9F83413A9F8B40401F58070BB
:1095A000A9F82C030DF05BFA03F060FCC1B20229AC
:1095B00000F02B840DF0C7FB40F055830DF0D5FB78
:1095C00089F8A00509F5B4600CF0D5F989F89F0574
:1095D000D9F838045FF8E823018AC9F84003C9F8CC
:1095E0003803C9F8B80409F59760C9F8BC240DF030
:1095F000B1F901F11900A9F84413A9F83C13A9F82D
:10960000C0040DF02CFA03F0AFFCC1B2022900F047
:10961000F8830DF098FB40F026830DF0A6FB89F847
:10962000A20509F2A2500CF095F989F8A105D9F824
:1096300038045FF84424018AC9F85003C9F8480384
:10964000C9F8C40409F2C440C9F8C8240DF082F96D
:1096500001F10F00A9F85413A9F84C13A9F8CC0490
:109660000DF03EF9C1B2022900F001840DF06BFB50
:1096700040F0F9820DF079FB89F8A40509F2A450B5
:109680000CF057F989F8A305D9F838045FF8A0243D
:10969000018AC9F86003C9F85803C9F8D00409F56C
:1096A0009A60C9F8D4240DF055F901F11200A9F817
:1096B0006413A9F85C13A9F8D8040DF011F9C1B22C
:1096C000022900F0BE830DF03EFB40F0CC820DF08D
:1096D0004CFB89F8A60509F2A6500CF02AF989F886
:1096E000A505D9F838045FF8D824018AC9F87003B1
:1096F000C9F86803C9F8DC0409F2DC40C9F8E024C1
:109700000DF087FA01F54660A9F87413A9F8E4048E
:1097100001F54060A9F86C030DF0CEFBC1B202293F
:1097200000F09D830DF00FFB40F09D820DF0FBFAE1
:10973000A9F8BC05D9F838040022018A89F8462B1B
:109740005FF834250DF022FA0DF0F6FBC1B20229C4
:1097500000F06983C10702D0CDF850B0FBE2000AE7
:109760000DF58051A1F860050DF5AB500CF036F900
:10977000139E139DDDF84CC0139C8646D9F88404D3
