:020000040100F9
:1000000000000121B9000001D37A000199310201F9
:10001000D37A0001D37A0001D37A0001D37A0001A8
:10002000000000000000000000000000D37A000182
:10003000D37A000100000000D37A0001D37A0001D6
:1000400000000000000000000000000000000000B0
:1000500000000000C96D0001000000000000000069
:10006000D56D00014D6D000195820001D37A00012C
:10007000E16D0001D37A0001D37A00010000000095
:10008000D37A0001ED6D0001D96C0001D37A000133
:10009000B56D000100000000A18300010000000018
:1000A000D37A0001D37A0001D37A0001D37A000118
:0800B000D37A0001D37A0001AC
:1000B80007F00EFD084809490022814201D004C01A
:1000C800FBE707480749084A814202D008CA08C026
:1000D800FAE706F08DFE00DED8060021EC280021A4
:1000E80000000021D8060021E05C0201824221BF05
:1000F8000B18111A1846704780B56F4611461A46F4
:1001080007F02BF8D0B502AF0446043001F0B2FA7C
:1001180001206060D0BD80B56F4680BDF0B503AFEB
:100128002DE9000F8BB08246DFF8E804CDE9030A19
:100138000AF14C0B9AF86A01CDF808B0DFE800F034
:10014800033D45241800DAF840000AF1280CCAF8E3
:10015800480059469CE87D007DC14FF48171DAF86A
:100168004400CAF864000AF1680022F012FF2DE08A
:100178009AF8CE010AF5E779A0B1032800F0BF800C
:10018800DFF8940407F08EFC9AF8A1010AF2A11591
:10019800DFE800F003171B100D00DAE96320DAF836
:1001A8009C1121E0DAE95C4BDAE95E326BE0DAF8BF
:1001B800A4013AE1DAF8A40126E0DFF8640407F0C4
:1001C80071FCDFF8580407F06DFCFEDE0020CAF869
:1001D8009CB18AF8A1014FF481700AF16802CAE95A
:1001E80063200AF2A1155946CAE95B20CAF894119E
:1001F80000200C318AF888010AF5BA70CAF8A401FF
:10020800CAF89801CAF8741103A901F0E3FCDAE905
:100218005B23DAF894118AF8A00106A801F0A6FA7F
:100228009DF81800012804BF9DF81900012800F066
:10023800F580DDE9060101222A70C2B2022A00F027
:100248002281C20740F02A810AF16805DFF8D42329
:10025800CAF86C11284601F033FADAF86C1128460E
:10026800DFF8C423DAF84840DAF864B001F028FA75
:10027800034600200A468AF8CE01CAE95C4B0AF513
:10028800E779CAE95E31002A55D0DFF8A00319469C
:10029800009006A8012306F0D3FD0798002800F077
:1002A800AC8106980078421E042A44D8DDE908018A
:1002B8004FF0000811250026DFE812F00500C900FC
:1002C8004100DC00BE001225032938D38278D31CF4
:1002D8008B4234D8437801780330CAE9620203F0CC
:1002E800FC0063F30921CAE9604B41EA00208AF85F
:1002F8009681AAF89401AAF8CC01DDF808B00AF5AD
:10030800C07106A801F032FD9DF81800032800F01E
:10031800BC80DDE90686012089F800005FFA88F0D4
:1003280002283FF453AF032800F0B2804FEA1820A8
:1003380040EA066508E04FF0000812250026012073
:10034800DDF808B089F80000DFF8F00207F074FC67
:10035800DFF8EC0207F02CFC5FEAC87006D0012039
:1003680007F03EFC304608F02FF943E1002007F083
:1003780037FCDFF8D00207F01BFCE8B2411E442925
:1003880000F22881DFF8C002DFE811F02F014500F4
:10039800E400DA00D000EE00F200E000EA00D60047
:1003A800E2000201FA00D80006010801C2000E01AD
:1003B800C800F400BE00CA00E800D400FE00CE0069
:1003C800BC00B600D200DC000001DE00B200C600AE
:1003D80004011A01BA00F800B800B400CC00E60025
:1003E80024010C01A800C000EC00F60024011C0147
:1003F8002401F000B000AA0020011801AE00FC00A2
:100408000A01AC00160114012401A6001E012201F4
:1004180010011201C400DFF83003E6E09AF8A001E9
:1004280038B1DAF89801CAF8A40103A901F0D2FB9F
:1004380038BBDAF89411DBE6032940F2E3804288FE
:1004480004328A4200F2DE8009F092FE09E00329B4
:1004580040F2DA80428804328A4200F2D58009F0FC
:100468007DFEDDF808B0B0F1FF3F05DD012089F819
:100478000000ABE61F2562E7064600254FF001089D
:100488005DE704202870032003E0032089F80000BA
:1004980004208AF86A010BB008F085BD000A40EA1A
:1004A800016007F8310CA7F131000690AA4807F05F
:1004B800C3FBAA4807F07CFBA94906A807F09AFBEA
:1004C80007F0BAFCA748CAF8240001208AF86A0194
:1004D80000208AF81800DEE7614886E0704884E06A
:1004E800684882E0614880E063487EE066487CE0D6
:1004F80076487AE06E4878E0794876E06D4874E0AE
:100508006E4872E0774870E07C486EE063486CE0C3
:100518007E486AE04D4868E06B4866E0794864E0E8
:10052800754862E0614860E06F485EE083485CE0DF
:100538006A485AE06E4858E07B4856E0764854E0EE
:100548007F4852E0644850E061484EE078484CE00B
:1005580074484AE07B4848E0534846E0654844E030
:10056800724842E04C4840E073483EE047483CE06F
:1005780070483AE0624838E0464836E04E4834E091
:10058800664832E03B4830E058482EE051482CE0BD
:1005980063482AE04B4828E05E4826E05C4824E0AF
:1005A800334822E03F4820E057481EE029481CE035
:1005B80027481AE02B4818E02B4816E02F4814E08B
:1005C8003F4812E0324810E024480EE02C480CE086
:1005D80021480AE05D485E4CA0471A48A0475D489C
:1005E800A047284607F0FCFA002007F0E1FA0020AF
:1005F80007F0DEFA07F020FCE8E50F4A00200021AA
:1006080006F0B4FC0A4800E00A4807F021FB07F0AE
:100618002DFB00BF044F0201A4460201B4360201BB
:10062800304702014047020150470201DC480201FD
:100638001800000017000000EC4802010700000045
:1006480020000000050000002100000061000000FB
:10065800600000005F0000005E0000005D00000018
:100668005C0000005B0000005A0000005900000018
:100678005800000057000000560000005500000018
:100688005400000053000000520000005100000018
:10069800500000004F0000004E0000004D00000018
:1006A8004C0000004B0000004A0000004900000018
:1006B8004800000047000000460000004500000018
:1006C8004400000043000000420000004100000018
:1006D800400000003F0000003E0000003D00000018
:1006E8003C0000003B0000003A0000003900000018
:1006F8003800000037000000360000003500000018
:100708003400000033000000320000003100000017
:10071800300000002F0000002E0000002D00000017
:100728002C0000002B0000002A0000002900000017
:100738002800000027000000260000002500000017
:1007480024000000230000002200000062000000D6
:10075800B97B0001670000000E00000001000000E6
:10076800403602011F010001F0B503AF2DE9000F6B
:10077800ADF6A42D8246DFF8F80BCDE9050A9AF804
:100788000001DFE810F00500EF03230457004800DC
:10079800DFF8EC1BDAF82800CAF82C00EFF3108019
:1007A80072B68A79012A00F0E1830122C0078A71B2
:1007B80000D162B6D74D284607F0D4FCD649C0B25E
:1007C80000280D6000F0D583D4480121002200F1F3
:1007D800FC05C0F81015C0F8FC200160284607F099
:1007E800ADFC0028FAD0DFF89C8B00244FF00109FB
:1007F8004FF0FF35082C2BD058F8046006F1240080
:1008080000F038FF06F12000C6F8249000F032FF0F
:1008180035620434EEE79AF828020AF50A740028CB
:1008280000F00781032840F0A683DAE98796DAF812
:100838002452CCE39AF88D010AF58478002800F058
:10084800FD80032840F09B83DAF8600100F014BDB6
:10085800B3484FF48062B3490023B34CC0F88021F9
:100868004B7102604FF00043B04A13604FF400032D
:10087800AF4A9364AF4BC3F8044301249C601C60E7
:100888001368002BFCD10024D0464C744FF480012F
:1008980001604FF48021A84AC0F8801101600F213F
:1008A800DFF8E40A012548F8300F91468DF8B84082
:1008B80088F8BC100E2188F8B0100D2188F8A41013
:1008C8000C2188F898100B2188F88C100A2188F8D8
:1008D8008010092188F87410082188F86810072109
:1008E80088F85C10062188F85010052188F8441013
:1008F800042188F83810032188F82C100221C8E94F
:100908002D02C8E92A02C8E92702C8E92402C8E971
:100918002102C8E91E02C8E91B02C8E91802C8E991
:100928001502C8E91202C8E90F02C8E90C02C8E9B1
:10093800090288F82010C8E9060288F81450C8E9A6
:10094800030288F80840C8F80420CDE92C452CAEED
:10095800304601F0F7F9C0B2102803D005FA00F0CC
:100968000443F5E72D9800F091FEC9F810450125DC
:1009780000249AF838B0DAF834908DF8B8502D95EC
:100988002C942CAE304601F0DDF9C0B2102803D00B
:1009980005FA00F00443F5E72D9800F077FE09EB1F
:1009A8008B0505F5B26000F065FEDFF8E019DFF8A9
:1009B800E009C5F89045401ADFF8D829A0F10805E4
:1009C800DFF8D409CAE93C214146801A0C22A0F17B
:1009D800080B06F11300CAE93EB5DAF834409AF874
:1009E800389022F0CFFB0DF11C0831461F224046FB
:1009F80022F0C8FBDFF89409414604901F22CAE997
:100A08004B0B0AF26D10CDF808902E468AF86C91BF
:100A1800DFF880990394CAF86841CAF82891CAF89F
:100A2800345122F0AFFB00200AF584788AF88D0152
:100A38000FE0DAE98496DAF81852E4E39AF86C01E0
:100A48000290DAF868010390DAE94A90DAE94CB6DC
:100A580004900AF5C0700AF5B87490E82C004BEAC7
:100A68000600214680072CC107D1BBF1180F80F082
:100A78005C814FF01009002502E04FF010090125B4
:100A88000020A7F140018AF88C0110A81E2222F04C
:100A980079FB01208AF88D01B9F1110F37F8200C84
:100AA800ADF83C0017F81E0C8DF83E0000F02B84C2
:100AB80019A810A91E2222F065FBBDF83C00B9F167
:100AC800100FADF860009DF83E008DF8620035D13A
:100AD80004988DF81D008DF81C5007A82C90DFF89D
:100AE800440907F0A9F8DFF8400907F061F8DFF8D2
:100AF8003C192CA807F07EF807F09EF901208AF827
:100B08000001DFF82C09CAF8240000208AF8180030
:100B180000F0FCBBFA50FA5044650041085000410F
:100B280000E100E005E400E00200080004A3004141
:100B38000465014100600141002001410DF1880870
:100B4800039519A91E22404622F01CFBFA20EE4DFF
:100B5800ADF8AC000220ED4900248DF8AA004FF44E
:100B68008050ADF8A8004FF0800B4FF480108DF83E
:100B7800AE4085F80FB0C1F880011421BDF86000BF
:100B8800ADF884009DF86200DFF824288DF886000F
:100B98002AA821F0A9FAB0F1FF3F40F3F481EC70E4
:100BA80001202C73EC7185F800B0DFF8D4B7DBE8CE
:100BB800CF1F002940F0BC81CBE8410F0029F6D1B6
:100BC800DFF8F817002040F20112382800F0C18140
:100BD8000E18383006F1180353E8004F24B943E8DB
:100BE8000024002CF8D102E0BFF32F8FEDE7DFF8E7
:100BF800D007706206F1280000F066FCDAF82C00D5
:100C0800314607F00FFAC24E3046FFF77BFABF4A6B
:100C180001204FF40071C6F80803C2F88011116072
:100C28000BF11C01D1E8CF2F002A40F08181C1E8E7
:100C3800420F002AF6D10BF12000CBE90506DFF8B8
:100C48008407012100F51B60D0E8CF2F002A40F06F
:100C58006F81C0E8421F002AF6D1DFF868072CA987
:100C68004FF41B6221F0BCFFDFF85C0708F0C4FBFF
:100C780000240646002858BF264600F1A18108F046
:100C880013FD002848BF044600F1818108F020FDCB
:100C98000646002858BF002600F1928101208DF8F1
:100CA800B0002CA9022007F0D5FD002840F058819B
:100CB80040F20330ADF8B4004FF048102C902CA946
:100CC800032007F0C7FD002840F04A8100200021DA
:100CD8000022002408F0DCFB0646002800F17081A1
:100CE8004FF41B60B0424FF0000038BF012088BFAE
:100CF8000124201AC0B258B1012840F05681DFF80B
:100D0800CC0606F099FF304606F05CFF07F094F831
:100D18005BE8020F80B90BF108000BF11401C0E881
:100D2800E21F002AF4D1012009E00025182E80F0E6
:100D3800B8804FF01009A3E60020BFF32F8F0028DA
:100D480000F02781DFF88C062C902CAD284608F09F
:100D5800D3FCB0F1FF3F40F30381DFF87C06DFF8F6
:100D6800641608F05FFCB0F1FF3F40F315810BF10A
:100D78004C000121D0E8CF2F002A40F0D980C0E8EC
:100D8800421F002AF6D10020594641F8340F0222AA
:100D9800A7F15406CAF808120A7137F85B2C0875CF
:100DA800088137F85E0CA1F8052017F8592CA1F82E
:100DB800150017F85C0CCA710C22C87508F11201ED
:100DC800304622F0DFF9BDF8840027F8580C9DF86A
:100DD800860007F8560C07A8B8E81E001EC0B8F829
:100DE8000010018001200BF16801D1E8CF2F002A03
:100DF80040F09E80C1E8420F002AF4D100240498F4
:100E08004BF8504F12228BF8050003988BF804001A
:100E18000BF1060007A922F0B5F9DAF80802CAF8BA
:100E28000CB2CDE92CB005F1080096E80E000EC012
:100E380040F20111019832900298319037F8580C1D
:100E4800ADF8CD0017F8560C8DF8CF00DFF88C05FB
:100E58008DF8CC90B4F5E87F7BD0051904F5E874DB
:100E680005F1180252E8003F23B942E80013002BAD
:100E7800F8D102E0BFF32F8FECE7DFF86405686272
:100E880005F128002CA900F00AFBDAF82C00294605
:100E980007F0C8F80AF5827040F2031122F079F8D9
:100EA800A0E15FEA89708AF88C5133D104998807E8
:100EB80037D145464FF0000802980D22C9E900884D
:100EC8008AF824010AF5847080E8420B0398DFF859
:100ED800DC14CAF820010AF58A70CAF81C8100F0EF
:100EE800B3FCC0B2022809D18AF84C81A8460AF599
:100EF8009C70CAF83841CAF87C01D0E104904FF0E0
:100F080010090225BCE500BF05E400E000E100E0AF
:100F180000900041DFF884042A21DFF8842406F0D9
:100F280062F9DFF880042A21DFF87C2406F05BF9F7
:100F380000200121BFF32F8F30902D91DFF874141A
:100F48002C912F900420DFF870142E902CA806F016
:100F58002BF8DFF8C00406F06FFE00F0E7FB7FE136
:100F680006462DE0DFF8140406F09CFDDFF8C40403
:100F78007BE107F027F9DFF8FC0306F093FDDFF8C3
:100F8800F80306F08FFD0646DFF894041AE02646BB
:100F980016E0DFF83C0468E1064608F073FB0BF145
:100FA80008000021C0E8AF1F0AE0DFF86C0406F073
:100FB80043FE304606F006FE06F03EFF6FF01506CB
:100FC800DFF8580406F038FE304647E1FEDE6808D0
:100FD800802840F235810020A7F1400147F8400CF5
:100FE800304609F0E4F8012300287ED457F8400C75
:100FF80004280AD0022840F03781DAE98B5601200C
:101008004FF0020B8AF828028AE007A831462A46E0
:1010180005F036FF089900234FF0040B002966D02D
:101028009DF81C000E2862D19DF81D20099B934253
:10103800C0F000812CA805F079FF2D99002900F057
:10104800E7802E9A0023022A51D3DFF89C0302235B
:1010580000902CA805F0F4FE2C9D02222E980390F7
:101068002F9E2CA907F0F4FE2D880023002D3ED0DA
:10107800EEB3DD48324600902CA80399012305F011
:10108800DFFE2E9801222C9E03902F9802902CA907
:10109800304605F0BBFE002342F28300854226D18C
:1010A80035782CA8DDE9022105F01EFF2D980028CF
:1010B80000F0AE802E980023C8B9BDF8B0200223F6
:1010C800D9E90310A9F80C20B9F80820A9F80830C4
:1010D800012389F80A506FF02205012A049505D1E9
:1010E8004968884701236FF022000490C3461BB16A
:1010F8000498233000F08E800120002B207040F0EF
:10110800A9805FFA8BF0DAE98B560138DFE800F046
:101118000308314B0D00032EC0F09480A87840E0FE
:10112800042EC0F08F80B54C03E0042EC0F08A80F6
:10113800B04C002007F065FD022007F062FDAA48C8
:10114800294600902CA83246042305F079FE2C9CF1
:101158002CA90422204605F059FE20680421B0F588
:101168007F0F01EB104429D3A5482A21A54A06F090
:101178003AF8032E66D3A04C002007F042FD022067
:1011880007F03FFD9848294600902CA832460323D3
:1011980005F056FE2C9C2CA90322204605F036FEAD
:1011A800A078C41C0AE02CA82946324605F068FE3F
:1011B8002D9800285DD09DF8B100841CDAF80C0247
:1011C80091498AF804B100F06DFA0D460AF582716A
:1011D800621C00F039FBC0B2022826D12868D84624
:1011E800013028600AF205164FF481750020DAF8FC
:1011F80008928AF828020AF50A74CAE98B65CAE9CE
:101208008496CAF81852CAE98796CAF82452DEE6C4
:1012180000236CE75A48524655490C3007F02CF920
:1012280003208AF8280204206EE08DF8B0002CA86C
:1012380006F05EFB6D4C10461946224605F0B0FFDD
:10124800684812E00024714806F0F6FC204600F0D9
:101258007FFA05E06E4806F0EFFC049807F0B4F951
:1012680006F0EAFD06F002FD614806F0F1FC06F022
:10127800FDFC9DF8B040E6E705A900F0ABFCF0B135
:101288009AF85801A0B306F0DBFE02460B46DAE9ED
:101298005401121A73EB01022CD307F017FE06F063
:1012A800CFFE00228AF8582110F12102DAF87C01D9
:1012B80041F10001CAF86001CAE95421DCE707F0EE
:1012C80005FE2CAE202107F031FEA7F1480041466B
:1012D8003246202300F04AFA17F8480C012819D1A1
:1012E80017F8470C4FF0100904900325FFF7C8BB07
:1012F800DAE9540105AA06F07BFF03208AF88D017C
:1013080001208AF8580103208AF800010DF6A42D5F
:1013180007F049BE25492CA80D2221F091FE20B1E5
:101328004FF010090425FFF7ABBBA7F140069AF868
:1013380015010AF58B710490304612229AF814515F
:1013480021F020FFBAF879010C2227F8200C9AF82E
:101358007B0107F81E0CDAE95C019AF87891CDE96F
:10136800011006F11200414621F00CFFFFF788BB7F
:10137800044F02011C3B0201D4360201C44602019B
:101388001C1700212C36020190160021008007202E
:101398000088072000000720000807204C370201BA
:1013A8007837020188370201B4370201C4360201D6
:1013B800A5870001CC340201D4340201D8060021EB
:1013C80041140001100700212988000108000000CD
:1013D80016000000C51C000115880001001300213B
:1013E8002501000119000000CC480201085702013C
:1013F8001A0000001C4902010C490201FC480201C4
:10140800D446020100470201104702010D00000006
:101418000C00000010000000150000000B00000088
:101428000A0000000900000001000000C843020192
:101438001F01000111000000D0B502AF044690F86A
:10144800340040B1032817D194F83000012806D1A0
:101458000B4806F027FB0020A16AC4E90B100A48D4
:1014680022460A4907F008F821F0B2F8032084F868
:10147800340084F83000D0BD024806F013FB00BFEA
:10148800C4440201B446020110170021044F0201AE
:1014980080B56F460022016080F8D82080BDF0B585
:1014A80003AF2DE9000B01F10808D1E900CE04468D
:1014B80098E86E0284E86E02002180F84211C0E9C3
:1014C80006CEBDE8000BF0BD80B56F460021017364
:1014D80001490131016080BD1C17002180B56F46AC
:1014E8001F490446002040F20112B0F50E7F2ED0AD
:1014F8000D1800F50E7005F1180353E8006F26B9B2
:1015080043E80026002EF8D102E0BFF32F8FECE766
:101518001448686205F128002146FFF7B9FF204604
:10152800294606F07FFD0025D4E8EF0FC4E8E15F07
:101538000029F9D105E0C6694576416A29B188478D
:1015480030460028F7D120BFEEE706F033FD064805
:1015580006F072FB00F0EAF806F06EFC06F086FB77
:10156800C81000217107000110000000DCB504AFAD
:10157800006810F8012BDFE802F0031D0F140900C2
:10158800D1E900010822CB68154918E0D1E900012A
:101598001122CB680C4912E00E4C6A460E4B0090A3
:1015A80003E0019001AA094C094B0846214606F0C0
:1015B80017FADCBDD1E900010B22CB68074902B05C
:1015C800BDE8D040184700BF50360201043502017B
:1015D800ED150001E4340201191600013436020148
:1015E8001C360201D0B502AF0068074A007852F8ED
:1015F8002040064A52F82020D1E90001CB68214654
:10160800BDE8D040184700BF6C470201604702019F
:1016180080B56F460068BDE8804000F08FB9D4D42B
:101628000AB130B129B10B1A38BF431A934228BF07
:10163800704780B56F46014807F056FB64530201B6
:10164800013018BF704780B56F460248BA2106F0CE
:1016580096F900BF24350201810702D108B100685C
:10166800704780B56F460248E32106F088F900BF4D
:10167800144F0201810701D100B1704780B56F4650
:101688000148E42106F07BF9F74F0201022838BF30
:10169800704780B56F460248DA2106F070F900BF3E
:1016A800343202010246006828B94FF0FF31104673
:1016B80002C01146704780B56F46084606F015F817
:1016C800B1F5817F98BF704780B56F4608464FF4E3
:1016D800817105F065FDD4D4D0B502AF86B09A42C9
:1016E8000DD3D21AB2F1FF3FC1BFCC1880E81A005F
:1016F800C26006B0C8BFD0BD054807F076FB07F04A
:1017080009FC044A02906846009205F04DFC00BFAF
:101718007F5402018447020180B56F460248BDE844
:10172800804006F045BA00BF71000000D0B502AF96
:101738000448054CA0470548A04700202146BDE8BD
:10174800D040084705000000B97B00016800000090
:10175800D0B502AF0446044806F02AFA04F00100A6
:10176800BDE8D04006F03CBA63000000F0B503AF16
:101778002DE9E00FD1F8008004460D4608F1040079
:10178800D0E8AF1FA868814202D10120607057E0FD
:10179800D5F804B008F1080600F1040A0021DA457A
:1017A80028BF8A46305A00BAB3EB104F01D2617095
:1017B80004E0030C9B4503D20220607001203FE047
:1017C8009146ABEB0A02934202931CD906EB0A003E
:1017D800494601909046FFF723FF01994846424643
:1017E80021F0D0FC0298C144A0EB080830464946D5
:1017F8004246FFF715FF48463146424621F0C2FCF3
:10180800D5F800800CE006EB0A0049461A4601901C
:101818001E46FFF705FF01994846324621F0B2FC03
:10182800029A51420AEB020001F003010844B0EBAE
:101838000B0138BF01460020A960C8E8AF1F6260ED
:101848002070BDE80E0FF0BDF0B503AF2DE9000F15
:1018580089B0D0F800B0044680688C46DBE8AF1F3A
:101868001646C24381429CBF1144626811447242C9
:1018780002F00302002502EB060808F10402914277
:1018880055D331BA0BF10809090CD4F804A049F86A
:1018980000100430504538BF0546AAEB05039E42A8
:1018A80028D925486146009005A83246FFF714FF5D
:1018B800059909EB0506DDE906200191CDE9030A42
:1018C80008989246029008463146FFF7A9FE01990A
:1018D8003046524621F056FC039E4946DDF808A0E2
:1018E80030465246FFF79CFE5246DDF810A04846A7
:1018F80031460AE0A94460463246CDF810C0494650
:10190800FFF78EFE48460499324621F03BFC05EB72
:101918000800B0EB0A0138BF01460BF10400A160D2
:10192800C0E8AF1F217CE06806F00FFC02252846BE
:1019380009B0BDE8000FF0BD3C37020180B56F4625
:101948000078084A084B002818BF13464FF01402C5
:1019580018BF0C22D1E90001D1F80CC01946BDE826
:1019680080406047F8370201E4370201F0B503AF61
:101978004DF804BD86B00446032A0CD90B4804234D
:10198800009002A805F05CFA029D0422059E02A9B7
:1019980007F05EFA2EB1002060700120207007F079
:1019A8009BBA286860600020F8E700BFCC480201B5
:1019B800BCB504AF0C46054669462046082205F02A
:1019C80025FA20686168C5F801000020C5F80510EF
:1019D8002870BCBD02290A463CBF01207047B0B53B
:1019E80002AF86B001460A48009002A8022305F01B
:1019F80027FA029C0222059D02A9204605F006FA54
:101A08000DB1012001E02088000406B0B0BD00BF80
:101A1800CC480201F0B503AF4DF804BD86B00446CA
:101A2800042A0CD90E480523009002A8FFF754FE9B
:101A3800029D0522059E02A907F07BFA2EB100201F
:101A480060700120207007F047BA28792968617012
:101A5800090A41EA0060C4F802000020F2E700BF6A
:101A6800CC480201D0B502AF86B00A460146094803
:101A78000023009002A8FFF72FFE02980022059C81
:101A880002A9FFF7CDFDB4FA84F04009400006B082
:101A9800D0BD00BFCC480201F0B503AF4DF804BD7E
:101AA80086B00446062A0CD30E480623009002A8E6
:101AB80005F0C6F9029D0622059E02A907F0C8F99D
:101AC8002EB1012100202170607007F005BAA988A5
:101AD80028680A0AA271020A42EA0161C4F80210DF
:101AE8000021F0E7CC480201F0B503AF4DF804BD82
:101AF80086B00A46A1B101460078012813D80D48DE
:101B08000123009002A8012405F09AF9029D012200
:101B1800059E02A907F09CF91EB92978002404E063
:101B28000124002101E001210124204606B05DF8CE
:101B380004BBF0BDCC480201F8B504AF0A46014623
:101B480001A805F0F3F902989DF8041028B103984C
:101B580000281CBF0021012000E0012004B080BD46
:101B6800BCB504AF0C4601A90546204607F08BF921
:101B7800206800212970C5F80100BCBDB0B502AFCE
:101B880086B00A4699B101460B48009002A8012385
:101B980005F056F9029D0122059C02A907F058F9A3
:101BA800002C18BF0124297818BF002101E0012466
:101BB8000021204606B0B0BDCC480201DCB504AF18
:101BC800A7F109010122044605F020F92178002037
:101BD800DCBDD4D4F0B503AF2DE9800F0446007DF9
:101BE800884618B1032852D1266917E0D4F800A016
:101BF80026469AF80890554646F8049F55F804BFBB
:101C08000BF54170FFF736FD012000FA09F0CBF81B
:101C18000403DAF80000F660C6E9015030680F28BE
:101C280031D8E16801EBC000D8E9001206F024FCC5
:101C38003068102822D2A568296801EB800000F5D9
:101C48008070FFF709FD8046012801D003200DE0D0
:101C58003068102812D2296801EB800505F58070DC
:101C6800FFF708FD0020C5F8000101202075B8F134
:101C7800010018BF0120BDE8080FF0BD07481D216D
:101C8800074A05F0B0FA044A102105F06FF9014837
:101C980005F008FF1034020120340201203A020145
:101CA800403A0201884238BF704780B56F46024803
:101CB800D62105F064FE00BFF8380201F0B503AF85
:101CC8002DE9000704461C480830D0E8AF8FB8F16A
:101CD800000F2CD044B3D8F804600D463046FFF707
:101CE800C9FC01202544306006F5A16906F5807617
:101CF8004FF0000AAC420FD03046FFF7ADFC002889
:101D0800FAD03046FFF7B6FC4846C6F800A0FFF701
:101D1800A3FC04F8010BEDE7D8F80400BDE80007C0
:101D2800BDE8F040FEF7EEB9044806F0DDFF0448D0
:101D380005F08EFF05F09AFF1C1700219655020149
:101D480014000000B0B502AF0446D0E90050A84224
:101D580001D11020B0BD2846FFF772FC681C206036
:101D680028460121FFF79EFF207AB0BDF0B503AFEA
:101D78002DE9000FADF5057D06906AA800F1050B69
:101D8800C41C887D01F118088946DFE810F084003A
:101D980054243E264907F5043607870528095201C9
:101DA8007801B404FF019907C4077804A0088807DC
:101DB800C702F302AC07E20860019A01DB02620382
:101DC800DB012902B809E209B102210A630ACD0A36
:101DD800FD05AD0A11024C0A30065F02E505C30194
:101DE8007A0A970A84027209710757078701B201B4
:101DF8009704C2041C03F301090A50025D06AA03F2
:101E0800A2096009FD082F034102D503390A1A0403
:101E18000803910612059505A1067806FF045F08D8
:101E28008904450896031A09D60853033E09D209BE
:101E38007602CE046A048203500928072B049D0207
:101E480056084706EA042508B5084003C703B9033E
:101E5800FC03540413071506FE068B087908E903EA
:101E6800C908460556056C086407AF066A063808AF
:101E7800D60623060B0477053F04BC062005A604F6
:101E8800E4063205F106B405C9068306DC04A60596
:101E98006405C205D005D9F8081000250391D9F8C2
:101EA8000C10D9E900030491B9F81410C9F810000E
:101EB80042F201000A1A1120962A01F2978202932F
:101EC800DFE812F09700EB19561B800AB719961B2A
:101ED8003E1C5419A51CD919081B601BD617C41819
:101EE8009B1CCC171E1CD71A8A1A5E181C198B1C2F
:101EF800031ED31CC21D491AC21E4F1E800A800A27
:101F0800800A800A800AE71CA61E2A1F800A800A07
:101F1800CE18001CCF191219800A800AF71A7A1FE6
:101F2800941F6A1DD31F751D800A800A3619342034
:101F3800800A800A800AB01EAD192C173F179E1F11
:101F4800800AFD1F800A5821800A76185417F52048
:101F5800431D1C1DDD1CC217121DB021CF164C1CC1
:101F6800800A800A800ACD1E800A800A800A800AB8
:101F78001F1A2C19B9218219C8200F215E17800A4F
:101F8800800A800A800A800A800A800A800A800AF9
:101F9800800A800A800A800A800A800A4917800A13
:101FA800800A800A800A800A800A021F800A501F5D
:101FB800F519F516D721591E800A9A17800A800A42
:101FC8000122800A800A800A800A800A800A7F1615
:101FD800800A800A800A800A800A800A800A800AA9
:101FE800800A800A800A800A800A800A800A800A99
:101FF800932104980828C4F0BA80DFF87C080823E5
:1020080000903AA806F0A3FD3A9C08223D9D3AA903
:1020180006F015FE4FF0000A002D44F0CA8206F0C3
:1020280057FE0299426000F804AC40E9031000F042
:102038000BBE06F007FE44F01383D9F8200008F021
:10204800E3F806F055FE40F6314101F0B6B806F067
:1020580019FE44F00983D9E9060406F017FEC0B258
:1020680028B9204608F01CFA002802F0DC8000217C
:10207800012289F8202042F2080201F06AB906F02C
:1020880098FE44F0F582D9F82480404608F0BEF85E
:1020980006F0CBFE40F6334101F08FB806F0F2FDB2
:1020A80044F0EA8200208DF8AA01ADF8A8016AA8D8
:1020B80008F0ECF90446002801F01F84200201F022
:1020C80022BC06F0DFFD44F0DB82D9E9060406F005
:1020D800DDFDC0B228B9204608F0E4F9002802F076
:1020E800A5800021012289F8202042F2090201F08E
:1020F80030B906F0C7FD44F0C78206F035FF80A866
:1021080008F0C6F90446002801F0028406F027FD0D
:1021180001F005BC06F0B6FD44F0BA82D9E9060420
:1021280006F053FD06F008FF05D1204608F01BFA1B
:10213800002802F07E80002189F8205042F24702F0
:1021480001F0B5B806F07EFD44F0A682D9E907048F
:1021580006F09CFDC0B228B9204608F0A9F900286D
:1021680002F0A0800021012289F8242042F20C020A
:1021780001F0EFB806F086FD44F0928208F0A0F96D
:1021880006F04FFE42F2100101F017B806F05AFDB2
:1021980044F08A82D9F8200000216A916AA908F0DF
:1021A8003EF80446002801F08C85204601F08EBDDB
:1021B80006F048FD44F07C82D9E9070406F005FDE5
:1021C80006F0BAFE05D1204608F0C3F9002802F04F
:1021D8005A80002189F824504FF4015201F067B861
:1021E80099F83C00C00744F06782D9E90D04002142
:1021F80006F03CFBC0B228B9204608F05BF900287D
:1022080002F044800025012189F83C1000F02DBF20
:1022180099F83C00C00744F05382D9F8384020466A
:1022280008F060F9012189F83C1000F01ABF06F0A7
:10223800C0FD44F04982D9F82480404608F044F9AA
:1022480006F0F3FD42F2120100F0B7BF06F01AFDE6
:1022580044F03E82D9F8180006F0A6FC06F070FE9D
:1022680004D108F07CF9002801F0A787002189F83B
:10227800204042F2450201F06CB806F0E3FC44F05D
:102288002B82D9F8200008F07AF906F031FD42F2E5
:102298004D0100F092BF06F0F5FC44F02182D9F818
:1022A800180006F081FCC0B238B906F03BFE3AA827
:1022B80008F05FF9002801F0838742F2070189F8E6
:1022C8002040433101F029B806F073FD44F00C8238
:1022D800D9F8248006F08DFE3AAC4046214608F035
:1022E8005EF90546002801F06185280201F067BD06
:1022F80006F0C8FC44F0FC81D9F81800CB4601214F
:102308004FF0010806F0B2FAC4B24FF00009002CF1
:1023180001F023830025002601F031BB06F0B2FC52
:1023280044F0EA810026ADF8AC616A966AA808F024
:10233800A6F80446002801F0C781254600210020A0
:1023480001F0D2B906F07EFC44F0DA81D9E907043D
:1023580006F09CFCC0B228B9204608F0A5F8002871
:1023680001F039870021012289F8242042F20A026B
:1023780000F0EFBF06F066FC44F0C681D9F82000F3
:1023880000218DF8AA11ADF8A8116AA908F025F95D
:102398000446002801F0B584200201F0B8BC06F01C
:1023A80008FD44F0B581D9F8248006F022FE3AAC45
:1023B8004046214608F0A5F80546002801F00385A7
:1023C800280201F009BD06F05DFC44F0A58106F085
:1023D800A9FD3AA808F072F8002801F0ED8206F08D
:1023E80020FD42F20701083100F097BF06F04AFCD1
:1023F80044F0968106F0B8FD80A808F071F804460C
:10240800002801F0E58206F0AAFB01F0EEBA06F01A
:1024180019FC44F08981D9F8200006F0DAFD3AACBD
:10242800214608F0D0F80546002801F0FF8528026B
:1024380001F005BE06F0BDFC44F07A81D9F824808D
:10244800404608F078F806F0F0FC42F2350100F05A
:10245800B4BE06F0AEFC44F06F81D9E9080800214B
:10246800002406F003FAC0B228B9404608F01EF866
:10247800002801F00E87002101228DF8EE4089F82E
:10248800282042F20B02ADF8EC20FA4A3A9200F00A
:1024980066BF06F0D7FB44F05381D9F8208006F0D8
:1024A800A8FD3AAC4046214608F071F805460028D8
:1024B80001F0A285280201F0A8BD06F0C3FB44F094
:1024C8004381D9F8200000216A916AA908F02DF803
:1024D8000446002801F0A78200202546002101F0CB
:1024E800B6BA06F066FC44F03381D9F82480404639
:1024F80007F0EEFF06F099FC42F2140100F05DBE11
:1025080006F0A0FB44F02881D9F8200008F051F823
:1025180006F0EEFB42F2740100F04FBE06F092FBAB
:1025280044F01E81D9F8200008F051F806F0E0FBCD
:1025380042F27C0100F041BE99F83400C00744F033
:102548001381D9F8300006F044FD3AAC214607F073
:10255800CBFF0546002801F04384280201F049BC5E
:1025680006F070FB44F00481D9F8208000206A90BE
:102578006AA9404607F0EAFE0546002801F0CC8328
:102588002C4601F0D4BB06F05DFB44F0F580D9F889
:102598002080404608F00BF806F0AAFB42F29701AB
:1025A80000F00BBE06F005FC44F0EA80D9F8248060
:1025B800404607F028FF06F038FC4FF60E5100F0B1
:1025C800FCBD06F05FFB44F0DE8006F0CDFC80A881
:1025D80007F092FF0446002801F04D8206F0BFFA8A
:1025E80001F056BA06F0E5FB44F0D180D9F8248012
:1025F80006F0FFFC3AAC4046214607F0CCFF054602
:10260800002801F0FC83280201F002BC06F01AFB46
:1026180044F0C180D9F8200000218DF8AA11ADF846
:10262800A8116AA907F0E5FE0446002801F02A81EE
:10263800200201F02DB906F025FB44F0AF80002000
:102648006C90CDE96A006AA807F0EDFD0446002801
:1026580000F00C870025204600264FF0000A00F005
:102668001CBF06F0EFFA44F09D80D9F8200007F06F
:102678008CFF06F03DFB42F2520100F09EBD06F0D1
:1026880001FB44F0938006F06FFC80A807F0EEFE93
:102698000446002801F03B8006F061FA01F03EB8DC
:1026A80006F0D0FA44F08680D9F8200007F039FF08
:1026B80006F01EFB42F22E0100F07FBD06F079FB0A
:1026C80044F07C80D9F82480404607F0E3FE06F009
:1026D800ACFB42F2050100F070BD06F0B3FA44F01D
:1026E8007180D9F8200007F0A1FE06F001FB4FF633
:1026F800155100F062BD06F0C5FA44F06680D9F8BD
:102708001C0007F087FD06F08CFB40F6634100F0E3
:1027180054BD06F0B7FA44F05C8007F0CDFE06F031
:1027280080FB42F20E0100F048BD06F0ABFA44F01F
:102738005480D9F81C0007F024FF06F072FB42F21F
:102748004E0100F03ABD06F07DFA44F04A80D9F80F
:10275800200007F07FFE06F0CBFA4FF61C5100F080
:102768002CBD06F06FFA44F03F80D9F8208040462F
:1027780007F023FF00F073BC06F064FA44F03780DA
:10278800D9F8200007F027FF00F069BC06F07AFAB4
:1027980044F0318006F0C6FB3AA807F0BEFE0028D8
:1027A80001F0938106F03DFB42F20701233100F06E
:1027B800B4BD06F047FA44F02280D9F8200007F0AB
:1027C800A4FE06F095FA42F2240100F0F6BC06F0E9
:1027D80039FA44F01880D9F8200000216A916AA9D2
:1027E80007F015FE0446002801F05780204601F046
:1027F80059B806F027FA44F00980D9F820000021DA
:10280800CDE9801180A907F015FE0446002801F0E3
:102818004D8006F0A4F901F050B899F82C00C007D3
:1028280043F0F787D9F8280007F09DFD012189F8C2
:102838002C104FF6025100F0C0BC06F003FA43F02A
:10284800EB87D9F8200007F0C0FD06F051FA4FF6E3
:10285800035100F0B2BC06F0ACFA43F0E087D9F8B7
:102868002480404607F0FAFD06F0DFFA4FF61E51C5
:1028780000F0A3BC040E0401CC48020199F82C0016
:10288800C00743F0CF87D9F8280007F0B0FD012131
:1028980089F82C104FF6105100F08FBC06F0F2F9B1
:1028A80043F0C387D9F81C0007F098FC06F0B9FA82
:1028B80040F6014100F081BC99F84800C00743F098
:1028C800B887D9F84440204607F021FE012189F84D
:1028D800481042F2270100F070BC06F0B3F943F04B
:1028E800AB87D9F8200007F0B7FD06F001FA4FF6DC
:1028F8001D5100F062BC06F0A5F943F0A087D9F895
:10290800200007F09EFD06F0F3F94FF6195100F08C
:1029180054BC06F097F943F09587D9F8200007F0E2
:102928009FFD06F0E5F94FF61F5100F046BC06F092
:10293800A9F943F08A87CDF814906AAE172106F0FA
:10294800F5FA304607F099FC8046002800F0E58546
:1029580006F0A0F900F0F8BD06F074F943F07887A6
:10296800D9E9070406F031F906F0E6FA05D1204660
:1029780007F0F7FD002801F05384002189F824505E
:1029880042F2460200F093BC06F013FA43F0648763
:10299800D9E9080806F008F906F0D2FA05D1404648
:1029A80007F0D5FD002801F04784002189F8284068
:1029B80042F23E0200F0CDBC06F0FBF943F050872E
:1029C800D9F82480404607F056FC06F02EFA4FF658
:1029D8000641F2E306F036F943F04587D9F82000BE
:1029E80007F00BFD06F084F94FF60D51E5E399F871
:1029F8003000C00743F03A87D9E90A0401210126CB
:102A080005F034FFC0B228B9204607F0A6FD00281B
:102A180001F01584002589F8306026E306F012F9E4
:102A280043F02887D9F82080002540468DF8AC511E
:102A38006A956AA907F0BFFD0446002801F0938251
:102A48002646002001F0A8BA99F83000C00743F0E4
:102A58001487D9F82C0007F039FD012189F83010C6
:102A6800FFE206F0EFF843F00B87D9F820804046E4
:102A780007F0B7FC06F03CF94FF609519DE306F064
:102A880001F943F0008707F046FD06F0CAF942F263
:102A9800290192E306F08DF943F0F886D9F82480ED
:102AA800404607F0CCFC06F0C0F94FF61B5184E312
:102AB80006F0E8F843F0ED8600206A906AA807F06F
:102AC80022FD0446002801F00B80204601F00DB8D5
:102AD80006F06FF943F0E086D9F82480404607F005
:102AE80018FD06F0A2F942F2280166E306F0AAF8FA
:102AF80043F0D586D9F8200007F071FC06F0F8F805
:102B08004FF6065159E306F09DF843F0CB86D9F805
:102B1800200007F07AFC06F0EBF84FF612514CE370
:102B280006F090F843F0C186D9F8200007F08CFC35
:102B380006F0DEF84FF61A513FE306F083F843F04B
:102B4800B786D9F82080404607F055FC06F0D0F843
:102B58004FF60C5131E306F075F843F0AC86D9F81E
:102B6800200007F065FC06F0C3F84FF6165124E381
:102B780006F068F843F0A286D9F8200007F05CFC5C
:102B880006F0B6F84FF6185117E306F07BF843F055
:102B98009886CDF814906AAE202106F0C7F9304621
:102BA80007F08FFB8046002800F0078506F072F8D2
:102BB80000F01ABD06F066F843F08686CDF814904A
:102BC8006AAE402106F0B2F9304607F048FB80466D
:102BD800002800F0428506F05DF800F04ABD06F0D6
:102BE80031F843F07486D9F82080404607F0CBFCD2
:102BF80006F07EF842F25901DFE206F043F843F0AE
:102C08006986D9F818100868002843F0188502204A
:102C1800087107F0E9FA06F004F940F60341CCE23E
:102C280006F010F843F05986D9F82080404607F09E
:102C3800D0FC06F05DF840F20641BEE206F022F84C
:102C480043F04E86D9F81C0007F01BFC06F0E9F8A3
:102C580042F20101B1E205F0F5FF43F04486D9F8EC
:102C6800200007F0BAFB06F043F84FF60551A4E23E
:102C780006F09FF843F03A86D9E9080805F094FF72
:102C880006F05EF905D1404607F08BFC002801F0FC
:102C9800EC82002189F8284042F25D0259E305F0F0
:102CA800F1FF43F0268606F05FF980A807F0E5FB00
:102CB8000446002800F0508505F051FF00F053BD90
:102CC80005F0C0FF43F01886D9F8200006F081F916
:102CD8003AAC214607F0A5FA0546002801F0008124
:102CE800280201F006B999F83000C00743F00786BA
:102CF800D9E90A0405F0CAFFC0B228B9204607F08E
:102D0800CBFB002801F0C8820021012289F830207D
:102D180042F206021DE305F0B5FF43F0F385D9F84A
:102D28001CA0CDF814900DF1E80B44214426584618
:102D380020F02FF9DFF84C820DF50079DAF804005D
:102D4800012404908DF80002DCB1A642254638BF64
:102D58003546002E03F04F84484659462A4604F06B
:102D680055F8584649462A4620F00CFA284649465E
:102D78002246434604F058F881460C46AB44761B7D
:102D8800E2E70498DAF8004004EB8008444500F0D4
:102D9800EE8204F104094FF0040ABAF1000F19D0C9
:102DA8005645554638BF3546002E03F02484BBEB04
:102DB800040038BFA4EB0B00A842C1F06681584656
:102DC80021462A46761B20F0DDF92C44AAEB050A99
:102DD800AB44E2E74C46D9E705F054FF43F095854C
:102DE800D9F81C0006F0F5F83AAC214607F0E7FBE5
:102DF8000546002801F01280280201F018B805F0F5
:102E080021FF43F08585D9F8200007F0EEFA05F098
:102E18006FFF4FF60A51D0E105F034FF43F07B8590
:102E280006F0A2F880A807F07EFB0446002800F010
:102E3800608605F094FE00F063BE05F003FF43F0E2
:102E48006D85D9F8200007F0B0FB08E105F0FAFE1F
:102E580043F06785D9F8200007F061FB05F048FFCB
:102E680042F22D01A9E105F0EDFE43F05D85D9F8A8
:102E7800200007F0ACFA05F03BFF4FF604519CE147
:102E880005F0E0FE43F05385D9F8200000216A914F
:102E98006AA907F049FA0546002800F04C872C4635
:102EA80000F054BF05F0EEFE43F0448506F03AF812
:102EB8003AA807F023FA002800F0F483012142F22F
:102EC800070289F820104DF60441114425E205F067
:102ED800D9FE43F03285CDF814906AAE402106F051
:102EE80025F8304607F0C4FA8046002800F05984D7
:102EF80005F0D0FE00F061BC05F0A4FE43F020858B
:102F0800D9F8208006F075F83AAC4046214607F01B
:102F180058FB0546002801F07C80280201F082B8A1
:102F280005F090FE43F00F85D9F8200007F019FA54
:102F380005F0DEFE4FF601513FE105F03AFF43F0A0
:102F48000585D9F82480404607F0F3FA05F06DFFAF
:102F580087E005F097FE43F0FC84D9F818000021BB
:102F6800002405F083FCC0B238B98DF8E8403AA8CF
:102F780007F094FA002801F0318105F052FF42F27F
:102F88000701CAE15453020105F07CFE43F0E484D2
:102F9800D9F81C600020CDF81490CDE96C00CDE97B
:102FA8006A006AA9304607F099FA0646002800F038
:102FB80044870025B0464FF000090020049000F037
:102FC80055BF05F03FFE43F0CA84D9F8208040463B
:102FD80007F0ADFA05F08CFE42F23101EDE005F0A4
:102FE80031FE43F0BF84D9F8208000208DF8AA0173
:102FF800ADF8A8016AA9404607F004F9044600287C
:1030080000F07B87200200F07EBF05F03BFE43F016
:10301800AC840020ADF8A8016AA807F0ACFA044611
:10302800002800F0B3850021204600F0B6BD05F069
:1030380029FE43F09D8400206A906AA807F0A9FA47
:103048000446002800F0C885204600F0CABD05F0F7
:10305800F9FD43F09084D9F8200007F03DFA05F017
:1030680047FEB0FA80F149094D0000264FF0000AEA
:10307800A8E105F007FE43F08184D9E9060405F0CC
:10308800A4FD05F059FF08D1ADF8E8603AA920463B
:1030980007F083FA002801F0EB800024002142F2B7
:1030A8005C028DF8F0603B920029D64A89F82050DE
:1030B8003A9200F0D1870020ADF8A8418DF8EE00D3
:1030C8003AA8C11D6AA805F064FFADF8EF4000F00A
:1030D800D1BF05F0B7FD43F05484D9F8200000258E
:1030E800CDF8AB516A956AA907F0F4F904460028AF
:1030F80000F07B8520460021002200F086BD99F86B
:103108003C00C00743F04084D9E90D0405F05DFD9B
:10311800C0B240B905F006FF3AA9204607F00DFAFB
:10312800002801F0C28042F2070189F83C502F3193
:10313800F3E005F0A7FD43F02A8400206A906AA80E
:1031480007F01BFA0446002800F09185204600F09D
:1031580093BD99F84000C00743F01C84D9F83800A3
:1031680005F022FDC0B2002803F06D8242F207018B
:1031780089F8404078313B91B3493A918DF8EE0097
:10318800D9F81000B149FEF78DFA0C463AA9082281
:10319800FEF75AFB2168C5B2AD4E4FF6FF7A0BE138
:1031A80005F007FE43F0F983D9F82480404607F07C
:1031B80089F905F03AFE42F21101ADF8EC10A54983
:1031C8003A91002100288DF8EE1000F0C980E2E065
:1031D80005F058FD43F0E483D9F8180005F0E4FC45
:1031E800C0B238B905F09EFE3AA807F0AAF900283F
:1031F80001F0028042F2070189F8204034318CE066
:1032080005F020FD43F0CF83D9F8200005F0E1FE5A
:103218003AAC214607F06CF90546002800F03285E3
:10322800280200F038BD05F0C4FD43F0BF83D9E99A
:10323800080805F0B9FC05F083FE05D1404607F003
:103248008AF9002801F02B80002189F8284042F2F1
:1032580042027EE005F0F6FC43F0AB83D9E90704AF
:1032680005F0B3FC05F068FE05D1204607F06BF9C0
:10327800002800F0CC87002142F23C0289F8245053
:1032880015E005F0FFFC43F09783D9E9060405F043
:103298009CFC05F051FE05D1204607F066F9002890
:1032A80000F0D087002189F8205042F24802ADF89A
:1032B800EC20684A3A928DF8EE6050E005F0E2FCA6
:1032C80043F07D83D9F8180005F06EFC05F038FE50
:1032D80004D107F04CF9002800F09C87002189F8F8
:1032E800204042F2490234E099F82C00C00743F02C
:1032F8006983D9E9090405F068FCC0B240B905F052
:1033080011FE3AA9204607F060F9002800F09D87D1
:1033180042F2070189F82C507F313B914A493A9192
:103328008DF8EE0000F0DBBF05F0ACFC43F04D83F8
:10333800D9F8180005F038FC05F002FE04D107F0B2
:1033480004F9002800F06987002189F8204042F23A
:103358003D02ADF8EC203F4A3A928DF8EE50D1B1DB
:103368003AA8C11D6AA80022FEF75AF915E03AAC3E
:10337800204606F04DFFDDF8149005F052FD40F6AA
:103388003541ADF8EC1033493A91002100288DF809
:10339800EE1000F098868DF8EE00D9F810002B4951
:1033A800FEF780F90C463AA90722FEF74DFA216884
:1033B800C5B24FF6FF7A264E01312160022D18BFA3
:1033C80001250020C0B23204012142EA0020EAB2FD
:1033D80089F816104FEA0A411044069A41EA164144
:1033E800C2E900010DF5057D05F0DDBD4FF601527E
:1033F8008A1A1E2A00F26A860FF20C019B46D1E84F
:1034080012F000BF040E06012C00670A510A280AB0
:10341800B60A320A2B002B00D00AFD0A2B00350B06
:103428002B0B580B2B00C5095B0A960B2B00AA0A1D
:103438003D0AC10AA10BBA095F096A097509F30AAD
:103448008C09AD0B470A00BF040E0501784602013E
:103458000000FBFF040E0401B4E705F0A1FB05F032
:1034680031FD42F02D8705F0D5FA5FE56AA83AA943
:103478000C22FEF7D5F8DDF8AB51DDF8AF11280CBA
:103488009DF8A8E1BDF8A9C140EA0146280A9DF8BF
:10349800B33140EA01604FEA114A01214FF6014277
:1034A80089F820100021ADF8EC20F04A8DF8FA10C8
:1034B800CDF8F610CDF8F210CDF8EE103A922CB106
:1034C800E9077FF47FAF8DF8EE001CE0CDF8AD6121
:1034D8000C228DF8B3318DF8AC018DF8AB51ADF8F5
:1034E800A9C18DF8A8E18DF8EE10ADF8B1A13AA800
:1034F800C41D6AAD28462146FEF792F820462946A3
:103508000C221FF03FFED9F810005FF8C010FEF73C
:10351800C9F80C463AA9132247E73AA930461722B8
:10352800FEF77EF89DF8A80106F10B0104900C2225
:10353800BDF8A9010390DDF8AF41DDF8AB5182A8D1
:103548001FF020FE05F0E1FA059901200DF1E80AC7
:1035580081F820000AF1060018211FF0ABFD4FF694
:10356800094005F0AAFCC2483A9005D0E80740F0A7
:1035780033818DF8EE9016E003980C22ADF8A9017E
:10358800049805F087FA6AAD05F10B0082A91FF0CF
:10359800F9FD05F047FB1722FEF742F820462946B9
:1035A80017221FF0EFFDDDF814905FF8601105F0A9
:1035B80008FC0C463AA91E22F7E63AA93046202212
:1035C800FEF72EF89DF8A80106F10B0103901522CD
:1035D800BDF8A9010490DDF8AF41DDF8AB517AA838
:1035E8001FF0D0FD05F091FA059901200DF1E80AC8
:1035F80081F820000AF1060021211FF05BFD4FF63B
:103608000A4005F05AFC9B483A9005D0E80740F07C
:10361800E3808DF8EE9016E004981522ADF8A90124
:10362800039805F037FA6AAD05F10B007AA91FF087
:10363800A9FD05F0F7FA2022FDF7F2FF20462946FA
:1036480020221FF09FFDDDF814905FF8001205F0AE
:10365800B8FB0C463AA92722A7E63AA930464022E9
:10366800FDF7DEFF05F000FB5CA81FF08BFD05F001
:103678004CFA059901200DF1E80A05F0DAFB4FF63E
:10368800024005F01AFC7C483A9040F0A380049868
:10369800ADF8A901039805F0FDF96AAD05F10B0035
:1036A8005CA9ABE03AAD2846FEF788FA0C46C0079D
:1036B80042F0B487012042F2070189F820004DF654
:1036C8000440084400F0FFBD3AA86AA90622FEF7A4
:1036D800E3F99DF8E8009DF8E950C00742F0A58796
:1036E8009DF8EE00DDF8EA100122CDF8F16089F8C6
:1036F800202041F20902ADF8EC20002C5F4ACDF8F9
:10370800EE603A9200F091808DF8EE50A3E080A828
:103718006AA90822FDF784FF05F00DFA012141F29C
:10372800010205F0E9FA8DF81E10BDF8E810ADF8B1
:103738001C1005F07FFA524A8DF8F610CDF8F210F9
:10374800CDF8EE103A9240F0F1819DF81E208DF8E8
:10375800AA21BDF81C20F5E180A86AA9082203F077
:1037680055FB05F009FB012141F2030205F0C4FAFB
:103778008DF82210BDF8E810ADF8201005F05AFABF
:103788003F4A8DF8F610CDF8F210CDF8EE103A92C7
:1037980040F0CC819DF822208DF8AA21BDF8202088
:1037A800D0E13AA930464022FDF73AFF05F05CFA2D
:1037B8004EA81FF0E7FC05F0A8F9059901200DF1C6
:1037C800E80A05F036FB41F2020005F076FB2A48CC
:1037D8003A9009D0E80704D04846DA46DDF8149054
:1037E800F0E58DF8EE9016E00498ADF8A90103987D
:1037F80005F050F96AAD05F10B004EA935221FF00E
:10380800C1FC05F00FFA4022FDF70AFF20462946C1
:1038180040221FF0B7FCDDF814905FF8D01305F0D4
:10382800D0FA0C463AA94722BFE5CDF8A9110021E4
:103838008DF8A85106228DF8EE108DF8AD013AA842
:10384800C11D6AA8FDF7ECFEBDF8AC01ADF8F300A8
:103858006A98CDF8EF00D9F810005FF81014FDF75A
:1038680021FF0C463AA90D229FE500BF040E100166
:10387800040E1B01040E2401040E4401040E0A0167
:10388800040E0C016AA83AA905F090FB05F0D9F8D6
:1038980005F02EFA4FF6115139E36AA83AA905F056
:1038A800F2FA6A9801214FF6145212E280A86AA926
:1038B8000822FDF7B5FE05F03EF901214FF6175233
:1038C80089F824109DF8EA108DF83611BDF8E81033
:1038D800ADF8341105F0AEF9F14A8DF8F610CDF8CF
:1038E800F210CDF8EE103A9240F020819DF8362182
:1038F8008DF8AA21BDF8342124E16AA83AA905F077
:1039080055FB05F09EF805F08CFA42F20201FEE242
:1039180080A86AA9082203F079FA05F02DFA012196
:1039280042F2030205F0E8F98DF88A10BDF8E810B4
:10393800ADF8881005F07EF9D94A8DF8F610CDF863
:10394800F210CDF8EE103A9240F0F0809DF88A20FF
:103958008DF8AA21BDF88820F4E0ADF8A8916AA8EE
:1039680006F0EDFD0446B0FA80F04609002534B9AA
:103978006AA83AA9022203F049FABDF8A85142F20E
:103988003A008DF8F0903B90C6488BF820803A902A
:1039980066B10020ADF8A8518DF8EE003AA8C11D17
:1039A8006AA805F0F6FAADF8EF5001E08DF8EE40A0
:1039B800D946DBF810005FE33AAD05F01DF90C4677
:1039C800C00742F02B8605F06AFA083000F07BBC8D
:1039D8006AA880A9FDF7ECFF9DF8A801DDF8A951B8
:1039E800C00742F0228605F0BBF9012142F2180215
:1039F80005F082F98DF8A610BDF8E810ADF8A4100E
:103A080005F018F9A64A8DF8F610CDF8F210CDF8A1
:103A1800EE103A9240F08A809DF8A6208DF8AA21EF
:103A2800BDF8A4208EE09DF8AA01013803289EBFA6
:103A38009DF8AB010138032802F2CA876AA83AA99F
:103A480005F021FA6A9D280E02F0C387290A01228F
:103A580042F2300389F824200022ADF8EC30002C23
:103A6800914B8DF8F220CDF8EE203A9300F02081AA
:103A78008DF8EE508FE16AA880A9FDF799FF9DF8AF
:103A8800A801DDF8A951C00742F0CF8505F068F913
:103A9800012142F21C0205F02FF98DF8C610BDF87D
:103AA800E810ADF8C41005F0C5F87D4A8DF8F61099
:103AB800CDF8F210CDF8EE103A9237D19DF8C62025
:103AC8008DF8AA21BDF8C4203CE03AAD05F094F881
:103AD8000C46C00742F0A28505F0E1F92330F2E375
:103AE8006AA83AA905F0CFF96A98012142F223029F
:103AF800C5E080A86AA90822FDF792FD05F01BF829
:103B0800012142F22F0205F0F7F88DF8E610BDF812
:103B1800E810ADF8E41005F08DF8614A8DF8F6105C
:103B2800CDF8F210CDF8EE103A9205D0E9077FF4FF
:103B380049AC8DF8EE001EE09DF8E6208DF8AA212C
:103B4800BDF8E4208DF8AC01300CADF8A8210822AE
:103B58008DF8AB51ADF8AD618DF8EE108DF8AF0171
:103B68003AA8C11D6AA8FDF75BFDDDE96A01CDF839
:103B7800F310CDF8EF00D9F810005FF83017FDF713
:103B880091FD0C463AA90F22FFF70FBC6AA83AA983
:103B980005F0FFF9BDF8A801010A012242F24B0322
:103BA80089F8202000228DF8F020002C3B933D4B13
:103BB8003A9340F051828DF8EE2002228DF8A91137
:103BC8008DF8A8013AA8C11D6AA8FDF729FDBDF81E
:103BD800A801ADF8EF004DE26AA83AA905F053F93B
:103BE8006A98012142F2580249E06AA83AA90722D4
:103BF800FDF716FD6A98BDF8AC219DF8AE31010AB3
:103C080041EA026142EA0342120A0123CDF8F25066
:103C180089F8243042F21503ADF8EC30234BCDF887
:103C2800EE503A9314B18DF8EE0015E08DF8A80126
:103C38000020ADF8AD210722CDF8A9118DF8EE00CE
:103C48003AA8C11D6AA8FDF7EBFCDDF8AB116A982C
:103C5800CDF8F210CDF8EF00D9F810005FF814187D
:103C6800FDF720FD0C463AA90E22FFF79EBB6AA875
:103C78003AA905F008F96A98012142F24C0289F83C
:103C8800201028E03AA805F0C5F80646C00742F01B
:103C9800BE8404F09EFF012142F21B02D2E100BF64
:103CA800040E0C01040E0601040E0801040E0B019B
:103CB8008DF8AB01ADF8A9118DF8A8518DF8EE205B
:103CC80060E06AA83AA905F0DEF86A98012140F692
:103CD8007B4289F8241000218DF8F210CDF8EE10FF
:103CE800ADF8EC20EA4A3A9214B18DF8EE0052E0B1
:103CF8008DF8EE10010E8DF8A801000A8DF8AB11B1
:103D08003EE06AA83AA905F051F904F09AFE04F0D9
:103D1800EFFF41F20541FAE03AA86AA9FDF720FF52
:103D28009DF8E800DDF8E940C00742F05886012018
:103D38004FF60F410DE03AA86AA9FDF711FF9DF86B
:103D4800E800DDF8E940C00742F0498601204FF657
:103D58000E4189F8240000208DF8F200CDF8EE001D
:103D6800ADF8EC10CA493A9115B18DF8EE4012E061
:103D78008DF8EE00200E8DF8AB01200A8DF8A841D1
:103D8800ADF8A9013AA80422C11D6AA8FDF748FCAC
:103D98006A98CDF8EF00D9F810005FF85019FDF7D0
:103DA80081FC0C463AA90B22FFF7FFBA3AA805F0A6
:103DB80031F80646C00742F02A8404F00AFF0121C0
:103DC80042F25B0227E03AA805F024F80646C0074D
:103DD80042F01D8404F0FDFE012142F222021AE0A5
:103DE8003AA805F017F80646C00742F0108404F018
:103DF800F0FE012142F21A0289F8341024E13AA8AF
:103E080005F008F80646C00742F0018404F0E1FE18
:103E1800012142F25A0289F8281015E13AA804F063
:103E2800F9FF0646C00742F0F28304F0D2FE0121F2
:103E380042F2780289F8201006E16AA83AA910220D
:103E480002F0E4FF60682568A1680291290C41EA44
:103E580000410491290A41EA0068217B4FEA104990
:103E68000191BDF8A91103919DF8A8A10599012018
:103E780081F820003AACA01D11211FF01BF942F275
:103E88001700ADF8EC0083483A9036B1E80700F027
:103E98000D814046049ECA46A0E402980734CBF838
:103EA8000600102204982146CBF8000001988BF8F0
:103EB8000A000398ADF8A9010020ABF804908DF82A
:103EC800AC818DF8AB518DF8A8A18DF8EE006AADE4
:103ED80005F02FF82046294610221FF053F9E7E095
:103EE8003AA804F097FF0646C00742F0908304F012
:103EF80070FE012140F67C42A4E06AA83AA905F0C8
:103F080055F804F09EFD04F0F3FE40F62D41ADF89F
:103F1800EC10020A60493A910021CDF8EE1014B174
:103F28008DF8EE2014E0000C8DF8A8218DF8EE1025
:103F38000322ADF8A9013AA8C11D6AA8FDF770FBD4
:103F48009DF8AA018DF8F100BDF8A801ADF8EF00C1
:103F5800D9F810005FF80C1BFDF7A4FB0C463AA932
:103F68000A22FFF722BA9DF8AA010138032802F2B3
:103F78003B856AA83AA90522FDF752FB6A9E9DF87F
:103F8800AC01310C41EA00410A0602F02E85320AE2
:103F980042EA006061F30F200121ADF8F25089F880
:103FA800241042F27601ADF8EC103C49CDF8EE5001
:103FB8003A9114B18DF8EE6013E0CDF8A901002014
:103FC8008DF8A86105228DF8EE003AA8C11D6AA8EF
:103FD800FDF726FB9DF8AC018DF8F3006A98CDF843
:103FE800EF00D9F810005FF89C1BFDF75BFB0C464F
:103FF8003AA90C22FFF7D9B93AA804F00BFF0646F4
:10400800C00742F0048304F0E4FD012142F25702A4
:1040180018E03AA804F0FEFE0646C00742F0F78210
:1040280004F0D7FD012142F279020BE03AA804F02E
:10403800F1FE0646C00742F0EA8204F0CAFD0121FB
:1040480042F27A0289F8241000218DF8F0103B9290
:10405800134A3A921DB1000A8DF8EE000AE0050CE9
:104068008DF8EE10ADF8A851E11D6AA804F091FF93
:10407800ADF8EF50D9F810005FF8301CFDF712FBCF
:104088000C463AA90922FFF790B9064804F02CFE1D
:10409800040E0801040E1401040E0701040E0901A0
:1040A800040E060164530201B84302018DF8EE8044
:1040B800DDF814905FF86C1C04F083FE0C463AA9F6
:1040C8001722FFF772B9E11DFFF74CB94FF601420D
:1040D8008A1A0E2A40F20E81A1F62D42082A40F2D1
:1040E800278141F201028A1A082A40F2538141F2DB
:1040F8000542914202F0758140F21D42914202F060
:104108003E8140F60142914202F0E58040F60342CA
:10411800914202F0FA8040F66342914202F03A81FD
:1041280040F67B42914202F0508140F67C42CB46F9
:104138009142029302F0F98040F206429142D94638
:104148007FF440A904980328C2F015815FF8A8906D
:1041580004F05CFE4B4604F010FD0220294632466E
:104168004B46FBF7C3FF002902F0608400781A2849
:1041780004D80121CC4A8140114204D1292818BF12
:104188003B2842F04282C948032300903AA804F031
:10419800DEFC04F059FE3AA904F051FDA17800258F
:1041A8001220042902F0E88004F0A5FCD9467FF427
:1041B80009A904F038FCFEF739BD0121FEF757B80C
:1041C8003AAD04F019FD0C46C00742F0278204F00E
:1041D80066FE433077E00121FEF7C5B83AAD2846C0
:1041E800FDF7ECFC0C46C00742F01882012089F864
:1041F800200042F2070066E03AAD04F0FDFC0C46F0
:10420800C00742F00B8204F04AFE34305BE0012123
:10421800FFF732B80121FFF762B80121FFF795B81F
:104228000121FEF7ABBB0121FDF722BF0121FDF7FC
:1042380059BF0121FDF780BF0121FEF7B7BB022559
:10424800FEF7E9BB0121FFF72EB83AAD012101269F
:104258002846FDF793FC0C46C00742F0CE8342F295
:10426800070089F82C607F302DE00121FEF712BD90
:104278003AA804F0CFFD0446C00742F0C083240CDE
:104288000121FEF70CBF0121FDF7A4BF0225FDF7B0
:10429800BABF0121FEF7F0B80121FEF736BD0121B2
:1042A800FEF7D3BF0121FDF75EBF3AAD2846FDF703
:1042B80085FC0C46C00742F0A083012089F83C0029
:1042C80042F207002F303B90E91D794801223A90CD
:1042D8008DF8A8416AA8FDF7A3F98DF8EF40D9F841
:1042E80010005FF8981EFDF7DDF90C463AA9082280
:1042F800FFF75BB81C46DFE812F01100B1010F00B0
:104308000F000F0086010F000F00BB019D01A701E0
:104318000F000F0052011F01FFF754B804F0FEFB15
:1043280004F07BFD41F0CC8704F060FCFEF787B910
:104338000293DFE802F007050505970563054700C6
:10434800FFF740B804980328C1F0BA87594C04F025
:1043580041FB022004F092FB002902F05D83007803
:10436800012801F2AC875148032300903AA804F0D1
:10437800EEFB04F069FD3AA904F061FC04F019FEB3
:104388003EF473AE04F0B7FB7FF41CA804F04BFBBB
:10439800FEF72BBE1C46DFE812F00B0089017F01F7
:1043A800090009000900090009007501FFF70AB8AA
:1043B80004F0B4FB04F009FE41F08A8704F07CFCA9
:1043C800FEF761B90498CDF8149090B10398047879
:1043D8000498421EB2EB840F0BD33748A300009019
:1043E8000398411C3AA802F02BFD3D98002802F0E2
:1043F800F480122004F0E1FCFFF7F0B904980728D4
:10440800C1F05E872D4C0020DDF80CB0049EDFF86B
:10441800B0A0234659463246D047022004F070FD2A
:10442800032004F06DFD052004F06AFD1F4859467D
:1044380000903AA804F0D1FC04F092FD3AA904F0E7
:10444800FEFB002E41F03C8704F038FB0299A8F8E7
:104458000400000C89F82850C9E9081888F80600F3
:10446800FDF713BE0498002801F02A870398007806
:10447800032801F225870D48012300903AA804F08B
:1044880066FB3A9C01223D9E3AA904F0D8FB002E17
:1044980041F01687217804F05FFD02990573C0E9A1
:1044A8000110FDF7CCBD00BF20003804CC48020144
:1044B800040E0501703302013C490201F445020172
:1044C800F500000128440201584402013445020164
:1044D80080330201F843020114320201D44502017B
:1044E8005445020154460201A4450201D444020184
:1044F800044502019445020190330201444502013A
:10450800F03902014844020124450201D84302015E
:10451800003A0201F4440201E44502013844020170
:10452800E4440201E0390201F4310201CC42020103
:10453800F5000001CC48020104980328C1F0C086A8
:104548005FF880B00020039D4FF0000A049E5B4690
:1045580004F013FB0120294632465B46FBF7C6FDF3
:104568005FF8B800294600903AA804F0A1FB3A9DEC
:1045780003223D9E3AA904F0DCFC002E41F074862B
:10458800A878298889F824A041EA0040A8F8000002
:10459800000CC9E9074888F80200FDF7E7BF04984E
:1045A8000428C1F08D865FF8E0B00020039D4FF02D
:1045B8000008049E5FF8F8A05B4629463246D047BB
:1045C8000120294632465B46D04703202946324619
:1045D8005B46D0475FF82C01294600903AA804F0C2
:1045E80000FC3A9D04223D9E3AA904F0A2FC002E4C
:1045F80041F06586296804F023FC80F80C80C0E946
:104608000140FEF743BC3AA8DDE90312FDF744FA7E
:1046180004F035FC41F05486DDF8E900BDF8ED10F2
:1046280004F0DBFCA8F8041089F82800C9E9084858
:10463800FEF7C8B904F072FA04F0EFFB41F04086C7
:1046480004F0D4FAFEF7A5BA04F068FA04F0E5FB22
:1046580041F0368604F0CAFAFEF728BC04F05EFA88
:1046680004F0DBFB41F02C8604F0C0FAFEF7A6BA92
:1046780004F054FA04F0D1FB41F0228604F0B6FAB3
:10468800FEF759B904F04AFA04F09FFC41F020867D
:1046980004F012FBFDF746BE04F040FA04F095FC66
:1046A80041F0168604F008FBFEF7FDBA04F036FA6E
:1046B80004F08BFC41F00C8604F0FEFAFEF70BBC0C
:1046C8003AA804F0ABFA04F0DAFB41F0F98504F0FB
:1046D800CCF9FEF716B93AA804F0A0FA04F0CFFB1B
:1046E80041F0EE8504F0C1F9FEF720BA3AA8DDE9F9
:1046F8000312FDF78FF904F0C2FB41F0E185DDF804
:10470800E9009DF8ED1004F068FC88F8041089F8B9
:104718002800C9E908B8FEF7C3B904980428C1F00D
:10472800CF855FF8584204F0A4FB5FF86CA204F050
:10473800E8FAD047012004F03BFA032004F038FAE5
:104748005FF89802314600903AA82A460423FCF7FD
:10475800C3FF3A9C04223D9E3AA904F070FA002E49
:1047680041F0AD85216804F06BFB80F80C80C0E94E
:1047780001B0FEF7B8B83AA804F050FA04F07FFB8D
:1047880041F09E8504F071F9FEF7F8B904980B28FA
:10479800C1F096855FF8C83204F0C8F9002901F025
:1047A8008F850078012801F28B855FF8DC320120C3
:1047B80004F0E7F9002901F083850078012801F267
:1047C8007F855FF8F4420220039D049E5FF810A3E2
:1047D80004F004FA042004F094F9052004F091F997
:1047E800062004F08EF9072004F08BF9082004F065
:1047F80088F90A2004F085F95FF8500329460090EB
:104808003AA832460B23FCF767FF3A9C0B223D9EE1
:104818003AA904F014FA04F024FB7EF426AC2178BB
:1048280004F0CBFA02293EF4CDADD4F80700D4F851
:1048380003206378A478C8F8070004F08DFB0021F2
:10484800C8F80320847043700175C0E903B0FEF70F
:104858001CB804F0A5F904F035FB41F0318504F0EB
:10486800D9F8FEF706BB3AA804F0D8F904F007FB1C
:1048780041F0268504F0F9F8FEF73EB904F090F906
:1048880004F020FB41F01C8504F0C4F8FDF72BBFB1
:1048980004F086F904F016FB41F0128504F0BAF82A
:1048A800FEF73DB804F07CF904F00CFB41F00885F4
:1048B80004F0B0F8FDF7C7BF04F083F904F044FB37
:1048C80041F0FE8404F066F9C0E901B0FDF7A4BE2A
:1048D80004980A28C1F0F4845FF808440020DDF841
:1048E8000CA0049D5FF82864234651462A46B04729
:1048F800022004F0D5F9062004F0D2F9082004F0CB
:10490800CFF95FF85804514600903AA82A460A237E
:10491800FCF7E2FE3A9C0A223D9E3AA904F08FF980
:10492800002E41F0CC84607A2178B4F80120B4F8E4
:104938000730D4F8034088F8090004F00DFB002183
:10494800C8F80340A8F80730A0F801200175C0E9AD
:1049580003B0FDF769BF04F034F904F0F5FA41F04B
:10496800AF8404F017F9C0E901B0FDF736BF3AA8E3
:1049780004F054F904F083FA41F0A28404F075F8C5
:10498800FEF76FB9DDE90301FDF7D6F804F09AFAEE
:1049980041F0968404F0E0FA0273C0E901B0FEF732
:1049A800E0B804980328C1F08B845FF8D44404F07D
:1049B80007F8022004F08AF85FF8100529460090ED
:1049C8003AA804F075F904F03FFA3AA904F037F967
:1049D800002E41F0498404F068F8000CC9E907B8D2
:1049E80088F80200FEF743B804F0DAF804F06AFA2F
:1049F80041F0668404F00EF8FDF7ABBE0498042875
:104A0800C1F05E845FF82C4504F033FA5FF850A5D6
:104A180004F077F9D04704F0B8F8D047032004F041
:104A2800C7F85FF87805314600903AA82A4604236B
:104A3800FCF752FE3A9C04223D9E3AA904F0FFF886
:104A4800002E41F03C84216804F0FAF980F80C80CB
:104A5800C0E901B0FEF7D9B904F0A2F804F032FABF
:104A680041F02E8403F0D6FFFDF7BABF049803285F
:104A7800C1F026845FF8984503F0A2FF012004F0F6
:104A880025F85FF8D805294600903AA804F010F9EF
:104A980004F0DAF93AA904F0D2F8002E41F0E483E0
:104AA80004F003F8000CC9E907B888F80200FEF71B
:104AB8004AB804980528C1F003845FF8D83504F093
:104AC80035F8002901F0FC830078012801F2F88309
:104AD800039D0120049C5FF8F43529462246FBF724
:104AE80005FB5FF83806294600903AA822460523B8
:104AF800FCF7F2FD3A9C05223D9E3AA904F09FF886
:104B080004F0AFF97EF4B1AA216804F056F9CAB2EC
:104B1800022A3EF457AC2079C8F80010002189F821
:104B28002810C9E908B888F80400FDF741BD3AA87B
:104B380004F074F804F0A3F941F0C28303F095FF80
:104B4800FDF7E7BF04F03DF804F0FEF941F0B88343
:104B580004F020F8C0E901B0FDF751BE0498072819
:104B6800C1F0AE835FF880460020DDF80CA0049DFC
:104B78005FF8B466234651462A46B047012004F040
:104B88008FF8032004F08CF85FF8E0065146009097
:104B98003AA804F0ADF904F0E3F93AA904F04FF8A3
:104BA800002E41F08C8303F089FF0021A8F804004F
:104BB800000C89F82810C9E908B888F80600FDF73C
:104BC80050BE04F052F90C28C1F04F835FF8E44658
:104BD80004F01CF95FF818B704F066F8012003F038
:104BE800A1FF032003F09EFF052003F09BFF072091
:104BF80003F098FF082003F095FF092003F092FFC7
:104C08000A2003F08FFF0B2003F08CFF5FF8640786
:104C1800294600903AA832460C23FCF75DFD3A9CE1
:104C28000C223D9D3AA904F00AF8002D41F0C184F8
:104C38002078E17AB4F80120D4F80330D4F807409A
:104C4800C8F807404C4604F8180F0298C8F8033013
:104C5800A4F8012084F814A0E172C4E90304FEF763
:104C68004ABB04980428C1F02B835FF87C470020D6
:104C7800039D4FF0000803F0F2FE022003F026FF28
:104C88005FF8D807294600903AA804F0AAF83A9C99
:104C980004223D9E3AA903F0D2FF002E41F00F8373
:104CA800216804F0CDF804F00DF8FDF7ECBA04988B
:104CB8000828C1F005835FF8C44704F0DAF85FF804
:104CC80000A804F01EF8D04703F05FFFD047032088
:104CD80003F06EFF042003F06BFF052003F068FF6C
:104CE800062003F065FF5FF83C08314600903AA8BB
:104CF8002A460823FCF7F0FC04F077F93AA903F0F8
:104D08009EFF002E41F0DB8203F0E2FF0299426031
:104D180000F8048C40E90310FEF764B8DDE90301EC
:104D2800FCF72CFFC0074FF0000A41F09E824C466A
:104D3800029804F8181F84F80CA0C4E90104FEF7CF
:104D48008FBA03F0EBFE03F037FF41F08E8203F0D9
:104D5800C2FEFEF7EFBA03F034FF04F0F5F841F0B5
:104D6800AF82020C03F001FFFEF76DB803F0D6FE28
:104D780003F022FF41F0798203F0ADFEFDF76CBA33
:104D880004980628C1F0F3815FF8943803F0CEFE4A
:104D9800002901F03F860078032801F2E8815FF8D6
:104DA800A8480120039D049E5FF8ECA803F016FFB5
:104DB800032003F0A6FE052003F0A3FE5FF8140904
:104DC800294600903AA832460623FCF785FC3A9C0F
:104DD80006223D9E3AA903F032FF04F042F87EF421
:104DE80044A9216803F0E9FFCAB2042A3EF4EAAAFA
:104DF80003F092FFFDF742BF04980228C1F06082D9
:104E08005FF808490020039D4FF0000803F027FED3
:104E1800012003F05BFE5FF86C09294600903AA870
:104E280032460223FCF758FC04F0DBF83AA903F0F9
:104E380006FF002E41F043822188484620F8181FBB
:104E480003F040FFFDF770BB03F068FE03F0B4FE0B
:104E580041F00B8203F03FFEFDF723BA03F05EFE3C
:104E680003F0AAFE41F0018203F03DFEFDF786B98A
:104E7800049800261928C1F02B825FF87CB900201D
:104E8800039C049D5FF8C8A95B4621462A46D04783
:104E9800022021462A465B46D047042021462A465E
:104EA8005B46D047002901F07E830078012801F293
:104EB8007A835FF8B4490520039D049E03F08EFEB3
:104EC800062003F01EFE0C2003F01BFE0D2003F04D
:104ED80018FE0F2003F015FE112003F012FE132018
:104EE80003F00FFE152003F00CFE172003F009FE57
:104EF8005FF8480A294600903AA832461923FCF779
:104F0800EBFB3A9C19223D9E3AA903F098FE94F8CF
:104F180004B000251220BBF1020F3EF4A6A803F04E
:104F2800EAFD7EF44FAA207804F10B0104900E22CA
:104F3800E078B4F80960D4F80550B4F801A00390FB
:104F480015A81EF01FF93004039940EA1540C8F867
:104F5800070028044C4640EA0B200E220844C8F8F3
:104F68000300049804F8180F04F10B00A4F801A03A
:104F780015A91EF007F9002003F06DFFFDF737B9FA
:104F88003AA8DDE90312FCF745FD03F078FF41F08C
:104F9800EE80DDF8E90004F020F89DF8ED1089F8BE
:104FA8002800029888F80410C9E90808FDF79FBA94
:104FB80003F05BFF0E28C1F058815FF8B84A03F090
:104FC80025FF5FF804BB03F06FFE012003F0AAFD84
:104FD800022003F0A7FD032003F0A4FD092003F03D
:104FE800A1FD0B2003F09EFD0D2003F09BFD5FF853
:104FF800440B294600903AA832460E23FCF76CFB76
:105008003A9C0E223D9D3AA903F019FE002D41F06D
:10501800D0822046B4F8012010F8031B0489837A53
:1050280005684068A8F80B404C4604F8181FC8F8F3
:1050380007000298C8F8035088F80D30A4F801203A
:1050480084F818A0C4E90404FDF7D8BC03F066FD91
:1050580003F0B2FD41F0098103F045FDFDF75DBBAA
:1050680004982728C1F02C815FF8644B03F0CEFE2A
:105078005FF8B4AB03F0B2FD012003F042FD072056
:1050880003F03FFD172003F03CFD5FF8E00B2946D5
:1050980000903AA832462723FCF71EFB3A9C2722A9
:1050A8003D9D3AA903F0CBFD002D41F0088103F0A6
:1050B80069FF1C22D4F80360D4F807A032A81EF0B8
:1050C80061F84C46C8F807A004F818BF1C2203F082
:1050D80075FF32A91EF056F8002084F830000298B7
:1050E800C4E90A04FDF7EFBB03F018FD03F095FED1
:1050F80041F0E68003F0C7FCFDF74CBB03F061FD0F
:10510800C1074FF0000A41F0B08003F07AFE02991F
:1051180080F80CA0C0E90110FDF7E1BF03F0FEFC28
:1051280003F07BFE41F0CC8003F0ADFCFDF783BFBC
:1051380004980728C1F0C4805FF8304C03F040FCA5
:10514800012003F0C3FC5FF89C0C294600903AA8A4
:1051580003F043FE03F004FF3AA903F070FD002EAC
:1051680041F0828003F03EFCFDF76AB904980026FE
:105178002028C1F0AD805FF868AC03F03AFE03F078
:10518800C3FE5FF8D80C214600903AA82A4620238F
:10519800FCF7A2FA3A9C20223D9D3AA903F04FFD64
:1051A800002D41F0008203F0C3FD09A81DF0EAFFBD
:1051B80003F04CFD09A91DF0E5FF029804F8046C02
:1051C80044E90304FCF749BF04980628C1F0788035
:1051D8005FF8C04C03F082FD5FF81CBD03F091FD41
:1051E800D84703F0D2FCD847042003F0FBFC5FF853
:1051F800440D314600903AA803F07EFE3A9C062200
:105208003D9E3AA903F01BFD002E41F02D80216838
:10521800A08803F0FBFCA8F80400FDF7E9B903F047
:105228007DFC03F0C9FC41F0208003F054FCFDF73D
:10523800D5BF3AA8DDE90312FCF72EFC03F01FFEE8
:1052480040F09587DDF8E90003F0C7FEBDF8ED10E2
:1052580089F828000298A8F80410C9E90808FDF799
:1052680033BA03F05BFC03F0D8FD41F0298003F06A
:105278000AFCFDF708BC03F093FCC0074FF00006DA
:1052880041F026804C4601F0010004F8180F0298FE
:105298002673C4E90104FDF75BB803F03FFC03F093
:1052A8008BFC40F0E28703F01EFCFCF7FBBE049881
:1052B8000328C1F005805FF8A04D03F08BFB0220A6
:1052C80003F0DCFB002901F0A18303F041FE00F2AA
:1052D800F6875FF8280E032300903AA803F037FCFE
:1052E80003F0B2FD3AA903F0AAFC03F0CFFDFDF4E8
:1052F800BCAE03F000FC7EF465A803F049FDFDF7A1
:1053080036BA04980328C0F0DB875FF8F04D03F045
:1053180061FB022003F0B2FB002900F0D08700787F
:10532800012800F2CC875FF87C0E032300903AA88E
:1053380003F00DFC03F088FD3AA903F080FC03F0AC
:1053480038FE3DF492AE03F0D6FB7EF43BA803F0A2
:105358006AFBFDF7A4B804981228C0F0B1875FF87B
:10536800404E03F02DFB022003F0B0FB5FF8C40EA3
:10537800294600903AA832461223FCF7ADF93A9C28
:1053880012223D9E3AA903F05AFC002E40F06C8789
:10539800D4F80300D4F80B602178B4F80120D4F8CD
:1053A8000730D4F80E40C8F8030003F0D5FD2F9657
:1053B800CDF8BF402F99A0F80120C0F80B10DDF8F8
:1053C800BF200299C8F8073080F81CA0C0F80E204A
:1053D800C0E90510FDF7B7B803F047FD0E28C0F087
:1053E80044875FF8C04E03F011FD5FF82CBF03F04F
:1053F8005BFC022003F096FB042003F093FB0620DD
:1054080003F090FB082003F08DFB0A2003F08AFBD1
:105418000C2003F087FB5FF86C0F294600903AA830
:1054280032460E23FCF758F93A9C0E223D9D3AA9C4
:1054380003F005FC002D41F0BC802046B4F80120A3
:1054480010F8031B837A048905684068C8F80700C8
:1054580003F082FD0299C8F80350A8F80B4088F8B9
:105468000D30A0F8012080F818A0C0E90410FDF75D
:10547800F2BA03F0FAFC0728C0F0F7865FF8584F35
:1054880003F0A8FA012003F0F9FA5FF8E00F3146BB
:1054980000903AA803F02CFD3A9C07223D9D3AA9BA
:1054A80003F0CDFB002D41F0848003F09BFAFCF75C
:1054B800C4BE03F075FB03F005FD40F001874846C4
:1054C80001F0010100F8181F02990273C0E90110E8
:1054D800FDF7C2BC04980728C0F0F9865FF8B43F0E
:1054E80003F024FB002901F099820078012800F2DA
:1054F800EE865FF8C84F0120039D049E5FF8D0AF89
:1055080003F06CFB032003F0FCFA052003F0F9FA22
:10551800062003F0F6FA002901F08A8200780328B1
:1055280001F240805FF8F40F072300903AA803F0D7
:105538000EFB03F015FD3AA903F081FB03F091FC83
:105548007DF493AD216803F038FCCAB2022A3DF419
:1055580039AFA079A288C8F80010002142EA0042B9
:1055680089F828100298110C03F016FDFCF777BF94
:1055780003F0D4FA03F020FB40F0778603F0B3FA87
:10558800FCF7BBBD049800260228C0F0A186DFF80E
:10559800783E03F0CBFA002900F09A8600780128BB
:1055A80000F29686DFF8603E012003F0EAFA00294F
:1055B80000F08E860078012800F28A86DFF84C0E0B
:1055C800022300903AA803F0C2FA03F00AFD3AA9B0
:1055D80003F035FB21881220CAB2022A3DF445ADFA
:1055E80003F089FA7DF4EEAE03F05EFCFCF7B0BD83
:1055F80004980F28C0F06B86DFF8144E03F006FC01
:10560800DFF810BE03F050FB022003F08BFA0420F1
:1056180003F088FA002901F003820078042800F2D8
:10562800C187DFF8ECAD0520039C049E5346214654
:105638003246D847062003F0CCFB072003F0C9FB0D
:105648000D2003F0C6FB0E2003F0C3FB002901F078
:10565800DF810078032800F2A587DFF8B00D0F235B
:1056680000903AA803F073FA3A9C0F223D9E3AA99B
:1056780003F0E5FAA17B0025122004293DF4F5ACDE
:1056880003F039FA7DF49EAEE21C2078B4F801608C
:105698001468937A15895268C8F803404C4604F890
:1056A800180F0020C8F80720207645EA034040EA92
:1056B8000160C4F80B000298A4F80160C4E904046E
:1056C800FDF718BB04980728C0F0FA85DFF8484DA5
:1056D80003F076F9012003F0F9F9DFF8300D2946D7
:1056E80000903AA803F079FB03F03AFC3AA903F0DA
:1056F800A6FA002E40F0B88503F074F9FDF7EEB96C
:1057080003F0B3FB0728C0F0B085DFF8104D03F0B5
:1057180061F9012003F0B2F9DFF8F00C314600908E
:105728003AA803F0E5FB3A9C07223D9D3AA903F00D
:1057380086FA002D40F03D8703F054F9FDF736BD99
:1057480003F0ECF903F041FC40F0C28549460298A9
:1057580041F8180F0E724960FDF701BC049808283B
:10576800C0F0AE85DFF8B84C03F050FBDFF8A48C2E
:1057780003F02BFB012003F0EEF9072003F0EBF90F
:10578800002901F04F810078012800F29885DFF8A0
:105798007C0C082300903AA803F0D9F903F025FC03
:1057A8003AA903F04CFA03F05CFB7DF45EAC616847
:1057B80003F003FB01F07F42B2F1007F3DF402AE3B
:1057C8002268484640F8242F4160002100F8041C54
:1057D800029940E90310FCF7AEBF03F0F2F9C107E4
:1057E8004FF0000A40F0418503F00BFB029980F866
:1057F8000CA0C0E90110FDF730BC03F08FF903F0ED
:10580800DBF940F0328503F06EF9FCF7E0BD04984F
:1058180000262028C0F05C85DFF808AC03F0E9FA20
:1058280003F072FBDFF8E40B214600903AA82A4601
:105838002023FBF751FF3A9C20223D9D3AA903F013
:10584800FEF9002D40F0AF8603F072FA0FA81DF0A4
:1058580099FC03F0FBF90FA91DF094FC029804F8D9
:10586800046C44E90304FCF732BC03F057F903F075
:10587800D4FA40F0258503F006F9FCF7BBBD03F028
:105888004DF903F099F940F0F08403F024F9FDF79D
:105898001BBD04980628C0F01385DFF88C4B03F075
:1058A8001DFADFF870BB03F02CFAD84703F06DF946
:1058B800D847042003F096F9DFF8500B31460090E2
:1058C8003AA803F019FB3A9C06223D9E3AA903F038
:1058D800B6F9002E40F0C8842168A08803F096F934
:1058E800A8F80400FCF761BD03F018F903F095FA75
:1058F80040F0E68403F0C7F8FDF78BBB03F0B5FA78
:105908000828C0F0B284DFF8244B03F07FFADFF8F0
:10591800048B03F05AFA012003F01DF9072003F065
:105928001AF9DFF8E80A294600903AA803F0DCFAE9
:105938003A9C08223D9D3AA903F081F9002D40F0D8
:10594800388603F001FAFDF7A2BC03F08EFA0828A6
:10595800C0F08B84DFF8D84A03F058FADFF8B48A2D
:1059680003F033FA012003F0F6F8072003F0F3F808
:10597800DFF8980A294600903AA803F0B5FA3A9C4D
:1059880008223D9D3AA903F05AF9002D40F01186EE
:1059980003F0DAF9FCF7C4BB03F013F903F0D4FA07
:1059A80040F08E84020C03F0E0F8FCF78CBD0498FC
:1059B8000728C0F08584DFF87C4A03F027FADFF86F
:1059C80054AA03F00BF9022003F09BF8032003F01C
:1059D80098F8042003F095F8052003F092F80029C0
:1059E80001F022800078022800F26984DFF81C0A9E
:1059F800072300903AA803F0AAF803F0B1FA3AA9ED
:105A080003F01DF903F02DFA7DF42FABA1790026E0
:105A1800A2884FF0000A42EA014121F0FF0222F079
:105A28007F42B2F5407F3DF4CDAC206803F0D5FA53
:105A380089F828000298C9E90808080CA8F8041091
:105A480088F80600FDF77FBA04981C28C0F038844F
:105A5800DFF8E44903F0DAF9DFF8B8A903F0BEF893
:105A6800022003F04EF80A2003F04BF80C2003F054
:105A780048F8DFF89809294600903AA832461C23CE
:105A8800FBF72AFE3A9C1C223D9D3AA903F0D7F861
:105A9800002D40F0148403F075FA1122D4F8036045
:105AA800D4F807A02AA81DF06DFB4C46C8F807A03B
:105AB80004F818BF112203F081FA2AA91DF062FB2D
:105AC800002003F0C8F9FCF7AABB04982028C0F00E
