:100000000000042055010000D5D20000830A010041
:10001000D5D20000D5D20000D5D20000D5D2000044
:10002000000000000000000000000000D5D2000029
:10003000D5D2000000000000D5D20000D5D20000CB
:10004000D5D20000D5D2000000000000D5D20000BB
:1000500000000000D5D200000000000000000000F9
:1000600015840000398400005D840000D5D20000B2
:10007000D5D2000069DD0000D5D20000D5D2000045
:10008000AD850000D5D20000000000000000000097
:10009000D5D2000041DE000000000000000000009A
:1000A000D5D20000D5D20000D5D20000D5D20000B4
:1000B000D5D20000D5D20000D5D20000D5D20000A4
:1000C000D5D20000D5D20000D5D20000D5D2000094
:1000D000D5D2000000000000D5D2000000000000D2
:1000E000D5D2000000000000D5D20000D5D200001B
:1000F00000000000D5D2000000000000D5D20000B2
:10010000000000000000000000000000D5D2000048
:10011000D5D2000000000000818400005D85000051
:1001200000000000D5D20000000000000000000028
:1001300000000000000000000000000000000000BF
:1001400000000000000000000000000000000000AF
:04015000D5D2000004
:100154000DF0C1F80E480F490022814201D004C0BD
:10016400FBE70D480D490E4A814202D008CA08C077
:10017400FAE70C484FF47001026842EA0102026097
:10018400BFF34F8FBFF36F8F0CF05CF900DE0000FC
:1001940050000020F03D002000000020500000200E
:1001A400C835010088ED00E0F0B503AF4DF804BD9B
:1001B400044690F84A000D46DFE800F0033E41058E
:1001C4002F000FF013FC0FF081FEC0B2022802D101
:1001D400022003212CE00FF0CCFE26D12065002064
:1001E4000321E26B84F8950094F8480061660221CB
:1001F400A165C4E92061C4F8902084F84D00D4E9D5
:100204000001C4E91A0101296FF07F00214688BF6B
:100214006FF07E0001F84C0F61650FF0F9FEC0B27B
:10022400022802D10220042102E000F00100012191
:1002340084F84A100FF0F5BD01480DF036F8FEDEE3
:10024400880A0100F0B503AF4DF804BD044690F8E8
:100254004A000D46DFE800F0033A3D052B000FF09D
:10026400C5FB0FF033FEC0B2022802D102200321E5
:1002740028E00FF07EFE22D10221E36B6066206548
:100284000020A165C4E9206194F8481084F8950021
:10029400C4F8903084F84D10D4E90012C4E91A125D
:1002A4002146012A88BF012001F84C0F61650FF037
:1002B400AFFEC0B2022802D10220042102E000F005
:1002C4000100012184F84A100FF0ABBD01480CF085
:1002D400ECFFFEDE980A0100F0B503AF2DE9000B38
:1002E400044690F83000884650B1032869D1A146ED
:1002F40019F82C0FB0B1032866D1656A28681BE091
:10030400D4E90010A2686261C4E90310887910F08E
:100314007F00A06151D00020A14609F82C0F49F8B4
:10032400101C00E0E1698879254610F07F0045F84B
:10033400200F3FD0C4E9095107F096F9D8E900121B
:100344000DF00FFE244800F10806D6E8AF8FA06A2E
:100354002968006807F076F900B3286800F01F00E8
:1003640028FA00F0C0071CD0206A012100F01F0009
:1003740001FA00F0C043D6E8EF1F0140C6E8E21FCF
:10038400002AF8D104F10C030125A1690DCB84F8EE
:100394002C5000680DF0F8FB022006E00125012036
:1003A40001E00325032089F8005084F83050BDE8AB
:1003B400000BF0BD09480A4A01E00848094A0FF059
:1003C40085FE04480CF071FF01480CF06EFF00BF7D
:1003D400981A0100D00A01000C3D0020A80A01006F
:1003E400881A0100C00A0100F0B503AF2DE9000727
:1003F4002DED0C8BADF5487D1546804607F0FCFECF
:10040400C0B2102840F0E2802C460DF1C80A291D24
:100414001C2234F82C9B0AF1040010F000F905F1B9
:1004240020000AF1200190E84C000AF12C004CC194
:10043400214607F0A3FD0AF59A7005F59A7107F0B5
:100444009DFD05F51370694690E8580001F110020E
:1004540005F50F7058C290E878000A460AF50F7047
:1004640078C2ADF8C8901C2210F0D9F86D465146F8
:1004740028460EF0E0FED8F800140020B0EB912FCF
:1004840040F0A4809DF8002008F80120D8F800145A
:100494000131B0EB912FC8F8001440F097809DF81B
:1004A40001009DED01DA9DED02CA9DED03BA9DEDBB
:1004B40004AA9DED059A9DED068A08F801004146BF
:1004C400D8F800040130C8F80004BDF8020001F0B7
:1004D400B7F8C1B210297AD1B0EE4D0A0FF04DFC35
:1004E400C1B2102973D1B0EE4C0A0FF046FCC1B270
:1004F40010296CD1B0EE4B0A0FF03FFCC1B21029A9
:1005040065D1B0EE4A0A0FF038FCC1B210295ED1B1
:10051400B0EE490A0FF031FCC1B2102957D1B0EE48
:10052400480A0FF02AFCC1B2102950D19DED070AE8
:100534009DED089A9DED098A0FF01FFCC1B21029A8
:1005440045D1B0EE490A0FF018FCC1B210293ED1D2
:10055400B0EE480A0FF011FCC1B2102937D132AC09
:1005640005F1280138220FF02CFC4046214604F006
:10057400B7FDC1B210292AD132AC05F1600138228D
:100584000FF01FFC4046214604F0AAFDC1B2102919
:100594001DD105F1980132AD3022284610F03FF804
:1005A4004046294604F0FEFDC1B210290FD105F1E1
:1005B400240400250C2D11D0601990ED000A0FF0D1
:1005C400DCFBC1B204351029F4D000E002200DF5A3
:1005D400487DBDEC0C8BBDE80007F0BD1020F6E7AC
:1005E400B0B502AF0546044655F80C0F30B12846A5
:1005F40007F02CFE00B1B0BD002028602168002067
:10060400012904D1D4E9012160601046B0BDB0BD18
:10061400DCB504AF14460A46014600930020234685
:100624000DF092FDDCBDF0B503AF2DE9800F2DED8B
:10063400108BF8B004460720CDE93A103AA800F030
:10064400A5F9C0F30728C1B20229C24600F0A78069
:10065400C00726D03AA800F099F9C1B2C0F3072A1E
:10066400022900F09C80C0071BD03B9ECEB1DDF870
:10067400E890A6F1010B0720CDF8ECB0CDE9699024
:1006840069A800F05AFC054680B2022818BF05F09C
:100694007F4005F47F0108444FEA104104D18A46A3
:1006A4007DE04FF00E0A7AE0CDE9046B06944AA887
:1006B4008B4669A900F07CFFE80708BF4FF0640B84
:1006C4004A98022868D0C00700F05D819DED4B8AEE
:1006D4004AA869A900F06CFF4A9802285CD0C007B8
:1006E40000F051819DED4B9A4AA869A900F060FF82
:1006F4004A98022850D0C00700F045819DED4BAACE
:100704004AA869A900F054FF4A98022844D0C007B7
:1007140000F039819DED4BBA4AA869A900F048FF61
:100724004A98022838D0C00700F02D819DED4BCAAD
:100734004AA869A900F03CFF4A9802282CD0C007B7
:1007440000F021810598002800F01D8104989DED9A
:100754004BDA02383B900320CDE969904AA869A995
:1007640000F026FF4A98022816D0C00700F00B813B
:100774004B9C4AA869A900F01BFF4A9802280BD099
:10078400C00700F000819DED4BEA4AA869A900F07A
:100794000FFF4A9802280DD19DF82CA1069C022037
:1007A40084F800A084F8380278B0BDEC108B01B056
:1007B4000FF049BBC00700F0E6800DF594799DED7C
:1007C4004BFA3AA9484600F017F90FF050FC05908F
:1007D40002D1DDF814A0E1E709F105013CA80FF00E
:1007E40043FCE80700F0CF800DF594793AA9484618
:1007F40000F002F90FF03BFC049002D1DDF810A0E8
:10080400CCE709F1050159A80FF02EFCE80700F028
:10081400BA803B98002800F0B6803A9802210DF582
:100824009479CDE9670167A9484600F0C6FB0FF04B
:100834001EFC039002D1DDF80CA0AFE709F105011D
:1008440069A823220FF0EBFEE80700F09C8068986B
:10085400002800F0988067980321CDE9720174A8FC
:1008640072A900F0A5FE7498022802D19DF8D4A1C3
:1008740094E7C00700F08780759E76A872A900F0FF
:1008840097FE7698022802D19DF8DCA186E7C0077E
:1008940079D0DDED778A4AA872A900F089FE4A98DA
:1008A40002283FF479AFC0076DD04FEA1B210DF148
:1008B4001F005D4623220191210A00F105098346A8
:1008C4009A3000914B99029169A90FF0A8FE0BF19F
:1008D4002A003CA90FF0C8FB0BF1620059A90FF0E4
:1008E400C3FB00998DF822508DF821A08DF820804B
:1008F4008DF83C408DF8DC60080CA9F819100BF158
:10090400010189F81B001DEE100AC9F814001CEE41
:10091400100AC9F810001BEE100AC9F80C001AEEF0
:10092400100AC9F8080019EE100AC9F8040018EEF4
:10093400100AC9F800001FEE100AC9F820001EEEC4
:10094400100AC9F81C0001988DF8230003988DF84B
:10095400B80004988DF8800005988DF84800029836
:10096400C9F8C00018EE900AC9F8BC00300E89F826
:10097400BB00300AA9F8B90000208DF81F000698C2
:100984000EF00EFD10E74FF00E0A07E7416869B15B
:1009940080B56F4601394160006806F045FF0FF0ED
:1009A400E8FA18BF0220BDE8804000E0002040EAD9
:1009B40001207047416879B1E0B502AF0139416067
:1009C4000168684607F0E9FB9DF80000012806D19C
:1009D4009DF8011001208CBD002002217047019870
:1009E400012803D028B9002100208CBD002001215A
:1009F4008CBD01200E218CBDF0B503AF4DF8048DE4
:100A04002DED068BA0B00FF067FA26D00FF0A9FAEF
:100A14000221CDE9010103AD01A9284600F0CDFA78
:100A2400039E9DF81080022E6DD0691D0DA823220F
:100A34000FF0F5FDF00764D00298002861D001980A
:100A44000521CDE9160118A816A900F0B1FD1898E2
:100A5400022804D19DF8648055E0002056E0C007C8
:100A64004FD0199D1AA816A900F0A2FD1A980228C1
:100A740002D19DF86C8046E0C00742D09DED1B8AF0
:100A84001CA816A900F094FD1C98022802D19DF818
:100A9400748038E0C00734D09DED1D9A1EA816A9B5
:100AA40000F086FD1E98022802D19DF87C802AE081
:100AB400C00726D09DED1FAA03A816A900F078FD53
:100AC4000398022802D19DF810801CE0C00718D0BA
:100AD400049E601D0DA923220FF0A1FD280EA6631C
:100AE40084ED0B8A84ED0C9A84ED0DAA84F82850C9
:100AF40084F8048084F82B00280AA4F82900012033
:100B040004E04FF00E08022084F80480206020B036
:100B1400BDEC068B0FF02EB9F0B503AF4DF8048D84
:100B240084B080464868E0B101380026486008680F
:100B34000221CDE9010101AD03AC284600F0FDF925
:100B44000FF0E1F818BF00F07F4111444FEA114162
:100B540011D0C00707D0022E0CD024F8161001368D
:100B6400EBE700200AE0022E04D10398C8F8020043
:100B7400012003E00E21022088F80210A8F80000EA
:100B840004B00FF0F7B8F0B503AF2DE9000B92B045
:100B940080464868E8B1013800240DF13409486002
:100BA40008680321CDE90B0110AD0BAE2846314690
:100BB40000F0FEFC109802280DD0C0070ED00C2CBB
:100BC4002AD09DED110A09EB0400043480ED000ADB
:100BD400ECE700201DE09DF844001EE00C2C1BD126
:100BE400A7F142000DA90C220FF03EF904A82946F2
:100BF4000C22861C0FF088FAA7F15E0031460C2205
:100C04000FF032F908F1040029460C220FF007FD19
:100C14000120C8F8000005E00E20022188F8040035
:100C2400C8F8001012B00FF054BAF0B503AF2DE9B4
:100C3400000FA3B00FF050F90FD00FF092F910216C
:100C4400CDE909010BA809A9FFF766FFBDF82C003F
:100C5400022805D19DF82E002FE1002020802FE1ED
:100C6400C00700F02981DDF82E50A7F1760009A90C
:100C7400FFF752FF37F8760C022802D117F8740CEC
:100C84001BE1C00700F0188157F8746C0EA809A97D
:100C9400FFF742FFBDF83800022802D19DF83A0060
:100CA4000BE1C00700F00881DDF83A80A7F16A0083
:100CB40009A9FFF731FF37F86A0C022802D117F8A7
:100CC400680CFAE0C00700F0F78057F8689C11A898
:100CD40009A9FFF721FFBDF84400022802D19DF8BD
:100CE4004600EAE0C00700F0E780DDF846A0A7F17F
:100CF4005E0009A9FFF710FF37F85E0C022802D145
:100D040017F85C0CD9E0C00700F0D68057F85CBC3B
:100D140014A809A9FFF700FFBDF85000022802D16A
:100D24009DF85200C9E0C00700F0C680DDF852000B
:100D34000890A7F1520009A9FFF7EEFE37F8520C0C
:100D4400022802D117F8500CB7E0C00700F0B480B5
:100D540057F8500C079017A809A9FFF7DDFEBDF856
:100D64005C00022802D19DF85E00A6E0C00700F0F6
:100D7400A380DDF85E000690A7F1460009A9FFF7FD
:100D8400CBFE37F8460C022802D117F8440C94E045
:100D9400C00700F0918057F8440C05901AA809A9DF
:100DA400FFF7BAFEBDF86800022802D19DF86A0078
:100DB40083E0C00700F08080DDF86A000490A7F1AA
:100DC4003A0009A9FFF7A8FE37F83A0C022802D125
:100DD40017F8380C71E0C0076ED057F8380C039040
:100DE4001DA809A9FFF798FEBDF87400022802D1D6
:100DF4009DF8760061E0C0075ED0DDF876000290D1
:100E0400A7F12E0009A9FFF787FE37F82E0C022858
:100E140002D117F82C0C50E0C0074DD057F82C0C19
:100E2400019020A809A9FFF777FEBDF880000228E9
:100E340002D19DF8820040E0C0073DD0DDF8820079
:100E44000090A7F1220009A9FFF766FE37F8220CEB
:100E5400022802D117F8200C2FE0C0072CD057F835
:100E6400200CC4F816B0C4F812A0C4F80E90C4F84C
:100E74000A80C4F80660C4F80250C4F83E00009822
:100E8400C4F83A000198C4F836000298C4F8320055
:100E94000398C4F82E000498C4F82A000598C4F8EE
:100EA40026000698C4F822000798C4F81E00089883
:100EB400C4F81A000120D1E60E200221A07021807E
:100EC40023B00EF0C0BFF0B503AF4DF804BD82B03F
:100ED4000FF002F816D00FF044F80321CDE9000119
:100EE400684600F02AF8050C81B2022916D0C00722
:100EF40021D0684600F021F8060C81B2022903D102
:100F040035460BE000200BE0C00714D0684600F023
:100F140014F8010C82B2022A06D10D460220A570F3
:100F2400208002B00EF02CBFC00704D00120E18065
:100F3400A6806580F4E70E25F0E7416819B3F0B5A3
:100F440003AF4DF804BD0468013900254FF0FF36A6
:100F54004160022E14D0204606F066FCC00715D16D
:100F6400013601F07F00C6EBC60292B29040054301
:100F740048B20028EDD4022E0CD1C8B2032809D9F6
:100F840040F2015009E00020002114E0012061F347
:100F94000B2000E02804C10705D04FF4702101EABA
:100FA4000020022103E04FF6FF71884301215DF820
:100FB40004BBBDE8F04008437047D0B502AF2DED47
:100FC400108B94B00EF088FF0ED00EF0CAFF0921EA
:100FD400CDE9000102A8694600F0EAFA0298022865
:100FE40005D19DF80C008AE0002020608AE0C0074B
:100FF40000F084809DED038A04A8694600F0D8FAC5
:101004000498022802D19DF8140078E0C00775D036
:101014009DED059A06A8694600F0CAFA06980228CA
:1010240002D19DF81C006AE0C00767D09DED07AAB5
:1010340008A8694600F0BCFA0898022802D19DF875
:1010440024005CE0C00759D09DED09BA0AA869469E
:1010540000F0AEFA0A98022802D19DF82C004EE066
:10106400C0074BD09DED0BCA0CA8694600F0A0FA4E
:101074000C98022802D19DF8340040E0C0073DD00E
:101084009DED0DDA0EA8694600F092FA0E9802283A
:1010940002D19DF83C0032E0C0072FD09DED0FEA4D
:1010A40010A8694600F084FA1098022802D19DF82D
:1010B400440024E0C00721D09DED11FA12A869462E
:1010C40000F076FA1298022802D19DF84C0016E03E
:1010D400C00713D0139884ED018A84ED029A84ED3D
:1010E40003AA84ED04BA84ED05CA84ED06DA84ED1E
:1010F40007EA84ED08FA6062012076E70E200221F7
:101104002071216014B0BDEC108BD0BDF0B503AFDD
:101114002DE9000FADF5257D0EF0DEFE10D00EF0AA
:1011240020FF1021CDE90B0155AD0BA9284600F095
:1011340071F9BDF85401022805D19DF8560162E108
:101144000020208062E1C00700F05C815AAE0BA948
:10115400304600F05FF9BDF86801022802D19DF81D
:101164006A0150E1C00700F04D810DF5BE780BA96E
:10117400404600F04FF9BDF87C01022802D19DF8E9
:101184007E0140E1C00700F03D810DF5C8790BA94F
:10119400484600F03FF9BDF89001022802D19DF8BD
:1011A400920130E1C00700F02D810DF5D27A0BA930
:1011B400504600F02FF9BDF8A401022802D19DF891
:1011C400A60120E1C00700F01D810DF5DC7B0BA911
:1011D400584600F01FF9BDF8B801022802D19DF865
:1011E400BA0110E1C00700F00D8173A80BA900F04B
:1011F40011F9BDF8CC01022802D19DF8CE0102E11B
:10120400C00700F0FF8078A80BA900F003F9BDF82F
:10121400E001022802D19DF8E201F4E0C00700F0E9
:10122400F1807DA80BA900F0F5F8BDF8F4010228BF
:1012340002D19DF8F601E6E0C00700F0E38082A841
:101244000BA900F0E7F8BDF80802022802D19DF8C6
:101254000A02D8E0C00700F0D58087A80BA900F0E7
:10126400D9F8BDF81C02022802D19DF81E02CAE07A
:10127400C00700F0C7808CA80BA900F0CBF8BDF81C
:101284003002022802D19DF83202BCE0C00700F00F
:10129400B98091A80BA900F0BDF8BDF8440202285A
:1012A40002D19DF84602AEE0C00700F0AB8096A8DC
:1012B4000BA900F0AFF8BDF85802022802D19DF83E
:1012C4005A02A0E0C00700F09D809BA80BA900F083
:1012D400A1F8BDF86C02022802D19DF86E0292E0DA
:1012E400C00700F08F80A0A80BA900F093F8BDF808
:1012F4008002022802D19DF8820284E0C00700F037
:101304008180A81C1222023608F1020809F10209A0
:101314000AF1020A0BF1020B019073A80230029049
:1013240078A8023003907DA80230049082A802308D
:10133400059087A8023006908CA80230079091A8E7
:101344000230089096A8023009909BA802300A90B7
:10135400A0A80DAD811C05F587700FF060F9019907
:1013640028460EF0AAFC05F1120031460EF0A5FC49
:1013740005F1240041460EF0A0FC05F13600494673
:101384000EF09BFC05F1480051460EF096FC05F169
:101394005A0059460EF091FC029905F16C000EF0CA
:1013A4008CFC039905F17E000EF087FC049905F18D
:1013B40090000EF082FC059905F1A2000EF07DFC70
:1013C400069905F1B4000EF078FC079905F1C60002
:1013D4000EF073FC089905F1D8000EF06EFC099923
:1013E40005F1EA000EF069FC0A9905F1FC000EF023
:1013F40064FC012029464FF4907224F8020B0EF08D
:10140400E0FC03E00E200221A07021800DF5257D73
:101414000EF019BDF0B503AF2DE9000F89B00EF041
:101424005BFD12D00EF09DFD0E21CDE9070107A84A
:10143400FFF783FD0EF067FC18BF00F07F411144F5
:101444004FEA114503D12946ACE00020ACE0C007C7
:1014540000F0A78007A8FFF770FD0EF054FC18BF3A
:1014640000F07F4111444FEA114601D1314699E021
:10147400C00700F0968007A8FFF75FFD0EF043FC5D
:1014840018BF00F07F4111444FEA114801D1414691
:1014940088E0C00700F0858007A8FFF777FAC1B29B
:1014A400C0F30729022949467CD0C00779D007A890
:1014B400FFF76CFAC1B2C0F3072A0229514671D072
:1014C400C0076ED007A8FFF761FAC1B2C0F3072BBB
:1014D4000229594666D0C00763D007A8FFF756FA19
:1014E4000EF068FA06925DD0C0075AD007A8FFF73D
:1014F4004DFA0EF05FFA059254D0C00751D007A8F8
:10150400FFF744FA0EF056FA04924BD0C00748D0C5
:1015140007A8FFF73BFA0EF04DFA039242D0C0073A
:101524003FD007A8FFF732FA0EF044FA029239D0FE
:10153400C00736D007A8FFF729FA0EF03BFA01924C
:1015440030D0C0072DD007A8FFF720FA0EF032FAEA
:10155400009227D0C00724D007A8FFF717FAC2B219
:10156400C0F30721022A1DD0C0071AD00098A17425
:1015740084F80AB084F809A084F80890A4F80680D6
:10158400A68065806074019820740298E0730398C3
:10159400A07304986073059820730698E072012084
:1015A40002E00E210220A170208009B00EF04BBC95
:1015B4004A68B2B180B56F46013A4A600A68D2E916
:1015C40000135B1A042B07D30B1D136021B10968A8
:1015D4000122C0E9002180BD0221016004210171C2
:1015E40080BD002101607047DCB504AF0EF074FCCF
:1015F4000FD0013848600968684606F0CEFD9DF8B2
:101604000000012808D19DF8010002212160207109
:10161400DCBD00202060DCBD01980121C4E900107C
:10162400DCBDE0B502AF8DED010A01A9042206F08C
:1016340079FD1021002818BF022108468CBDD4D49E
:10164400DCB504AF0C46014600208DF80600ADF869
:1016540004008AB201A9032809D0D3090A5409D085
:10166400D2B242F080020A5401301A46F3E7032250
:1016740001AB06E0084B01A9032203F017FE034661
:101684000A462046194606F04DFD1021002818BFD1
:1016940002210846DCBD00BF64240100F0B503AF9D
:1016A4002DE9000FADF5FA5D87B08B46814600F554
:1016B400B36AD0E90001CDE912A9084302D00120A0
:1016C40001F000BC06A809F5367200F5D0500130CF
:1016D400029009F10800039099F8B702059209F6FF
:1016E4003D02049209F52E720692DFE810F00F0015
:1016F400E100FC1A440076020F0330002800730056
:10170400B404CD04990540007F00190009F526763C
:1017140009F51A7CCDF850B07FCEACE87F00DBE24F
:10172400CDF850B099F8B8B2152089F8B802BBF1D9
:10173400150F00F0AD80D9F8184500F0E6BC99F813
:101744003D08002800F07C8003284BD14CE399F835
:101754002E1809F5307009F62E08002900F0738060
:10176400032900F00483DFF84C0A0BF09EFDD9F83E
:10177400BC0200F062BD99F8100709F5E266002882
:1017840000F06C80032840F0978099F80C0709F268
:101794000C7A002800F067800328119640F09080AE
:1017A40099F8080709F5E168002800F06580032826
:1017B40040F08A804E4609F2047996F8040700281E
:1017C40000F06380032840F08380139ED6F8FC5613
:1017D4002868DCE099F83D08002800F02E830328EF
:1017E40000F03383DFF8D0090BF05FFD09F2BA5142
:1017F40099F8BA051191DFE810F01D006F00761A10
:101804008305B405E305120641067306A206D30652
:10181400020731075E078D07A507230854088308CC
:10182400B208E108130942097309A209D109FD09A3
:101834002B0AA30AD9F87C65D9F8804500F043BD8A
:10184400D9F83858CAE2D9F82068D9F82418D9F850
:10185400285899F82D2899F82C387BE20698CDF869
:1018640050B004683CE0CDF850B0D9F8BC46D9F883
:10187400C056D9F8C4B64CE0D9F8D846D9F8DC0635
:10188400D9F8E016CDF850B05DE0D6F8F44671E032
:1018940001210020CDF8AC1FDFF820190EF08AF9E1
:1018A4000DF6A870CDF8A81FDFF814190AF0F6FD9C
:1018B400DFF810090BF0F9FCDFF80C090BF0F5FC6C
:1018C400DFF808090BF0F1FCDFF804090BF0EDFC7C
:1018D400DFF800090BF0E9FCDFF8FC080BF0E5FC8D
:1018E40009F52F754FF480614FF4806B28460EF094
:1018F400F4FDDFF8E8080BF082FD24680020C9F845
:10190400C056C9F8C4B609F20C7A89F80C07C9F8AC
:10191400BC461196002609F5D96080E83008C9F85C
:10192400D466DFF8BC38304629465A460CF0AEFD82
:101934000022C9F8D846C9F8DC06C9F8E01609F54A
:10194400E16889F80827C9F8EC16C9F8E806C9F867
:10195400E446A07910F07F00C9F8F00602F0858013
:101964000020DDF850B0C9F8F4464E4689F8040763
:1019740009F20479A07910F07F00C6F8F80602F0A5
:10198400798006F5DF65C6F80047C6F8FC5605F011
:101994008FFEDBF80010CDF850B00EF069FADFF8D6
:1019A400440800F10804D4E8AFBFD6F8000729685A
:1019B400006805F06BFE70B3286800F01F0080F02B
:1019C40010002BFA00F0C00701F0FE82DDF84C9005
:1019D4000121D9F8F80600F01F0080F0100001FA88
:1019E40000F0C043D4E8EF1F0140C4E8E21F002A1E
:1019F400F8D10120D9F8E836D9F8EC46D9F8F02620
:101A040089F80407D9F8E40601680DF6A870009473
:101A14000CF084F808E0012089F8000040F201107D
:101A2400DDF84C90ADF8A80FDDF8A81F0122DDF811
:101A3400AC0FDDF850B088F80020CAB2022A01F0D9
:101A4400CA82CA070AD001208AF80000C1F3002024
:101A54000E90C1F307200D9007202BE0D9F8D4167F
:101A6400D9F8C8460E18C9F8D466A188884280F00F
:101A74000082DFF8740701248AF800400BF0BFFCF1
:101A8400B6F5806F02F2608009F52F700DF5BD5137
:101A94008219C1E90214C1E900020DF6A87006F02A
:101AA4007CFB0EF053FB40F022829DF8A93F0520F9
:101AB400CDE90D330F901520109005A80DF5287968
:101AC4000DF5257A00F5BC50494690E82C002CC150
:101AD40002A800F5BC5051460EF029FB0A8088701C
:101AE4009CA801A9242201F5BB510EF098FD8CA8F5
:101AF40001A93F2201F5B9510EF091FD63A80DF53E
:101B0400B451A4220EF040FD0DF16C0B0DF5AB5158
:101B140040F21F1258460EF037FD03A80DF1580885
:101B240000F5AA50414690E87C0001207CC10DF5E7
:101B34009F6511990870284699E80E000EC0BAE80E
:101B440006000DF2EC400EF086F90DF599609CA9A3
:101B54000EF065FD0DF591608CA90EF0DBFAF9A885
:101B640063A9A4220EF010FDB1A8594640F21F1239
:101B74000EF00AFD0DF52C7998E85E0048465EC02B
:101B84009DF85700DDF840808DF8AE02BDF8550091
:101B9400B8F1150FADF8AC022FD10F9D6FF0010015
:101BA4000D996C1F50FA84F0B0FA80F04009084295
:101BB40000F06481DDF84C900DF6A871D9F8780234
:101BC4000068C9F8B80209F52F7091E81C001CC020
:101BD400DDF850B0002089F8C8020698DBF8001040
:101BE400CDF850B0069006F091F9002800F074800A
:101BF4000EF008F8042001F062B9139E0020F07280
:101C04000E9886F80880B0720F98707206F10C0076
:101C14000F9095E80E000EC00DF2EC410B220998CE
:101C240030770898B06106F11D000EF0F8FC06F15B
:101C340028000DF599610EF091F80A980DF591615F
:101C44003F2286F84C0006F14D000EF0E8FC06F148
:101C54008C00F9A9A4220EF097FC0B9840F21F12F5
:101C640086F8300106F23110B1A90EF0D8FC99E8DB
:101C74003E0006F514704FF0130BB1464FF0000A06
:101C84003EC04146002500240023BDF8AC020C9A56
:101C9400A6F865029DF8AE0286F8642286F867020B
:101CA4000120012611904FF00008DFE811F01F0019
:101CB400BE0115007102920115005A0915001500A4
:101CC400150015001500150015006A09B30215006A
:101CD4008009090215001500D9F87842002009F599
:101CE400E26689F81007C9F8B842F9E5D9F80C009A
:101CF400C9F88402C0074FF4187018BF4FF4197064
:101D040003990DF07FFF0858C9F8B8020DF04CFF95
:101D1400069E002800F05A81002199F8853299F82E
:101D2400862299F8874200F11005C9F88802C9F89B
:101D3400206809F5307009F62E0889F82E1801215B
:101D4400C9F8285889F82D2889F82C38C9F8241896
:101D540089F8B8420024C9E9BC6142EA0321C9F800
:101D6400005389F80A43C9F8F842A9F80413DBF8C8
:101D74000010FEF767FA0DF058FF08BF032188F83A
:101D8400001000F01D81C00740F0FF80D9F88802E0
:101D9400DFF858240DF5EA64018C1030C9E9AE026D
:101DA400C9F8CC02C9F8C4024FF4AC62481CA9F8C3
:101DB400D012A9F8C8120DF6A871A9F8C0022046DD
:101DC4000EF0CCF9059821464FF4AC620EF0C6F93A
:101DD400069D002089F83D08C9F83858686880478E
:101DE4000EF014F80DF0FFFE0EF0CCF80DF01DFF10
:101DF40008BF0321049A117000F0DF80C00740F08F
:101E0400C480D9F888020022018C89F83D28069AFA
:101E14001030C9F8CC02C9F8C402C9F83828DFF870
:101E2400CC23A9F8D012C9E9AE0201F58070A9F853
:101E3400C80201F20110A9F8C002D9F8385868683C
:101E440080470DF0E3FF0DF0CEFE0EF09BF80DF091
:101E5400ECFE08BF0321049A117000F0B480C0079F
:101E640040F09380D9F88802CDF850B005F0CAFA52
:101E740032E7D9F8CC56D9F8D0B652E500200E9EF8
:101E84008DF8A85F8DF8AA0FD9488DF8A96F0BF0CB
:101E9400AAFAD8480BF086FAE0B2032828BF012436
:101EA400E0B2DDF84C90002800F07280012840F088
:101EB4007C800DF6A870441C01200BF08BFACE48F0
:101EC4000BF070FAE8B2DFE810F00500940890080F
:101ED40092088E0800200BF07DFAC8480BF062FAD5
:101EE400F0B2182841F08F80002001F086B8DDF8A8
:101EF400AC5F0E23142D3FF6DAADDFE815F01500C4
:101F04008509C70907099F0E950AE80A050AEC0A1C
:101F14007009EE0AED084509AA0ABE08C409BB08FF
:101F24007D0AEA0A010BD30A0420CDF8AC0F0DF5A3
:101F3400BD50CDF8A80F0DF6A870FEF73BFDC00705
:101F44000B467FF4B4ADC8B20E230D4602283FF40D
:101F5400AEAD0DF6A870FEF719FD044680B2030A73
:101F6400E0B202283FF4A3ADE0074FF00E033FF4C4
:101F74009EAD0DF6A870FEF709FD81B20E0AC1B23E
:101F8400022941F06385334691E5D9F88802FBE0E4
:101F940000200BF01FFA9A480BF004FA994970B22A
:101FA40051F82000007801F028B802200BF012FA52
:101FB400304605F0EBFA01F022B8072000F07FBFAD
:101FC400062000F07CBF082000F079BF052000F057
:101FD40076BFD9F87C020DF5EA64C822011D2046BB
:101FE4000EF0D2FA0DF6A87021460DF0D9F9DDF8FD
:101FF400B00F9DF8A8AF9DF8A94F9DF8AA6F9DF862
:10200400ABBFBDF8AC5FBDF8AE8F4FF41372119047
:102014000DF6A87000F10C010DF204500EF0B4FAA4
:102024000C9A5B464FF0050B4AE0BDF8F8044FF4F8
:102034001871A9F8B4029DF8FA0489F8B60299F85F
:10204400B402002818BF4FF4197103980DF0DAFD9B
:102054004058C9F8B8020DF0A7FD069B002800F00F
:102064008B800021B9F8B522C9F88C021030C9F868
:10207400203889F8B81289F82E180121C9F82808DF
:10208400A9F82C28C9F82418DBF8001009F53070D9
:1020940005F0A0FEC0B2022871D0C00772D1D9F8F1
:1020A4008C0299F8B86299F8B64299F8B5A299F8F1
:1020B4006452CDF850B005F0A5F92A464FF0020B52
:1020C400D0B2FF283FF408AE1198A9F8C05289F89D
:1020D400BD421546D9F874420DF204514FF41372FF
:1020E400A9F8C28289F8BF3289F8BE6289F8BCA215
:1020F400C9F8C40209F532700EF046FA1520C9F881
:10210400184589F8145589F8B8020DF6A87009F233
:10211400B92140F25F2201300EF081FA8DF8A8BF98
:10212400DDF850B00DF26C70069DC0F8A04AC0F8FE
:102134009CBA2068002841F027864FF0FF30211D0B
:102144000DF6A8725B4620600DF5EA6003F042FCD0
:102154002068013020609DF8500715283FF4BCAD7D
:102164000DF5EA6128464FF418720EF00DFADDF809
:1021740048A00E2000F0A3BE092000F0A0BE0A2053
:1021840000F09DBED9F88C0205F03CF900F026BEA3
:102194000DF6A8740F99D9F87C5220460DF04BF82F
:1021A400281D2146C8220EF0EFF9E8881649088058
:1021B40092E500BF082201005C1F0100AC2401006D
:1021C400B424010044250100982501009C1F01004E
:1021D400F00A0100981A0100DC2601000800000042
:1021E400AC1F01000C3D002009000000417E0000EE
:1021F40017000000290000002F0000000600000066
:102204002E0000007435010000000020497E00000B
:10221400397E0000D9F868020DF0F4FCC9F8B80260
:102224000DF0C2FC002800F00886C9F8900200F105
:102234001001D9F86C02C9E9AE10DBF8001005F002
:1022440053FF002800F0FF850446C9F89402D9F82A
:10225400B86204A80DF54E654FF4317200F5DA51F9
:102264000DF023FF0DF16C0A0DF5AB5136225046EB
:102274000EF0D5F90DF5EA680DF6A87140F28D520D
:1022840040460EF081F9069829464FF431720DF05C
:1022940065FF1034514609F28450DDF848A0362217
:1022A400C9F87C65C9F880450EF0B9F900204146AB
:1022B40040F28D5289F8BA0509F2BB500EF0AFF91D
:1022C40009F2BA501190C9F83864C9F83C440021A5
:1022D400308A89F8261B09F25441C9F8C062C9F84A
:1022E400B862C9F85464C9F8201B5FF8E010A9F873
:1022F400C402A9F8BC020B30C9F85814A9F85C044C
:102304000DF041FB03F0EAFDC1B2022900F08F8514
:102314000DF0BCFC40F0A5840DF0C3FCA9F88605C3
:1023240009F286500CF090FAA9F88405D9F838041B
:102334005FF84821018AC9F8D002C9F8C802C9F86F
:10234400600409F58C60C9F864240DF09FFA01F665
:102354004640A9F8D412A9F8680401F54060A9F828
:10236400CC020DF059FAC1B2022900F05C850DF0DF
:102374008DFC40F076840DF094FC89F8950509F203
:1023840095500CF072FA89F89405D9F838045FF87E
:10239400A421018AC9F8E002C9F8D802C9F86C047A
:1023A40009F26C40C9F870240DF070FA01F6474048
:1023B400A9F8E412A9F8740401F54060A9F8DC0254
:1023C4000DF02AFAC1B2022900F033850DF05EFC4B
:1023D40040F047840DF065FC89F8970509F29750A1
:1023E4000CF043FA89F89605D9F838045FF8E4212B
:1023F400018AC9F8F002C9F8E802C9F8780409F5B5
:102404008F60C9F87C240DF0A0FB01F58770A9F852
:10241400F412A9F8800401F58070A9F8EC020DF01B
:10242400B2FA03F07DFDC1B2022900F022850DF05D
:102434002DFC40F016840DF034FCA9F88A0509F24D
:102444008A500CF03CFAA9F88805D9F838045FF8EA
:102454004022018AC9F80003C9F8F802C9F88804BF
:1024640009F59160C9F88C240DF042FDA9F8041314
:10247400A9F8900401F54060A9F8FC020DF083FA74
:1024840003F0F2FCC1B2022900F003850DF0FEFB5B
:1024940040F0E783010E000AAAF8000050468AF8CB
:1024A40002100CF014FADDF84C905FF8C022C9F861
:1024B4008404D9F83804018AC9F81003C9F8080358
:1024C400C9F8940409F29440C9F898240DF0DEF98F
:1024D40001F12800A9F81413A9F80C13A9F89C0415
:1024E4000DF09AF9C1B2022900F0CF840DF0CEFBB1
:1024F40040F0B7830DF0D5FB89F89C0509F29C5098
:102504000CF0B3F989F89B05D9F838045FF8242353
:10251400018AC9F82003C9F81803C9F8A00409F509
:102524009460C9F8A4240DF0B1F901F20510A9F8DA
:102534002413A9F8A80401F58070A9F81C030DF070
:1025440022FA03F02BFCC1B2022900F0A6840DF09C
:102554009DFB40F086830DF0A4FB89F89E0509F2EB
:102564009E500CF093F989F89D05D9F838045FF86A
:102574008423018AC9F83003C9F82803C9F8AC04D4
:1025840009F2AC40C9F8B0240DF080F901F583706C
:10259400A9F83413A9F8B40401F58070A9F82C0340
:1025A4000DF0F1F903F0DEFCC1B2022900F02B8436
:1025B4000DF06CFB40F055830DF073FB89F8A0051A
:1025C40009F5B4600CF073F989F89F05D9F838045B
:1025D4005FF8E823018AC9F84003C9F83803C9F849
:1025E400B80409F59760C9F8BC240DF04FF901F15E
:1025F4001900A9F84413A9F83C13A9F8C0040DF074
:10260400C2F903F0CBFBC1B2022900F0F8830DF04C
:102614003DFB40F026830DF044FB89F8A20509F246
:10262400A2500CF033F989F8A105D9F838045FF801
:102634004424018AC9F85003C9F84803C9F8C404FA
:1026440009F2C440C9F8C8240DF020F901F10F00C3
:10265400A9F85413A9F84C13A9F8CC040DF0DCF82C
:10266400C1B2022900F001840DF010FB40F0F982A0
:102674000DF017FB89F8A40509F2A4500CF0F5F845
:1026840089F8A305D9F838045FF8A024018AC9F8A9
:102694006003C9F85803C9F8D00409F59A60C9F869
:1026A400D4240DF0F3F801F11200A9F86413A9F889
:1026B4005C13A9F8D8040DF0AFF8C1B2022900F0F8
:1026C400BE830DF0E3FA40F0CC820DF0EAFA89F80B
:1026D400A60509F2A6500CF0C8F889F8A505D9F8A2
:1026E40038045FF8D824018AC9F87003C9F868036C
:1026F400C9F8DC0409F2DC40C9F8E0240DF025FA3D
:1027040001F54660A9F87413A9F8E40401F54060E2
:10271400A9F86C030DF06CFBC1B2022900F09D8393
:102724000DF0B4FA40F09D820DF0A0FAA9F8BC05B2
:10273400D9F838040022018A89F8462B5FF8342539
:102744000DF0DBF90DF098FBC1B2022900F06983AA
:10275400C10702D0CDF850B0FBE2000A0DF580515C
:10276400A1F860050DF5AB500CF0D4F8139E139D41
:10277400DDF84CC0139C8646D9F884041399139B46
:10278400B9F88885139A96F8A56595F8A355149019
:10279400B9F88405B1F8BC95139994F8A14593F858
:1027A4009F3592F89D258CF85364139E91F894A557
:1027B40013991090584686F85254139D91F896B583
:1027C400139985F85144139C91F89B1584F850345F
:1027D400139B83F84F24139A82F84E1413995FF8CD
:1027E400D42581F84DB4834613981399A0F84894DE
:1027F400DDF84C90109881F84CA41399DDF848A0AA
:10280400A9F844041498A1F84AE4A9F84684C9F83C
:102814004004D9F83C04018AC9F88003C9F8780354
:10282400C9F8E80409F59D60C9F8EC240DF08DF9A8
:1028340001F10B00A9F88413A9F87C13A9F8F0049A
:102844000DF0A1F803F04AFBC1B2022900F0158390
:102854000DF01CFA40F005820DF023FAA9F88E055C
:1028640009F28E500BF0F0FFA9F88C05D9F83C045E
:102874005FF88826018AC9F89003C9F88803C9F863
:10288400F40409F2F440C9F8F8240CF0FFFF01F64F
:102894004640A9F89413A9F8FC0401F54060A9F88E
:1028A4008C030CF0B9FFC1B2022900F0EA820DF0EA
:1028B400EDF940F0D6810DF0F4F989F8A80509F591
:1028C400B5600BF0D2FF89F8A705D9F83C045FF88E
:1028D400E426018AC9F8A003C9F89803C9F80005D9
:1028E40009F5A060C9F804250CF0D0FF01F64740B3
:1028F400A9F8A413A9F8080501F54060A9F89C03F8
:102904000CF08AFFC1B2022900F0D3820DF0BEF9A7
:1029140040F0A7810DF0C5F989F8AA0509F2AA507B
:102924000BF0A3FF89F8A905D9F83C045FF8242724
:10293400018AC9F8B003C9F8A803C9F80C0509F25B
:102944000C50C9F810250DF000F901F58770A9F8AD
:10295400B413A9F8140501F58070A9F8AC030DF0BF
:1029640012F803F0DDFAC1B2022900F072820DF010
:102974008DF940F076810DF094F9A9F8920509F2E9
:1029840092500BF09CFFA9F89005D9F83C045FF82D
:102994008027018AC9F8C003C9F8B803C9F81C051F
:1029A40009F21C50C9F820250DF0A2FAA9F8C413A5
:1029B400A9F8240501F54060A9F8BC030CF0E3FF75
:1029C40003F052FAC1B2022900F06B820DF05EF9F5
:1029D40040F04781020A5146000E21F8132F8870F7
:1029E40008460BF074FFDDF84C905FF80028C9F836
:1029F4001805D9F83C04018AC9F8D003C9F8C803FA
:102A0400C9F8280509F5A560C9F82C250CF03EFF86
:102A140001F12800A9F8D413A9F8CC13A9F83005BA
:102A24000CF0FAFEC1B2022900F0E5810DF02EF996
:102A340040F017810DF035F989F8AF0509F2AF5070
:102A44000BF013FF89F8AE05D9F83C045FF864284D
:102A5400018AC9F8E003C9F8D803C9F8340509F2B2
:102A64003450C9F838250CF011FF01F20510A9F80B
:102A7400E413A9F83C0501F58070A9F8DC030CF017
:102A840082FF03F08BF9C1B2022900F0B0810DF08E
:102A9400FDF840F0E6800DF004F989F8B10509F27B
:102AA400B1500BF0F3FE89F8B005D9F83C045FF897
:102AB400C428018AC9F8F003C9F8E803C9F8400535
:102AC40009F5A860C9F844250CF0E0FE01F583700F
:102AD400A9F8F413A9F8480501F58070A9F8EC03E6
:102AE4000CF051FF03F03EFAC1B2022900F0B981A3
:102AF4000DF0CCF840F0B5800DF0D3F889F8B305AB
:102B040009F2B3500BF0D3FE89F8B205D9F83C04AE
:102B14005FF82829018AC9F80004C9F8F803C9F83C
:102B24004C0509F24C50C9F850250CF0AFFE01F1E8
:102B34001900A9F80414A9F8FC13A9F854050CF019
:102B440022FF03F02BF9C1B2022900F07E810DF0BF
:102B54009DF840F086800DF0A4F889F8B50509F2D7
:102B6400B5500BF093FE89F8B405D9F83C045FF82E
:102B74008429018AC9F81004C9F80804C9F8580559
:102B840009F5AB60C9F85C250CF080FE01F10F007B
:102B9400A9F81414A9F80C14A9F860050CF03CFE6B
:102BA400C1B2022900F037810DF070F859D10DF04F
:102BB40078F889F8B70509F2B7500BF056FE89F892
:102BC400B605D9F83C045FF8DC29018AC9F8200469
:102BD400C9F81804C9F8640509F26450C9F86825ED
:102BE4000CF054FE01F11200A9F82414A9F81C14E5
:102BF400A9F86C050CF010FEC1B2022900F0558151
:102C04000DF044F82DD10DF04CF889F8B90509F20E
:102C1400B9500BF02AFE89F8B805D9F83C045FF8DE
:102C2400142A018AC9F83004C9F82804C9F87005BF
:102C340009F5AE60C9F874250CF087FF01F546600C
:102C4400A9F83414A9F8780501F54060A9F82C0412
:102C54000DF0CEF8C1B2022900F0D9800DF016F8BB
:102C640060D0CDF850B0DDF844B004A80DF6A87AD1
:102C740000F5DA529AE85B0015465BC501208BF833
:102C8400000006A892E87A00B9F1000F00F5A95AED
:102C940050467AC040F09680DDF84C90D9F87C021A
:102CA4009AE87C0000F1D0017CC180F8F7E080F85C
:102CB400F6C080F8F580079980F8F410089980F838
:102CC400F310099980F8F2100A9980F8F1100B9921
:102CD40080F8F0100C99A0F8EE100D99A0F8EC1003
:102CE4000E99A0F8EA100F99A0F8E8101099C0F80E
:102CF400E410D9F8940204F085FBD9F8900204F0AA
:102D040081FBD9E99F54D5F8F82005F1D00021467C
:102D140005F0B8FAD5F8FC20281D214605F0F4FA90
:102D2400FEF7DABF0CF0A2FFA9F8BC05D9F83C0401
:102D34000022018A89F8462B5FF8302B0CF0DDFE67
:102D44000DF09AF8C1B2CDF850B0022967D0C1078E
:102D540002D04FF0010986E7000A0DF58051A1F871
:102D640060050DF5AB500BF0D5FD0C90D9F81805A6
:102D740009F5886199F8B48599F8B6C599F8B8E564
:102D84000DF6A8751090B9F88C050F90B9F8900558
:102D94000E90B9F8BC050D9099F8A7050B9099F819
:102DA400A9050A9099F8AE05099099F8B00508901C
:102DB40099F8B205079091E8050E85E8050E4FF0E5
:102DC400000950E7DDF84C90D9F8940204F01AFB9E
:102DD400D9F8900204F016FB0CF014FF0122002035
:102DE400012189F8B7220A91C9E900206BE0DDF8D6
:102DF4004C90162060E0DDF84C9015205CE0DDF886
:102E04004C900B2058E0DDF84C900A2054E0DDF89B
:102E14004C901B2050E0DDF84C9019204CE01C2015
:102E24004AE00F2048E0DDF84C90042044E0032001
:102E340042E0DDF84C9005203EE00B203FE0DDF859
:102E44004C900D2038E00C2039E0DDF84C9018202F
:102E540032E0DDF84C9013202EE0DDF84C900E208B
:102E64002AE0DDF84C90172026E0DDF84C900C2089
:102E740022E0DDF84C9006201EE0DDF84C90102096
:102E84001AE0DDF84C90112016E0DDF84C90082093
:102E940012E0DDF84C9007200EE0DDF84C9009209C
:102EA4000AE0DDF84C90142006E0DDF84C901A207E
:102EB40002E0DDF84C901220119908700D2089F879
:102EC400B70200200A90DAF8B005DAF8B415CDF8A4
:102ED40050B0014341F0628399F8800B0B91F0B13B
:102EE400042832D199F8F00F09F57F6888B30328D4
:102EF40040F0618799F8AD0F09F6AD76DFE810F080
:102F040005005F07F30E070B2F0B99F8AE1FD9F8D6
:102F14009C4FD9F8A02FD9F8A80F01F093BADAF88A
:102F2400B805DAF8BC15D9F8745BCAF8C805D9F83D
:102F3400580BCAF8CC15D9F8701BC9F87C5BC9F8D2
:102F4400781BC9F8680B00F045BFD9F8885B00F01E
:102F540049BFD9F88CBBD9F888AB9BF8006000F066
:102F6400B1BFDC4845F20F284FF0070BD0F800A0A2
:102F740045684FEA1A634FEA1A464FEA1A24FFF7E4
:102F84009FB899F80E0099F80C40002845D0012804
:102F940068D1D9F870020C2C00F09F840B2C00F03F
:102FA4009D840A2C7EF498AE043000F097BCD9F8C6
:102FB4007C0299F80C100170D9E99F01D0F8002126
:102FC40005F0E4F9FEF788BE032089F80000DDE986
:102FD400139B88F80000032011998AF80000DDF89B
:102FE40048A008706BE7042007E0022005E00320F6
:102FF40000E001200AF0EEF930460AF0EBF90AF09D
:10300400CBFAFEF769BE01200AF0E4F9B2480AF0EF
:10301400C9F920460BF0EEFDF1E799F80D00D9F857
:1030240070528DF8A84F16468DF8A90FAB480AF0D8
:10303400DAF9A9480AF0B6F90DF6A8700BF0DAFD32
:1030440030460AF0C7F90AF0A7FA0C2C00F04A84BB
:103054000B2C00F048840C980A2C7EF43DAE043509
:1030640000F042BCD9F8700200214170C170417176
:10307400FEF732BE102500F0C1BD0DF6A8700DF5A7
:10308400BD5105F08AF80DF061F83EF40EADDDF89F
:10309400AC0F0E2317283EF60AAD00250024DFE806
:1030A40010F0920518006005620564056605680560
:1030B4006A056C056E0570055A05720574055C0594
:1030C40076055E0578057A057C057E058005820512
:1030D4009105012400F077BD01200DF5BD510DF6D9
:1030E400A875C1E9DE1006A800F5D8512846FDF7F9
:1030F4009CFDBDF8A86F9DF8AA9F022E40F0168291
:103104000DF10B00152500F5D1504FE20DF6A87511
:103114000DF5BD512846FDF786FA0DF5805090F85F
:10312400E001022800F08E81284606A90CF06FFD0C
:1031340002A80CF0AFFE01A805F11C010CF0DEFDA5
:103144009DF8E89F05F141010DF5CD500CF0E2FF2B
:1031540007A80CF054FE0DF580500CF06FFF04A886
:1031640000F5DA500DF05BFA05F5117001A990E84D
:103174007C0001F5C7510DF580507CC180F8E099C1
:103184000DF580500325FEE203200DF5BD51C1E984
:10319400A51005A90DF6A87001F5D151FEF724FA82
:1031A400DDF8A80F9DF8AC5F02282BD0C0074FF0C4
:1031B4000E0000F0F6839DF8AF8FBDF8ADAF05A902
:1031C4000DF6A87001F5D151FDF7DDFCDDF8A80F6F
:1031D4009DF8AC9F022840F0C4834846E1E30320F5
:1031E4000DF5BD51C1E9A31003A90DF6A87001F5B1
:1031F400D151FEF7F9F9DDF8A80F9DF8AC5F02286C
:1032040040F0D7812846CCE30320CDF8AC0F0DF570
:10321400BD50CDF8A80F0DF6A870FDF7CBFBC00785
:103224000B467EF444ACC8B20E230D4602283EF48D
:103234003EAC0DF6A870FDF7A9FB044680B2030A64
:10324400E0B202283EF433ACE0074FF00E033EF444
:103254002EAC0DF6A870FDF799FBC0F30721C2B29E
:10326400022A0B463EF423AC0CF0D7FD3EF41FAC0F
:103274000DF5805080F81A1A05F0010124F0FF00C2
:1032840001250844AFE30F2500F0B8BC0320CDF8B6
:10329400AC0F0DF5BD50CDF8A80F0DF6A870FDF7D5
:1032A40075FBC0F30724C1B2022923463EF4FFABE9
:1032B4000CF0B3FD3EF4FBAB0DF6A870FDF766FB16
:1032C40081B20D0AC1B2022940F072832B46FEF787
:1032D400EEBB00BF0402FF00300000000A00000043
:1032E400A80A0100E00A0100881A0100A8250100CB
:1032F400CC1E010019760000B82501007C1F0100D6
:10330400D41E01008424010001200DF5BD51CDF827
:1033140054070620CDF85017CDF8A81FCDF8AC0FF0
:103324000DF6A870FDF732FBC0F30724C1B20229E1
:1033340023463EF4BCAB0CF070FD3EF4B8AB0DF686
:10334400A870FDF723FB064680B2030AF0B20228F8
:103354003EF4ADABF0074FF00E033EF4A8AB0DF610
:10336400A870FDF713FBC0F30725C1B202292B4651
:103374003EF49DAB0CF051FD3EF499AB0DF6A870F4
:10338400FDF704FBC0F3072AC1B2022953463EF4F9
:103394008EAB0CF042FD3EF48AAB0DF6A870FDF73F
:1033A400F5FAC0F30728C1B2022943463EF47FABC5
:1033B4000CF033FD3EF47BAB0DF6A870FDF7E6FA96
:1033C400C0F30729C1B202294B463EF470AB0CF09E
:1033D40024FD3EF46CAB0DF5EA60FDF7AEFD0CF098
:1033E40092FC18BF00F07F4111444FEA114140F0B4
:1033F400B3840B46FEF75BBB0DF6A8700DF5BD510B
:1034040004F0CBFE0CF0A2FE3EF44FABDDF8AC1F93
:103414000120012904D00E2300297EF448AB0020AA
:103424000DF5805111253AE00DF6A8750DF5BD5145
:103434002846FDF7F8F80DF5805090F8E0010228D1
:1034440040F072819DF8A80F0DF5805181F82B0A88
:10345400DAE301200DF5EA61CDF854070DF5BD500E
:10346400CDF850070DF6A870FEF7BEF8DDF8A81FDA
:103474009DF8AC0F022900F0CE83C9074FF00E036C
:103484003EF415AB9DF8AF1FBDF8AD2F0D2542EAF4
:103494000141029A1180090C91700DF5805181F857
:1034A400180AABE302200DF5BD51C1E9A51005A82A
:1034B40000F5D150FDF76AFA81B20D0AC1B20229B2
:1034C40040F068810DF5805080F82B5A9CE3062566
:1034D40094E3122592E3082590E302200DF5BD51F3
:1034E4000DF6A874C1E9E71007A80CF055FDBDF866
:1034F400A86F9DF8AA8F022E40F08381404650E2C7
:1035040002200DF5EA61CDF854070DF5BD50CDF854
:1035140050070DF6A870FDF7D6FCBDF8A80F0228D9
:1035240040F0CE819DF8AA3FFEF7C1BA05A8E91C78
:103534000B220CF0ABFCDDF8B60F9DF8BA8F05F149
:1035440013010B22089006A800F5D6540CF039FCA0
:1035540005F11E010DF5EA600CF000FCF0074FF0D8
:1035640015054FF00E010DF10B0000F5D1501ED0E2
:1035740005A80B220B2500F5D15102980DF04FF848
:103584000DF5805080F8148A02A806CC0CF062FD78
:1035940021880180A178817001A80DF5EA6100F508
:1035A400CF500DF03CF806A800F5D0504946017004
:1035B4002BE3C0074FF00E0000F0F3819DF8AFBF7E
:1035C400BDF8ADAF03A80DF6A8740CF0D6FCBDF899
:1035D400A86F9DF8AA0F022E00F0E3811090DDF889
:1035E400AB0FDDF8AE1F0DF5BD52DDF8B29FC2F88A
:1035F400AB13C2F8A8039DF8B60F04F10F010B2218
:103604000E9007A800F5D95840460DF008F806A812
:1036140004F11A01242200F5D8500DF000F89DF8A9
:10362400E60F04F13F013F220F9006A800F5D650A3
:103634000CF0F5FF05A804F17E01A4220CF026FC91
:103644000CF088FD00F0AD8103A80DF6A8740CF011
:1036540094FCBDF8A86F9DF8AA0F022E00F0A1817A
:103664000D90E11C0DF5EA6040F21F120CF0D7FF3B
:103674000CF070FD00F09581CDF8209004A80DF5B4
:10368400EA6140F21F124AEA0B4400F5DA500CF0EA
:103694007BFF0E980DF580510DF5BD5281F8140A8B
:1036A400D2F8AB13D2F8A803C2F88012C2F87D0294
:1036B40002A8B8E806000CF0CDFCB8F800100180B0
:1036C40098F80210817001A806A900F5CF5001F501
:1036D400D8510CF0A4FF0F980DF580513F2281F8CA
:1036E400E00906A90DF5CD5001F5D6510CF097FF70
:1036F40007A805A9A42200F5C75001F5D1510CF083
:1037040043FF0299200C88700DF580500C800DF554
:10371400805180F8185A1098092581F81C0A06A8C7
:1037240000F5C7510D9841E1284606A90CF06FFA3F
:1037340002A80CF0AFFB01A805F11C010CF0DEFAA5
:103744009DF8E89F05F141010DF5CD500CF0E2FC28
:1037540007A80CF054FB0DF580500CF06FFC04A886
:1037640000F5DA500CF05BFF05F5117001A990E843
:103774007C0001F5C7510DF580507CC180F8E099BB
:103784000DF58050052580F8148A0DF5805080F8D9
:10379400F8A83AE2C00700F0F4820DF5BD500E21FE
:1037A400D0F89802002800F02B820DF5BD500221BC
:1037B400D0F89402CDF85417CDF850070DF5EA600F
:1037C400FDF7E4F8C1B2C0F307260229314600F040
:1037D4001782C0074FF00E0100F01282DDF8540783
:1037E400002800F00D82DDF850470DF6A870214640
:1037F40004F0D3FC0CF0AAFC40F057819DF8A91FFB
:10380400FEE106A8E11C0B2200F5D6500CF007FFE0
:10381400DDF8B69F9DF8BAAF06A804F113010B2298
:1038240000F5D85528460CF0FAFE05A804F11E014F
:1038340024220CF02BFB0CF08DFC00F0B28007A8C6
:103844000DF6A8740CF0A8FBBDF8A86F9DF8AABFEC
:10385400022E00F0A580E11C0DF5EA600CF05AFC84
:103864000CF078FC00F09D800DF5CD500DF5EA616B
:103874003F22CDF820900CF0D2FE06A80B2200F5D2
:10388400D65102980CF0CBFE0DF5805080F814AAA6
:1038940002A806CD0CF0DEFB29880180A97881708E
:1038A40001A805A900F5CF5001F5D1510CF0B7FEE0
:1038B4000DF580500A250DF5CF5180F8188AC3E024
:1038C400DDF8A86FDDF8AC5F300C40EA0544B0B217
:1038D40002280ED12346FEF7EAB8023000214170D7
:1038E400FEF7FAB902350C98287001206870FEF7CB
:1038F400F3B9F0074FF00E033EF4D9A80DF6A87003
:103904000DF5EA61FDF7DFFABDF8A80F02283FF4D0
:1039140009AEDDF8A82FDDF8AC1F100C93B240EA15
:103924000140022B00F07781D3074FF00E033EF4E1
:10393400BEA8330E120E029E42EA0122090E43EA89
:1039440005232D0EB1720DF5805135713360C6F823
:103954000620132581F8184A0DF5805181F81E0AB6
:103964004CE1DDF8B43FC007DDF8AD1FDDF8B02F42
:103974004FF00E0008930DF5BD53C3F83B23C3F875
:1039840038130ED005A80DF6A87400F5D1512046C1
:10399400FDF7F9F8DDF8A86F9DF8ACBF022E25D12C
:1039A40058460DF10B01152501F5D15108702CE194
:1039B4000CF033FA3EF47BA80DF6A870FCF7E6FF92
:1039C400C1B202294DD0C1074FF00E033EF46FA8D7
:1039D40000F47F400DF58052010A2843022582F845
:1039E4001A1A44EA00200DF5805105E1611D0DF518
:1039F400EA640B220CF0E5F90CF0ACFBD1D002A97F
:103A04000CCC4AEA084001F5D0510CC10DF5BD5368
:103A140022880A80A2788A70D3F83813D3F83B231B
:103A2400C3F87D12C3F88022029A010C10800DF5B0
:103A34008050917080F8185A0DF580500C2580F84C
:103A44001C9A05A800F5D0515846AFE70CF0E5F9EB
:103A54003EF42DA80DF6A870FCF798FFC1B2022918
:103A64000ED180B2030AFEF722B85FF88C075FF824
:103A74008C2703E05FF898075FF894270CF026FB87
:103A8400C1074FF00E033EF412A800F47F4004F483
:103A94007F41304341EA004005F00101002508441C
:103AA4000DF5BD51C1F87802A8E0D4E90081DDF834
:103AB400AC0FA1EB080204218242C0F0A18008EB04
:103AC4000001B8F1000F216000F099800E216228F6
:103AD40040F0968098F8004006A808F101010922F8
:103AE40000F5D05003300CF09AFD98F80E000DF557
:103AF40080510B2281F8140AD8F80A0008F10F014A
:103B0400089002A80CF0C6F901A808F11A010CF0FB
:103B1400F5F898F83E000DF58051232281F8E0096C
:103B240008F13F010DF5CD500CF079FD0DF58050F5
:103B340080F81A4A0DF5805080F8196A0DF5805006
:103B440080F8185A142560E05FF8602830464FF476
:103B5400806108F0BBFD0B2435E00E2433E0102413
:103B640031E002242FE003242DE004242BE005247B
:103B740029E0062427E0072425E0082423E009247B
:103B840021E00A241FE00C241DE00D241BE00F2477
:103B940019E0112417E0122415E0132413E014246F
:103BA40011E015240FE00DF5BD500423D0E9000108
:103BB40088423DF47CAF10F8015B0DF5BD5116242D
:103BC400086000E017240DF6A8700DF5BD5104F04F
:103BD400E4FA0CF0BBFA3DF468AFDDF8AC0F0E2349
:103BE40002283DF664AF0DF5805181F81A0A44EAC3
:103BF40005200DF580510E25A1F8180A1EE0014696
:103C04000DF5805080F82B1A15250DF58050152DD3
:103C140090F82B0A02D10346FDF749BF0F900DF52A
:103C2400805090F8F8080B900DF5805090F8E0095A
:103C34000A900DF5805090F8140A099004A806A97A
:103C4400AB4601F5D05100F5BD5891E81C00404643
:103C54001CC002A806A900F5D05001F5C65A0CC82C
:103C640051460CC1028880780A80887005A801A991
:103C7400242200F5C55001F5CF510CF0D0FC05A865
:103C84000DF5CD513F2200F5C3500CF0C8FC04A83B
:103C940007A9A42200F5BE5001F5C7510CF074FC2D
:103CA40004A90DF54E6040F21F1201F5DA510CF033
:103CB4006BFC01A807A900F5C75001F5BD5990E8B0
:103CC4007C0049467CC102A800F5BD50FCF75EFEAD
:103CD400C0F30722C1B2022913463DF4E8AE0CF04A
:103CE4009CF83DF4E4AE0C9205A898E80E0000F5AB
:103CF400BC500EC002A8BAE8060000F5BC500CF097
:103D0400AAF801A805A900F5BB5001F5C5510CF0AE
:103D140086FC01A805A93F2200F5B95001F5C3515D
:103D24000CF07DFC04A90DF5B450A42201F5BE519C
:103D34000CF02AFC0DF5AB500DF54E6140F21F124C
:103D44000CF022FC03A899E83E0000F5AA503EC0FE
:103D5400CDF840B0FDF7B1BE0CF05FF83DF4A7AE6E
:103D640048EA09200DF5BD5240EA014006F47F41BE
:103D7400214441EA0541072541EA0A61C2E99E104E
:103D84003CE70E20FFF760BB00200DF5BD545FF843
:103D9400A02A01210DF54E63C4F8C0035FF8AC0AF4
:103DA400C4E9EE31C4E9EC21CDF8E40C0DF5AB50D7
:103DB400CDF8E00C07E05FF8C00A09F076FA5FF886
:103DC400C40A09F072FA04A85FF8CC1A00F5DA50B4
:103DD40008F064FB09F53661C9F8885BC9F88C0BF7
:103DE400C9F8901B2868002840F05A834FF0FF3030
:103DF400002105F1140405F10408286095F89C09D4
:103E0400012805D105F10C000AF09EF895F89C19DB
:103E1400D5F89409D5F89829904201D1C9070FD053
:103E2400411C0A1F18BF0A460021C5F8942985F8C9
:103E34009C194FF4187100FB01F2A65C152E08D1F1
:103E4400DBF80000D0E9001240460AF05DF81526C0
:103E540008E000FB014040F25F22411C0DF6A8700F
:103E64000CF0DDFB28680130152E286000F0F78186
:103E74000DF5EA600DF6A87140F25F220CF084FBA8
:103E8400162E00F043820DF54E640DF5EA6140F202
:103E94005F2220460CF078FB09F6F570214640F2CB
:103EA4005F2289F8F46F0CF0BAFB002009F6F47B6A
:103EB40009F6783A09F57F6889F8F00FC9F888ABF4
:103EC400C9F88CBB00200DF5BD510BF10405C1F8F8
:103ED400B007DFE816F01500FF00B700DC006C0047
:103EE40071018701DF00A70193008D0161006F005C
:103EF40079013A00D900370027018A01AA01320169
:103F040004A800210BF096FDC0B2102840F0B28244
:103F14009BF8041004A80CF06CF8C0B2102840F010
:103F2400A9820BF039FE40F0A5829BF805200BF026
:103F340036FD40F09F829BF8060060540BF0B8FCFD
:103F44000721E2E004A810213BE204A80E210BF0B3
:103F540071FDC0B2102840F08D829BF80400DFE8A8
:103F640010F01800F501E901EF01E001FB0107027F
:103F7400F2010D02E6011002DD01E3010402DA019F
:103F8400EC01D701F8010A022302FE010102130227
:103F9400260204A800210CE204A80B210BF04AFD20
:103FA400C0B2102840F0668204A8294635E104A86E
:103FB400042106E204A80C210BF03CFDC0B2102839
:103FC40040F05882DBF8041004A80BF05BFFC0B289
:103FD400102840F04F8204A80BF1080100F5DA50D4
:103FE40001F0F3F8C0B2102840F0448204A80BF1A9
:103FF400140100F5DA5001F0E8F8E4E104A809211D
:104004000BF018FDC0B2102840F03482DBF8041025
:1040140004A80BF037FFC0B2102840F02B8204A88C
:104024000BF1080100F5DA5001F0E2F8C0B21028F3
:1040340040F0208204A80BF5947100F5DA5001F0E9
:10404400D7F8C0E104A802210BF08BFDC0B2102800
:1040540040F010820BF0A0FD40F00C829BF804208D
:104064000BF09DFC40F006829BF8050060540BF0B9
:104074001FFC0021B1EB902F40F0FC819BF806104F
:1040840021540BF015FCA5E104A80F2199E104A823
:10409400032193E004A807210BF063FDC0B21028AC
:1040A40040F0E88100200021062900F01D810DF573
:1040B400BD52D2F8B027B0EB922F40F0DB816B5C9D
:1040C4000131A3540DF5BD53D3F8B0270132C3F821
:1040D400B027E9E704A801210BF0ACFCC0B210281A
:1040E40040F0C8819BF8041004A80BF082FFC0B212
:1040F400102840F0BF810BF0F3FE40F0BB819BF829
:10410400051021540BF0D4FB0621B0F5806F80F02C
:10411400B1811BF8011004AA02F5DA5211540BF014
:10412400C7FB53E104A811210BF084FCC0B2102892
:1041340040F0A0819BF8041042E104A814210BF084
:1041440010FDC0B2102840F095810BF025FD40F021
:1041540091819BF804200BF022FC40F08B819BF8AA
:1041640005005FF8602E60540DF5BD51D1F8B0071D
:104174000130C1F8B007622000218DF80405002049
:10418400CDF805050DF2045003F0E3F902460B46A1
:10419400204611461A4603F0C5FF002840F06A8104
:1041A40004A80BF10601622200F5DA5003F0BAFF0D
:1041B400002800F00B815DE104A8052100F5DA5028
:1041C4002A46FCF711F9FEE004A80D210BF032FC9D
:1041D400C0B2102840F04E81DBF8041004A80BF0A4
:1041E40051FEF0E004A80621EBE004A81221E8E067
:1041F40004A80A210BF01EFCC0B2102840F03A813A
:1042040004A8294600F5DA5000F0A4FFC0B2102833
:1042140040F0308104A80BF1440100F5DA5000F0BD
:1042240099FFD0E004A80821CBE004A813210BF0E7
:1042340001FCC0B2102840F01D8104A8294600F5F5
:10424400DA5000F073FFC0B2102840F0138104A8C4
:104254000BF10A0100F5DA5000F068FFB3E0D9F879
:104264008C0BDFF8181ED9F8904B03F045F9814602
:1042740090F830008A46012800F02981DBF80020FC
:10428400D9F8280009F10808D2E90046C1004246DD
:1042940049B11346083908325D68AE42F8D11B684B
:1042A4009C42F5D12BE004280CD10025C9F82850F4
:1042B400042D07D009EBC500D0E9021049688847EE
:1042C4000135F5E7216830468847D9F82820032AC4
:1042D40012D848F8320008EBC2004160D9F828002F
:1042E4000130C9F828000AE0BBF80A0004A901F566
:1042F400DA51FDF7A5F966E0002840F0BE80DAF84F
:1043040000000130CAF80000DDE912A9032042E1EF
:1043140004A810214DE004A80E214AE004A80B21B2
:1043240047E004A8042144E004A80C2141E004A8C7
:1043340009213EE004A802213BE004A80F2138E053
:1043440004A8032135E004A8072132E004A80121D0
:104354002FE004A811212CE004A8052129E004A8D9
:10436400142126E004A8152123E004A80D2120E04F
:1043740004A806211DE004A812211AE004A80821BB
:1043840017E004A80A2114E004A816210BF0E9FBA5
:10439400C0B210286ED10BF0A3FD6BD19BF80510B1
:1043A40021540BF085FA09E004A8132101E004A8C4
:1043B40017210BF03FFBC0B210285BD19BF806100D
:1043C40004A80BF037FBC0B2102853D10DF5BD5033
:1043D400D0F8B007B0F5806F4CD29BF85C2204A9EA
:1043E40001F5DA510A540DF5BD52D2F8B007013087
:1043F400C2F8B0070DF6A87040F20442841C0BF01A
:10440400E0FC0DF5EA60214640F204420BF02CFD7D
:1044140009F53964294640F204420BF0D2FCDAF87B
:1044240000004FF48071D9F8902F0BF0EBFB09F6E4
:10443400AD76C9F89C4FA9F8AD1F0121C9F8A80FA2
:10444400C9F8A02F89F8AC1FC9F8944FC9F8982F60
:10445400C9F8A40F0DF6A87521468388DFF8140C5B
:104464000090284603F080F895E80E0009F57B607B
:104474000EC03CE00BF0C6FB7EE0C26808469047E5
:1044840001210020CDF8AC1FDFF8F41B0BF092FBE8
:104494000DF6A870CDF8A81FDFF8E81B07F0FEFFA3
:1044A40000200DF5BD54DFF8C42B01210DF2045397
:1044B400C4F8C003DFF8B80BC4E9EE31C4E9EC2159
:1044C400CDF808050DF5AB50CDF804057BE4D9E92A
:1044D4000001DFF8B82BC4E900011321DAF8000069
:1044E4000130CAF80000DFF8A00B08F058FA09F50B
:1044F4007B6003F0ABFEB8B10022C9F8C00FC9F865
:10450400C41F89F8EC2FD9F8A42FC9F8BC2FDBF805
:10451400001009F6BC70FBF7DFFEC0B20228E6D03B
:10452400032827D1032031E099F8AC0F012821D1C9
:10453400D9F8A40F8188002900F0A480D9F8982F15
:10454400B2FBF1F303FB1121A1B900210122C9F847
:10455400B00F89F8E01FC9F8B42FC9F8B81FDBF809
:10456400001009F57B60FBF7B7FEC0B2022801D04A
:1045740003280AD0012030700120D9F87C5B89F827
:10458400F00FD9F8680BFFF725BC04200321307025
:10459400042088F800100B9989F8800B002918BFB3
:1045A400012141F290700B9109EB0006DAF8C00C7E
:1045B400DAF8C41C1196084340F0198209909AF85D
:1045C400F00CB0B1032836D19AF8000D0AF6F4487D
:1045D4000AF55065D0B3032858D19AF8FD0C0AF6B1
:1045E400F84B0AF6FD46D0B3032853D19AF8FC4C95
:1045F40054E0DAF8C80CDAF8CC1CDAF8D02CDAF883
:10460400D43CCAF8D80CDFF8940ACAF8DC1CCAF8FF
:10461400E02C0122CAF8E43C00F62401D1E8CF3FA3
:1046240003BBC1E8432F002BF8D10021CAF8E80CE2
:10463400CAF8EC1CA5E1354615F8240F48B1032847
:1046440000F08080DFF8480A08F02FFED8F8000058
:10465400A4E1DAF8F81CDAF8FC2C306A5DE0DBF847
:104664000000A4E10BF07DFBCDF8AC1FDFF8301A9D
:104674000BF0A0FA0DF6A870CDF8A81FDFF8241AE5
:1046840007F00CFFDFF8F00908F0FCFDDFF8080A7A
:1046940008F00BFEDFF8FC0908F007FE302C80F070
:1046A400FB821499DFF8040A096800EBC4000BF0DC
:1046B400DFFBE248202C04F01F0128BF00F5407006
:1046C40000EB8100D0F8000210F4403F40F08581F7
:1046D4000AF6FC4009F0E8F801245846347002F068
:1046E40029FE2C7098F80C00032803D108F104006B
:1046F40002F020FE119EDAF8E81CDAF8D80C002348
:1047040040F20922DDF850B0CAF8FC2C3546CAF84C
:10471400F81C05F8243F45F8040C9300CAF8001D62
:10472400002ACAF8043D00F0B182AD220A700021CB
:1047340030603176DAF8000DDAF8041DCAF8080D95
:10474400CAF80C1DDBF8001009F5955002F05EFD67
:10475400C0B2022800F03F81C00740F0A382DAF81B
:10476400041D0329C0F0B28200F0AA8201204FF494
:104774007A74B34E2870DAF8E80CDAF8EC1CDAF83C
:10478400E48CB0F813305BBA634301EB5311CAF8FD
:10479400EC1C1091C57D017C05F00F0343EA011167
:1047A40090F90F30DCB2002B41EA043248BF3243A7
:1047B40090F816B0817B0F920BF00F0343EA0111BE
:1047C40090F90D30DCB2002B41EA043148BF31438B
:1047D4000E91447D037B90F806E090F80AA0017ADC
:1047E4000D9104F00F0141EA031190F90B30DAB294
:1047F400002B41EA023248BF324390F909C090F9D4
:10480400073090F9050098F80110002900F0B980EC
:104814000C924FEA0A125FFA8CF1BCF1000F5FFAB6
:1048240080F9DEB242EA151242EA0131844A48BFF5
:10483400114398F800C0CDF8E81C00284FEA0E1187
:1048440041EA141141EA093148BF11430D98CDF8EA
:10485400E41C000140EA1B10002B40EA06300DF670
:10486400A87648BF1043DDF848E000224042CDF866
:10487400E00C0DF54E60032A14D006EB820100EB28
:10488400820300240125ED070AD00D191C4494ED80
:10489400000A0C24B8EEC00A85ED000A0025F2E7F0
:1048A4000132E8E704A832469FED660A00F5DA50C3
:1048B40092E83800014638C1DDF84C9000210C29FB
:1048C40008D04218043192ED001A21EE001A82ED4C
:1048D400001AF4E790E81C009FED5B0A31460020C3
:1048E4001CC10C2808D03118043091ED001A21EEB7
:1048F400001A81ED001AF4E70DF5EA6296E81A0051
:104904009FED521A9FED522A02F108001AC08DF849
:10491400ACC91098DEF8E01CCDF854070C208DF8D3
:1049240050070F9800EE100A0C98B8EEC00A03EE78
:10493400100A0E9880EE010AB8EEC33A404283EEA4
:10494400013A04EE100A0DF26C70B8EEC44A84EE1B
:10495400011A20EE020A80ED000A23EE023A00ED6D
:10496400013A21EE021A00ED021A0DF6A87000F0C9
:10497400FBFF9DF8A80F152803D0DFF8380708F0CF
:104984003EFDDDF848A000208AF8000DDAF8DC0CC2
:104994000AF550650AF6F448CAF8F40C0021CAF87E
:1049A400F80C0AF6FD460AF6F84BCAF8FC1C017826
:1049B400224A202901F01F0128BF02F5407202EBB0
:1049C4008101D1F8002242F44032C1F80022047877
:1049D4008AF8FC4C62E6042004E00320DDF850B0C1
:1049E4003070119E032129708AF8F00C0998002870
:1049F40018BF01200246D6E90A0108430DD0DDE9BB
:104A04000A010840104000F02A8348460AF5B664BB
:104A140001F0CAFA204601F0DBFA96F892030992F3
:104A240009F5BE58DFE810F0160057015F012401B4
:104A3400B801D8012F011102C60200BF002584501D
:104A44000000F0FF000000380AE81C416F128343A5
:104A540035FA8E3CD6E9E20106F55C74D6F8682393
:104A6400D6F8603396F86D9396F865B300250BC4B9
:104A740096F89103C6F87C23002196F86C431290B3
:104A840096F8900396F864630E90304600F060FC4C
:104A94002046002100F05CFC58463146002200F01C
:104AA400B3FDCDE90F1048462146002200F0ACFDCD
:104AB400CDE90C10AE490420012203230DF6A87998
:104AC400CDF8540701F54051CDF85017A9490A60B3
:104AD400C1F80055A8490B60DDF85017CA604A6058
:104AE400C1F81005DDF85467AE4217D00DF5EA6041
:104AF400294608F07BFF8346CDF8A80F48460C46AC
:104B0400CDF8AC1F08F0D8FF484608F0EDFF584632
:104B14002146002208F094FF0135E5E7DDF854173B
:104B2400DDF850070DF54E69DFF8AC55CDF8E41CFF
:104B3400012141600421C0F810150021C0F844117E
:104B44004FF40031C0F80413CDF8E00C48460021BE
:104B5400A847044607900E46089148460121A847F5
:104B6400CDF8AC1FCDF8A80F20463146022208F03C
:104B740067FFDDF8A84FDDF8AC5F41F288322046CC
:104B8400294608F05DFF0DF6A87008F07DFFDDF8FA
:104B940034B077490BF03F00894601EB8000294689
:104BA40000F13006204608F05DFF109D0246009695
:104BB4004E460E9905F03F0009EB8000DDF84C905D
:104BC40000F1300309F5D65000F07CFBDDE9070164
:104BD40008F048FF6021024641EA8B0041EA850162
:104BE40056FA80F056FA81F31299009041F6D020DB
:104BF400484400F067FB119E0020DDF8E41C86F8B1
:104C04005C030C9886F8585306F55474DFF8C854BE
:104C140086F85AB386F85B030F9886F85903DDF8D3
:104C2400E00CC6E9D40120460021A84700F0DAFCD4
:104C340020460121A84700F0D5FC96F83C03012248
:104C44004E490BF050FA086096F84C030BF04BFAFF
:104C540008604B484FF480310160D6F85003C260BD
:104C6400D6F85003026086F85C23DDF850B03BE0D0
:104C740096F8A00306F5687B002844D003282ED1BB
:104C8400D6F89C5344E0D6F89803C2E0DFF8382401
:104C94000020002107F0E4FBDFF80C24204630213B
:104CA40007F0DEFB0120DFF81C340DF5AB522B219D
:104CB4002870DFF808040090DFF8040408F057F9BE
:104CC400DFF8F4230320032107F0CAFBDFF8E02315
:104CD400022007F0C5FBDFF8FC0308F0E6FADFF872
:104CE400F00308F0E2FAFEDED6F8740340790028F7
:104CF40000F05481002006F5687B86F8A00309F5CE
:104D0400D650C6F89803D84800F14405C6F89C5319
:104D1400EFF3108172B6D5E900090022AC68CE0722
:104D24002A60022840F0528106B962B60120119E21
:104D34000DF6A8718BF80000DDE9139B0020B2F595
:104D4400807F06D08B1888501032C3E90100D860E8
:104D5400F5E700250DF6A874B5F5007F12D008EB31
:104D6400050021460BF0A7F805F58075F4E700BFB0
:104D740000D0005004000150080501500475015092
:104D840000E100E009F5CE504FF480710BF04DFCCA
:104D9400D6F87803C6F89803DBF80010D6F8980321
:104DA40003F0A2F9002800F02F8106F56675C6F815
:104DB40080030DF5EA6604460DF6A8714FF4AC6263
:104DC40030460BF0CBF931462846119E4FF4AC62C5
:104DD4000BF0C4F90AF0A6FEDBF8001006F56670C5
:104DE40002F0F8FFC4B2022C00F00C81D6F8800364
:104DF40002F008FBE00740F0F5800DF6A8740BF014
:104E0400F3F8404621460BF056F8D6F87C03C6F872
:104E14009803DBF8001003F067F9002800F0F08035
:104E24000DF5EA650446C6F884030DF6A8714FF43F
:104E3400AC620BF03AF941F6283029464FF4AC62E3
:104E440048440BF08BF90AF06DFE41F62830DBF88C
:104E54000010484402F0BEFFC4B2022C00F0CE8021
:104E6400D6F8840302F0CEFAE00740F0BB800DF6DA
:104E7400A8740BF0B9F809F5C65B21464FF48072AB
:104E840058460BF06BF9D6F874030DF6A874414636
:104E94004FF480720079129020460BF05FF90026DF
:104EA40040F6FF750DF5EA69102E11D0626860882E
:104EB4000BF036F808BFA94203D0844A10400843D7
:104EC40001E003F05DF949F8260010340136EBE700
:104ED4000DF204500DF5EA6140220BF0A0FB0DF633
:104EE400A87659464FF4807230460BF037F9DDF856
:104EF40050B0002440F6FF750DF54E69102C13D008
:104F0400726870880BF00CF808BFA94205D06F4A8C
:104F1400694010400843504001E003F031F949F87A
:104F2400240010360134E9E70DF5EA640DF54E610D
:104F3400402204F140000BF072FB0DF204512046B4
:104F440040220BF06CFB0DF6A87521468022E81C6C
:104F54000BF065FB0A200DF58051832281F8500B7C
:104F640004A8294600F5DA54601C0BF058FB12988B
:104F7400119E0DF58051224681F8AC0DD6F87013C0
:104F84000DF6A87000F0F0FC9DF8A80F152802D0CB
:104F9400524808F034FADDF84C90A5E608F0E2FB3C
:104FA400002286F8A02340F26762801841F10001D4
:104FB400C6E9E60141F62830DBF80010484409F060
:104FC40015F800283FF490AE082046E0F0B9149894
:104FD4000068D0E9001009688847CDF8B01FCDF803
:104FE400AC0F2FE009F5D65002F058FA099A0120C7
:104FF400002186F89203C6E90A0100E507202CE0A7
:1050040006202AE0052028E0042026E01498006801
:10501400D0E90010844208BF89450FD00968884749
:10502400CDF8AC0F0120CDF8B01F0DF6A8710AF031
:10503400E5FFD9F804102046884708E0CDF8B04FC2
:10504400CDF8AC9F01200DF6A8710AF0D7FF06B980
:1050540062B60320119E8BF8000086F892030DF5CA
:10506400FA5D07B00AF0EFBE0C3D0020CC1E010033
:10507400197600006C1F01008C1F0100181A010032
:10508400241F01002C1F0100542501006825010084
:1050940034240100481B0100581B0100500000206B
:1050A4006C1E0100741E0100C82E0100083B002084
:1050B400442401001100000054240100782501005B
:1050C400A033010010200100242401000000FF0F80
:1050D400C424010088250100F1D900001200000059
:1050E400F0B503AF4DF804BD0D46044600F05AF880
:1050F400C1B210290FD124350026142E0AD0A819C4
:1051040090ED000A2046FCF78CFAC1B2043610294F
:10511400F3D000E010200AF084BE80B56F4603F09F
:105124006BF8C0B2102818BF022080BDF0B503AFE1
:105134004DF804BD0C4605460026062E07D0A05B9C
:105144000AF0E5FFC1B202361029F6D000E01020C3
:105154000AF067BEF0B503AF4DF8048D0C46054662
:105164004FF00008B8F1400F0ED008F104080026F3
:10517400042E07D0A05B0AF0CAFFC1B20236102980
:10518400F6D002E00434EDE710205DF8048BF0BDA6
:1051940080B56F46C9B203F02FF8C0B2102818BF0B
:1051A400022080BDF0B503AF4DF804BD0C460546A2
:1051B4000026242E06D00AF071FEC1B2043610294E
:1051C400F7D000E010200AF02CBEF0B503AF4DF884
:1051D40004BD0C46054600260C2E06D00AF05EFEE1
:1051E400C1B204361029F7D000E010200AF019BE2D
:1051F400F0B503AF2DE9000B884605464FF00009D2
:105204000024B4F5907F4FD038F804000AF07FFFF3
:10521400C1B2102945D108EB040629467088FCF771
:105224000FFAC1B210293CD1B0880AF070FFC1B2A4
:10523400102936D1D5F80004B9EB902F30D1B179CB
:105244000AF086FA2CD1F1790AF082FA28D1317A5F
:105254000AF07EFA24D1717A0AF07AFA20D1B17A6E
:105264000AF076FA1CD1F17A0AF072FA18D1317B7D
:105274000AF06EFA14D1717B0AF06AFA10D1B17B8C
:105284000AF066FA0CD1F17B0AF062FA08D1317C9B
:1052940012342954D5F800040130C5F80004B0E7ED
:1052A4000220BDE8000BF0BD1020FAE7DCB504AF26
:1052B40014460A460093411C0020234608F044FF8C
:1052C400DCBDD4D4F0B503AF4DF8048D8AB0D7F863
:1052D40008C04FF4000488460226EE4664F31F28F3
:1052E400CDE9023C042E08D05EF82640D4F8805064
:1052F40075B9C4F880800136F4E7D2F88040A4B9C7
:105304000173C2F8808080E80C100AB00AF032BD44
:105314000121002005910A49089007900420069075
:105324000491084904A807F0B9F801210020059167
:105334000549089007900420069004910349F1E779
:10534400701A0100781A0100401A0100481A01007D
:10535400B0B502AF0F4AC4B24FF44375202C4FF4DA
:10536400427402F540733CBF42F20053C5F2840319
:1053740038BF082438BF0C25002900F01F0118BFCE
:10538400254601248C4043EA8101AC500322C1F834
:105394000022B0BD00258450F0B503AF2DE9C00B49
:1053A400044690F828000D46DFE800F0034E511043
:1053B4003E00002004F12C0C84F8900094E84F0087
:1053C400ACE84F0004F1140CACE84F000AF0EEFD19
:1053D400C0B2022802D10220032130E0C0074FF0FE
:1053E400000629D004F194084FF4806140460BF084
:1053F40074F8606A174B41464FF48062FBF708F972
:1054040081461548D4E9082388460090484608F0A8
:10541400ADFE04F1140204F12C0384F89060C4F886
:105424003C8007CA83E807020AF0C0FDC6B2022E18
:1054340002D10220042102E006F00100012184F8D7
:105444002810BDE80C0BF0BD014807F02EFFFEDE6E
:10545400B81A0100C81A0100D81A0100F0B503AF48
:105464002DE9800F814690F86400884650B10328E6
:105474003FD14E4616F8600F90B303283CD1D9F8BB
:105484005C0090E0D9F81020D9E90004D9E90213AE
:10549400C9E90504C9E90713C9F824204AB1012060
:1054A400B3F1005FC0F08F8013441B0F022B00F296
:1054B4008A8001204FF6FE7489F8380000208A4261
:1054C40088BF11464FF6FF72B1FBF2F2A2EB024322
:1054D400CB4218BF0132C9E90A10C9E90C240EE015
:1054E40009F1440ED9E90FC5D9E914149EE808441A
:1054F4002AE03B4807F0D9FE384807F0D6FE0020E2
:10550400002A60D04E4606F8600F501E56F8341C30
:1055140046F8300CA6F1440E56E913C59EE808443B
:1055240060184FF6FF74013046F8340C56F8380C06
:10553400401AA04238BF0446A6F11C0046E909C53A
:1055440046E9041480E808445A1A4FF0000B9442C8
:1055540038BF22468B42634688BF0D4453F8040F7C
:10556400C0F834554FF0000588BF95B2AEEB010288
:10557400C0F83855944238BF22468E4588BF8A44C5
:105584004FF00001C0F844A588BF91B2C0F8481597
:10559400C0F818B14021C0F8041301210161DCF8FE
:1055A4000000C9E91630D8E9001208F0DAFCD9F88D
:1055B40058000068D0F8180138B10120D9E90C244A
:1055C40089F860009BE7012102E003210220317089
:1055D40089F86410BDE8080FF0BD00BF081B010086
:1055E400F81A010006283FBF01EB80000021C0F833
:1055F4004011704780B56F460148024A0AF055FBD6
:105604000C2E0100482E0100B0B502AFC3B2082B26
:1056140021D2154BD2B2CCB201F01F05202C53F885
:105624002220124B03F540733CBF42F20453C5F2EF
:1056340084031B68EB40DB070D4B08BF03231A43AD
:105644001F2C88BF42F400520A4C830042EA052210
:10565400DBB21A51B0BD0248024A0AF026FB00BF71
:10566400A02D0100682E0100F028010004258450BB
:105674000300100010D50050F0B503AF2DE9800FE2
:105684008046407A0D46DFE810F00500FF0008016F
:1056940049002B00D8F8040098F80810C8F8000056
:1056A400DFE801F003BD4C5B4700022180F8A01045
:1056B4000021D8F8000080F89C10D8F8000080F889
:1056C4009D10D8F8000080F8A1100AF061F9002DAF
:1056D40000F0B280F4E8020109698847083DF6E762
:1056E40098F81000C00740F0D280D8F80C00006889
:1056F4000021C0F80015012088F81000D8F8000037
:1057040080F8A0100AF044F9002D00F0B680F4E807
:105714000201CA6800219047083DF5E7464616F89D
:10572400180FDFE800F003B7BA305300D8F80C00C4
:105734001AE02C300021C8E90301D8E7002180F8E1
:105744009C100AF025F9002D00F09780F4E802017E
:10575400CA6900219047083DF5E7002146462C30F0
:1057640006F8181F46F80C0CC8F810004146012230
:10577400006841F8140FC0F800254FF4800208684F
:10578400C0F8042389604848D5E900121C3008F0A9
:10579400E8FBD8F81C000068D0F80004000501D428
:1057A400032021E0D8F814004FF40061C0F800147D
:1057B4003E484FF4800101603D49D8F81400C0F818
:1057C4000413D8F810000530C8F81C003648D5E991
:1057D4000012143008F0C5FB36480168890707D465
:1057E4000068C00709D0042030700120032146E07E
:1057F400D8F814000121C0F804150120022188F80A
:105804001800D8F8000080F8A0100AF0C1F8A5B379
:10581400F4E80201CA6801219047083DF7E7012135
:1058240080F89C100AF0B4F83DB3F4E80201CA69A8
:1058340001219047083DF7E7D8F800004FF0000930
:105844000025816D00F1500B0BEB410AD34514D0B8
:105854008BF80090D8F8000000F15C04C06FC6001B
:105864003EB1F4E8020100224B6A29469847083EFB
:10587400F6E701350BF1020BE8E70020012188F877
:105884000910BDE8080FF0BD064807F00EFD0348F7
:1058940007F00BFD024807F008FDFEDEE0200100E2
:1058A400D0200100681B01000C3D002004E100E051
:1058B4000100400100740350D0B502AF86B0044625
:1058C40024300122D0E8CF3F4BB9C0E8432F002B4E
:1058D400F8D120460AF042FA204606B0D0BD0AF0BC
:1058E40040FA019103490AF0A4F96846009102497B
:1058F40006F0D4FD181E0100201E0100FEB506AFFF
:1059040000F580710122D1E8CF3F2BB9C1E8432FC4
:10591400002BF8D106B080BD0AF023FA01910449A6
:105924000AF087F968460091024906F0B7FD00BF06
:105934006C1E0100741E0100B0B502AF0D4609498A
:105944000446284601F0D8FDC36A0022032B04D87C
:105954000133C362C4E900222A46A2600868013008
:105964000860B0BD941E0100B0B502AFADF5227D54
:1059740005460C469891114668464FF418720AF091
:1059840003FE206870B94FF0FF30211D6A460023E2
:105994002060284600F01EF82068013020600DF5D4
:1059A400227DB0BD002008499D90012099919A90D4
:1059B4009C909FA806499B900448A090A7F10900D9
:1059C4009F9099A806F06AFDCC1E0100197600008C
:1059D400D41E0100F0B503AF4DF8048D804691F854
:1059E400980916460D4698B116F8014B152C2AD085
:1059F40033B11868D0E9001205F1080008F084FA00
:105A040008F10100314640F25F220AF008FE1EE070
:105A1400D5F894094FF418714FF4187200FB015033
:105A2400314610300AF0B0FDD5F89419D5F8900934
:105A340001310A1F18BF0A46C5F89429904204BFD1
:105A4400012085F89809284608F07EFA152488F87C
:105A540000400AF08FB9D4D4F0B503AF2DE90007A4
:105A64000446407F8946DFE810F00A007E008D007E
:105A74003F0031004C002200C000DF006401A26935
:105A8400D4E902014FF44173226101EB8101127BDD
:105A940000EB8101202A38BF042302F01F020126F3
:105AA40006FA02F2BA4E9A51C4E900016BE094F886
:105AB400A400A0B3032859D194F8A000002840D032
:105AC400032800F0FC80A94807F0EFFB94F8D00409
:105AD40048B303284DD194F8CC04B0B3032800F0A4
