:100000000000042055010000390800008F0D000099
:1000100039080000390800003908000039080000DC
:10002000000000000000000000000000390800008F
:1000300039080000000000003908000039080000FD
:1000400039080000390800000000000039080000ED
:10005000000000003908000000000000000000005F
:10006000390800003908000039080000390800008C
:10007000390800003908000039080000390800007C
:1000800039080000390800000000000000000000EE
:1000900039080000390800000000000000000000DE
:1000A000390800003908000039080000390800004C
:1000B000390800003908000039080000390800003C
:1000C000390800003908000039080000390800002C
:1000D000390800000000000039080000000000009E
:1000E000390800000000000039080000390800004D
:1000F000000000003908000000000000390800007E
:1001000000000000000000000000000039080000AE
:10011000390800000000000039080000390800001C
:10012000000000003908000000000000000000008E
:1001300000000000000000000000000000000000BF
:1001400000000000000000000000000000000000AF
:04015000390800006A
:1001540000F08FFB0E480F490022814201D004C0F9
:10016400FBE70D480D490E4A814202D008CA08C077
:10017400FAE70C484FF47001026842EA0102026097
:10018400BFF34F8FBFF36F8F00F031FB00DE000031
:1001940000000020040000200000002000000020D7
:1001A400640E000088ED00E0D0B502AF0023002407
:1001B400042C02D013550134FAE7082303EB810120
:1001C4001830042300F048F9C1B201208843032900
:1001D40008BF0420D0BDF0B503AF2DE9000701F13D
:1001E400180681460C6A042130460423154600F0A3
:1001F40077F9C1B2032928D1201F6FF0010101EB67
:1002040090080020042806D0295C0130FF29F9D089
:10021400C9F8048021E000244FF0080A4445F7D0CF
:100224000AEB840130462A46042300F059F9C1B28E
:1002340003290AD1601C0021042904D06A5C01311D
:10024400FF2AF9D107E00446E8E7012020EA01018A
:1002540089F8011002E0C9F80440002089F8000080
:10026400BDE80007F0BDF0B503AF2DE9C007BC68D9
:10027400814616468846684600F03AFC9DF8000020
:1002840010B19DF8010021E00198404501D90420F6
:100294001CE009F10C0A05F580522946504600F08D
:1002A40091F8C0B203280ED10021C80711D14846E5
:1002B40000F00AFCC0B2032805D1504600F00AFC45
:1002C40000F00EFCF1D0012121EA0000BDE80C078A
:1002D400F0BD48464146224602B0BDE80007BDE8ED
:1002E400F040FFF761BFF0B503AF2DE9C007BC686C
:1002F400814616468846684600F0FAFB9DF80000E1
:1003040010B19DF8010021E00198404501D9042075
:100314001CE005F580524846294600F053F8C0B267
:10032400032810D109F10C0A0021C80711D1504645
:1003340000F0CAFBC0B2032805D1484600F0CAFB4E
:1003440000F0CEFBF1D0012121EA0000BDE80C074A
:10035400F0BD48464146224602B0BDE80007BDE86C
:10036400F040FFF721BFD4D4F0B503AF4DF8048DAE
:10037400154606460C4A98460C480D4C831A3046DE
:10038400A0470C4A29460C48831A06F10C00A047E2
:100394000A4A41460A48A446831A06F118005DF841
:1003A400048BBDE8F040604700700000007004005A
:1003B4007107000000600400007008000060000085
:1003C40000700000F0B503AF2DE9000B044680680F
:1003D400904201D2022013E0206816460D4600F038
:1003E400CFF96068884681194419A14202D3B1F556
:1003F400801F08D90020D8F800100131C8F8001077
:10040400BDE8000BF0BD41EA040000054FF0010017
:10041400F1D1104B0222091B1A6038BF00210A05D2
:1004240099464FEA113218BF00EB1132564200F0E0
:1004340021FA4FF0FF3536B1256004F5805400F001
:1004440019FA0136F7E70020C9F8000000F012FAA3
:100454000320D0E704950350F0B503AF2DE9000B5A
:1004640006460C465818B168884201D9022032E089
:1004740030689946154600F083F97068884604444C
:1004840004EB0900B0F5801F01D900201EE044EA06
:10049400090080074FF0010018D1104EC6F8FC0087
:1004A40000F0E8F94FEA99000021814208D055F89C
:1004B400212044F821203268D207FCD00131F4E72E
:1004C4000020C6F8FC0000F0D5F90320D8F800108D
:1004D4000131C8F80010BDE8000BF0BD08940350CA
:1004E400F0B503AF2DE9000B04460E465818A16879
:1004F400884201D902201BE020681D46904600F086
:100504003FF96068894681190020B0EB115F0AD178
:100514004819B0F5801F01D9002004E040462A465E
:1005240000F04EFB0320D9F800100131C9F8001087
:10053400BDE8000BF0BDD4D480B56F460549002258
:10054400C1F84822BFF34F8FBFF36F8F086000F0EC
:100554003DF900BF08ED00E0F0B503AF2DE9000F51
:10056400ADF5835D87B06C466FF30404A54602A91C
:10057400044608A801F581584FF4805100F0BDFAF3
:1005840004F10C000DF5815101F10C0204F1180C79
:1005940090E8680001F1180068C202469CE868000F
:1005A40068C294E82C002CC1D8F8006031466FF37F
:1005B4001F31C8F81C10002940F0C180D8F80C2065
:1005C40011466FF31F31C8F81C10002940F0B780A2
:1005D400921B0021B1EB123F00F0BC80D8F8182028
:1005E400022101EBD621B1EB920F00F2B780059204
:1005F40008AC0021042322460690FFF771FFC0B225
:1006040003286AD1F50A0020042804D0215C0130B3
:10061400F029F9D08DE002A80DF1200B00F58250ED
:100624000DF581515A46FFF7D6FD0DF5805090F82F
:100634004800012851D0D8F82410300BA94223D205
:10064400022101EB40090DF5815803030025AE1C7E
:10065400B1456ED0A3F5805440462946CDF800B08C
:100664002246FFF700FEC0B2042836D1691C40467A
:1006740022462346CDF800B0FFF735FEC0B223462C
:1006840004283546E3D028E0022101EB400840006D
:100694000DF5815A07900024002000F10209C84595
:1006A4001DD0079922462346CDF800B00D185046B8
:1006B4002946FFF7D8FDC0B204280ED104F58056B0
:1006C400691C504623463246CDF800B0FFF70BFEB6
:1006D400C0B2344604284846DFD000F0BBF8069880
:1006E40000220021042903D00BF801200131F9E78D
:1006F40008AC042104232246FFF7AEFEC0B203284F
:10070400EBD106980021059AFFF75CFEC0B20328DE
:10071400E3D106980022C021042A02D0A154013258
:10072400FAE708AA00210423FFF796FEC0B20328C3
:10073400D3D1A7F11C04A546BDE8000FF0BD0020ED
:10074400C8F8200001A802A900F5825001F58251E1
:1007540000F022F803484F2100F07EF802487A2185
:1007640000F07AF8980D0000E70D0000D0B502AF54
:10077400140503D11C0504BF0EC0D0BD00F06AF8F7
:100784000146006820B94FF0FF32084604C07047A4
:1007940080B56F4600F068F8E0B502AF0A4601A9DB
:1007A400684600F05DF8D4D40648BFF34F8F064A7C
:1007B400016801F4E06111430160BFF34F8F00BF92
:1007C400FDE700BF0CED00E00400FA05016800221B
:1007D4004068022340F00100EFF314829A4382F34D
:1007E4001488BFF36F8F81F308880047FEDE80B55D
:1007F4006F4600F001F8D4D480B56F468CB00C4835
:100804000024019068468DF80840009400F03AF8FE
:10081400009403AC694620460A460B46FFF7A4FD44
:100824002046049DFFF798FE2846FFF785FE00BF8B
:100834000600001B80B56F460148006800F002F80E
:1008440004ED00E080B56F460148006800F002F84E
:1008540004ED00E000DEFEDE80B56F46FFF7FAFF30
:1008640080B56F46FFF7F6FF80B56F46FFF7F2FFDE
:10087400FEE7704702480168C907FCD0704700BF13
:1008840000940350F0B503AF2DE9000B6C49044606
:10089400EFF3108072B60A78012A00F0CE800122AC
:1008A400C0070A7000D162B66079664EA0B1012813
:1008B4002FD13046002100F0DBF8C0B20021B0FA9D
:1008C40080F0450906F11C0000F0D2F8C0B2B0FA7D
:1008D40080F0400905431DE0B0465B4E404631467A
:1008E40000F0C6F80546594831460660814608F1CD
:1008F4001C0000F0BDF8E9B2C0B2B1FA81F1B0FA5F
:1009040080F0C9F8086046464909400941EA0005F3
:1009140000E0002506F128000121012200F0ACF8D6
:10092400C0B22179B0FA80F040090543062952D1BA
:10093400002D5BD1E179464E1B2917D0454A136837
:10094400DD0603F01F0348BF03F5FC631268383368
:100954004FF4F87505EA520203FB0121082201F560
:10096400F461890962F35F1146F8FC1CA17901B1B5
:1009740031612278384952B100220123C1F8F420B0
:100984004FF050221360D1F8F420002AFBD0334AF0
:100994003348344B15688446B5F1FF3F11DC00251C
:1009A400C1F8F85003251D600125CCF80050D1F89A
:1009B400F8000028FBD00020C1F8F80001200860EE
:1009C40018603246267A0125DFE806F01A0314146B
:1009D4001200032514E006F11000072200F04CF881
:1009E400C0B2B0FA80F040092843A3D0FFF7DCFE80
:1009F400012010601C484FF04055056045600225F9
:100A040000201D60C1F8F8000120CCF80000D1F8E6
:100A1400F8000028FBD0607818B1144801214CF884
:100A24000010A07808B101205064E07810B10120D2
:100A3400C2F84402BDE8000BF0BDFFF70BFF00BF96
:100A4400000000200080FF00FA50FA504465005076
:100A5400C0460050200CFF000C50005020240350CE
:100A6400085000501855005000278450F8FAFFFF32
:100A74004FF0FF3200F000B8B0B502AF046802EAEC
:100A8400010304EA02059D4201D10120B0BD1C40CE
:100A94009C4214D10B4B0124C3F804411C68E407A5
:100AA400FCD061EA020101601868C007FCD0002094
:100AB400C3F804011868C007FCD00020B0BD0220B0
:100AC400B0BD00BF00940350314622464FF480531A
:100AD400FFF706BD294622464FF48053FFF7BCBCFE
:100AE400C0B2012105F5805506F5805603287047EC
:100AF400494622461D46FFF76EBB80B56F46042962
:100B040014D3A1F1040C012202EB9C0212F00303A2
:100B14000ED04FF0000E024642F804EB012B0BD12D
:100B240010466146BCF10C0F19D222E0024620E0C7
:100B3400BCF10C0F13D21CE0022BC0F804E006D168
:100B4400083908300246BCF10C0F08D211E000222B
:100B54000C3982600C300246BCF10C0F09D300231F
:100B640002461039C2E90033C2E9023310320329C4
:100B7400F7D85018824222D211F0030CA1F10101DE
:100B84000ED04FF0000E134603F801EBBCF1010F39
:100B94000BD0BCF1020F82F801E003D1931C04E0F6
:100BA400134602E000239370D31C032938BF80BD91
:100BB400191F002241F8042F0B1D8342FAD180BD76
:100BC40000F000B8F0B503AF2DE90007102A1ED3DA
:100BD400434203F0030800EB0803834233D9A8F12E
:100BE400010CB8F1000F06460D461AD00D46064614
:100BF40015F801EBB8F1010F06F801EB11D04E78AE
:100C0400B8F1020F467008D18D1C861C09E0844699
:100C14000CEB02039C453ED36AE08E78CD1C8670B3
:100C2400C61CBCF1030F0ED3043D043E15F8044F5B
:100C340006F8044F6C787470AC78B470EC78F47087
:100C4400341D9C42F2D1A2EB080E41442EF0030263
:100C540003EB020C8C0758D1634515D20C4625686A
:100C640043F8045B63450FD2656843F8045B63454E
:100C74003EBFA56843F8045B634505D2E5681034BC
:100C840043F8045B6345EAD311440EF003020CEB12
:100C940002039C452CD212F00304A2F1010E13D0DE
:100CA4000E46654616F8012B012C05F8012B0DD0D4
:100CB4004A78022C8CF801201DD18E1C0CF10205FF
:100CC400BEF1030F05D213E065460E46BEF1030FD5
:100CD4000ED3311F2A1F11F8046F02F8046F4E78E7
:100CE40056708E789670CE78D670161D9E42F2D1CC
:100CF400BDE80007F0BDCE1C0CF103058A788CF822
:100D04000220BEF1030FE4D2F2E76345BCD21824FB
:100D140021F0030604EAC108CC00C4F100093468D8
:100D240006F1080509F0180955F8046C24FA08FAC4
:100D340006FA09F444EA0A0443F8044B6345A3D2CF
:100D44002C6826FA08FA04FA09F646EA0A0643F871
:100D5400046B63453FBF6E6824FA08FA06FA09F487
:100D640044EA0A043CBF43F8044B6345BFF48CAF28
:100D7400AC6826FA08FA103504FA09F646EA0A06B7
:100D840043F8046B6345CFD37EE780B56F46FFF726
:040D94000BFDFEE76E
:100D9800617373657274696F6E206661696C6564EE
:100DA8003A206466752E63617061636974792829D5
:100DB80020617320753332202D2061637469766554
:100DC8002E636170616369747928292061732075C5
:100DD8003332203E3D20706167655F73697A6561D3
:100DE8007373657274696F6E206661696C65643AC5
:100DF8002032202B2032202A2028616374697665EE
:100E08002E63617061636974792829206173207584
:100E18003332202F20706167655F73697A652920F6
:100E28003C3D0A2020202073746174652E63617034
:100E38006163697479282920617320753332202F02
:100E48002053544154453A3A57524954455F5349FF
:0C0E58005A452061732075333200000001
:0400000300000155A3
:00000001FF
